:0400000047EF00F0D6
:0600080014828AEF00F0F3
:100018001480D8CF03F0E8CF04F0E0CF05F0FACF92
:1000280006F0FBCF07F0F0A81CEF00F01EEF00F081
:100038002AEF00F0F0A223EF00F025EF00F02AEFFE
:1000480000F03FEC01F0897C3BEF00F0F0A62FEFC9
:1000580000F031EF00F03BEF00F0F0A036EF00F0D9
:1000680038EF00F03BEF00F043EC01F0897E07C069
:10007800FBFF06C0FAFF05C0E0FF04C0E8FF03C0AD
:10008800D8FF1490100024EF01F0000E8D6E000EC2
:100098008C6E000E896E000E8A6E000E8B6EC70E77
:1000A800966E2F0E926E9368FB0E946E95680F0EE7
:1000B8000F01486F1D0E496FF19E968E968C000EAB
:1000C800426F000E416F000E406F050E0E01E26F89
:1000D800040EE16F1200D59CEC0ED76E290ED66E79
:1000E800D650D7CF0AF00B6A0AC00BF00A6A0A107A
:1000F800106E0B50116EF294F28A920E086E020E78
:10010800096E2BEC01F0970ED56E1200FACF01F0B4
:10011800FBCF02F0F2AA93EF00F095EF00F09FEF0B
:1001280000F0F2A49AEF00F09CEF00F09FEF00F0CF
:100138001CEC01F08B7402C0FBFF01C0FAFF1492A3
:1001480011000C500D10D8B4ACEF00F0AEEF00F079
:10015800BBEF00F002D8BBEF00F00500FA6E0C50C0
:10016800FD6E0D50FE6EF850FF6EFA501200120030
:100178000E500F10D8B4C3EF00F0C5EF00F0D2EF67
:1001880000F002D8D2EF00F00500FA6E0E50FD6EB6
:100198000F50FE6EF850FF6EFA5012001200125007
:1001A8001310D8B4DAEF00F0DCEF00F0E9EF00F05C
:1001B80002D8E9EF00F00500FA6E1250FD6E1350F8
:1001C800FE6EF850FF6EFA5012001200F090F19A8D
:1001D800900E086E020E096E3AEC01F0F086F0926D
:1001E800F1988E0E086E020E096E35EC01F0F0885B
:1001F800120012EC01F030EC01F049EC00F0EAECEE
:1002080000F06FEC00F01200FDEC00F0F28EF28CC2
:1002180000F000F00CEF01F047EF00F0600ED36E35
:10022800000E9B6E000E0F013D6F140E876E1200BC
:10023800F2941150D76E10C0D6FFD3EC00F0120024
:1002480014901492000EF86E000108EF01F008C037
:1002580012F009C013F01200D08EF184F09EF09CC9
:10026800120008C00CF009C00DF0120008C00EF012
:1002780009C00FF01200F092A5EC00F01200F09007
:0C028800BCEC00F012001200120012008A
:08FFF8009CF4D2FAFFFFBFF3F5
:00000001FF
