:020000040000FA
:06000000A5EF6BF01200F9
:020006000400F4
:060008002EEF40F0120093
:02000E001200DE
:020010001200DC
:03001200FF0000EC
:060018002EEF40F0120083
:02001E0030317F
:0E002000323334353637383941424344454691
:02002E000001CF
:0E00300002030405060708090A0B0C0D0E0F4B
:02003E000500BB
:10004000CFD70000B603000012000000CBD700009D
:10005000F90200000400000012000000FD02000090
:1000600003000000BED70000B20E00000D0000002B
:0C00700031B20000BF0E000001000000D3
:04007C00000012006E
:10008000D9CFE6FFE1CFD9FF090EE126D6CF07F0A1
:10009000FE0EDBCF0CF0C1EC6BF00350DF6EDF50D7
:1000A000000846E2DF0673EC69F0010E04C0DBFFD6
:1000B000020E05C0DBFF030E06C0DBFF040E07C007
:1000C000DBFF73EC69F0050E04C0DBFF060E05C014
:1000D000DBFF070E06C0DBFF080E07C0DBFF050EC7
:1000E000DBCF18F0060EDBCF19F0070EDBCF1AF0CE
:1000F000080EDBCF1BF0D950010FE96EDACFEAFF13
:10010000EE50185C146EEE501958156EEE501A58D9
:10011000166EEE501B58176ED8803E0E1454000E0B
:100120001554000E1654000E175401E2B8D7C9D763
:10013000090EE15C02E2E16AE552E16EE552E7CFC9
:10014000D9FF1200D9CFE6FFE1CFD9FF220EE12679
:10015000C3EC35F0000902E178EF0EF0010163A570
:1001600002D022EF10F0016B9E51040B01E0010E52
:10017000030BF36EFC0E0115F310016F9E510197F6
:10018000080B01E001879E51030B010802E1010EFB
:1001900001D0000E019BE8B0018B9E51019D800BA8
:1001A00001E0018D9EAF08D0A651019FE8B0018FFC
:1001B0009FC104F1A0C105F1A7C102F1A8C103F1DB
:1001C000A5C10AF1A4C109F163959E51030B010A6F
:1001D00002E128EF09F0020A02E17FEF07F0030ACB
:1001E00002E073EF0EF00A0EA35D02E273EF0EF071
:1001F000020EEA6AA125E96EA251EA22090EEFCFAA
:10020000DBFF030EEA6AA125E96EA251EA220A0E7B
:10021000EFCFDBFF040EEA6AA125E96EA251EA22C4
:100220000F0EEFCFDBFF050EEA6AA125E96EA251A2
:10023000EA22100EEFCFDBFF060EEA6AA125E96E77
:10024000A251EA220B0EEFCFDBFF070EEA6AA125CF
:10025000E96EA251EA220C0EEFCFDBFF080EEA6A2C
:10026000A125E96EA251EA220D0EEFCFDBFF090EA8
:10027000EA6AA125E96EA251EA220E0EEFCFDBFF5A
:10028000016B9E510197080B01E001870151030B9F
:1002900000090CE1D9500F0FE96EDACFEAFFFF0E2B
:1002A000EE1802E1FF0EED1801E07FD10D0EDBCF5D
:1002B00014F00E0EDBCF15F05E51141802E15F5101
:1002C00015180EE10B0EDBCF16F00C0EDBCF17F07E
:1002D0006051161802E16151171802E173EF0EF038
:1002E000A1C1E9FFA2C1EAFFEF50010801E399D0E3
:1002F000A1C1E9FFA2C1EAFFEF065D6BDF6AA3516E
:10030000DF5C14E2DF50EA6AA125E96EA251EA221D
:10031000EF50E66E5D515D2BEA6A990FE96E020EB1
:10032000EA22E552E750EF6EDF2AE9D79EC197F146
:1003300060C19CF161C19DF1A6C19BF1140EE66EF6
:100340009FDEE5525DC1E6FF990EE66E020EE66E97
:1003500097C1E6FF98C1E6FF99C1E6FF9AC1E6FFA3
:100360009BC1E6FF9CC1E6FF9DC1E6FFB4EC3AF0FD
:10037000146E0A0EE15E1450DF6A0A0EDF5C36E28C
:10038000DF50100DF3CFE9FFF4CFEAFF600EE9264E
:10039000000EEA220C0EE926000EEA22EF50800B36
:1003A00023E0DF50100DF3CFE9FFF4CFEAFF600E3A
:1003B000E926000EEA220C0EE926000EEA22EF5092
:1003C000010B12E1DF50100DF3CFE9FFF4CFEAFF8C
:1003D000600EE926000EEA220C0EE926000EEA2243
:1003E000EF50200B01E002D0DF2AC7D70A0EDF5CF6
:1003F00018E201019E51080B01E0010EE66EE66A6B
:10040000000EE66EE66A090EDBCFE6FF0A0EDBCFD2
:10041000E6FF010EE66E69EC1DF0146E070EE15E5C
:100420001450DF6A040EDF5C43E2DF50080DF3CFA7
:10043000E9FFF4CFEAFFA90EE926010EEA22030E36
:10044000E926000EEA22EF5031E0DF50080DF3CF2D
:10045000E9FFF4CFEAFFA90EE926010EEA22EECF6A
:1004600014F0EFCF15F00D0EDB50141803E10E0E53
:10047000DB5015181BE1DF50080DF3CFE9FFF4CF77
:10048000EAFFA90EE926010EEA22020EE926000E75
:10049000EA22EFCF16F00A0E0101EA6AA125E96E01
:1004A000A251EA22EF50165C01E102D0DF2ABAD74E
:1004B000040EDF5C02E273EF0EF0DF6A040EDF5C15
:1004C00013E2DF50080DF3CFE9FFF4CFEAFFA90EE6
:1004D000E926010EEA22030EE926000EEA22EF5079
:1004E00001E102D0DF2AEAD7040EDF5C5AE2DF50D6
:1004F000080DF3CFE9FFF4CFEAFFA90EE926010EBC
:10050000EA220D0EDBCFEEFF0E0EDBCFEDFF0A0E63
:100510000101EA6AA125E96EA251EA22EF50E66ED6
:10052000DF50080DF3CFE9FFF4CFEAFFA90EE9266B
:10053000010EEA22020EE926000EEA22E552E750F9
:10054000EF6EDF50080DF3CFE9FFF4CFEAFFA90EFD
:10055000E926010EEA22030EE926000EEA22030E26
:10056000EF6E73EC69F004C014F005C015F006C01E
:1005700016F007C017F0DF50080DF3CFE9FFF4CFF6
:10058000EAFFA90EE926010EEA22040EE926000E72
:10059000EA2214C0EEFF15C0EEFF16C0EEFF17C032
:1005A000EEFF01010181019392D0090EDBCF14F01F
:1005B0000A0EDBCF15F06051141802E161511518D5
:1005C00002E00AEF07F00F0EDBCF16F0100EDBCFC4
:1005D00017F05E51161802E15F51171802E00AEF9A
:1005E00007F0010EEA6AA125E96EA251EA22EF5056
:1005F000040B6DE0BCCE99F20201020E9A6F0B0E55
:10060000DBCF9BF20C0EDBCF9CF20D0EDBCF9DF20D
:100610000E0EDBCF9EF260C19FF261C1A0F25EC1FF
:10062000A1F25FC1A2F20A0E0101EA6AA125E96EF8
:10063000A251EA22EFCFA3F20201A46B300EA56F04
:1006400001010D0E5D6F0E0EDB505F5D14E0E66A7A
:100650000D0EDBCFE6FF0E0EDBCFE6FF0B0EDBCF82
:10066000E6FF0C0EDBCFE6FF2CEC10F0146E050E4F
:10067000E15E14502AD0976B978B010E9A6F9B6F97
:10068000D9500D0F986FDACF99F10B0EDBCF9CF19B
:100690000C0EDBCF9DF15DC1E6FF990EE66E020EFA
:1006A000E66E97C1E6FF98C1E6FF99C1E6FF9AC1E1
:1006B000E6FF9BC1E6FF9CC1E6FF9DC1E6FFB4ECEF
:1006C0003AF0146E0A0EE15E1450010101850B0E22
:1006D000EA6AA125E96EA251EA22EF5001E063D354
:1006E0000C0EEA6AA125E96EA251EA22EF50300809
:1006F00001E13FD30C0EEA6AA125E96EA251EA227C
:10070000EF50420A01E132D3030A01E1CED2010ADD
:1007100001E1A6D2510A01E1DCD1010A01E028D3AE
:100720007AB361D073EC69F004C093F105C094F121
:1007300006C095F107C096F1080E0101EA6AA125ED
:10074000E96EA251EA22EFCF7CF1090EEA6AA125F7
:10075000E96EA251EA22EFCF7DF1110EDB6A080E9D
:10076000F36E110EDBCFF4FFF350F45C18E2110EC0
:10077000DB50020F0B0FEA6AA125E96EA251EA22B3
:10078000EF50E66E110EDB50EA6A7E0FE96E010E45
:10079000EA22E552E750EF6E110EDB2AE0D77A83AA
:1007A0007A91110EDB6A030EF36E110EDBCFF4FFAC
:1007B000F350F45C17E2110EDB50150FEA6AA12525
:1007C000E96EA251EA22EF50E66E110EDB50EA6AA2
:1007D000860FE96E010EEA22E552E750EF6E110E28
:1007E000DB2AE1D775D1080EEA6AA125E96EA2518C
:1007F000EA22EF507C5D0AE1090EEA6AA125E96E62
:10080000A251EA22EF507D5D01E162D17C517D1160
:1008100001E0BDD0110EDB6A080EF36E110EDBCFC6
:10082000F4FFF350F45C2AE2110EDB500D0FEA6A7C
:10083000A125E96EA251EA22EF50E66E110EDB50BF
:10084000EA6A8B0FE96E010EEA22E552E750EF6E7D
:10085000110EDB50EA6A8B0FE96E010EEA22EF50AF
:10086000E66E110EDB50EA6A500FE96E010EEA22C5
:10087000E552E750EF6E110EDB2ACED7080EEA6A7A
:10088000A125E96EA251EA22EFCF89F1090EEA6AA9
:10089000A125E96EA251EA22EFCF8AF189C158F170
:1008A0008AC159F160C15AF161C15BF146EC1FF098
:1008B00001017B6FFF0E7B5D66E18D0E5C6F58BFA3
:1008C0005C917BEC20F001017B6FFF0E7B5D5BE2B6
:1008D000110EDB6A030EF36E110EDBCFF4FFF35043
:1008E000F45C2BE2110EDB50150F0101EA6AA12521
:1008F000E96EA251EA22EF50E66E7B51100DF3CF64
:10090000E9FFF4CFEAFF600EE926000EEA220D0EA1
:10091000E926000EEA22E9CF14F0EACF15F0110E15
:10092000DB500F011424E96E000E1520EA6EE5522B
:10093000E750EF6E110EDB2ACDD7100EE66EE66A99
:1009400001017B51100D0301A651F324146EA75130
:10095000F420156E14C0E6FF15C0E6FF01017B51BF
:10096000100DF3CF16F0F4CF17F0600E1626000E20
:10097000172216C0E6FF17C0E6FFA5EC64F0186E5C
:10098000060EE15E185001017A837A81A1D08F0EA4
:10099000E66EA70EE66E1EEC68F0E552E552010128
:1009A0000B0E5D6F5D515D2BEA6A990FE96E020EC9
:1009B000EA22EF6A5D515D2BEA6A990FE96E020E39
:1009C000EA22110EEF6EDB6A080EF36E110EDBCF1A
:1009D000F4FFF350F45C2AE2110EDB500D0FEA6ACB
:1009E000A125E96EA251EA22EF50E66E110EDB500E
:1009F000EA6A8B0FE96E010EEA22E552E750EF6ECC
:100A0000110EDB50EA6A8B0FE96E010EEA22EF50FD
:100A1000E66E5D515D2BEA6A990FE96E020EEA22DD
:100A2000E552E750EF6E110EDB2ACED7080EEA6AC8
:100A3000A125E96EA251EA22EFCF89F1090EEA6AF7
:100A4000A125E96EA251EA22EFCF8AF15D515D2B1B
:100A5000EA6A990FE96E020EEA2289C1EFFF5D5141
:100A60005D2BEA6A990FE96E020EEA228AC1EFFF56
:100A7000110EDB6A030EF36E110EDBCFF4FFF350A1
:100A8000F45C17E2110EDB50150FEA6AA125E96E3E
:100A9000A251EA22EF50E66E5D515D2BEA6A990F92
:100AA000E96E020EEA22E552E750EF6E110EDB2AE4
:100AB000E1D7E66AE66A7C0EE66E010EE66E89EC28
:100AC00029F0E552E552E552E55201017A837A8137
:100AD0004FD1120EDB6A080EF36E120EDBCFF4FF5D
:100AE000F350F45C17E2120EDB500D0FEA6AA125F9
:100AF000E96EA251EA22EF50E66E120EDB50EA6A6E
:100B0000500FE96E010EEA22E552E750EF6E120E29
:100B1000DB2AE1D78D0E5C6F150EEA6AA125E96E1E
:100B2000A251EA22EF50800B01E05C91150EEA6AB7
:100B3000A125E96EA251EA22EFCF58F1160EEA6A1A
:100B4000A125E96EA251EA22EFCF59F160C15AF115
:100B500061C15BF146EC1FF001017B6FFF0E7B5D15
:100B600013E07B51100DF3CFE9FFF4CFEAFF600EE5
:100B7000E926000EEA220C0EE926000EEA22EFCF4B
:100B80005CF15C855C8704D08D0E5C6F58BF5C9116
:100B90007BEC20F001017B6FFF0E7B5D5EE2120EAD
:100BA000DB6A030EF36E120EDBCFF4FFF350F45C3E
:100BB0002BE2120EDB50170F0101EA6AA125E96E44
:100BC000A251EA22EF50E66E7B51100DF3CFE9FF00
:100BD000F4CFEAFF600EE926000EEA220D0EE926A8
:100BE000000EEA22E9CF14F0EACF15F0120EDB5026
:100BF0000F011424E96E000E1520EA6EE552E7504D
:100C0000EF6E120EDB2ACDD7100EE66EE66A0101FA
:100C10007B51100D0301A651F324146EA751F4204B
:100C2000156E14C0E6FF15C0E6FF01017B51100DE3
:100C3000F3CF16F0F4CF17F0600E1626000E172231
:100C400016C0E6FF17C0E6FFA5EC64F0186E060EAE
:100C5000E15E185001017A8101D07A917A9388D0AF
:100C60000D0EEA6AA125E96EA251EA22EF500E01AB
:100C7000BA5D01E07DD00E0E0101EA6AA125E96EA0
:100C8000A251EA22EF50E66EE2EC23F0E552790E33
:100C9000E66EA70EE66E1EEC68F0E552E552BACE9F
:100CA000E6FF81EC68F0E55263D00D0EEA6AA125FB
:100CB000E96EA251EA22EF500E01BA5D01E058D070
:100CC00001015D6BBCCE99F20201020E9A6F60C108
:100CD0009BF261C19CF2080E0101EA6AA125E96E4E
:100CE000A251EA22EFCF9DF2090EEA6AA125E96E30
:100CF000A251EA22EFCF9EF260C19FF261C1A0F241
:100D00005EC1A1F25FC1A2F26751672B0201A36F1E
:100D1000A46B420EA56F0101976B978B010E9A6F22
:100D20009B6F60C19CF161C19DF1080EA125986F78
:100D3000000EA221996F0D0EE66E990EE66E020E60
:100D4000E66E97C1E6FF98C1E6FF99C1E6FF9AC13A
:100D5000E6FF9BC1E6FF9CC1E6FF9DC1E6FFB4EC48
:100D60003AF0146E0A0EE15E145002D0639F00D078
:100D700050D00A0EEA6AA125E96EA251EA22EF508C
:100D80000E01BD5D0EE10D0EDBCF14F00E0EDBCFBC
:100D900015F001016551141802E16651151801E1C1
:100DA000639773EF0EF00B0EA35D086F0B0EA1257A
:100DB000066F000EA221076F0B0EDBCF02F10C0EA7
:100DC000DBCF03F1080EEA6AA125E96EA251EA22FF
:100DD000EF50FF0812E1090EEA6AA125E96EA2515F
:100DE000EA22EF50FF0809E1A651019FE8B0018F08
:100DF0009FC104F1A0C105F107D0018F080EA12504
:100E0000046F000EA221056F018D0851000801E258
:100E1000638573D0A1C1E9FFA2C1EAFFEF500008CA
:100E20006CE2A1C1E9FFA2C1EAFFEF065D6BDF6AD8
:100E3000A351DF5C14E2DF50EA6AA125E96EA251FA
:100E4000EA22EF50E66E5D515D2BEA6A990FE96E7A
:100E5000020EEA22E552E750EF6EDF2AE9D7100EC4
:100E6000DB505F5D32E10201A4512FE1300EA55D40
:100E70002CE10101976B978B010E9A6F9B6FD950F4
:100E80000F0F986FDACF99F1090EDBCF9CF10A0EA4
:100E9000DBCF9DF15DC1E6FF990EE66E020EE66EB8
:100EA00097C1E6FF98C1E6FF99C1E6FF9AC1E6FF48
:100EB0009BC1E6FF9CC1E6FF9DC1E6FFB4EC3AF0A2
:100EC000146E0A0EE15E145018D001019E51080BF9
:100ED00001E0010EE66E0F0EDBCFE6FF100EDBCF5A
:100EE000E6FF090EDBCFE6FF0A0EDBCFE6FF2CECB8
:100EF00010F0146E050EE15E145073EF0EF0130E39
:100F0000DB6ADB50040FEA6AA125E96EA251EA22EE
:100F1000EF504D0802E073EF0EF0010EEA6A9F25D4
:100F2000E96EA051EA22140EEFCFDBFF010EF36E43
:100F3000140EDB5004E0D890F336E806FCE1F350E1
:100F4000E76E150EE7CFDBFF9FC1E9FFA0C1EAFF07
:100F5000EF5004E1150EDB5001017813130EDB5046
:100F6000060F0101EA6AA125E96EA251EA22EF50BB
:100F7000E66E140EDB50EA6A680FE96E010EEA2293
:100F8000E552E750EF6E638963A90AD073EC69F00C
:100F900004C0C9F105C0CAF106C0CBF107C0CCF14D
:100FA000010163A153D1A7C15AF1A8C15BF19FC14F
:100FB000E9FFA0C1EAFFEFCF58F1010EEA6A9F25D1
:100FC000E96EA051EA22EFCF59F1130EDB50EA6A25
:100FD000A125E96EA251EA22EF50FF0801E036D1C7
:100FE000130EDB28EA6AA125E96EA251EA22160E49
:100FF000EFCFDBFF040E0B5D01E328D1D950160FB4
:10100000E96EDACFEAFFEF50300BE842E842E842FF
:10101000E842010801E21AD10B51110DF3CFE9FFAB
:10102000F4CFEAFF0C0EE926010EEA22BACEEFFF5A
:101030000B51110DF3CFE9FFF4CFEAFF0C0EE926B7
:10104000010EEA220B0EE926000EEA2209C1EFFF8B
:101050000B51110DF3CFE9FFF4CFEAFF0C0EE92697
:10106000010EEA220C0EE926000EEA220AC1EFFF69
:101070000B51110DF3CFE9FFF4CFEAFF0C0EE92677
:10108000010EEA22090EE926000EEA225AC1EEFFFD
:101090005BC1EDFF0B51110DF3CFE9FFF4CFEAFF78
:1010A0000C0EE926010EEA220D0EE926000EEA22B8
:1010B000EF6A0B51110DF3CFE9FFF4CFEAFF0C0EED
:1010C000E926010EEA220D0EE926000EEA22EF8C37
:1010D000D950160FE96EDACFEAFFEF50060BE8425F
:1010E000146E0B51110DF3CFE9FFF4CFEAFF0C0E94
:1010F000E926010EEA220D0EE926000EEA2214501E
:10110000030BF36EFC0EEF14F310EF6ED950160FB5
:10111000E96EDACFEAFFEF50080B0FE00B51110D2B
:10112000F3CFE9FFF4CFEAFF0C0EE926010EEA2225
:101130000D0EE926000EEA22EF86D950160FE96E51
:10114000DACFEAFFEF50300BE842E842E842E842EB
:1011500001080FE30B51110DF3CFE9FFF4CFEAFFC4
:101160000C0EE926010EEA220D0EE926000EEA22F7
:10117000EF8A04C1E9FF05C1EAFFEF50E66E0B51AB
:10118000110DF3CFE9FFF4CFEAFF0C0EE926010EB3
:10119000EA22EE52E552E750EF6E010EEA6A0425AC
:1011A000E96E0551EA22EF50E66E0B51110DF3CFB7
:1011B000E9FFF4CFEAFF0C0EE926010EEA22EE5217
:1011C000010EE926000EEA22E552E750EF6E0B51C0
:1011D000110DF3CFE9FFF4CFEAFF0C0EE926010E63
:1011E000EA220D0EE926000EEA22EF8EDF6A030ED8
:1011F000DF5C2AE2130EDB50070FDF240101EA6AED
:10120000A125E96EA251EA22EF50E66E0B51110DB5
:10121000F3CFE9FFF4CFEAFF0C0EE926010EEA2234
:101220000E0EE926000EEA22E9CF14F0EACF15F0FF
:10123000DF500F011424E96E000E1520EA6EE5520E
:10124000E750EF6EDF2AD3D701010B2B73EF0EF0BF
:10125000A1C1E9FFA2C1EAFFEF50070A02E154EF82
:101260000EF0030A02E133EF0EF0070A01E179D331
:10127000010A01E1EAD1030A02E072EF0EF0180E52
:10128000DB6A0E01BB51010802E272EF0EF0DF6A69
:10129000080EDF5C14E2DF500101EA6A9F25E96E67
:1012A000A051EA22EF50E66EDF50EA6A500FE96E75
:1012B000010EEA22E552E750EF6EDF2AE9D709EC8A
:1012C00020F0E76E170EE7CFDBFFDB50FF0847E1AA
:1012D0000E01BB51000802E272EF0EF00101B70EE1
:1012E0005C6F60C15AF161C15BF17BEC20F0E76E8D
:1012F000170EE7CFDBFFDB50FF080AE1010EF36EAC
:10130000180EF3CFDBFF0101FE0E586F596944D16F
:10131000100EE66EE66A170EDB50100D0301A651A3
:10132000F324146EA751F420156E14C0E6FF15C007
:10133000E6FF170EDB50100DF3CF16F0F4CF17F0C9
:10134000600E1626000E172216C0E6FF17C0E6FF35
:10135000A5EC64F0186E060EE15E185026D0170E4C
:10136000DB50100DF3CFE9FFF4CFEAFF600EE92662
:10137000000EEA220C0EE926000EEA22EF50080BBE
:1013800014E0170EDB50100DF3CFE9FFF4CFEAFFA6
:10139000600EE926000EEA22020EE926000EEA227D
:1013A000EECF58F1EDCF59F1F7D0170EDB50FF0813
:1013B00001E1F2D0170EDB280101586F5FC159F12E
:1013C00060C15AF161C15BF1020E795D59E1010E14
:1013D000EA6AA125E96EA251EA22EF50400B50E0E3
:1013E0001A0E58C1DBFF1B0E59C1DBFF586B010EF3
:1013F000F36E190EF3CFDBFF080EF36E190EDBCF81
:10140000F4FFF350F45C32E2190EDBCF59F146ECF5
:101410001FF0E76E1C0EE7CFDBFFDB50FF0823E178
:101420000101586B190EDBCF59F1010EF36E190E45
:10143000DB5004E0D890F336E806FCE1F3500101FC
:101440007813010EE66EE66AB0C3E6FFB1C3E6FFAD
:10145000780EE66E010EE66EA5EC64F0146E060ED4
:10146000E15E145003D0190EDB2AC6D7190EDB50EB
:10147000080806E11A0EDBCF58F11B0EDBCF59F13D
:101480000101BF0E5C6F010EEA6AA125E96EA2514F
:10149000EA22EF50010B02E15C91588F7BEC20F0C7
:1014A000E76E170EE7CFDBFFDB50100DF3CFE9FF40
:1014B000F4CFEAFF600EE926000EEA220C0EE926C0
:1014C000000EEA22EF88DF6A030EDF5C29E2020EDB
:1014D000DF240101EA6AA125E96EA251EA22EF5058
:1014E000E66E170EDB50100DF3CFE9FFF4CFEAFFE5
:1014F000600EE926000EEA220D0EE926000EEA2211
:10150000E9CF14F0EACF15F0DF500F011424E96E93
:10151000000E1520EA6EE552E750EF6EDF2AD4D7B1
:1015200015D0170EDB50100DF3CFE9FFF4CFEAFF13
:10153000600EE926000EEA220C0EE926000EEA22D1
:10154000EF6A020EF36E180EF3CFDBFF100EE66E9D
:10155000E66A170EDB50100D0301A651F324146E3A
:10156000A751F420156E14C0E6FF15C0E6FF170E54
:10157000DB50100DF3CF16F0F4CF17F0600E1626E7
:10158000000E172216C0E6FF17C0E6FFA5EC64F0B8
:10159000186E060EE15E18500201020E996F58C1D6
:1015A0009AF259C19BF2180EDBCF9CF2DF6A030E50
:1015B000DF5C14E2DF50EA6AC50FE96E030EEA222F
:1015C000EF50E66E040EDF24EA6A990FE96E020E10
:1015D000EA22E552E750EF6EDF2AE9D70101070E54
:1015E0005D6F170EDB50040DF3CFE9FFF4CFEAFF78
:1015F000CC0EE926020EEA22EE6AEE6AEE6AEE6A86
:10160000E66A010EE66E170EDB50100DF3CFE9FF10
:10161000F4CFEAFF600EE926000EEA22040EE92666
:10162000000EEA22E9CF14F0EACF15F014C0E6FF6D
:1016300015C0E6FF600EE66E010EE66EBBEC12F022
:10164000166E060EE15E16504DD3030EEA6AA12512
:10165000E96EA251EA22EF5001E03CD1010EEA6AA4
:10166000A125E96EA251EA22EFCF5EF1020EEA6AED
:10167000A125E96EA251EA22EFCF5FF15E5121E18F
:10168000640EE66EA70EE66E1EEC68F0E552E552BB
:101690000101010E796F7951030BF36EF346F90ED8
:1016A0000015F310006F070E5F15146E010E145233
:1016B00004E0E846FE0B1406FCE1010F010178137B
:1016C00012D04F0EE66EA70EE66E1EEC68F0E552E5
:1016D000E5520101796B7951030BF36EF346F90E74
:1016E0000015F310006F010EE66EE66AB2C3E6FF66
:1016F000B3C3E6FF790EE66E010EE66EA5EC64F06C
:10170000146E060EE15E1450600EE66E010EE66E7B
:101710005E0EE66E010EE66E5BEC3FF0E552E552C2
:10172000E552E55201016383BF0E5C6FDF6A080E6C
:10173000DF5C13E2DF50EA6A9F25E96EA051EA22DE
:10174000EF50E66EDF50EA6A500FE96E010EEA22B2
:10175000E552E750EF6EDF2AEAD75E5103E1586B9E
:10176000596B03D05FC159F1586B60C15AF161C127
:101770005BF17BEC20F00101626F6251040DF3CF4D
:10178000E9FFF4CFEAFFCC0EE926020EEA22EE6A68
:10179000EE6AEE6AEE6ADF6A030EDF5C28E2040E90
:1017A000DF240101EA6AA125E96EA251EA22EF5085
:1017B000E66E6251100DF3CFE9FFF4CFEAFF600E41
:1017C000E926000EEA220D0EE926000EEA22E9CFF4
:1017D00014F0EACF15F0DF500F011424E96E000E6B
:1017E0001520EA6EE552E750EF6EDF2AD5D7020EDC
:1017F000E66EE66AA0C3E6FFA1C3E6FF600EE66EF2
:10180000010EE66EA5EC64F0146E060EE15E145057
:10181000020EE66EE66AAAC3E6FFABC3E6FF5E0E03
:10182000E66E010EE66EA5EC64F0146E060EE15E47
:101830001450010EE66EE66AACC3E6FFADC3E6FFE8
:10184000620EE66E010EE66EA5EC64F0146E060EF6
:10185000E15E1450100EE66EE66A01016251100D51
:101860000301A651F324146EA751F420156E14C081
:10187000E6FF15C0E6FF01016251100DF3CF16F02F
:10188000F4CF17F0600E1626000E172216C0E6FFE2
:1018900017C0E6FFA5EC64F0186E060EE15E185066
:1018A000010EE66EE66AB0C3E6FFB1C3E6FF780E4E
:1018B000E66E010EE66EA5EC64F0146E060EE15EB7
:1018C00014502D0EE66EA70EE66E1EEC68F0E55283
:1018D000E55246D062696069616958695969600E6C
:1018E000E66E010EE66E580EE66E010EE66E5BECDD
:1018F0003FF0E552E552E552E552010EE66EE66A2A
:10190000ACC3E6FFADC3E6FF620EE66E010EE66E07
:10191000A5EC64F0146E060EE15E1450020EE66E45
:10192000E66AA0C3E6FFA1C3E6FF600EE66E010E05
:10193000E66EA5EC64F0146E060EE15E1450020E25
:10194000E66EE66AAAC3E6FFABC3E6FF5E0EE66E8E
:10195000010EE66EA5EC64F0146E060EE15E145006
:10196000C1D1A65119E09FC1E9FFA0C1EAFFEFCFA5
:1019700058F1010EEA6A9F25E96EA051EA22EFCFE5
:1019800059F146EC1FF0E76E1D0EE7CFDBFFDB5091
:10199000FF0801E1A7D121D0DF6A080EDF5C13E266
:1019A000DF50EA6A9F25E96EA051EA22EF50E66E09
:1019B000DF50EA6A500FE96E010EEA22E552E75065
:1019C000EF6EDF2AEAD709EC20F0E76E1D0EE7CFB5
:1019D000DBFFDB50FF0801E185D11D0EDB50100D50
:1019E000F3CFE9FFF4CFEAFF600EE926000EEA220A
:1019F0000C0EE926000EEA22EF50200B01E132D155
:101A00001D0EDB500101625D37E01D0EDB50100D35
:101A1000F3CFE9FFF4CFEAFF600EE926000EEA22D9
:101A20000C0EE926000EEA22EF6A100EE66EE66A58
:101A30001D0EDB50100D0301A651F324146EA751A7
:101A4000F420156E14C0E6FF15C0E6FF1D0EDB5036
:101A5000100DF3CF16F0F4CF17F0600E1626000E1F
:101A6000172216C0E6FF17C0E6FFA5EC64F0186E5B
:101A7000060EE15E1850F6D0DF6A0A0EDF5C01E365
:101A800097D0DF50100DF3CFE9FFF4CFEAFF600EDF
:101A9000E926000EEA220C0EE926000EEA22EF509B
:101AA000800B75E0DF50100DF3CFE9FFF4CFEAFFB4
:101AB000600EE926000EEA220C0EE926000EEA224C
:101AC000EF50200B64E001016251DF5C60E05D6B70
:101AD0005D515D2BEA6A990FE96E020EEA22030E50
:101AE000EF6E976B978B97819793010E9A6F9B6F11
:101AF000DF50100DF3CFE9FFF4CFEAFF600EE926C7
:101B0000000EEA22EECF9CF1EDCF9DF1DF50100DDB
:101B1000F3CFE9FFF4CFEAFF600EE926000EEA22D8
:101B2000020EE926000EEA22E9CF98F1EACF99F1F8
:101B30005DC1E6FF990EE66E020EE66E97C1E6FF06
:101B400098C1E6FF99C1E6FF9AC1E6FF9BC1E6FF97
:101B50009CC1E6FF9DC1E6FFB4EC3AF0146E0A0E9C
:101B6000E15E14501E0EDB6A1F0EDB6A1E0EDBCF19
:101B700014F01F0EDBCF15F0FF0E145C0F0E15587E
:101B800006E21E0EDB2A1F0E01E3DB2AEFD7DF5031
:101B9000100DF3CFE9FFF4CFEAFF600EE926000E47
:101BA000EA220C0EE926000EEA22EF6ADF2A65D748
:101BB000010162695E695F6960696169600EE66E74
:101BC000010EE66E5E0EE66E010EE66E5BEC3FF019
:101BD000E552E552E552E55201016393010EE66ECE
:101BE000E66AACC3E6FFADC3E6FF620EE66E010E29
:101BF000E66EA5EC64F0146E060EE15E1450020E63
:101C0000E66EE66AAAC3E6FFABC3E6FF5E0EE66ECB
:101C1000010EE66EA5EC64F0146E060EE15E145043
:101C2000020EE66EE66AA0C3E6FFA1C3E6FF600E01
:101C3000E66E010EE66EA5EC64F0146E060EE15E33
:101C40001450A00EE66EE66AA6C3E6FFA7C3E6FF41
:101C5000600EE66E000EE66EA5EC64F0146E060EE5
:101C6000E15E14503FD0A65110E0010EE66E9FC118
:101C7000E6FFA0C1E6FF000EE66EE66A2AEC13F06E
:101C8000146E050EE15E14500ED0E66A000EE66E8C
:101C9000E66A9FC1E6FFA0C1E6FF2AEC13F0146ECE
:101CA000050EE15E14501ED00E01BB51020801E288
:101CB00019D0010163A315D0010EEA6AA125E96ECE
:101CC000A251EA22EF500E01BA5D01E00BD00101F2
:101CD000795107E0140EE66E40EC00F0E55298EC06
:101CE0001FF000D000D0010163B502D0A4EC3AF09F
:101CF00073EC69F0010E04C0DBFF020E05C0DBFFD0
:101D0000030E06C0DBFF040E07C0DBFFDF6A020E16
:101D1000DF5C50E2DF50430DF3CFE9FFF4CFEAFF81
:101D2000000EE926030EEA220E0EE926000EEA2234
:101D3000EF50010B3DE0DF50430DF3CFE9FFF4CF4F
:101D4000EAFF000EE926030EEA22EECF18F0EECFEE
:101D500019F0EECF1AF0EFCF1BF0D950010FE96E5A
:101D6000DACFEAFF00011850EE5C146E1950EE58FD
:101D7000156E1A50EE58166E1B50EE58176ED8801E
:101D8000400E1454420E15540F0E1654000E1754E4
:101D90000FE2DF50430DF3CFE9FFF4CFEAFF000E6F
:101DA000E926030EEA220E0EE926000EEA22EF6A69
:101DB000DF2AADD7010163A93ED0D950010FE96EEA
:101DC000DACFEAFFC951EE5C146ECA51EE58156EB7
:101DD000CB51EE58166ECC51EE58176ED880240EAB
:101DE0001454F40E1554000E1654000E175423E22A
:101DF0006399010EE66EE66AB0C3E6FFB1C3E6FF83
:101E0000780EE66E010EE66EA5EC64F0146E060E1A
:101E1000E15E1450080EE66EE66AAEC3E6FFAFC39D
:101E2000E6FF680EE66E010EE66EA5EC64F0146E39
:101E3000060EE15E1450DF6A040EDF5C54E2DF50F0
:101E4000080DF3CFE9FFF4CFEAFFA90EE926010E52
:101E5000EA22030EE926000EEA22EF50000841E2D2
:101E6000DF50080DF3CFE9FFF4CFEAFFA90EE92612
:101E7000010EEA22040EE926000EEA22EECF18F047
:101E8000EECF19F0EECF1AF0EFCF1BF0D950010FC3
:101E9000E96EDACFEAFF00011850EE5C146E1950BB
:101EA000EE58156E1A50EE58166E1B50EE58176EFF
:101EB000D880240E1454F40E1554000E1654000E3F
:101EC00017540FE2DF50080DF3CFE9FFF4CFEAFF1C
:101ED000A90EE926010EEA22030EE926000EEA22E7
:101EE000EF6ADF2AA9D701017AA3ACD07AA17DD00D
:101EF0000F0EE66EA70EE66E1EEC68F0E552E55298
:101F000001010B0E5D6F5D515D2BEA6A990FE96E61
:101F1000020EEA22EF6A5D515D2BEA6A990FE96EC3
:101F2000020EEA22110EEF6E210EDB6A080EF36E2E
:101F3000210EDBCFF4FFF350F45C16E2210EDB50F0
:101F4000EA6A7E0FE96E010EEA22EF50E66E5D51FD
:101F50005D2BEA6A990FE96E020EEA22E552E7501C
:101F6000EF6E210EDB2AE2D75D515D2BEA6A990FF5
:101F7000E96E020EEA227CC1EFFF5D515D2BEA6A39
:101F8000990FE96E020EEA227DC1EFFF210EDB6A96
:101F9000030EF36E210EDBCFF4FFF350F45C16E278
:101FA000210EDB50EA6A860FE96E010EEA22EF503D
:101FB000E66E5D515D2BEA6A990FE96E020EEA2228
:101FC000E552E750EF6E210EDB2AE2D7E66AE66AB9
:101FD000890EE66E010EE66E89EC29F0E552E552B7
:101FE000E552E55201017A932DD0D950010FE96EE7
:101FF000DACFEAFF9351EE5C146E9451EE58156EF1
:102000009551EE58166E9651EE58176E050E14C087
:10201000DBFF060E15C0DBFF070E16C0DBFF080E48
:1020200017C0DBFFD950050FE96EDACFEAFFD88081
:102030006C0EEE54DC0EEE54020EEE54000EEE5416
:1020400001E27A93220EE15C02E2E16AE552E16E7E
:10205000E552E7CFD9FF1200D9CFE6FFE1CFD9FF94
:10206000020EE126FC0EDB50070BDF6E01015F5113
:10207000DF5C51E1FB0EDB5080081AE2FA0EDBCF89
:10208000E6FF010EE66ED950FB0FE66EFF0EDA207A
:10209000E66EFD0EDBCFE6FFFE0EDBCFE6FFE66A67
:1020A00069EC1DF0146E070EE15E145058D233D067
:1020B000976B978BFA0EDB509797E8B09787FB0EDC
:1020C000DBCF58F1FC0EDBCF59F1010E9A6F9B6FFD
:1020D000580E986F010E996F60C19CF161C19DF11E
:1020E0005DC1E6FF990EE66E020EE66E97C1E6FF51
:1020F00098C1E6FF99C1E6FF9AC1E6FF9BC1E6FFE2
:102100009CC1E6FF9DC1E6FFB4EC3AF0146E0A0EE6
:10211000E15E145024D2010EDF5206E0DFCFF3FF60
:10212000E846FE0BF306FCE101017815000801E327
:1021300090D0DF50EA6A700FE96E010EEA22EFCF0D
:1021400014F0030E145C41E3DF50EA6A700FE96E8D
:10215000010EEA22EF6A010EDF5206E0DFCFF3FF45
:10216000E846FE0BF306FCE1FF0A01017817DF5099
:10217000EA6A680FE96E010EEA22EF6A010EE66E66
:10218000E66AB0C3E6FFB1C3E6FF780EE66E010E65
:10219000E66EA5EC64F0146E060EE15E1450080EB7
:1021A000E66EE66AAEC3E6FFAFC3E6FF680EE66E14
:1021B000010EE66EA5EC64F0146E060EE15E14509E
:1021C00098EC1FF0000ECBD144D0976B978BFA0E92
:1021D000DB509797E8B09787586BDFCF59F1010E26
:1021E0009A6F9B6F580E986F010E996F60C19CF1AA
:1021F00061C19DF15DC1E6FF990EE66E020EE66ECD
:1022000097C1E6FF98C1E6FF99C1E6FF9AC1E6FFD4
:102210009BC1E6FF9CC1E6FF9DC1E6FFB4EC3AF02E
:10222000146E0A0EE15E145000090AE1DF50EA6AFA
:10223000700FE96E010EEA22EF2A000E90D109D04C
:10224000DF50EA6A700FE96E010EEA22EF6A010EB2
:1022500086D1010EDB6A080EF36E010EDBCFF4FFB0
:10226000F350F45C01E3D6D0010EDF5206E0DFCF7D
:10227000F3FFE846FE0BF306FCE1146E010EDB50A3
:10228000EA6A680FE96E010EEA22EF5014140008A2
:1022900001E3BDD0010EDB50EA6A700FE96E010E5A
:1022A000EA22EFCF14F0030E145C6BE3010EDB5057
:1022B000EA6A700FE96E010EEA22EF6A010EF36E10
:1022C000DB5004E0D890F336E806FCE1F350FF0A57
:1022D00001017817010EDB50EA6A680FE96E010E02
:1022E000EA22EF6A010EE66EE66AB0C3E6FFB1C30A
:1022F000E6FF780EE66E010EE66EA5EC64F0146E55
:10230000060EE15E1450080EE66EE66AAEC3E6FF06
:10231000AFC3E6FF680EE66E010EE66EA5EC64F054
:10232000146E060EE15E14500101795103E098EC41
:102330001FF024D05D6B5D515D2BEA6A990FE96E49
:10234000020EEA22070EEF6E5D515D2BEA6A990FCD
:10235000E96E020EEA22BACEEFFF5A695B69E66ABD
:10236000010EE66E000EE66EE66A5A0EE66E010E8D
:10237000E66E01D9146E060EE15E1450000EEFD029
:1023800046D00101976B978BFA0EDB509797E8B018
:102390009787586B010EDBCF59F19A6F9B6F580EE0
:1023A000986F010E996F60C19CF161C19DF15DC193
:1023B000E6FF990EE66E020EE66E97C1E6FF98C143
:1023C000E6FF99C1E6FF9AC1E6FF9BC1E6FF9CC10B
:1023D000E6FF9DC1E6FFB4EC3AF0146E0A0EE15E32
:1023E000145000090AE1010EDB50EA6A700FE96E31
:1023F000010EEA22EF2A000EB2D0010EDB50EA6A8B
:10240000700FE96E010EEA22EF6A010EA8D0010EEC
:10241000DB2A21D7020E0101795D68E0976B978B6B
:10242000FA0EDB509797E8B09787790503E1586B70
:10243000596B2DD0010EDB6A080EF36E010EDBCF57
:10244000F4FFF350F45C12E2010178510CE0010E4C
:10245000F36EDB5004E0D890F336E806FCE1F3506D
:10246000000901E003D0010EDB2AE6D7080EF36E67
:10247000010EDBCFF4FFF350F45C06E2010EDBCF7C
:1024800059F10101586B03D00101586B596B010ED2
:102490009A6F9B6F580E986F010E996F60C19CF1F7
:1024A00061C19DF15DC1E6FF990EE66E020EE66E1A
:1024B00097C1E6FF98C1E6FF99C1E6FF9AC1E6FF22
:1024C0009BC1E6FF9CC1E6FF9DC1E6FFB4EC3AF07C
:1024D000146E0A0EE15E1450000904E10101702B34
:1024E000000E3DD00101706B010E39D0976B978BB8
:1024F000FA0EDB509797E8B09787DFCF59F1586B0A
:10250000010E9A6F9B6F580E986F010E996F60C104
:102510009CF161C19DF15DC1E6FF990EE66E020E70
:10252000E66E97C1E6FF98C1E6FF99C1E6FF9AC142
:10253000E6FF9BC1E6FF9CC1E6FF9DC1E6FFB4EC50
:102540003AF0146E0A0EE15E1450000904E1010134
:10255000702B000E04D00101706B010E00D0146EC0
:10256000020EE15C02E2E16AE552E16E1450E552CE
:10257000E7CFD9FF1200D9CFE6FFE1CFD9FF0101A4
:10258000976BFA0EDB50030BF36EFC0E9715F310EE
:10259000976FD950FB0FE96EFF0EDA20EA6EEE500E
:1025A000ED1001E197859751040B02E0000E01D078
:1025B000010E979BE8B0978B978FFB0EDBCF98F1BE
:1025C000FC0EDBCF99F1F90EDB50080B000803E29B
:1025D000010E9A6F01D09A6BF90EDB50040B0008C4
:1025E00003E2010E9B6F01D09B6BFD0EDBCFE9FF79
:1025F000FE0EDBCFEAFFEFCF9CF1010EE76EFD0E82
:10260000DBCFE9FFFE0EDBCFEAFFE750E926000E45
:10261000EA22EFCF9DF15DC1E6FF990EE66E020E54
:10262000E66E97C1E6FF98C1E6FF99C1E6FF9AC141
:10263000E6FF9BC1E6FF9CC1E6FF9DC1E6FFB4EC4F
:102640003AF0146E0A0EE15E145000D0E552E7CF66
:10265000D9FF1200D9CFE6FFE1CFD9FF040EE12662
:10266000030EDB6A01015D6BFA0EDB5021E0FB0E0D
:10267000DBCFE9FFFC0EDBCFEAFFEFCF58F1010E15
:10268000E76EFB0EDBCFE9FFFC0EDBCFEAFFE75086
:10269000E926000EEA22EFCF59F146EC1FF0E76E73
:1026A000020EE7CFDBFFDB50FF0801E1DAD327D0D2
:1026B000DF6A080EDF5C19E2DF50E76EFD0EDBCF4C
:1026C000E9FFFE0EDBCFEAFFE750E926000EEA2223
:1026D000EF50E66EDF50EA6A500FE96E010EEA2213
:1026E000E552E750EF6EDF2AE4D709EC20F0E76E01
:1026F000020EE7CFDBFFDB50FF0801E1B2D3DF6A58
:10270000020EDF5C01E3B2D2DF50430DF3CFE9FFED
:10271000F4CFEAFF000EE926030EEA220E0EE926A8
:10272000000EEA22EF50010B01E19ED2DF50430D73
:10273000F3CFE9FFF4CFEAFF000EE926030EEA2209
:102740000E0EE926000EEA22EF50020B01E04BD1FB
:10275000DF50430DF3CFE9FFF4CFEAFF000EE92687
:10276000030EEA220E0EE926000EEA22EF50100BAD
:1027700001E139D1020EDB50100DF3CFE9FFF4CFA8
:10278000EAFF600EE926000EEA22020EE926000E9C
:10279000EA22EECF14F0EFCF15F0DF50430DF3CF68
:1027A000E9FFF4CFEAFF000EE926030EEA22060E47
:1027B000E926000EEA22EF500001145C01E013D17B
:1027C000020EDB50100DF3CFE9FFF4CFEAFF600EED
:1027D000E926000EEA22020EE926000EEA22010E88
:1027E000E926000EEA22EFCF16F0DF50430DF3CFBB
:1027F000E9FFF4CFEAFF000EE926030EEA22060EF7
:10280000E926000EEA22010EE926000EEA22EF5028
:10281000165C01E0E8D0010EDB6ADF50430DF3CF18
:10282000E9FFF4CFEAFF000EE926030EEA220F0EBD
:10283000E926000EEA22EF50F36E010EDBCFF4FF23
:10284000F350F45C2AE2DF50430DF3CFE9FFF4CFFD
:10285000EAFF000EE926030EEA22100EE926000E1A
:10286000EA22E9CF14F0EACF15F0010EDB500F0198
:102870001424E96E000E1520EA6EEF50E66E010199
:102880005D515D2BEA6A990FE96E020EEA22E5526C
:10289000E750EF6E010EDB2AC0D7DF50430DF3CFB8
:1028A000E9FFF4CFEAFF000EE926030EEA220E0E3E
:1028B000E926000EEA22EF50040B25E00C0EE66E2E
:1028C000010EE66E020EDB50100DF3CFE9FFF4CFE0
:1028D000EAFF600EE926000EEA22020EE926000E4B
:1028E000EA22E9CF14F0EACF15F014C0E6FF15C0D4
:1028F000E6FF600EE66E010EE66E3DDE166E060E1B
:10290000E15E165060D00101976B030EDB50030BA4
:10291000F36EFC0E9715F310976F978BDF50430DF6
:10292000F3CFE9FFF4CFEAFF000EE926030EEA2217
:102930000E0EE926000EEA229797EF50080B01E0F1
:102940009787020EDB50100DF3CFE9FFF4CFEAFFBB
:10295000600EE926000EEA22020EE926000EEA22A7
:10296000E9CF98F1EACF99F1010E9A6F9B6FDF5092
:10297000430DF3CFE9FFF4CFEAFF000EE926030E83
:10298000EA22040EE926000EEA22EECF9CF1EDCFFA
:102990009DF15DC1E6FF990EE66E020EE66E97C1EF
:1029A000E6FF98C1E6FF99C1E6FF9AC1E6FF9BC129
:1029B000E6FF9CC1E6FF9DC1E6FFB4EC3AF0146E61
:1029C0000A0EE15E1450DF50430DF3CFE9FFF4CF60
:1029D000EAFF000EE926030EEA220E0EE926000E9B
:1029E000EA22EF906CD2DF50430DF3CFE9FFF4CF32
:1029F000EAFF000EE926030EEA220E0EE926000E7B
:102A0000EA22EF50020B01E02FD1DF50430DF3CF4C
:102A1000E9FFF4CFEAFF000EE926030EEA220E0ECC
:102A2000E926000EEA22EF50100B01E01DD1DF5025
:102A3000430DF3CFE9FFF4CFEAFF000EE926030EC2
:102A4000EA22060EE926000EEA22E9CF14F0EACFC8
:102A500015F014C0E6FF15C0E6FF020EDB50100DA6
:102A6000F3CFE9FFF4CFEAFF600EE926000EEA2279
:102A7000040EE926000EEA22E9CF16F0EACF17F09D
:102A800016C0E6FF17C0E6FF1BEC21F0E552E55249
:102A9000E552E552000901E1E7D0010EDB6ADF50A3
:102AA000430DF3CFE9FFF4CFEAFF000EE926030E52
:102AB000EA220F0EE926000EEA22EF50F36E010E15
:102AC000DBCFF4FFF350F45C2AE2DF50430DF3CF89
:102AD000E9FFF4CFEAFF000EE926030EEA22100E0A
:102AE000E926000EEA22E9CF14F0EACF15F0010E34
:102AF000DB500F011424E96E000E1520EA6EEF5032
:102B0000E66E01015D515D2BEA6A990FE96E020ED6
:102B1000EA22E552E750EF6E010EDB2AC0D7DF5004
:102B2000430DF3CFE9FFF4CFEAFF000EE926030ED1
:102B3000EA220E0EE926000EEA22EF50040B24E0F2
:102B4000E66A010EE66E020EDB50100DF3CFE9FFD0
:102B5000F4CFEAFF600EE926000EEA22040EE92611
:102B6000000EEA22E9CF14F0EACF15F014C0E6FF18
:102B700015C0E6FF600EE66E010EE66EFCDC166E1A
:102B8000060EE15E165060D00101976B030EDB501C
:102B9000030BF36EFC0E9715F310976F978BDF50B6
:102BA000430DF3CFE9FFF4CFEAFF000EE926030E51
:102BB000EA220E0EE926000EEA229797EF50080B44
:102BC00001E09787020EDB50100DF3CFE9FFF4CF41
:102BD000EAFF600EE926000EEA22040EE926000E46
:102BE000EA22E9CF98F1EACF99F19A6B010E9B6F37
:102BF000DF50430DF3CFE9FFF4CFEAFF000EE926E3
:102C0000030EEA22040EE926000EEA22EECF9CF122
:102C1000EDCF9DF15DC1E6FF990EE66E020EE66E08
:102C200097C1E6FF98C1E6FF99C1E6FF9AC1E6FFAA
:102C30009BC1E6FF9CC1E6FF9DC1E6FFB4EC3AF004
:102C4000146E0A0EE15E1450DF50430DF3CFE9FF1E
:102C5000F4CFEAFF000EE926030EEA220E0EE92663
:102C6000000EEA22EF902BD1DF2A4AD5DF6A020E4E
:102C7000DF5C01E3F6D0DF50430DF3CFE9FFF4CF83
:102C8000EAFF000EE926030EEA220E0EE926000EE8
:102C9000EA22EF50010B01E1E2D0DF50430DF3CF08
:102CA000E9FFF4CFEAFF000EE926030EEA220E0E3A
:102CB000E926000EEA22EF50020B01E1D0D0010E0E
:102CC000DB6ADF50430DF3CFE9FFF4CFEAFF000EDC
:102CD000E926030EEA220F0EE926000EEA22EF5043
:102CE000F36E010EDBCFF4FFF350F45C2AE2DF5009
:102CF000430DF3CFE9FFF4CFEAFF000EE926030E00
:102D0000EA22100EE926000EEA22E9CF14F0EACFFB
:102D100015F0010EDB500F011424E96E000E152092
:102D2000EA6EEF50E66E01015D515D2BEA6A990F84
:102D3000E96E020EEA22E552E750EF6E010EDB2A41
:102D4000C0D70101976B030EDB50030BF36EFC0E33
:102D50009715F310976FDF50430DF3CFE9FFF4CFD2
:102D6000EAFF000EE926030EEA220E0EE926000E07
:102D7000EA22EF50040B02E097819793978B978F8D
:102D8000DF50430DF3CFE9FFF4CFEAFF000EE92651
:102D9000030EEA220E0EE926000EEA229797EF5064
:102DA000080B01E09787010E9B6FFA0EDB5016E0CF
:102DB000010E9A6F020EDB50100DF3CFE9FFF4CF36
:102DC000EAFF600EE926000EEA22020EE926000E56
:102DD000EA22E9CF98F1EACF99F114D09A6B020E6A
:102DE000DB50100DF3CFE9FFF4CFEAFF600EE926C8
:102DF000000EEA22040EE926000EEA22E9CF98F13D
:102E0000EACF99F1DF50430DF3CFE9FFF4CFEAFFAA
:102E1000000EE926030EEA22040EE926000EEA223D
:102E2000EECF9CF1EDCF9DF15DC1E6FF990EE66E10
:102E3000020EE66E97C1E6FF98C1E6FF99C1E6FF74
:102E40009AC1E6FF9BC1E6FF9CC1E6FF9DC1E6FF7C
:102E5000B4EC3AF0146E0A0EE15E145030D0DF2A62
:102E600006D7FA0EDB5016E00C0EE66E030EDBCF33
:102E7000E6FFFB0EDBCFE6FFFC0EDBCFE6FF600ECE
:102E8000E66E010EE66EBBEC12F0146E060EE15E0D
:102E9000145015D0040EE66E030EDBCFE6FFFD0ED8
:102EA000DBCFE6FFFE0EDBCFE6FF600EE66E010E27
:102EB000E66EBBEC12F0146E060EE15E1450040ECA
:102EC000E15C02E2E16AE552E16EE552E7CFD9FF4B
:102ED0001200D9CFE6FFE1CFD9FFE652DF6A0A0E32
:102EE000DF5C15E2DF50100DF3CFE9FFF4CFEAFF0E
:102EF000600EE926000EEA220C0EE926000EEA22F8
:102F0000EF50800B02E1DF5004D0DF2AE8D7FF0E3C
:102F100000D0E552E552E7CFD9FF1200D9CFE6FF46
:102F2000E1CFD9FF020EE126FE0EDB50FF084CE197
:102F3000FF0EE66EA60EE66E1EEC68F0E552E55258
:102F4000DF6A080EDF5C0FE2070ED880DF54EA6A02
:102F5000B20FE96E0E0EEA22EF50E66E4FEC68F00B
:102F6000E552DF2AEED7F00EE66EA60EE66E1EECF8
:102F700068F0E552E5525FC1E6FF4FEC68F0E552BC
:102F80005EC1E6FF4FEC68F0E552E60EE66EA60E77
:102F9000E66E1EEC68F0E552E55261C1E6FF4FECCB
:102FA00068F0E55260C1E6FF4FEC68F0E552DA0EDA
:102FB000E66EA60EE66E1EEC68F0E552E552BACE5D
:102FC000E6FF81EC68F0E552920EE66EA60EE66E24
:102FD0001EEC68F0E552E552FE0EDB50FF0801E002
:102FE000BAD1DF6A0A0EDF5C01E3B4D1DF50100D05
:102FF000F3CFE9FFF4CFEAFF600EE926000EEA22E4
:103000000C0EE926000EEA22EF50800B01E1A0D160
:10301000DFCFE6FF4FEC68F0E552200EE66E3BECAA
:1030200068F0E552200EE66E3BEC68F0E552200EAB
:10303000E66E3BEC68F0E552200EE66E3BEC68F085
:10304000E552200EE66E3BEC68F0E552DF50100DC5
:10305000F3CFE9FFF4CFEAFF600EE926000EEA2283
:103060000C0EE926000EEA22EF50010B06E0590E85
:10307000E66E3BEC68F0E55205D04E0EE66E3BEC9A
:1030800068F0E552200EE66E3BEC68F0E552200E4B
:10309000E66E3BEC68F0E552DF50100DF3CFE9FF30
:1030A000F4CFEAFF600EE926000EEA220C0EE926B4
:1030B000000EEA22EF50020B06E0590EE66E3BECE2
:1030C00068F0E55205D04E0EE66E3BEC68F0E55236
:1030D000200EE66E3BEC68F0E552200EE66E3BEC0F
:1030E00068F0E552DF50100DF3CFE9FFF4CFEAFFAF
:1030F000600EE926000EEA220C0EE926000EEA22F6
:10310000EF50080B5CE0DF50100DF3CFE9FFF4CF78
:10311000EAFF600EE926000EEA22010EE926000E03
:10312000EA22EF50E66E4FEC68F0E552DF50100DEA
:10313000F3CFE9FFF4CFEAFF600EE926000EEA22A2
:10314000EF50E66E4FEC68F0E552200EE66E3BEC79
:1031500068F0E552200EE66E3BEC68F0E552DF5079
:10316000100DF3CFE9FFF4CFEAFF600EE926000E61
:10317000EA22020EE926000EEA22010EE926000EDE
:10318000EA22EF50E66E4FEC68F0E552DF50100D8A
:10319000F3CFE9FFF4CFEAFF600EE926000EEA2242
:1031A000020EE926000EEA22EF50E66E4FEC68F0C0
:1031B000E552200EE66E3BEC68F0E55237D03F0E4C
:1031C000E66E3BEC68F0E5523F0EE66E3BEC68F0D5
:1031D000E5523F0EE66E3BEC68F0E5523F0EE66EC0
:1031E0003BEC68F0E552200EE66E3BEC68F0E552F1
:1031F000200EE66E3BEC68F0E5523F0EE66E3BECCF
:1032000068F0E5523F0EE66E3BEC68F0E5523F0E8B
:10321000E66E3BEC68F0E5523F0EE66E3BEC68F084
:10322000E552200EE66E3BEC68F0E552DF50100DE3
:10323000F3CFE9FFF4CFEAFF600EE926000EEA22A1
:103240000C0EE926000EEA22EF50040B31E0010ECD
:10325000DB6A080EF36E010EDBCFF4FFF350F45C73
:1032600027E2DF50100DF3CFE9FFF4CFEAFF600E45
:10327000E926000EEA22040EE926000EEA22E9CF32
:1032800014F0EACF15F0010EDBCFE6FF070EE55292
:10329000D880E7540F011424E96E000E1520EA6E61
:1032A000EF50E66E4FEC68F0E552010EDB2AD1D705
:1032B000200EE66E3BEC68F0E552010EDB6A000E74
:1032C000F36E010EDBCFF4FFF350F45C0BE28F0ED4
:1032D000E66EA60EE66E1EEC68F0E552E552010EB3
:1032E000DB2AEDD7010EDB6A030EF36E010EDBCF96
:1032F000F4FFF350F45C22E2DF50100DF3CFE9FF4E
:10330000F4CFEAFF600EE926000EEA220D0EE92650
:10331000000EEA22E9CF14F0EACF15F0010EDB50DF
:103320000F011424E96E000E1520EA6EEF50E66ED0
:103330004FEC68F0E552010EDB2AD6D70D0EE66E93
:103340003BEC68F0E5520A0EE66E3BEC68F0E552A5
:10335000DF2A48D6BED1FE0EDB50100DF3CFE9FFB9
:10336000F4CFEAFF600EE926000EEA220C0EE926F1
:10337000000EEA22EF50800B01E1ABD1FE0EDBCF55
:10338000E6FF4FEC68F0E552200EE66E3BEC68F08D
:10339000E552200EE66E3BEC68F0E552200EE66E3C
:1033A0003BEC68F0E552200EE66E3BEC68F0E5522F
:1033B000200EE66E3BEC68F0E552FE0EDB50100D81
:1033C000F3CFE9FFF4CFEAFF600EE926000EEA2210
:1033D0000C0EE926000EEA22EF50010B06E0590E12
:1033E000E66E3BEC68F0E55205D04E0EE66E3BEC27
:1033F00068F0E552200EE66E3BEC68F0E552200ED8
:10340000E66E3BEC68F0E552FE0EDB50100DF3CF9C
:10341000E9FFF4CFEAFF600EE926000EEA220C0E67
:10342000E926000EEA22EF50020B06E0590EE66E86
:103430003BEC68F0E55205D04E0EE66E3BEC68F0D2
:10344000E552200EE66E3BEC68F0E552200EE66E8B
:103450003BEC68F0E552FE0EDB50100DF3CFE9FFB8
:10346000F4CFEAFF600EE926000EEA220C0EE926F0
:10347000000EEA22EF50080B60E0FE0EDB50100D4C
:10348000F3CFE9FFF4CFEAFF600EE926000EEA224F
:10349000010EE926000EEA22EF50E66E4FEC68F0CE
:1034A000E552FE0EDB50100DF3CFE9FFF4CFEAFF3B
:1034B000600EE926000EEA22EF50E66E4FEC68F04F
:1034C000E552200EE66E3BEC68F0E552200EE66E0B
:1034D0003BEC68F0E552FE0EDB50100DF3CFE9FF38
:1034E000F4CFEAFF600EE926000EEA22020EE9267A
:1034F000000EEA22010EE926000EEA22EF50E66EE7
:103500004FEC68F0E552FE0EDB50100DF3CFE9FFF3
:10351000F4CFEAFF600EE926000EEA22020EE92649
:10352000000EEA22EF50E66E4FEC68F0E552200EF6
:10353000E66E3BEC68F0E55237D03F0EE66E3BECB2
:1035400068F0E5523F0EE66E3BEC68F0E5523F0E48
:10355000E66E3BEC68F0E5523F0EE66E3BEC68F041
:10356000E552200EE66E3BEC68F0E552200EE66E6A
:103570003BEC68F0E5523F0EE66E3BEC68F0E5523E
:103580003F0EE66E3BEC68F0E5523F0EE66E3BEC1C
:1035900068F0E5523F0EE66E3BEC68F0E552200E17
:1035A000E66E3BEC68F0E552FE0EDB50100DF3CFFB
:1035B000E9FFF4CFEAFF600EE926000EEA220C0EC6
:1035C000E926000EEA22EF50040B32E0010EDB6A1E
:1035D000080EF36E010EDBCFF4FFF350F45C28E22B
:1035E000FE0EDB50100DF3CFE9FFF4CFEAFF600EC3
:1035F000E926000EEA22040EE926000EEA22E9CFAF
:1036000014F0EACF15F0010EDBCFE6FF070EE5520E
:10361000D880E7540F011424E96E000E1520EA6EDD
:10362000EF50E66E4FEC68F0E552010EDB2AD0D782
:10363000200EE66E3BEC68F0E552010EDB6A000EF0
:10364000F36E010EDBCFF4FFF350F45C0BE28F0E50
:10365000E66EA60EE66E1EEC68F0E552E552010E2F
:10366000DB2AEDD7010EDB6A030EF36E010EDBCF12
:10367000F4FFF350F45C23E2FE0EDB50100DF3CFA9
:10368000E9FFF4CFEAFF600EE926000EEA220D0EF4
:10369000E926000EEA22E9CF14F0EACF15F0010E78
:1036A000DB500F011424E96E000E1520EA6EEF5076
:1036B000E66E4FEC68F0E552010EDB2AD5D70D0E11
:1036C000E66E3BEC68F0E5520A0EE66E3BEC68F005
:1036D000E552780EE66EA60EE66E1EEC68F0E55238
:1036E000E55278C1E6FF4FEC68F0E552570EE66E02
:1036F000A60EE66E1EEC68F0E552E552DF6A080E93
:10370000DF5C30E2DFCFE6FF4FEC68F0E552200EE1
:10371000E66E3BEC68F0E552200EE66E3BEC68F09E
:10372000E552200EE66E3BEC68F0E552200EE66EA8
:103730003BEC68F0E552DF50EA6A680FE96E010E73
:10374000EA22EF50E66E4FEC68F0E5520D0EE66EA1
:103750003BEC68F0E5520A0EE66E3BEC68F0E55291
:10376000DF2ACDD7020EE15C02E2E16AE552E16EAA
:10377000E552E7CFD9FF1200D9CFE6FFE1CFD9FF5D
:10378000E65201017A91020E795D01E03FD17AB3F0
:103790003FD073EC69F004C093F105C094F106C00A
:1037A00095F107C096F101017C6B7D6BDF6A080E15
:1037B000DF5C13E2DF50EA6AB20FE96E0E0EEA2216
:1037C000EF50E66EDF50EA6A7E0FE96E010EEA22E4
:1037D000E552E750EF6EDF2AEAD701017A837A914A
:1037E000DF6A030EDF5C13E2DF50EA6AC50FE96EA1
:1037F000030EEA22EF50E66EDF50EA6A860FE96EAA
:10380000010EEA22E552E750EF6EDF2AEAD7FCD03C
:103810007C517D1101E158D15E517C1902E15F516B
:103820007D1901E1F1D00B0E5D6F5D515D2BEA6AF0
:10383000990FE96E020EEA22EF6A5D515D2BEA6A8A
:10384000990FE96E020EEA22110EEF6EDF6A080E82
:10385000DF5C14E2DF50EA6AB20FE96E0E0EEA2274
:10386000EF50E66E5D515D2BEA6A990FE96E020E2C
:10387000EA22E552E750EF6EDF2AE9D75D515D2B72
:10388000EA6A990FE96E020EEA225EC1EFFF5D510E
:103890005D2BEA6A990FE96E020EEA225FC1EFFF23
:1038A000DF6A030EDF5C14E2DF50EA6AC50FE96EDF
:1038B000030EEA22EF50E66E5D515D2BEA6A990F26
:1038C000E96E020EEA22E552E750EF6EDF2AE9D7F1
:1038D000DF6A080EDF5C13E2DF50EA6A7E0FE96EF2
:1038E000010EEA22EF50E66EDF50EA6A500FE96EF1
:1038F000010EEA22E552E750EF6EDF2AEAD77CC1DB
:1039000058F17DC159F1C2DA01017B6FFF0E7B5D79
:1039100011E07B51100DF3CFE9FFF4CFEAFF600E09
:10392000E926000EEA220C0EE926000EEA22EFCF6D
:103930005CF104D08C0E5C6F58AF5C8160C15AF1B1
:1039400061C15BF1D8DB01017B6FDF6A030EDF5CD5
:1039500027E2DF50EA6A860FE96E010EEA22EF5095
:10396000E66E01017B51100DF3CFE9FFF4CFEAFFC2
:10397000600EE926000EEA220D0EE926000EEA226C
:10398000E9CF14F0EACF15F0DF500F011424E96EEF
:10399000000E1520EA6EE552E750EF6EDF2AD6D70B
:1039A000E66AE66A7C0EE66E010EE66E89EC29F0A8
:1039B000E552E552E552E55201017A937A81100E03
:1039C000E66EE66A7B51100D0301A651F324146ED6
:1039D000A751F420156E14C0E6FF15C0E6FF0101E3
:1039E0007B51100DF3CF16F0F4CF17F0600E1626B2
:1039F000000E172216C0E6FF17C0E6FFA5EC64F024
:103A0000186E060EE15E18505FD00AD073EC69F0B4
:103A100004C093F105C094F106C095F107C096F17A
:103A20000101586B596B0B0E5D6F5D515D2BEA6A9E
:103A3000990FE96E020EEA22EF6A5D515D2BEA6A88
:103A4000990FE96E020EEA22100EEF6EDF6A080E81
:103A5000DF5C14E2DF50EA6AB20FE96E0E0EEA2272
:103A6000EF50E66E5D515D2BEA6A990FE96E020E2A
:103A7000EA22E552E750EF6EDF2AE9D7DF6A030E4C
:103A8000DF5C14E2DF50EA6AC50FE96E030EEA223A
:103A9000EF50E66E5D515D2BEA6A990FE96E020EFA
:103AA000EA22E552E750EF6EDF2AE9D7E66AE66AD6
:103AB000580EE66E010EE66E89EC29F0E552E552ED
:103AC000E552E55201017A83E552E552E7CFD9FF8D
:103AD0001200D9CFE6FFE1CFD9FF020EE126DF6A5F
:103AE000020EDF5C01E3C4D1DF50430DF3CFE9FFE9
:103AF000F4CFEAFF000EE926030EEA220E0EE926B5
:103B0000000EEA22EF50010B01E0B0D1DF50430D6F
:103B1000F3CFE9FFF4CFEAFF000EE926030EEA2215
:103B20000E0EE926000EEA22EF6AFE0EDB50146E3E
:103B3000DF50430DF3CFE9FFF4CFEAFF000EE92693
:103B4000030EEA220E0EE926000EEA221450010BA3
:103B5000F36EF346FD0EEF14F310EF6EF80EDB502C
:103B6000146EDF50430DF3CFE9FFF4CFEAFF000EF0
:103B7000E926030EEA220E0EE926000EEA22145070
:103B8000010BF36EF346F346F346F70EEF14F31012
:103B9000EF6EDF50430DF3CFE9FFF4CFEAFF000EE5
:103BA000E926030EEA220E0EE926000EEA22EF8035
:103BB000F90EDB50146EDF50430DF3CFE9FFF4CF65
:103BC000EAFF000EE926030EEA220E0EE926000E99
:103BD000EA221450010BF36EF346F346F346F34624
:103BE000EF0EEF14F310EF6EF90EDB503DE1FE0E19
:103BF000DB5039E1010EDB6A080EF36E010EDBCFFC
:103C0000F4FFF350F45C2FE2010EDB50E76EFA0E86
:103C1000DBCFE9FFFB0EDBCFEAFFE750E926000E22
:103C2000EA22EF50E66EDF50430DF3CFE9FFF4CF09
:103C3000EAFF000EE926030EEA22060EE926000E30
:103C4000EA22E9CF14F0EACF15F0010EDB500F01A4
:103C50001424E96E000E1520EA6EE552E750EF6E6F
:103C6000010EDB2AC9D73FD0FE0EDB503CE1FA0E35
:103C7000DBCFE9FFFB0EDBCFEAFFEF50E66EDF5054
:103C8000430DF3CFE9FFF4CFEAFF000EE926030E60
:103C9000EA22060EE926000EEA22E552E750EF6E10
:103CA000010EE76EFA0EDBCFE9FFFB0EDBCFEAFF7A
:103CB000E750E926000EEA22EF50E66EDF50430D92
:103CC000F3CFE9FFF4CFEAFF000EE926030EEA2264
:103CD000060EE926000EEA22010EE926000EEA226F
:103CE000E552E750EF6EDF50430DF3CFE9FFF4CF1D
:103CF000EAFF000EE926030EEA22040EE926000E72
:103D0000EA22FC0EDBCFEEFFFD0EDBCFEDFFF80E5F
:103D1000DB504AE0F90EDB501CE0FA0EDBCFE9FF86
:103D2000FB0EDBCFEAFFEFCF58F1010EE76EFA0E84
:103D3000DBCFE9FFFB0EDBCFEAFFE750E926000E01
:103D4000EA22EFCF59F1A2D8E76E010EE7CFDBFFF1
:103D50002BD0010EDB6A080EF36E010EDBCFF4FFF1
:103D6000F350F45C1CE2010EDB50E76EFA0EDBCF81
:103D7000E9FFFB0EDBCFEAFFE750E926000EEA225F
:103D8000EF50E66E010EDB50EA6A500FE96E010E4D
:103D9000EA22E552E750EF6E010EDB2ADCD739D973
:103DA000E76E010EE7CFDBFFDF50430DF3CFE9FFF6
:103DB000F4CFEAFF000EE926030EEA220F0EE926F1
:103DC000000EEA225DC1EFFF010EDB6A01015D51C9
:103DD000F36E010EDBCFF4FFF350F45C29E2010E29
:103DE000DB50EA6A990FE96E020EEA22EF50E66EA6
:103DF000DF50430DF3CFE9FFF4CFEAFF000EE926D1
:103E0000030EEA22100EE926000EEA22E9CF14F092
:103E1000EACF15F0010EDB500F011424E96E000EFD
:103E20001520EA6EE552E750EF6E010EDB2ACED781
:103E300073EC69F004C014F005C015F006C016F06C
:103E400007C017F0DF50430DF3CFE9FFF4CFEAFFCF
:103E5000000EE926030EEA2214C0EEFF15C0EEFFA5
:103E600016C0EEFF17C0EEFF010E04D0DF2A38D6D1
:103E7000000E00D0146E020EE15C02E2E16AE5522F
:103E8000E16E1450E552E7CFD9FF1200D9CFE6FF1B
:103E9000E1CFD9FFE652DF6A0A0EDF5C42E2DF5073
:103EA000100DF3CFE9FFF4CFEAFF600EE926000E14
:103EB000EA220C0EE926000EEA22EF50800B2FE0DA
:103EC000DF50100DF3CFE9FFF4CFEAFF600EE926D3
:103ED000000EEA220C0EE926000EEA22EF50080B33
:103EE0001EE0DF50100DF3CFE9FFF4CFEAFF600EC4
:103EF000E926000EEA22020EE926000EEA22EECFA3
:103F000014F0EFCF15F0010158510001141804E12D
:103F1000010159510001151802E1DF5004D0DF2AD8
:103F2000BBD7FF0E00D0E552E552E7CFD9FF120014
:103F3000D9CFE6FFE1CFD9FFE65201015D6B5D51BC
:103F40005D2BEA6A990FE96E020EEA22EF685D5175
:103F50005D2BEA6A990FE96E020EEA2200C1EFFFBB
:103F60005D515D2BEA6A990FE96E020EEA22EF6A53
:103F70005D515D2BEA6A990FE96E020EEA22EF6A43
:103F80005D515D2BEA6A990FE96E020EEA224D0E31
:103F9000EF6E5D515D2BEA6A990FE96E020EEA221F
:103FA000410EEF6E5D515D2BEA6A990FE96E020ECC
:103FB000EA2278C1EFFFDF6A030EDF5C14E2DF5014
:103FC000EA6AC50FE96E030EEA22EF50E66E5D5114
:103FD0005D2BEA6A990FE96E020EEA22E552E7507C
:103FE000EF6EDF2AE9D7040EE66E030EE66E000ED2
:103FF000E66EE66A600EE66E010EE66EBBEC12F04F
:10400000146E060EE15E1450E552E552E7CFD9FF7B
:104010001200D9CFE6FFE1CFD9FF020EE126DF6A19
:104020000A0EDF5C5AE2DF50100DF3CFE9FFF4CF48
:10403000EAFF600EE926000EEA220C0EE926000EC9
:10404000EA22EF50800B47E0DF50100DF3CFE9FF7D
:10405000F4CFEAFF600EE926000EEA220C0EE926F4
:10406000000EEA22EF50040B36E0010EDB6A080E68
:10407000F36E010EDBCFF4FFF350F45C2AE2DF5065
:10408000100DF3CFE9FFF4CFEAFF600EE926000E32
:10409000EA22040EE926000EEA22E9CF15F0EACF63
:1040A00016F0010EDB500F011524E96E000E1620EC
:1040B000EA6EEFCF14F0010EDB50EA6A500FE96EA2
:1040C000010EEA22EF50145C01E005D0010EDB2A5C
:1040D000CED7DF5004D0DF2AA3D7FF0E00D0146E56
:1040E000020EE15C02E2E16AE552E16E1450E55233
:1040F000E7CFD9FF1200D9CFE6FFE1CFD9FF020EFB
:10410000E126DF6801015CA503D083DFDF6E04D008
:104110005CA702D0BBDEDF6EFF0EDF5C03E169EC63
:1041200017F0DF6EFF0EDF5C01E177D0DF50100D7E
:10413000F3CFE9FFF4CFEAFF600EE926000EEA2292
:104140000C0EE926000EEA225CC1EFFF01015CA51E
:1041500033D0010EDB6A080EF36E010EDBCFF4FFE5
:10416000F350F45C29E2010EDB50EA6A500FE96E6D
:10417000010EEA22EF50E66EDF50100DF3CFE9FF9B
:10418000F4CFEAFF600EE926000EEA22040EE926CB
:10419000000EEA22E9CF14F0EACF15F0010EDB5051
:1041A0000F011424E96E000E1520EA6EE552E75067
:1041B000EF6E010EDB2ACFD701015CA712D0DF50D2
:1041C000100DF3CFE9FFF4CFEAFF600EE926000EF1
:1041D000EA22020EE926000EEA2258C1EEFF59C17A
:1041E000EDFFDF50100DF3CFE9FFF4CFEAFF600ED3
:1041F000E926000EEA225AC1EEFF5BC1EDFFDF5057
:10420000040DF3CFE9FFF4CFEAFFCC0EE926020E4E
:10421000EA22EE6AEE6AEE6AEE6ADF50146E020E71
:10422000E15C03E200D0E16AE552E16E1450E55230
:10423000E7CFD9FF1200D9CFE6FFE1CFD9FFE65291
:10424000DF6A080EDF5C21E2DF50E76EFD0EDBCF98
:10425000E9FFFE0EDBCFEAFFE750E926000EEA2277
:10426000EFCF14F0DF50E76EFB0EDBCFE9FFFC0E63
:10427000DBCFEAFFE750E926000EEA22EF50145C9C
:1042800002E0000E04D0DF2ADCD7010E00D0E55298
:10429000E552E7CFD9FF1200D9CFE6FFE1CFD9FF32
:1042A000040EE12671EC65F001015E695F696069E9
:1042B0006169030EDB6A0A0EF36E030EDBCFF4FFB7
:1042C000F350F45C13E2030EDB50100DF3CFE9FF63
:1042D000F4CFEAFF600EE926000EEA220C0EE92672
:1042E000000EEA22EF6A030EDB2AE5D7030EDB6A33
:1042F000080EF36E030EDBCFF4FFF350F45C13E211
:10430000030EDB50EA6A680FE96E010EEA22EF6ADB
:10431000030EDB50EA6A700FE96E010EEA22EF6AC3
:10432000030EDB2AE5D70101786B796B636B646B55
:104330007A6B006B69EC69F001015D6B030EDB6A5F
:10434000020EF36E030EDBCFF4FFF350F45C13E2C6
:10435000030EDB50430DF3CFE9FFF4CFEAFF000E6D
:10436000E926030EEA220E0EE926000EEA22EF6A83
:10437000030EDB2AE5D7030EDB6A0A0EF36E030E8B
:10438000DBCFF4FFF350F45C12E2030EDB50040DBC
:10439000F3CFE9FFF4CFEAFFCC0EE926020EEA22C2
:1043A000EE6AEE6AEE6AEE6A030EDB2AE6D7FE0ECE
:1043B000DB5001E106D1010EE66EE66AA2C3E6FF1C
:1043C000A3C3E6FFBA0EE66E0E0EE66E54EC64F082
:1043D000146E060EE15E1450200E0E01BA5D02E36B
:1043E000000EE4D1020EE66EE66AAAC3E6FFABC396
:1043F000E6FF5E0EE66E010EE66E54EC64F0146E9F
:10440000060EE15E145001015E1D01E15F1D02E137
:10441000000ECCD1020EE66EE66AA0C3E6FFA1C391
:10442000E6FF600EE66E010EE66E54EC64F0146E6C
:10443000060EE15E1450010EE66EE66AA4C3E6FFC6
:10444000A5C3E6FFBB0EE66E0E0EE66E54EC64F0FE
:10445000146E060EE15E14500E01BB510101030BF8
:10446000F36EF346F346F346F346CF0E0015F31012
:10447000006FA00EE66EE66AA6C3E6FFA7C3E6FFDE
:10448000600EE66E000EE66E54EC64F0146E060EDE
:10449000E15E1450020EE66EE66AAAC3E6FFABC305
:1044A000E6FF5E0EE66E010EE66E54EC64F0146EEE
:1044B000060EE15E1450010EE66EE66AACC3E6FF3E
:1044C000ADC3E6FF620EE66E010EE66E54EC64F0DC
:1044D000146E060EE15E1450080EE66EE66AAEC378
:1044E000E6FFAFC3E6FF680EE66E010EE66E54EC23
:1044F00064F0146E060EE15E1450010EE66EE66A7C
:10450000B0C3E6FFB1C3E6FF780EE66E010EE66EBD
:1045100054EC64F0146E060EE15E1450010EE66E6B
:10452000E66AB2C3E6FFB3C3E6FF790EE66E010E9C
:10453000E66E54EC64F0146E060EE15E14504E0EFE
:10454000E66EA60EE66E1EEC68F0E552E552BACEB7
:10455000E6FF81EC68F0E552460EE66EA60EE66ECA
:104560001EEC68F0E552E55261C1E6FF4FEC68F0E1
:10457000E55260C1E6FF4FEC68F0E5523B0EE66E97
:10458000A60EE66E1EEC68F0E552E5525FC1E6FF4E
:104590004FEC68F0E5525EC1E6FF4FEC68F0E55283
:1045A000600EE66E010EE66E5E0EE66E010EE66EC3
:1045B0005BEC3FF0E552E552E552E55201016383C1
:1045C00099D0020EE66EE66AA0C3E6FFA1C3E6FF3D
:1045D000600EE66E010EE66EA5EC64F0146E060E3B
:1045E000E15E1450010EE66EE66AA2C3E6FFA3C3C5
:1045F000E6FFBA0EE66E0E0EE66EA5EC64F0146EE3
:10460000060EE15E1450010EE66EE66AA4C3E6FFF4
:10461000A5C3E6FFBB0EE66E0E0EE66EA5EC64F0DB
:10462000146E060EE15E1450A00EE66EE66AA6C396
:10463000E6FFA7C3E6FF600EE66E000EE66EA5EC91
:1046400064F0146E060EE15E1450020EE66EE66A29
:10465000AAC3E6FFABC3E6FF5E0EE66E010EE66E92
:10466000A5EC64F0146E060EE15E1450010EE66EC9
:10467000E66AACC3E6FFADC3E6FF620EE66E010E6E
:10468000E66EA5EC64F0146E060EE15E1450080EA2
:10469000E66EE66AAEC3E6FFAFC3E6FF680EE66EFF
:1046A000010EE66EA5EC64F0146E060EE15E145089
:1046B000010EE66EE66AB0C3E6FFB1C3E6FF780E10
:1046C000E66E010EE66EA5EC64F0146E060EE15E79
:1046D0001450010EE66EE66AB2C3E6FFB3C3E6FF0E
:1046E000790EE66E010EE66EA5EC64F0146E060E11
:1046F000E15E1450DF6ADF96DF98DF9ADF8CDF829D
:10470000FE0EDB50146ED9CFE9FFDACFEAFF14506A
:10471000010BF36EF346F346FB0EEF14F310EF6E4E
:10472000D950010FE96EDACFEAFFB20EEE6E0E0E2F
:10473000ED6EDECFE6FFDECFE6FFDDCFE6FFDD523A
:10474000B1EC3FF0E552E552E552600EE66E010E27
:10475000E66E5E0EE66E010EE66E5BEC3FF0E55235
:10476000E552E552E552BACEE6FF2CD8E5520101FA
:10477000008100870E01BB510101030BF36EF3466C
:10478000F346F346F346CF0E0015F310006F008D8D
:104790007951030BF36EF346F90E0015F310006F19
:1047A000D6CF67F1F090F086010E00D0146E040EA3
:1047B000E15C02E2E16AE552E16E1450E552E7CFB6
:1047C000D9FF1200D9CFE6FFE1CFD9FFE66AFE0E8E
:1047D000DBCFE6FFC2EC3EF0E552E552000916E001
:1047E000FE0EDBCFBAFE010EE66EE66AA2C3E6FF5E
:1047F000A3C3E6FFBA0EE66E0E0EE66EA5EC64F0FD
:10480000146E060EE15E1450010E02D0000E00D0B0
:10481000E552E7CFD9FF1200D9CFE6FFE1CFD9FFAC
:10482000FE0EDB50030801E221D0FE0EDBCFBBFE03
:104830000E01BB510101030BF36EF346F346F34641
:10484000F346CF0E0015F310006F010EE66EE66A18
:10485000A4C3E6FFA5C3E6FFBB0EE66E0E0EE66E32
:10486000A5EC64F0146E060EE15E1450E552E7CF3D
:10487000D9FF1200D9CFE6FFE1CFD9FF0E0EE12616
:10488000010EF36EF3CFDBFF020EDB6A030EDB6A71
:10489000040EDB6A050EBACEDBFFDF6A040EDF5CB6
:1048A0000DE2DF50110DF3CFE9FFF4CFEAFF0C0E5C
:1048B000E926010EEA22EF68DF2AF0D701010B6B2F
:1048C0006381DF6A200EDF5C01E3C8D0146AF80E52
:1048D000156E1668070E176ED950FA0FE96EFF0EA7
:1048E000DA20EA6EEE501416EE501516EE5016163B
:1048F000EE501716010EDBCF18F0020EDBCF19F0C9
:10490000030EDBCF1AF0040EDBCF1BF0DF501F0BC2
:1049100007E0D890183619361A361B36E806F9E142
:1049200018501416195015161A5016161B50171633
:10493000145015101610171001E18ED02B0EE66ED4
:10494000A60EE66E1EEC68F0E552E552DFCFE6FFFC
:1049500081EC68F0E552DFCFE6FF34DFE55201017C
:104960005D6B5D515D2BEA6A990FE96E020EEA22DA
:10497000070EEF6E5D515D2BEA6A990FE96E020E2C
:10498000EA22BACEEFFF5A695B69E66A010EE66E6B
:10499000000EE66EE66A5A0EE66E010EE66EBBEC9F
:1049A00012F0146E060EE15E145073EC69F0060E00
:1049B00004C0DBFF070E05C0DBFF080E06C0DBFFEF
:1049C000090E07C0DBFFE8DA000901E0EEDA73EC5C
:1049D00069F00A0E04C0DBFF0B0E05C0DBFF0C0EF6
:1049E00006C0DBFF0D0E07C0DBFF0A0EDBCF18F0A1
:1049F0000B0EDBCF19F00C0EDBCF1AF00D0EDBCF58
:104A00001BF0D950060FE96EDACFEAFFEE50185CC2
:104A1000146EEE501958156EEE501A58166EEE5070
:104A20001B58176EFE0EDB50040DF3CFF6FFF4CFCC
:104A3000F7FFEA0EF626D60EF72214500900F55CB1
:104A400015500900F55816500900F558175009007F
:104A5000F55801E201D0B7D7DF2A34D7050EDBCFF6
:104A6000E6FFB0DEE552010163910B51146E0E0EAC
:104A7000E15C03E200D0E16AE552E16E1450E552D8
:104A8000E7CFD9FF1200D9CFE6FFE1CFD9FF0A0E59
:104A9000E126030EDF6EFD0EDB0411E1BCEC1BF022
:104AA00001017AA305D078DA000901E07EDAF8D7AF
:104AB0007AA102D07B5164D2FF0E62D25FD2FD0E8A
:104AC000DB5001E05BD2FE0EDB50FF0828E1010E57
:104AD000146E156A166A176A0E01BA511F0B07E0A9
:104AE000D8901436153616361736E806F9E114C094
:104AF000E6FF15C0E6FF16C0E6FF17C0E6FF0A0E88
:104B0000E66EB8DE186E050EE15E1850000905E18C
:104B1000DF0602E1FF0E34D2DAD7FE0EDB6AFE0EAC
:104B2000DB50110DF3CFE9FFF4CFEAFF0C0EE926BD
:104B3000010EEA22090EE926000EEA22EECF5AF112
:104B4000EDCF5BF1FE0EDB50110DF3CFE9FFF4CF9B
:104B5000EAFF0C0EE926010EEA22EE52EFCF58F1E1
:104B6000FE0EDB50110DF3CFE9FFF4CFEAFF0C0E80
:104B7000E926010EEA22EE52010EE926000EEA2293
:104B8000EFCF59F146EC1FF00101626FFF0E625D3D
:104B900008E169EC17F00101626FFF0802E1FF0E06
:104BA000EFD16251100DF3CFE9FFF4CFEAFF600EB1
:104BB000E926000EEA220C0EE926000EEA22EF6A30
:104BC000FE0EDB50110DF3CFE9FFF4CFEAFF0C0E20
:104BD000E926010EEA22090EE926000EEA22EECFAE
:104BE00014F0EFCF15F06251100DF3CFE9FFF4CFC1
:104BF000EAFF600EE926000EEA2214C0EEFF15C09F
:104C0000EDFFFE0EDB50110DF3CFE9FFF4CFEAFF0D
:104C10000C0EE926010EEA22EE52EF50E66E6251CA
:104C2000100DF3CFE9FFF4CFEAFF600EE926000E86
:104C3000EA22020EE926000EEA22E552E750EF6E64
:104C4000FE0EDB50110DF3CFE9FFF4CFEAFF0C0E9F
:104C5000E926010EEA22EE52010EE926000EEA22B2
:104C6000EF50E66E6251100DF3CFE9FFF4CFEAFF8B
:104C7000600EE926000EEA22020EE926000EEA2264
:104C8000010EE926000EEA22E552E750EF6E62516E
:104C9000100DF3CFE9FFF4CFEAFF600EE926000E16
:104CA000EA220C0EE926000EEA22EF86010EDB6AEC
:104CB000030EF36E010EDBCFF4FFF350F45C3EE223
:104CC000FE0EDB50110DF3CFE9FFF4CFEAFF0C0E1F
:104CD000E926010EEA220E0EE926000EEA22E9CFAD
:104CE00016F0EACF17F0010EDB500F011624E96E23
:104CF000000E1720EA6EEF50E66E01016251100DB2
:104D0000F3CFE9FFF4CFEAFF600EE926000EEA22B6
:104D10000D0EE926000EEA22E9CF14F0EACF15F0D5
:104D2000010EDB500F011424E96E000E1520EA6E0F
:104D3000E552E750EF6E010EDB2ABAD7010162514E
:104D4000100DF3CFE9FFF4CFEAFF600EE926000E65
:104D5000EA220C0EE926000EEA22EF826251100DC3
:104D6000F3CFE9FFF4CFEAFF600EE926000EEA2256
:104D70000C0EE926000EEA22EF8A6251100DF3CFE5
:104D8000E9FFF4CFEAFF600EE926000EEA220C0EDE
:104D9000E926000EEA22EF80FE0EDB50110DF3CF64
:104DA000E9FFF4CFEAFF0C0EE926010EEA22EF50EC
:104DB000E66E08DDE55201016251100DF3CFE9FF07
:104DC000F4CFEAFF600EE926000EEA22EECF60F192
:104DD000EDCF61F158695969600EE66E010EE66E1D
:104DE000580EE66E010EE66E5BEC3FF0E552E552C2
:104DF000E552E55201015D6B5D515D2BEA6A990F49
:104E0000E96E020EEA22010EEF6E5D515D2BEA6A39
:104E1000990FE96E020EEA2200C1EFFF010EDB6A74
:104E2000030EF36E010EDBCFF4FFF350F45C16E2D9
:104E3000010EDB50EA6AC50FE96E030EEA22EF505D
:104E4000E66E5D515D2BEA6A990FE96E020EEA2269
:104E5000E552E750EF6E010EDB2AE2D7080EE66E50
:104E6000010EE66E6251100DF3CFE9FFF4CFEAFFB9
:104E7000600EE926000EEA22020EE926000EEA2262
:104E8000E9CF14F0EACF15F014C0E6FF15C0E6FF35
:104E90006251100DF3CFE9FFF4CFEAFF600EE9266F
:104EA000000EEA22E9CF16F0EACF17F016C0E6FFAF
:104EB00017C0E6FFBBEC12F0186E060EE15E18504C
:104EC00073EC69F0020E04C0DBFF030E05C0DBFFCC
:104ED000040E06C0DBFF050E07C0DBFF01016251B7
:104EE000100DF3CFE9FFF4CFEAFF600EE926000EC4
:104EF000EA220C0EE926000EEA22EF50100B3CE1EC
:104F00004BD8000901E051D873EC69F0060E04C0DB
:104F1000DBFF070E05C0DBFF080E06C0DBFF090E36
:104F200007C0DBFF060EDBCF18F0070EDBCF19F052
:104F3000080EDBCF1AF0090EDBCF1BF0D950020FA1
:104F4000E96EDACFEAFFEE50185C146EEE50195895
:104F5000156EEE501A58166EEE501B58176ED8800C
:104F6000240E1454F40E1554000E1654000E17544B
:104F700002E2FF0E05D0B2D7625102D0FF0E00D080
:104F8000146E0A0EE15C02E2E16AE552E16E145031
:104F9000E552E7CFD9FF1200A2EC00F00101635106
:104FA000040B01E0010E00D0120001016395A4EF93
:104FB0003AF0D9CFE6FFE1CFD9FFE652BCCE99F265
:104FC0000201020E9A6F60C19BF261C19CF29D6961
:104FD0009E6960C19FF261C1A0F25EC1A1F25FC192
:104FE000A2F201016751672B0201A36FDF6A0A0E6B
:104FF000DF5C25E2DF50100DF3CFE9FFF4CFEAFFCD
:10500000600EE926000EEA220C0EE926000EEA22C6
:10501000EF50800B12E0DF50100DF3CFE9FFF4CF1B
:10502000EAFF600EE926000EEA220C0EE926000EC9
:10503000EA22EF50010B01E102D0DF2AD8D70A0E95
:10504000DF5C13E2FE0EDBCFE6FFE66A000EE66EE3
:10505000E66A60C1E6FF61C1E6FF010EE66E69EC3B
:105060001DF0146E070EE15E14500101976B9785D9
:10507000FE0EDB509797E8B09787010E9B6F60C1DB
:105080009CF161C19DF15DC1E6FF990EE66E020ED5
:10509000E66E97C1E6FF98C1E6FF99C1E6FF9AC1A7
:1050A000E6FF9BC1E6FF9CC1E6FF9DC1E6FFB4ECB5
:1050B0003AF0146E0A0EE15E145000D0E552E5524B
:1050C000E7CFD9FF1200D9CFE6FFE1CFD9FF090E14
:1050D000E126FE0EDB50100DF3CFE9FFF4CFEAFF1F
:1050E000600EE926000EEA220C0EE926000EEA22E6
:1050F000EF50800B02E1000E00D10E01BE511DE009
:105100000201A4511AE00101638767C1BDFEFE0ED2
:10511000DB50100DF3CFE9FFF4CFEAFF600EE92674
:10512000000EEA22020EE926000EEA22EECF65F119
:10513000EDCF66F1060EDF6E04D0020EDF6E0101C8
:105140006397BCCE99F2DFCF9AF2FE0EDB50100DC2
:10515000F3CFE9FFF4CFEAFF600EE926000EEA2262
:10516000EFCF9BF2FE0EDB50100DF3CFE9FFF4CF33
:10517000EAFF600EE926000EEA22010EE926000E83
:10518000EA22EFCF9CF2FE0EDB50100DF3CFE9FFC9
:10519000F4CFEAFF600EE926000EEA22020EE926AD
:1051A000000EEA22EFCF9DF2FE0EDB50100DF3CF82
:1051B000E9FFF4CFEAFF600EE926000EEA22020EB4
:1051C000E926000EEA22010EE926000EEA22EFCFC0
:1051D0009EF260C19FF261C1A0F25EC1A1F25FC107
:1051E000A2F26751672B0201A36FFD0EDBCFE6FF32
:1051F000FE0EDB50100DF3CFE9FFF4CFEAFF600E97
:10520000E926000EEA22020EE926000EEA22EECF7F
:10521000E6FFEFCFE6FFFE0EDB50100DF3CFE9FF08
:10522000F4CFEAFF600EE926000EEA22EECFE6FF99
:10523000EFCFE6FF2CEC10F0146E050EE15E14507B
:10524000000905E101016397000E57D054D0010118
:1052500063A751D073EC69F0010E04C0DBFF020EAE
:1052600005C0DBFF030E06C0DBFF040E07C0DBFF3B
:1052700093DE000901E099DE010163B702D0010E5F
:105280003CD073EC69F0050E04C0DBFF060E05C0D0
:10529000DBFF070E06C0DBFF080E07C0DBFF050EB5
:1052A000DBCF18F0060EDBCF19F0070EDBCF1AF0BC
:1052B000080EDBCF1BF0D950010FE96EDACFEAFF01
:1052C000EE50185C146EEE501958156EEE501A58C8
:1052D000166EEE501B58176ED880240E1454F40E20
:1052E0001554000E1654000E175404E20101639782
:1052F000000E03D0BDD7010E00D0146E090EE15C84
:1053000002E2E16AE552E16E1450E552E7CFD9FFBF
:105310001200D9CFE6FFE1CFD9FF130EE1260E012F
:10532000BE510DE00201A4510AE00101638767C18B
:10533000BDFE060EF36E020EF3CFDBFF06D0020EAB
:10534000F36EF3CFDBFF01016397FC0EDB5001E14D
:1053500073D1010EDB6A080EF36E010EDBCFF4FF92
:10536000F350F45C1CE2010EDB50E76EFD0EDBCF68
:10537000E9FFFE0EDBCFEAFFE750E926000EEA2246
:10538000EF50E66E010EDB50EA6A500FE96E010E37
:10539000EA22E552E750EF6E010EDB2ADCD709EC7A
:1053A00020F0DF6EFF0848E1BCCE99F20201020E48
:1053B0009A6F9B699C699D699E6960C19FF261C1FA
:1053C000A0F25EC1A1F25FC1A2F201016751672B99
:1053D0000201A36F0101976B978BFB0EDB50979730
:1053E000E8B09787FD0EDBCF98F1FE0EDBCF99F189
:1053F0009A6B010E9B6F60C19CF161C19DF1639737
:105400005DC1E6FF990EE66E020EE66E97C1E6FFFD
:1054100098C1E6FF99C1E6FF9AC1E6FF9BC1E6FF8E
:105420009CC1E6FF9DC1E6FFB4EC3AF0146E0A0E93
:10543000E15E1450C8D100D1DF50100DF3CFE9FF69
:10544000F4CFEAFF600EE926000EEA220C0EE926F0
:10545000000EEA22EF50080B01E1A6D70E01BE5163
:1054600012E0DF50100DF3CFE9FFF4CFEAFF600E3A
:10547000E926000EEA22020EE926000EEA22EECF0D
:1054800065F1EDCF66F10201040E996F020EDBCFDC
:105490009AF2DF50100DF3CFE9FFF4CFEAFF600E70
:1054A000E926000EEA22EFCF9BF2DF50100DF3CF7A
:1054B000E9FFF4CFEAFF600EE926000EEA22010EB2
:1054C000E926000EEA22EFCF9CF2DF50100DF3CF59
:1054D000E9FFF4CFEAFF600EE926000EEA22020E91
:1054E000E926000EEA22EFCF9DF2DF50100DF3CF38
:1054F000E9FFF4CFEAFF600EE926000EEA22020E71
:10550000E926000EEA22010EE926000EEA22EFCF7C
:105510009EF260C19FF261C1A0F25EC1A1F25FC1C3
:10552000A2F201016751672B0201A36FFB0EDBCFD3
:10553000E6FFDF50100DF3CFE9FFF4CFEAFF600E76
:10554000E926000EEA22020EE926000EEA22EECF3C
:10555000E6FFEFCFE6FFDF50100DF3CFE9FFF4CF0A
:10556000EAFF600EE926000EEA22EECFE6FFEFCF5B
:10557000E6FF2CEC10F0146E050EE15E14500009ED
:1055800005E101016397000E1ED154D0010163A70C
:1055900051D073EC69F0030E04C0DBFF040E05C0AC
:1055A000DBFF050E06C0DBFF060E07C0DBFFF4DCE9
:1055B000000901E0FADC010163B702D0010E03D15A
:1055C00073EC69F0070E04C0DBFF080E05C0DBFFBB
:1055D000090E06C0DBFF0A0E07C0DBFF070EDBCF9C
:1055E00018F0080EDBCF19F0090EDBCF1AF00A0E07
:1055F000DBCF1BF0D950030FE96EDACFEAFFEE5094
:10560000185C146EEE501958156EEE501A58166E3E
:10561000EE501B58176ED880240E1454F40E1554F7
:10562000000E1654000E175404E201016397000E99
:10563000CAD0BDD7010EC7D00201040E996F020E69
:10564000DBCF9AF260C19BF261C19CF2FD0EDBCF11
:10565000E9FFFE0EDBCFEAFFEFCF9DF2010EE76E12
:10566000FD0EDBCFE9FFFE0EDBCFEAFFE750E926B8
:10567000000EEA22EFCF9EF260C19FF261C1A0F25C
:105680005EC1A1F25FC1A2F201016751672B020165
:10569000A36FFD0EDBCFE9FFFE0EDBCFEAFFEFCFFE
:1056A00065F1010EE76EFD0EDBCFE9FFFE0EDBCFED
:1056B000EAFFE750E926000EEA22EFCF66F1FD0E81
:1056C000DBCFE9FFFE0EDBCFEAFFEFCF58F1010E93
:1056D000E76EFD0EDBCFE9FFFE0EDBCFEAFFE75002
:1056E000E926000EEA22EFCF59F1FB0EDBCFE6FFF1
:1056F00058C1E6FF59C1E6FF60C1E6FF61C1E6FFA0
:105700002CEC10F0146E050EE15E1450000905E15A
:1057100001016397000E57D054D0010163A751D007
:1057200073EC69F00B0E04C0DBFF0C0E05C0DBFF51
:105730000D0E06C0DBFF0E0E07C0DBFF2DDC0009DF
:1057400001E033DC010163B702D0010E3CD073EC01
:1057500069F00F0E04C0DBFF100E05C0DBFF110E59
:1057600006C0DBFF120E07C0DBFF0F0EDBCF18F009
:10577000100EDBCF19F0110EDBCF1AF0120EDBCFBB
:105780001BF0D9500B0FE96EDACFEAFFEE50185C30
:10579000146EEE501958156EEE501A58166EEE50E3
:1057A0001B58176ED880240E1454F40E1554000E96
:1057B0001654000E175404E201016397000E03D043
:1057C000BDD7010E00D0146E130EE15C02E2E16A57
:1057D000E552E16E1450E552E7CFD9FF1200D9CF60
:1057E000E6FFE1CFD9FF020EE126FE0EDB50020AF2
:1057F00001E114D1030A6FE0010A02E0000E10D1AA
:1058000001015E6B5F6B6269D6CF60F1510ED624E9
:10581000616F600EE66E010EE66E5E0EE66E010EC4
:10582000E66E5BEC3FF0E552E552E552E5520101D0
:105830006383020E796F7951030BF36EF346F90E11
:105840000015F310006F010E786F020EE66EE66A27
:10585000AAC3E6FFABC3E6FF5E0EE66E010EE66E80
:10586000A5EC64F0146E060EE15E1450020EE66EB6
:10587000E66AA0C3E6FFA1C3E6FF600EE66E010E76
:10588000E66EA5EC64F0146E060EE15E1450010E97
:10589000E66EE66AB2C3E6FFB3C3E6FF790EE66ED4
:1058A000010EE66EA5EC64F0146E060EE15E145077
:1058B000010EE66EE66AB0C3E6FFB1C3E6FF780EFE
:1058C000E66E010EE66EA5EC64F0146E060EE15E67
:1058D0001450010EA5D0D950010FE66E000EDA204B
:1058E000E66EE66AFD0EDBCFE6FFD950F90FE96EF2
:1058F000FF0EDA20EA6EEECFE6FFEECFE6FFEECF48
:10590000E6FFEFCFE6FF98D8146E080EE15E145064
:10591000DF6EDFCFE6FFE2EC23F0E552000EE66E2D
:10592000A60EE66E1EEC68F0E552E552DFCFE6FF0C
:1059300081EC68F0E552FD0EE66EA50EE66E1EECFB
:1059400068F0E552E552010163835E6B5F6B62694B
:10595000D6CF60F1510ED624616F600EE66E010E57
:10596000E66E5E0EE66E010EE66E5BEC3FF0E55213
:10597000E552E552E5520101020E796F7951030BB0
:10598000F36EF346F90E0015F310006F010E786FF9
:10599000020EE66EE66AAAC3E6FFABC3E6FF5E0E42
:1059A000E66E010EE66EA5EC64F0146E060EE15E86
:1059B0001450020EE66EE66AA0C3E6FFA1C3E6FF3E
:1059C000600EE66E010EE66EA5EC64F0146E060E37
:1059D000E15E1450010EE66EE66AB2C3E6FFB3C3A1
:1059E000E6FF790EE66E010EE66EA5EC64F0146E2D
:1059F000060EE15E1450010EE66EE66AB0C3E6FFE5
:105A0000B1C3E6FF780EE66E010EE66EA5EC64F01B
:105A1000146E060EE15E1450010E02D0000E00D08E
:105A2000146E020EE15C02E2E16AE552E16E14508E
:105A3000E552E7CFD9FF1200D9CFE6FFE1CFD9FF7A
:105A4000130EE126020EDB68010EF36E030EF3CF98
:105A5000DBFF040EDB6A050EDB6A060EDB6AF90E5D
:105A6000DB5002E0FF0E20D1E60EE66EA50EE66EDC
:105A70001EEC68F0E552E552DF6A200EDF5C01E3C0
:105A800010D1146AF80E156E1668070E176ED950ED
:105A9000FB0FE96EFF0EDA20EA6EEE501416EE50A0
:105AA0001516EE501616EE501716030EDBCF18F033
