:020000040000FA
:0600000083EF74F0120012
:020006000400F4
:0600080038EF4CF012007D
:02000E001200DE
:020010001200DC
:050012000000FF0100E9
:0100170000E8
:0600180038EF4CF012006D
:02001E00017768
:0C0020006655443322110B00FF00110054
:02002E000001CF
:0E00300002030405060708090A0B0C0D0E0F4B
:02003E000500BB
:100040004FE90000500300000600000047E90000EF
:1000500058000000080000001E000000B20E000062
:100060000E00000017000000FE020000010000006A
:0C007000120000005B030000050000000F
:04007C00000012006E
:10008000D9CFE6FFE1CFD9FF82E949E800EBE6FFEF
:10009000D6CFE6FF2BEC5EF041E9E750026E02504E
:1000A00001E1A2D002064EEC73F060C338F361C3E5
:1000B00039F362C33AF363C33BF303013851036E70
:1000C0003951046E3A51056E3B51066E4EEC73F099
:1000D00060C338F361C339F362C33AF363C33BF3DC
:1000E00003013851076E3951086E3A51096E3B5180
:1000F0000A6E0350075C0450085805500958065012
:100100000A5822E307EB3CF308EB3DF309EB3EF31F
:100110000AEB3FF3D950030FE96EDACFEAFFEE5056
:1001200003013C5D0301386FEE5003013D590301AB
:10013000396FEE5003013E5903013A6FEE5003014F
:100140003F5903013B6F42D0030144694569466949
:100150004769D950030FE96EDACFEAFFEE50030189
:10016000445D0301406FEE50030145590301416FA7
:10017000EE50030146590301426FEE500301475907
:100180000301436FD950070FE96EDACFEAFF03018D
:100190004051EE240301386F03014151EE20030169
:1001A000396F03014251EE2003013A6F03014351BD
:1001B000EE2003013B6F0301382B000E03013923AE
:1001C000000E03013A23000E03013B23D8803E0EAC
:1001D00003013855000E3955000E3A55000E3B55B7
:1001E00001E201D073D75BD74AE9E7CFD9FF12000C
:1001F000D9CFE6FFE1CFD9FF81E970E8AFEC3FF05E
:10020000000902E10FEF17F001015DA502D058EFE0
:100210001DF00101016B0101A551040B01E0010E6C
:100220000101030BF36EFC0E0115F310016F0101C8
:100230000101A55101010197080B01E001870101AE
:10024000A551030B010802E1010E01D0000E0101CE
:10025000019BE8B0018B01010101A5510101019D44
:10026000800B01E0018D0101A5AF0AD00101AD5164
:100270000101019FE8B0018FA6C104F1A7C105F1FA
:10028000AEC102F1AFC103F1ACC10AF1ABC109F1DA
:1002900001015D950101A551030B010A02E154EF33
:1002A0000FF0020A02E1DFEF0DF0030A02E009EFAE
:1002B00017F00A0E0101AA5D02E20AEF17F0020E22
:1002C0000101EA6AA825E96EA951EA22EF500A6EF7
:1002D000030E0101EA6AA825E96EA951EA22EF504E
:1002E0000B6E040E0101EA6AA825E96EA951EA2203
:1002F000EF50106E050E0101EA6AA825E96EA951BA
:10030000EA22EF50116E060E0101EA6AA825E96E95
:10031000A951EA22EF500C6E070E0101EA6AA825E6
:10032000E96EA951EA22EF500D6E080E0101EA6A4A
:10033000A825E96EA951EA22EF500E6E090E0101BF
:10034000EA6AA825E96EA951EA22EF500F6E010171
:100350000101A55101010197080B01E0018701018D
:100360000151030B000906E11050FC08FF0E115467
:1003700001E34BD1010149510E1802E14A510F1816
:1003800009E101014B510C1802E14C510D1802E139
:100390000AEF17F0016A050E015C3EE20150080DFC
:1003A000F3CFE9FFF4CFEAFFB00EE926010EEA220F
:1003B000030EE926000EEA22EF502CE00150080D52
:1003C000F3CFE9FFF4CFEAFFB00EE926010EEA22EF
:1003D0000E50EE1802E10F50ED181CE10150080D0F
:1003E000F3CFE9FFF4CFEAFFB00EE926010EEA22CF
:1003F000020EE926000EEA22EFCF38F30A0E0101C1
:10040000EA6AA825E96EA951EA22EF500301385D96
:1004100001E102D0012ABFD7050E015C02E20AEF1A
:1004200017F0016A050E015C13E20150080DF3CFCD
:10043000E9FFF4CFEAFFB00EE926010EEA22030E2F
:10044000E926000EEA22EF5001E102D0012AEAD7A4
:10045000050E015C58E20150080DF3CFE9FFF4CF1F
:10046000EAFFB00EE926010EEA220EEBEEFF0FEBDB
:10047000EDFF0A0E0101EA6AA825E96EA951EA22F8
:10048000EF50E66E0150080DF3CFE9FFF4CFEAFF1D
:10049000B00EE926010EEA22020EE926000EEA223B
:1004A000E552E750EF6E0150080DF3CFE9FFF4CFAE
:1004B000EAFFB00EE926010EEA22030EE926000E3D
:1004C000EA22030EEF6E4EEC73F060C338F361C3A3
:1004D00039F362C33AF363C33BF30150080DF3CF22
:1004E000E9FFF4CFEAFFB00EE926010EEA22040E7E
:1004F000E926000EEA2238C3EEFF39C3EEFF3AC305
:10050000EEFF3BC3EEFF101C01E1111C04E10101F1
:100510000181019313D0FE0E101802E1FF0E111895
:1005200004E101010181018309D0FD0E101802E1EF
:10053000FF0E111803E1010101910183A8C1E9FF38
:10054000A9C1EAFFEF5001085FE2A8C1E9FFA9C114
:10055000EAFFEF06010160A117D00CC2E6FF0D0E05
:10056000E66E020EE66E04C2E6FF05C2E6FF06C2B4
:10057000E6FF07C2E6FF08C2E6FF09C2E6FF0AC2BD
:10058000E6FFC9EC44F04AE902010C6B016A010183
:10059000AA51015C16E201500101EA6AA825E96E40
:1005A000A951EA22EF50E66E02010C510C2BEA6AC7
:1005B0000D0FE96E020EEA22E552E750EF6E012AB6
:1005C000E6D7A5C104F2ADC108F2AEC109F2AFC1D0
:1005D0000AF24EEC73F060C300F261C301F262C331
:1005E00002F263C303F2C80EE66EE66AD650E66E08
:1005F000E66A59EC5EF0E552E5CF39F3E7CF38F320
:1006000038C30BF20101608180D001014B510A18FF
:1006100002E14C510B1802E06CEF0DF00101495161
:10062000101802E14A51111802E06CEF0DF0010EB2
:100630000101EA6AA825E96EA951EA22EF50040BEC
:1006400064E0BECEA2F20201020EA36F0CEBA4F294
:100650000DEBA5F20EEBA6F20FEBA7F24BC1A8F241
:100660004CC1A9F249C1AAF24AC1ABF20A0E01017A
:10067000EA6AA825E96EA951EA22EFCFACF202019D
:10068000AD6B0201300EAE6F01010D0E486F01011E
:100690004A510F5C0DE0E66A0EEBE6FF0FEBE6FF5A
:1006A0000CEBE6FF0DEBE6FFFDEC1FF045E92BD070
:1006B00001019E6B01019E8B0101010EA16F0101E1
:1006C000010EA26F0101D9500E0F9F6FDACFA0F17A
:1006D0000CEBA3F10DEBA4F148C1E6FFA20EE66E10
:1006E000020EE66E9EC1E6FF9FC1E6FFA0C1E6FFD7
:1006F000A1C1E6FFA2C1E6FFA3C1E6FFA4C1E6FFD8
:10070000C9EC44F04AE9010101850B0E0101EA6AD6
:10071000A825E96EA951EA22EF5002E025EF0DF07D
:100720000C0E0101EA6AA825E96EA951EA22EF50F0
:10073000300802E10BEF0DF00C0E0101EA6AA8256A
:10074000E96EA951EA22EF50420A02E106EF0DF0EC
:10075000020A02E1DCEF0CF0010A02E171EF0CF099
:10076000F20A02E15CEF0CF0010A02E111EF0CF079
:10077000030A02E1DEEF0BF0010A02E1AEEF0BF03B
:10078000A10A02E1E2EF0AF0B50A02E182EF09F004
:10079000070A02E15CEF09F0010A02E122EF09F029
:1007A000030A02E132EF08F0010A01E1C1D1B00A07
:1007B00002E009EF0DF0010183B354D04EEC73F069
:1007C00060C39AF161C39BF162C39CF163C39DF165
:1007D000080E0101EA6AA825E96EA951EA22EFCFC5
:1007E00085F1090E0101EA6AA825E96EA951EA22FC
:1007F000EFCF86F1126A080E125C16E2020E122486
:100800000B0F0101EA6AA825E96EA951EA22EF500F
:10081000E66E1250EA6A870FE96E010EEA22E5528F
:10082000E750EF6E122AE7D701018383010183911C
:10083000126A010E125C15E2150E12240101EA6A19
:10084000A825E96EA951EA22EF50E66E1250EA6A35
:100850008F0FE96E010EEA22E552E750EF6E122A81
:10086000E8D764D1080E0101EA6AA825E96EA9510A
:10087000EA22EF500101855D0CE1090E0101EA6AEF
:10088000A825E96EA951EA22EF500101865D01E138
:100890004DD101018551861101E0B8D0126A080ED0
:1008A000125C26E20D0E12240101EA6AA825E96E07
:1008B000A951EA22EF50E66E1250EA6A920FE96EF1
:1008C000010EEA22E552E750EF6E1250EA6A920FEB
:1008D000E96E010EEA22EF50E66E1250EA6A4E0F00
:1008E000E96E010EEA22E552E750EF6E122AD7D7E1
:1008F000080E0101EA6AA825E96EA951EA22EFCFA4
:1009000090F1090E0101EA6AA825E96EA951EA22CF
:10091000EFCF91F190C156F191C157F14BC158F110
:100920004CC159F114EC25F00101846FFF0E010157
:10093000845D67E101018D0E5E6F010156AF02D04B
:1009400001015E9134EC26F00101846FFF0E01017C
:10095000845D57E2126A010E125C29E2150E122420
:100960000101EA6AA825E96EA951EA22EF50E66E74
:10097000010184510E0DF3CFE9FFF4CFEAFF600EC1
:10098000E926000EEA220D0EE926000EEA22E9CF42
:1009900038F3EACF39F312500301EA6A3825E96ED9
:1009A0003951EA22E552E750EF6E122AD4D70E0EE3
:1009B000E66EE66A010184510E0D03010301245124
:1009C000F3240301386F030103012551F4200301CF
:1009D000396F38C3E6FF39C3E6FF010184510E0DBC
:1009E000F3CF3AF3F4CF3BF3600E03013A27000E46
:1009F00003013B233AC3E6FF3BC3E6FFB2EC6AF0D8
:100A000046E9010183830101838190D001010B0E2E
:100A1000486F01014851482BEA6AA20FE96E020EA5
:100A2000EA22EF6A01014851482BEA6AA20FE96EF7
:100A3000020EEA22110EEF6E126A080E125C28E214
:100A40000D0E12240101EA6AA825E96EA951EA22D5
:100A5000EF50E66E1250EA6A920FE96E010EEA223A
:100A6000E552E750EF6E1250EA6A920FE96E010EFE
:100A7000EA22EF50E66E01014851482BEA6AA20FC4
:100A8000E96E020EEA22E552E750EF6E122AD5D740
:100A9000080E0101EA6AA825E96EA951EA22EFCF02
:100AA00090F1090E0101EA6AA825E96EA951EA222E
:100AB000EFCF91F101014851482BEA6AA20FE96E8C
:100AC000020EEA2290C1EFFF01014851482BEA6A69
:100AD000A20FE96E020EEA2291C1EFFF126A010E27
:100AE000125C17E2150E12240101EA6AA825E96ECC
:100AF000A951EA22EF50E66E01014851482BEA6AFB
:100B0000A20FE96E020EEA22E552E750EF6E122ABA
:100B1000E6D7E66AE66A850EE66E010EE66EEFEC53
:100B20002FF044E901018383010183810AEF0DF075
:100B3000020E0101795D01E093D20D0E0101EA6A16
:100B4000A825E96EA951EA22EF5001E09FD10101E9
:100B50000B0E486F01014851482BEA6AA20FE96E5B
:100B6000020EEA22EF6A01014851482BEA6AA20FFD
:100B7000E96E020EEA22A10EEF6E016A080E015C18
:100B80002AE20E0E01240101EA6AA825E96EA951A4
:100B9000EA22EF50E66E0150EA6A4E0FE96E010E4E
:100BA000EA22E552E750EF6E0E0E01240101EA6AD7
:100BB000A825E96EA951EA22EF50E66E01014851DD
:100BC000482BEA6AA20FE96E020EEA22E552E750CC
:100BD000EF6E012AD3D7D2EC25F0136EFF0E135C13
:100BE00001E0A8D00101566B010E016E100E015CF0
:100BF0000BE201EB57F114EC25F0136EFF0E135CC2
:100C000001E102D0012AF2D7100E015C01E388D085
:100C10000150EA6A720FE96E020EEA220FEBEFFF53
:100C200001014851482BEA6AA20FE96E020EEA223E
:100C300001EBEFFF01019D0E5E6F4BC158F14CC1FE
:100C400059F134EC26F0136E0A0E135C58E2016A77
:100C5000010E015C28E2160E01240101EA6AA825B2
:100C6000E96EA951EA22EF50E66E13500E0DF3CF54
:100C7000E9FFF4CFEAFF600EE926000EEA220D0E2E
:100C8000E926000EEA22E9CF38F3EACF39F3015022
:100C90000301EA6A3825E96E3951EA22E552E75044
:100CA000EF6E012AD5D70A0E135C28E20E0EE66E0F
:100CB000E66A13500E0D030103012451F3240301CE
:100CC000386F030103012551F4200301396F38C344
:100CD000E6FF39C3E6FF13500E0DF3CF3AF3F4CF1E
:100CE0003BF3600E03013A27000E03013B233AC396
:100CF000E6FF3BC3E6FFB2EC6AF046E910D00150D4
:100D0000EA6A720FE96E020EEA22EF6801014851A9
:100D1000482BEA6AA20FE96E020EEA22EF6809D0B8
:100D200001014851482BEA6AA20FE96E020EEA223D
:100D3000EF6885D013500E0DF3CFE9FFF4CFEAFF33
:100D4000600EE926000EEA22020EE926000EEA22D3
:100D5000EF5065E18FEB14F0145027E01450EA6A6D
:100D6000720FE96E020EEA22EFCF38F313500E0D28
:100D7000F3CFE9FFF4CFEAFF600EE926000EEA2286
:100D8000020EE926000EEA22E92A000EEA22EF50BE
:100D90000301385D01E109D01450EA6A720FE96E6F
:100DA000020EEA22EF50146ED7D7145019E11350F7
:100DB0000E0DF3CFE9FFF4CFEAFF600EE926000E37
:100DC000EA22020EE926000EEA22E92A000EEA22B1
:100DD000EF50EA6A720FE96E020EEA220FEBEFFFA4
:100DE00013500E0DF3CFE9FFF4CFEAFF600EE926B2
:100DF000000EEA22020EE926000EEA22E92A000E7F
:100E0000EA22EF50E66E01014851482BEA6AA20F30
:100E1000E96E020EEA22E552E750EF6E10D0135051
:100E20000E0DF3CFE9FFF4CFEAFF600EE926000EC6
:100E3000EA220C0EE926000EEA22EF6AD3D6E66A11
:100E4000E66AD9500E0FE66EDACFE6FFEFEC2FF030
:100E500044E901016083608560974EEC73F060C3E4
:100E600061F161C362F162C363F163C364F1120EA5
:100E70000101615F7A0E0101625B000E0101635B9B
:100E8000000E0101645B01015F81EAD0016A080E76
:100E9000015C15E20E0E01240101EA6AA825E96E43
:100EA000A951EA22EF50E66E0150EA6A4E0FE96E50
:100EB000010EEA22E552E750EF6E012AE8D7D2ECA4
:100EC00025F0136EFF0E135C01E1CAD00F0E016E08
:100ED00001505DE081EB15F0166A155056E0155093
:100EE000EA6A720FE96E020EEA22EF50FF0801E192
:100EF0004CD01550EA6A720FE96E020EEA22EFCF6B
:100F000038F313500E0DF3CFE9FFF4CFEAFF600E74
:100F1000E926000EEA22020EE926000EEA22E92A5C
:100F2000000EEA22EF500301385D21E10150EA6A28
:100F3000720FE96E020EEA22EF680101566B01EBB7
:100F400057F114EC25F0176EFF0E175C0FE01750E9
:100F50000E0DF3CFE9FFF4CFEAFF600EE926000E95
:100F6000EA220C0EE926000EEA22EF6A0ED0155096
:100F7000EA6A720FE96E020EEA22EF50156E165001
:100F8000162A100801E201D0A8D70106A1D71350F4
:100F90000E0DF3CFE9FFF4CFEAFF600EE926000E55
:100FA000EA22020EE926000EEA22E92A000EEA22CF
:100FB000EF50EA6A720FE96E020EEA22EF681350F0
:100FC0000E0DF3CFE9FFF4CFEAFF600EE926000E25
:100FD000EA220C0EE926000EEA22EF6A0E0EE66EF9
:100FE000E66A13500E0D030103012451F32403019B
:100FF000386F030103012551F4200301396F38C311
:10100000E6FF39C3E6FF13500E0DF3CF3AF3F4CFEA
:101010003BF3600E03013A27000E03013B233AC362
:10102000E6FF3BC3E6FFB2EC6AF046E901016083EC
:10103000608560974EEC73F060C361F161C362F14B
:1010400062C363F163C364F1120E0101615F7A0E42
:101050000101625B000E0101635B000E0101645B34
:101060000AEF0DF01A6A016A080E015C15E20D0E16
:1010700001240101EA6AA825E96EA951EA22EF508C
:10108000E66E0150EA6A4E0FE96E010EEA22E55261
:10109000E750EF6E012AE8D70101BF0E5E6F150E13
:1010A0000101EA6AA825E96EA951EA22EF50FF087A
:1010B00039E1D2EC25F0186E0A0E185C30E24AC114
:1010C00057F1010E196E016A0A0E015C12E219EB6A
:1010D00056F114EC25F0FF0809E1800E19240101F6
:1010E000566F14EC25F0FF0801E103D0192A012AFC
:1010F000EBD70A0E015C12E219500301386F396B0D
:10110000800E0301D89039BF03D0385D000E3959E5
:1011100003E219EB56F102D0010E1A6E02D00AEF6B
:101120000DF00BD00101566B150E0101EA6AA825DE
:10113000E96EA951EA22EFCF57F14BC158F14CC1EA
:1011400059F134EC26F0186E0201020EA26F56C15E
:10115000A3F257C1A4F21AEBA5F2016A010E015CD9
:1011600014E20150EA6ADC0FE96E010EEA22EF5048
:10117000E66E040E0124EA6AA20FE96E020EEA226C
:10118000E552E750EF6E012AE9D70101050E486FDD
:101190001850040DF3CFE9FFF4CFEAFFD50EE9268E
:1011A000020EEA22EE6AEE6AEE6AEE6AE66A010E64
:1011B000E66E18500E0DF3CFE9FFF4CFEAFF600E94
:1011C000E926000EEA22040EE926000EEA22E9CF03
:1011D00038F3EACF39F338C3E6FF39C3E6FF4B0EE5
:1011E000E66E010EE66ECEEC21F046E90A0E185CC2
:1011F00028E20E0EE66EE66A18500E0D030103019A
:101200002451F3240301386F030103012551F42015
:101210000301396F38C3E6FF39C3E6FF18500E0DDE
:10122000F3CF3AF3F4CF3BF3600E03013A27000EFD
:1012300003013B233AC3E6FF3BC3E6FFB2EC6AF08F
:1012400046E9E8D301010B0E486F01014851482BD4
:10125000EA6AA20FE96E020EEA22EF6A0101485122
:10126000482BEA6AA20FE96E020EEA22A30EEF6E85
:10127000016A100E015C15E20150EA6A720FE96E14
:10128000020EEA22EF50E66E01014851482BEA6A4D
:10129000A20FE96E020EEA22E552E750EF6E012A34
:1012A000E8D7E66AE66AD9500E0FE66EDACFE6FFB7
:1012B000EFEC2FF044E9AED3016A100E015C15E2A9
:1012C0000D0E01240101EA6AA825E96EA951EA225E
:1012D000EF50E66E0150EA6A720FE96E020EEA22E2
:1012E000E552E750EF6E012AE8D74EEC73F060C389
:1012F00061F161C362F162C363F163C364F101012F
:101300005F8188D30101AB51010801E35AD10D0E71
:101310001B6E1B500101EA6AA825E96EA951EA2259
:10132000EF501C6E016A020E015C45E20F50020D87
:10133000F3CF39F3F4CF3AF3820E03013927020ECB
:1013400003013A2301500301EA6A3925E96E3A5153
:10135000EA22EFCF38F31B2801240101EA6AA8250D
:10136000E96EA951EA22EF500301385D22E01B2803
:1013700001240101EA6AA825E96EA951EA22EF5089
:10138000E66E0F50020DF3CF38F3F4CF39F3820E2F
:1013900003013827020E0301392301500301EA6AD1
:1013A0003825E96E3951EA22E552E750EF6E010126
:1013B0005F85012AB8D7010E0101EA6AA625E96E08
:1013C000A751EA22EF50F80BE842E842E842EA6A05
:1013D000600FE96E020EEA22EFCF38F3010E010131
:1013E000EA6AA625E96EA751EA22EF50070B03012E
:1013F000396F010E0301395304E0E846FE0B39074B
:10140000FCE1030138152BE1010E0101EA6AA62572
:10141000E96EA751EA22EF50070B0301396F010E65
:101420000301395304E0E846FE0B3907FCE10301F0
:10143000386F010E0101EA6AA625E96EA751EA227A
:10144000EF50F80BE842E842E842EA6A600FE96EC2
:10145000020EEA2203013851EF1201015F83010EEF
:101460000101EA6AA625E96EA751EA22EF501C5C49
:1014700001E089D0010160A119D00CC2E6FF0D0E78
:10148000E66E020EE66E04C2E6FF05C2E6FF06C285
:10149000E6FF07C2E6FF08C2E6FF09C2E6FF0AC28E
:1014A000E6FFC9EC44F04AE9010160910201010E36
:1014B0000D6F0201020E0E6F4BC10FF24CC110F204
:1014C0000201FD0E116F020112694BC113F24CC1F2
:1014D00014F249C115F24AC116F201015C515C2BAC
:1014E0000201176F0201186B0201A40E196F0201AD
:1014F0000D0E0C6F02010C510C2BEA6A0D0FE96EF8
:10150000020EEA221CEBEFFF016A020E015C15E2FB
:101510000150EA6A600FE96E020EEA22EF50E66EB1
:1015200002010C510C2BEA6A0D0FE96E020EEA2241
:10153000E552E750EF6E012AE8D70201046B020181
:1015400004850201010E086F4BC109F24CC10AF279
:10155000C80EE66EE66AD650E66EE66A59EC5EF0B4
:10156000E552E5CF39F3E7CF38F338C30BF24EEC51
:1015700073F060C300F261C301F262C302F263C39D
:1015800003F2010160810F50EA6A690FE96E010EF2
:10159000EA22EF5004E101015F8301015F850F50F2
:1015A000EA6A690FE96E010EEA22030EEF6E4EEC55
:1015B00073F060C361F161C362F162C363F163C33D
:1015C00064F128D21D6A080E1D5C16E20B0E1D2464
:1015D000020F0101EA6AA825E96EA951EA22EF503B
:1015E000E66E1D50EA6A4E0FE96E010EEA22E552E0
:1015F000E750EF6E1D2AE7D701018D0E5E6F150EC5
:101600000101EA6AA825E96EA951EA22EF50800B90
:1016100002E001015E91150E0101EA6AA825E96E5A
:10162000A951EA22EFCF56F1160E0101EA6AA82568
:10163000E96EA951EA22EFCF57F14BC158F14CC1E5
:1016400059F114EC25F00101846FFF0E0101845D56
:1016500016E0010184510E0DF3CFE9FFF4CFEAFF4C
:10166000600EE926000EEA220C0EE926000EEA22A0
:10167000EFCF5EF101015E8501015E8708D00101B7
:101680008D0E5E6F010156AF02D001015E9134EC08
:1016900026F00101846FFF0E0101845D5AE21D6A8C
:1016A000010E1D5C29E2170E1D240101EA6AA8251E
:1016B000E96EA951EA22EF50E66E010184510E0D48
:1016C000F3CFE9FFF4CFEAFF600EE926000EEA222D
:1016D0000D0EE926000EEA22E9CF38F3EACF39F3FE
:1016E0001D500301EA6A3825E96E3951EA22E552B4
:1016F000E750EF6E1D2AD4D70E0EE66EE66A0101A2
:1017000084510E0D030103012451F3240301386FAA
:10171000030103012551F4200301396F38C3E6FFAB
:1017200039C3E6FF010184510E0DF3CF3AF3F4CF34
:101730003BF3600E03013A27000E03013B233AC33B
:10174000E6FF3BC3E6FFB2EC6AF046E901018381A4
:1017500002D001018391010183935CD10D0E01013F
:10176000EA6AA825E96EA951EA22EF501E6E0E0E14
:101770000101EA6AA825E96EA951EA22EF501F6E1D
:101780000F0E0101EA6AA825E96EA951EA22EF507D
:10179000206E100E0101EA6AA825E96EA951EA221D
:1017A000EF50216E1EEBE6FF1FEBE6FF20EBE6FF9E
:1017B00021EBE6FFCAEC37F044E92CD10D0E010114
:1017C000EA6AA825E96EA951EA22EFCF7BF10E0E55
:1017D0000101EA6AA825E96EA951EA22EFCF7CF15E
:1017E0000F0E0101EA6AA825E96EA951EA22EFCF9E
:1017F0007DF1100E0101EA6AA825E96EA951EA22DD
:10180000EFCF7EF101017A6B01017A814EEC73F02A
:1018100060C37FF161C380F162C381F163C382F170
:10182000F9D00301800E386F0D0E0101EA6AA82578
:10183000E96EA951EA22EF50EA6A400FE96E020E02
:10184000EA22EF500301385D36E201010B0E486FCA
:1018500001014851482BEA6AA20FE96E020EEA2202
:10186000EF6A01014851482BEA6AA20FE96E020EA5
:10187000EA22B30EEF6E0D0E0101EA6AA825E96EA9
:10188000A951EA22EF50E66E01014851482BEA6A5D
:10189000A20FE96E020EEA22E552E750EF6E010157
:1018A000566B576BE66AE66A560EE66E010EE66EFA
:1018B000EFEC2FF044E9AED00D0E0101EA6AA82545
:1018C000E96EA951EA22EFCF38F301017A51F80B02
:1018D000E842E842E8420301385D02E101017A850D
:1018E00099D00D0E0101EA6AA825E96EA951EA22F4
:1018F000EF500E01BA5D01E08DD00101486BBECE04
:10190000A2F20201020EA36F4BC1A4F24CC1A5F2D8
:10191000080E0101EA6AA825E96EA951EA22EFCF73
:10192000A6F2090E0101EA6AA825E96EA951EA2288
:10193000EFCFA7F24BC1A8F24CC1A9F249C1AAF25C
:101940004AC1ABF201015C515C2B0201AC6F020198
:10195000AD6B0201420EAE6F01019E6B01019E8BC9
:101960000101010EA16F0101010EA26F4BC1A3F194
:101970004CC1A4F1080E0101A82501019F6F000EC2
:101980000101A9210101A06F0D0EE66EA20EE66E07
:10199000020EE66E9EC1E6FF9FC1E6FFA0C1E6FF14
:1019A000A1C1E6FFA2C1E6FFA3C1E6FFA4C1E6FF15
:1019B000C9EC44F04AE92ED00D0E0101EA6AA825CF
:1019C000E96EA951EA22EF500E01BA5D1EE14EEC1C
:1019D00073F060C37FF161C380F162C381F163C3BF
:1019E00082F101017A830E0E0101EA6AA825E96EEF
:1019F000A951EA22EF5001011F0BF36EF346F346A3
:101A0000F346070E7A15F3107A6F04D001015D9D3D
:101A100001D000D019D00A0E0101EA6AA825E96EAA
:101A2000A951EA22EF500E01BC5D09E101015A51B2
:101A30000E1802E15B510F1802E101015D970E5093
:101A4000800800E20AEF17F046D00B0E0101AA5DF4
:101A50000101086F0B0E0101A8250101066F000EA0
:101A60000101A9210101076F0CEB02F10DEB03F15C
:101A7000080E0101EA6AA825E96EA951EA22EF5091
:101A8000FF0815E1090E0101EA6AA825E96EA951CE
:101A9000EA22EF50FF080BE10101AD510101019F66
:101AA000E8B0018FA6C104F1A7C105F10CD0010176
:101AB000018F080E0101A8250101046F000E01012C
:101AC000A9210101056F0101018D010108510008E3
:101AD00002E201015D8571D0A8C1E9FFA9C1EAFF59
:101AE000EF5000086AE2A8C1E9FFA9C1EAFFEF06CA
:101AF0000101486B016A0101AA51015C16E2015023
:101B00000101EA6AA825E96EA951EA22EF50E66EC2
:101B100001014851482BEA6AA20FE96E020EEA223F
:101B2000E552E750EF6E012AE6D701014A51115CF8
:101B300033E10201AD5130E1300E0201AE5D2CE126
:101B400001019E6B01019E8B0101010EA16F01013C
:101B5000010EA26F0101D950100F9F6FDACFA0F1D3
:101B60000AEBA3F10BEBA4F148C1E6FFA20EE66E6F
:101B7000020EE66E9EC1E6FF9FC1E6FFA0C1E6FF32
:101B8000A1C1E6FFA2C1E6FFA3C1E6FFA4C1E6FF33
:101B9000C9EC44F04AE911D00101A551080B01E05C
:101BA000010EE66E10EBE6FF11EBE6FF0AEBE6FF37
:101BB0000BEBE6FFFDEC1FF045E90AEF17F0226A98
:101BC000040E22240101EA6AA825E96EA951EA223D
:101BD000EF505D0802E00AEF17F001015DA162D14C
:101BE000AEC158F1AFC159F1A6C1E9FFA7C1EAFFE3
:101BF000EFCF56F1010E0101EA6AA625E96EA75161
:101C0000EA22EFCF57F122500101EA6AA825E96ED6
:101C1000A951EA22EF50FF0801E044D12228010136
:101C2000EA6AA825E96EA951EA22EF50236E040E54
:101C300001010B5D01E336D1D950230FE96EDACFF4
:101C4000EAFFEF50300BE842E842E842E842010880
:101C500001E228D101010B510F0DF3CFE9FFF4CFC1
:101C6000EAFF0C0EE926010EEA22BACEEFFF0101CF
:101C70000B510F0DF3CFE9FFF4CFEAFF0C0EE9266D
:101C8000010EEA220B0EE926000EEA2209C1EFFF3F
:101C900001010B510F0DF3CFE9FFF4CFEAFF0C0E5A
:101CA000E926010EEA220C0EE926000EEA220AC1FC
:101CB000EFFF01010B510F0DF3CFE9FFF4CFEAFF66
:101CC0000C0EE926010EEA22090EE926000EEA2290
:101CD00058C1EEFF59C1EDFF01010B510F0DF3CFBC
:101CE000E9FFF4CFEAFF0C0EE926010EEA220D0E01
:101CF000E926000EEA22EF6A01010B510F0DF3CF26
:101D0000E9FFF4CFEAFF0C0EE926010EEA220D0EE0
:101D1000E926000EEA22EF8CD950230FE96EDACFC4
:101D2000EAFFEF50060BE8420301386F01010B5147
:101D30000F0DF3CFE9FFF4CFEAFF0C0EE926010EF9
:101D4000EA220D0EE926000EEA2203013851030BA8
:101D5000F36EFC0EEF14F310EF6ED950230FE96E03
:101D6000DACFEAFFEF50080B10E001010B510F0D25
:101D7000F3CFE9FFF4CFEAFF0C0EE926010EEA22C9
:101D80000D0EE926000EEA22EF86D950230FE96EE8
:101D9000DACFEAFFEF50300BE842E842E842E8428F
:101DA000010810E301010B510F0DF3CFE9FFF4CF50
:101DB000EAFF0C0EE926010EEA220D0EE926000EBE
:101DC000EA22EF8A01010B510F0DF3CFE9FFF4CFA7
:101DD000EAFF0C0EE926010EEA220D0EE926000E9E
:101DE000EA22EF8E04C1E9FF05C1EAFFEF50E66E7B
:101DF00001010B510F0DF3CFE9FFF4CFEAFF0C0EF9
:101E0000E926010EEA22EE52E552E750EF6E010E8E
:101E10000101EA6A0425E96E0551EA22EF50E66EF7
:101E200001010B510F0DF3CFE9FFF4CFEAFF0C0EC8
:101E3000E926010EEA22EE52E92A000EEA22E552D4
:101E4000E750EF6E016A010E015C2AE2060E2224C1
:101E500001240101EA6AA825E96EA951EA22EF509E
:101E6000E66E01010B510F0DF3CFE9FFF4CFEAFF4E
:101E70000C0EE926010EEA220E0EE926000EEA22D9
:101E8000E9CF38F3EACF39F301500301EA6A382584
:101E9000E96E3951EA22E552E750EF6E012AD3D7B5
:101EA00001010B2B0AEF17F0A8C1E9FFA9C1EAFF56
:101EB000EF50070A02E1E8EF16F0040A02E18AEFA8
:101EC00013F0010A01E1CDD2030A02E007EF17F097
:101ED000256A0E01BB51010802E208EF17F001016B
:101EE0005DB302D008EF17F0016A080E015C14E23E
:101EF00001500101EA6AA625E96EA751EA22EF50D6
:101F0000E66E0150EA6A4E0FE96E010EEA22E552D2
:101F1000E750EF6E012AE9D7D2EC25F0246EFF0ED0
:101F2000245C6BE024500E0DF3CFE9FFF4CFEAFF01
:101F3000600EE926000EEA220C0EE926000EEA22C7
:101F4000EF50200B5AE001014D51245C56E0245023
:101F50000E0DF3CFE9FFF4CFEAFF600EE926000E85
:101F6000EA220C0EE926000EEA22EF50080B45E0AB
:101F700024500E0DF3CFE9FFF4CFEAFF600EE926FF
:101F8000000EEA22020EE926000EEA22EECF56F1FA
:101F9000EDCF57F10E01BB51010802E208EF17F037
:101FA000016A010E015C28E2020E01240101EA6AC5
:101FB000A825E96EA951EA22EF50E66E24500E0DD5
:101FC000F3CFE9FFF4CFEAFF600EE926000EEA2224
:101FD0000D0EE926000EEA22E9CF38F3EACF39F3F5
:101FE00001500301EA6A3825E96E3951EA22E552C7
:101FF000E750EF6E012AD5D7E0D10E01BB510008A2
:1020000002E208EF17F00101A70E5E6F4BC158F115
:102010004CC159F134EC26F0246EFF0E245C07E12C
:10202000010E256E0101FE0E566F5769C6D1016A79
:10203000010E015C28E2020E01240101EA6AA825D2
:10204000E96EA951EA22EF50E66E24500E0DF3CF4F
:10205000E9FFF4CFEAFF600EE926000EEA220D0E3A
:10206000E926000EEA22E9CF38F3EACF39F301502E
:102070000301EA6A3825E96E3951EA22E552E75050
:10208000EF6E012AD5D7010E0101EA6AA825E96E93
:10209000A951EA22EF50400B01E1CFD0020E01011D
:1020A000795D60E001010B0E486F01014851482B3A
:1020B000EA6AA20FE96E020EEA22EF6A01014851B4
:1020C000482BEA6AA20FE96E020EEA22A00EEF6E1A
:1020D00001014851482BEA6AA20FE96E020EEA227A
:1020E000EF6A016A080E015C15E20150EA6A4E0FC0
:1020F000E96E010EEA22EF50E66E01014851482BCD
:10210000EA6AA20FE96E020EEA22E552E750EF6E8C
:10211000012AE8D7016A010E015C15E20150EA6A62
:10212000DC0FE96E010EEA22EF50E66E0101485124
:10213000482BEA6AA20FE96E020EEA22E552E75046
:10214000EF6E012AE8D70101566B576BE66AE66A23
:10215000560EE66E010EE66EEFEC2FF044E908EF46
:1021600017F06AD00101566B010E276E100E275C26
:1021700032E227EB57F114EC25F0266EFF0E265CB9
:1021800028E10101566B27EB57F12750EA6A720FDD
:10219000E96E020EEA22EF6A0101608360856097B2
:1021A0004EEC73F060C361F161C362F162C363F12D
:1021B00063C364F1120E0101615F7A0E0101625B7B
:1021C000000E0101635B000E0101645B01015F8190
:1021D00002D0272ACBD7100E275C2EE10101576BC6
:1021E000010E016E01500301386F396B800E03013F
:1021F000D89039BF03D0385D000E395913E201EB96
:1022000056F114EC25F0FF080BE1800E01240101CA
:10221000566F14EC25F0FF0803E101EB56F102D0F4
:10222000012AE0D701507F0807E2010E256E010167
:10223000FE0E566F5769C1D02ED04AC157F1010E1C
:10224000016E01500301386F396B800E0301D89085
:1022500039BF03D0385D000E395913E201EB56F156
:1022600014EC25F0FF080BE1800E01240101566FEC
:1022700014EC25F0FF0803E101EB56F102D0012A2E
:10228000E0D701507F0807E2010E256E0101FE0E26
:10229000566F576992D00101BF0E5E6F010E0101AA
:1022A000EA6AA825E96EA951EA22EF50010B04E180
:1022B00001015E910101568F11D024500E0DF3CF14
:1022C000E9FFF4CFEAFF600EE926000EEA220C0EC9
:1022D000E926000EEA22EF6A020E256E25506DE116
:1022E0004BC158F14CC159F134EC26F0246E0A0E62
:1022F000245C63E224500E0DF3CFE9FFF4CFEAFF34
:10230000600EE926000EEA220C0EE926000EEA22F3
:10231000EF88016A010E015C28E2020E012401012E
:10232000EA6AA825E96EA951EA22EF50E66E245028
:102330000E0DF3CFE9FFF4CFEAFF600EE926000EA1
:10234000EA220D0EE926000EEA22E9CF38F3EACFA1
:1023500039F301500301EA6A3825E96E3951EA225E
:10236000E552E750EF6E012AD5D70E0EE66EE66A0B
:1023700024500E0D030103012451F3240301386F8F
:10238000030103012551F4200301396F38C3E6FF2F
:1023900039C3E6FF24500E0DF3CF3AF3F4CF3BF3ED
:1023A000600E03013A27000E03013B233AC3E6FF08
:1023B0003BC3E6FFB2EC6AF046E90201020EA26FEF
:1023C00056C1A3F257C1A4F225EBA5F2016A010E92
:1023D000015C14E20150EA6ADC0FE96E010EEA22A8
:1023E000EF50E66E040E0124EA6AA20FE96E020EB7
:1023F000EA22E552E750EF6E012AE9D70101050E06
:10240000486F2450040DF3CFE9FFF4CFEAFFD50E57
:10241000E926020EEA22EE6AEE6AEE6AEE6AE66AE1
:10242000010EE66E24500E0DF3CFE9FFF4CFEAFF64
:10243000600EE926000EEA22040EE926000EEA22CA
:10244000E9CF38F3EACF39F338C3E6FF39C3E6FF03
:102450004B0EE66E010EE66ECEEC21F046E908EF7B
:1024600017F0030E0101EA6AA825E96EA951EA22D4
:10247000EF5001E01FD1010E0101EA6AA825E96EC3
:10248000A951EA22EFCF49F1020E0101EA6AA8251B
:10249000E96EA951EA22EFCF4AF1010149510EE15B
:1024A0000101010E796F010179510101030BF36EF6
:1024B000F346F90E0015F310006F0CD00101796B93
:1024C000010179510101030BF36EF346F90E00157A
:1024D000F310006F010EE66EE66A34C3E6FF35C303
:1024E000E6FF790EE66E010EE66EB2EC6AF046E9A2
:1024F0004B0EE66E010EE66E490EE66E010EE66EBE
:102500008EEC48F044E901015D830101BF0E5E6F6E
:10251000016A080E015C14E201500101EA6AA62575
:10252000E96EA751EA22EF50E66E0150EA6A4E0FBB
:10253000E96E010EEA22E552E750EF6E012AE9D773
:1025400001014D510E0DF3CFE9FFF4CFEAFF600E0C
:10255000E926000EEA22020EE926000EEA22EECF5C
:1025600056F1EDCF57F14BC158F14CC159F134EC54
:1025700026F001014D6F01014D51040DF3CFE9FF2C
:10258000F4CFEAFFD50EE926020EEA22EE6AEE6AE1
:10259000EE6AEE6A016A010E015C29E2040E012472
:1025A0000101EA6AA825E96EA951EA22EF50E66E18
:1025B00001014D510E0DF3CFE9FFF4CFEAFF600E9C
:1025C000E926000EEA220D0EE926000EEA22E9CFE6
:1025D00038F3EACF39F301500301EA6A3825E96E8E
:1025E0003951EA22E552E750EF6E012AD4D70101B2
:1025F0006089608B609D4EEC73F060C361F161C3D4
:1026000062F162C363F163C364F1020EE66EE66ACF
:102610001EC3E6FF1FC3E6FF4B0EE66E010EE66E1D
:10262000B2EC6AF046E9020EE66EE66A28C3E6FFFF
:1026300029C3E6FF490EE66E010EE66EB2EC6AF0C3
:1026400046E9010EE66EE66A2CC3E6FF2DC3E6FFFF
:102650004D0EE66E010EE66EB2EC6AF046E90E0E25
:10266000E66EE66A01014D510E0D0301030124518E
:10267000F3240301386F030103012551F420030102
:10268000396F38C3E6FF39C3E6FF01014D510E0D26
:10269000F3CF3AF3F4CF3BF3600E03013A27000E79
:1026A00003013B233AC3E6FF3BC3E6FFB2EC6AF00B
:1026B00046E92FD001014D6901014B694C690101C7
:1026C000566957694B0EE66E010EE66E560EE66EC3
:1026D000010EE66E8EEC48F044E9010EE66EE66A05
:1026E0002CC3E6FF2DC3E6FF4D0EE66E010EE66E2F
:1026F000B2EC6AF046E9020EE66EE66A1EC3E6FF39
:102700001FC3E6FF4B0EE66E010EE66EB2EC6AF0FA
:1027100046E97ED301015DA37BD30101AD5117E0F2
:10272000A6C1E9FFA7C1EAFFEFCF56F1010E0101F3
:10273000EA6AA625E96EA751EA22EFCF57F114EC19
:1027400025F0286EFF0E285C01E162D31FD0016ADC
:10275000080E015C14E201500101EA6AA625E96E47
:10276000A751EA22EF50E66E0150EA6A4E0FE96E79
:10277000010EEA22E552E750EF6E012AE9D7D2ECCA
:1027800025F0286EFF0E285C01E142D328500E0D83
:10279000F3CFE9FFF4CFEAFF600EE926000EEA224C
:1027A0000C0EE926000EEA22EF50200B01E10FD3B8
:1027B00001014D51285C01E171D128500E0DF3CF7C
:1027C000E9FFF4CFEAFF600EE926000EEA22020ECE
:1027D000E926000EEA22EF5001E028D1020E0101A5
:1027E000795D01E0CBD00F0E016E01505DE081EB11
:1027F00029F02A6A295056E02950EA6A720FE96ED8
:10280000020EEA22EF50FF0801E14CD02950EA6A9B
:10281000720FE96E020EEA22EFCF38F328500E0D48
:10282000F3CFE9FFF4CFEAFF600EE926000EEA22BB
:10283000020EE926000EEA22E92A000EEA22EF50F3
:102840000301385D21E10150EA6A720FE96E020E60
:10285000EA22EF680101566B01EB57F114EC25F009
:102860002B6EFF0E2B5C0FE02B500E0DF3CFE9FF0C
:10287000F4CFEAFF600EE926000EEA220C0EE926EC
:10288000000EEA22EF6A0ED02950EA6A720FE96E52
:10289000020EEA22EF50296E2A502A2A100801E27D
:1028A00001D0A8D70106A1D728500E0DF3CFE9FF1C
:1028B000F4CFEAFF600EE926000EEA22020EE926B6
:1028C000000EEA22E92A000EEA22EF50EA6A720FAD
:1028D000E96E020EEA22EF6828500E0DF3CFE9FFF1
:1028E000F4CFEAFF600EE926000EEA220C0EE9267C
:1028F000000EEA22EF6A0E0EE66EE66A28500E0D12
:10290000030103012451F3240301386F0301030180
:102910002551F4200301396F38C3E6FF39C3E6FFC0
:1029200028500E0DF3CF3AF3F4CF3BF3600E0301C2
:102930003A27000E03013B233AC3E6FF3BC3E6FF01
:10294000B2EC6AF046E901016083608560974EEC65
:1029500073F060C361F161C362F162C363F163C389
:1029600064F1120E0101615F7A0E0101625B000EDB
:102970000101635B000E0101645B58D001010B0E85
:10298000486F01014851482BEA6AA20FE96E020E16
:10299000EA22EF6A01014851482BEA6AA20FE96E68
:1029A000020EEA22A00EEF6E01014851482BEA6A9E
:1029B000A20FE96E020EEA22010EEF6E016A080E06
:1029C000015C28E228500E0DF3CFE9FFF4CFEAFFB7
:1029D000600EE926000EEA22040EE926000EEA2225
:1029E000E9CF38F3EACF39F301500301EA6A382519
:1029F000E96E3951EA22EF50E66E01014851482B49
:102A0000EA6AA20FE96E020EEA22E552E750EF6E83
:102A1000012AD5D70101566B576BE66AE66A560E56
:102A2000E66E010EE66EEFEC2FF044E928500E0D35
:102A3000F3CFE9FFF4CFEAFF600EE926000EEA22A9
:102A40000C0EE926000EEA22EF6A0E0EE66EE66A2A
:102A500028500E0D030103012451F3240301386FA4
:102A6000030103012551F4200301396F38C3E6FF48
:102A700039C3E6FF28500E0DF3CF3AF3F4CF3BF302
:102A8000600E03013A27000E03013B233AC3E6FF21
:102A90003BC3E6FFB2EC6AF046E999D1016A0A0E3F
:102AA000015C01E391D001500E0DF3CFE9FFF4CFAB
:102AB000EAFF600EE926000EEA220C0EE926000E5F
:102AC000EA22EF50800B6FE001500E0DF3CFE9FFCB
:102AD000F4CFEAFF600EE926000EEA220C0EE9268A
:102AE000000EEA22EF50200B5EE001014D51015C27
:102AF0005AE00101486B01014851482BEA6AA20FD4
:102B0000E96E020EEA22030EEF6E01019E6B0101D7
:102B10009E8B01019E819E930101010EA16F010117
:102B2000010EA26F4BC1A3F14CC1A4F101500E0DD7
:102B3000F3CFE9FFF4CFEAFF600EE926000EEA22A8
:102B4000020EE926000EEA22E9CF9FF1EACFA0F1BA
:102B500048C1E6FFA20EE66E020EE66E9EC1E6FFDB
:102B60009FC1E6FFA0C1E6FFA1C1E6FFA2C1E6FF4B
:102B7000A3C1E6FFA4C1E6FFC9EC44F04AE9640E34
:102B80002C6E2D6A2CEB38F32DEB39F32C06000E4E
:102B90002D5A03013851391106E0040EE66E55EC4A
:102BA00074F041E9EFD701500E0DF3CFE9FFF4CFF8
:102BB000EAFF600EE926000EEA220C0EE926000E5E
:102BC000EA22EF6A012A6BD701010B0E486F01015F
:102BD0004851482BEA6AA20FE96E020EEA22EF6A18
:102BE00001014851482BEA6AA20FE96E020EEA225F
:102BF000A00EEF6E01014851482BEA6AA20FE96E60
:102C0000020EEA22010EEF6E016A080E015C28E254
:102C100028500E0DF3CFE9FFF4CFEAFF600EE9264E
:102C2000000EEA22040EE926000EEA22E9CF38F36C
:102C3000EACF39F301500301EA6A3825E96E3951C8
:102C4000EA22EF50E66E01014851482BEA6AA20FD2
:102C5000E96E020EEA22E552E750EF6E012AD5D75F
:102C60000101566B576BE66AE66A560EE66E010E78
:102C7000E66EEFEC2FF044E901014D69010149696D
:102C80004A6901014B694C694B0EE66E010EE66E16
:102C9000490EE66E010EE66E8EEC48F044E9010145
:102CA0005D93016A100E015C23E20150EA6A720F23
:102CB000E96E020EEA22EF68286A020E285C16E22C
:102CC0000150020DF3CF38F3F4CF39F3820E030134
:102CD0003827020E0301392328500301EA6A3825F8
:102CE000E96E3951EA22EF6A282AE7D7012ADAD7B2
:102CF000016A020E015C09E20150EA6A600FE96EA6
:102D0000020EEA22EF6A012AF4D7010EE66EE66AA5
:102D10002CC3E6FF2DC3E6FF4D0EE66E010EE66EF8
:102D2000B2EC6AF046E9020EE66EE66A28C3E6FFF8
:102D300029C3E6FF490EE66E010EE66EB2EC6AF0BC
:102D400046E9020EE66EE66A1EC3E6FF1FC3E6FF13
:102D50004B0EE66E010EE66EB2EC6AF046E9100E1E
:102D6000E66EE66A32C3E6FF33C3E6FF720EE66E36
:102D7000020EE66EB2EC6AF046E9020EE66EE66A14
:102D80002EC3E6FF2FC3E6FF600EE66E020EE66E70
:102D9000B2EC6AF046E9200EE66EE66A30C3E6FF62
:102DA00031C3E6FF820EE66E020EE66EB2EC6AF00A
:102DB00046E98C0EE66EE66A24C3E6FF25C3E6FF0D
:102DC000600EE66E000EE66EB2EC6AF046E920D0C8
:102DD0000E01BB51020801E21BD001015DA316D018
:102DE000010E0101EA6AA825E96EA951EA22EF5015
:102DF0000E01BA5D01E00CD00101795107E0C80E67
:102E0000E66E40EC00F041E966EC25F001D000D020
:102E100001D000D001015DB502D0B8EC44F04EEC19
:102E200073F060C338F361C339F362C33AF363C329
:102E30003BF303013851026E3951036E3A51046E6F
:102E40003B51056E016A050E015C01E3BBD00150E8
:102E5000080DF3CFE9FFF4CFEAFFB00EE926010E2B
:102E6000EA22030EE926000EEA22EF50000801E3F1
:102E7000A7D00150080DF3CFE9FFF4CFEAFFB00E61
:102E8000E926010EEA22040EE926000EEA22EE509F
:102E9000025CEE500358EE500458EE5005582BE3F8
:102EA00002EB3CF303EB3DF304EB3EF305EB3FF3A6
:102EB0000150080DF3CFE9FFF4CFEAFFB00EE92689
:102EC000010EEA22040EE926000EEA22EE5003016A
:102ED0003C5D0301386FEE5003013D590301396F2A
:102EE000EE5003013E5903013A6FEE5003013F5982
:102EF00003013B6F4BD0030144694569466947694B
:102F00000150080DF3CFE9FFF4CFEAFFB00EE92638
:102F1000010EEA22040EE926000EEA22EE50030119
:102F2000445D0301406FEE50030145590301416FB9
:102F3000EE50030146590301426FEE500301475919
:102F40000301436FD950020FE96EDACFEAFF0301A4
:102F50004051EE240301386F03014151EE2003017B
:102F6000396F03014251EE2003013A6F03014351CF
:102F7000EE2003013B6F0301382B000E03013923C0
:102F8000000E03013A23000E03013B23D880120EEA
:102F9000030138557A0E3955000E3A55000E3B554F
:102FA0000FE20150080DF3CFE9FFF4CFEAFFB00EB6
:102FB000E926010EEA22030EE926000EEA22EF6A54
:102FC000012A41D7D950020FE96EDACFEAFF010199
:102FD0006151EE5C0301386F01016251EE5803014B
:102FE000396F01016351EE5803013A6F01016451D9
:102FF000EE5803013B6F03013851066E3951076EDD
:103000003A51086E3B51096E010160510E0BE842C6
:10301000000859E206502408F40E0754000E085424
:10302000000E09544FE2600EE96E010EEA6EEF5099
:103030000E0BE842E806F36EF350070BF36EF46EE6
:10304000F346F10EEF14F310EF6E01010B0E486F13
:1030500001014851482BEA6AA20FE96E020EEA22EA
:10306000EF6A01014851482BEA6AA20FE96E020E8D
:10307000EA22A30EEF6E016A100E015C15E2015008
:10308000EA6A720FE96E020EEA22EF50E66E010163
:103090004851482BEA6AA20FE96E020EEA22E55275
:1030A000E750EF6E012AE8D7E66A020EE66E0BECF7
:1030B0002EF042E902EB61F103EB62F104EB63F104
:1030C00005EB64F167D101016051700BE842E84201
:1030D000E842E84200086FE206502408F40E075464
:1030E000000E0854000E095465E2600EE96E010EF0
:1030F000EA6EEF50700BE842E842E842E842E80628
:10310000F36EF350070BF36EF46EF346F346F3469B
:10311000F3468F0EEF14F310EF6E01010B0E486FA4
:1031200001014851482BEA6AA20FE96E020EEA2219
:10313000EF6A01014851482BEA6AA20FE96E020EBC
:10314000EA22A40EEF6E01014851482BEA6AA20F51
:10315000E96E020EEA224AC1EFFF016A020E015C2B
:1031600015E20150EA6A600FE96E020EEA22EF50A2
:10317000E66E01014851482BEA6AA20FE96E020E81
:10318000EA22E552E750EF6E012AE8D70E01010E60
:10319000BE6FE66A020EE66E0BEC2EF042E90E01FF
:1031A000110EBE6F02EB61F103EB62F104EB63F110
:1031B00005EB64F1EFD0FF0E0201725D36E1010113
:1031C000790533E1010101015D51020B2EE006504A
:1031D0002408F40E0754000E0854000E095424E28B
:1031E00001010B0E486F01014851482BEA6AA20FFA
:1031F000E96E020EEA22EF6A01014851482BEA6AA1
:10320000A20FE96E020EEA22A20EEF6EE66A4DC12F
:10321000E6FF69EC2EF042E902EB61F103EB62F1AB
:1032200004EB63F105EB64F1B5D001015FA15CD063
:1032300006509008D00E0754030E0854000E09548F
:1032400052E201015F91020E0101795D3EE0010150
:103250004A51EA6A720FE96E020EEA22EFCF38F3A2
:1032600001014D510E0DF3CFE9FFF4CFEAFF600EDF
:10327000E926000EEA22020EE926000EEA22E92AD9
:10328000000EEA22EF500301385D1FE00101566B8A
:1032900001014A51EA6A720FE96E020EEA22EFCF8B
:1032A00057F114EC25F0016E0A0E015C03E201EB0C
:1032B0004DF10BD00101BB0E5E6F4BC158F14CC1FB
:1032C00059F134EC26F001014D6F100EE66EE66AFE
:1032D00032C3E6FF33C3E6FF720EE66E020EE66E01
:1032E000B2EC6AF046E956D001015FA31AD006504D
:1032F0009008D00E0754030E0854000E095410E233
:1033000001015F93020EE66EE66A2EC3E6FF2FC34D
:10331000E6FF600EE66E020EE66EB2EC6AF046E97B
:1033200039D001015FA51AD006509008D00E07547D
:10333000030E0854000E095410E201015F95200E9F
:10334000E66EE66A30C3E6FF31C3E6FF820EE66E44
:10335000020EE66EB2EC6AF046E91CD001015FA7EE
:1033600019D006509008D00E0754030E0854000ED2
:10337000095410E201015F978C0EE66EE66A24C3E1
:10338000E6FF25C3E6FF600EE66E000EE66EB2ECC9
:103390006AF046E9010160A1A4D002010051025C7B
:1033A0000151035802510458035105581AE3D950EA
:1033B000020FE96EDACFEAFF02010051EE5C030171
:1033C000386F02010151EE580301396F02010251B9
:1033D000EE5803013A6F02010351EE5803013B6FAF
:1033E00041D003014069416942694369000EE96EB9
:1033F000020EEA6EEE500301405D03013C6FEE5099
:103400000301415903013D6FEE500301425903018D
:103410003E6FEE500301435903013F6FD950020F35
:10342000E96EDACFEAFF03013C51EE240301386F65
:1034300003013D51EE200301396F03013E51EE209F
:1034400003013A6F03013F51EE2003013B6F03017B
:10345000382B000E03013923000E03013A23000E1E
:1034600003013B230BC2E6FFE66AE66AE66A3E0E0C
:10347000E66EE66AE66AE66ACFEC5FF0E552E5CF13
:1034800047F3E5CF46F3E5CF45F3E7CF44F3030138
:1034900038510301445D03013951030145590301CA
:1034A0003A510301465903013B510301475919E2BF
:1034B000010160910CC2E6FF0D0EE66E020EE66E93
:1034C00004C2E6FF05C2E6FF06C2E6FF07C2E6FF4A
:1034D00008C2E6FF09C2E6FF0AC2E6FFC9EC44F0F3
:1034E0004AE90101795101E1ECD001016551025C29
:1034F0006651035867510458685105581AE3D9506A
:10350000020FE96EDACFEAFF01016551EE5C0301BB
:10351000386F01016651EE580301396F010167519F
:10352000EE5803013A6F01016851EE5803013B6FF9
:1035300041D003014069416942694369650EE96E02
:10354000010EEA6EEE500301405D03013C6FEE5048
:103550000301415903013D6FEE500301425903013C
:103560003E6FEE500301435903013F6FD950020FE4
:10357000E96EDACFEAFF03013C51EE240301386F14
:1035800003013D51EE200301396F03013E51EE204E
:1035900003013A6F03013F51EE2003013B6F03012A
:1035A000382B000E03013923000E03013A23000ECD
:1035B00003013B23D880400E030138553A0E39559C
:1035C000690E3A550D0E3B5501E37BD00101608930
:1035D000609B609D4EEC73F060C361F161C362F16A
:1035E00062C363F163C364F161C165F162C166F1F5
:1035F00063C167F164C168F1016A100E015C61E2A8
:103600000150EA6A690FE96E010EEA22EF500008E4
:1036100056E20150EA6A690FE96E010EEA22EF06EE
:103620000150EA6A690FE96E010EEA22EF5047E1A4
:103630000150F80BE842E842E842EA6A600FE96E9E
:10364000020EEA22EFCF38F30150070B0301396F66
:10365000010E0301395304E0E846FE0B3907FCE193
:10366000FF0A03013815E66E0150F80BE842E84204
:10367000E842EA6A600FE96E020EEA22E552E7507C
:10368000EF6E2E6A020E2E5C16E20150020DF3CF91
:1036900038F3F4CF39F3820E03013827020E030109
:1036A00039232E500301EA6A3825E96E3951EA229E
:1036B000EF6A2E2AE7D701015F8301015F85012AA6
:1036C0009CD701017AA37DD001017F51025C80511A
:1036D000035881510458825105581AE3D950020FFA
:1036E000E96EDACFEAFF01017F51EE5C0301386F2A
:1036F00001018051EE580301396F01018151EE58EB
:1037000003013A6F01018251EE5803013B6F41D032
:10371000030140694169426943697F0EE96E010E08
:10372000EA6EEE500301405D03013C6FEE50030171
:10373000415903013D6FEE500301425903013E6FB1
:10374000EE500301435903013F6FD950020FE96E58
:10375000DACFEAFF03013C51EE240301386F030185
:103760003D51EE200301396F03013E51EE2003016C
:103770003A6F03013F51EE2003013B6F0301382BE9
:10378000000E03013923000E03013A23000E03014A
:103790003B23D880480E03013855E80E3955010EF9
:1037A0003A55000E3B550CE201017A51F80BE84204
:1037B000E842E842E66E31EC29F041E901017A6B1A
:1037C00090D001017AA18DD001017F51025C80511E
:1037D000035881510458825105581AE3D950020FF9
:1037E000E96EDACFEAFF01017F51EE5C0301386F29
:1037F00001018051EE580301396F01018151EE58EA
:1038000003013A6F01018251EE5803013B6F41D031
:10381000030140694169426943697F0EE96E010E07
:10382000EA6EEE500301405D03013C6FEE50030170
:10383000415903013D6FEE500301425903013E6FB0
:10384000EE500301435903013F6FD950020FE96E57
:10385000DACFEAFF03013C51EE240301386F030184
:103860003D51EE200301396F03013E51EE2003016B
:103870003A6F03013F51EE2003013B6F0301382BE8
:10388000000E03013923000E03013A23000E030149
:103890003B23D880480E03013855E80E3955010EF8
:1038A0003A55000E3B551DE20E01BA512F6ED9500C
:1038B000010FE66EDACFE6FFE66A0A0EE66E7BC11E
:1038C000E6FF7CC1E6FF7DC1E6FF7EC1E6FF4DEC71
:1038D00034F048E92FEBE6FF31EC29F041E9010132
:1038E0007A91010183A3E4D0010183A168D0010191
:1038F0000B0E486F01014851482BEA6AA20FE96E8E
:10390000020EEA22EF6A01014851482BEA6AA20F2F
:10391000E96E020EEA22110EEF6E306A080E305C7C
:1039200015E23050EA6A870FE96E010EEA22EF5085
:10393000E66E01014851482BEA6AA20FE96E020EB9
:10394000EA22E552E750EF6E302AE8D701014851EC
:10395000482BEA6AA20FE96E020EEA2285C1EFFF48
:1039600001014851482BEA6AA20FE96E020EEA22D1
:1039700086C1EFFF306A010E305C15E23050EA6A12
:103980008F0FE96E010EEA22EF50E66E01014851F9
:10399000482BEA6AA20FE96E020EEA22E552E750CE
:1039A000EF6E302AE8D7E66AE66A900EE66E010E00
:1039B000E66EEFEC2FF044E90101839379D0010129
:1039C0009A51025C9B5103589C5104589D510558D3
:1039D0001AE3D950020FE96EDACFEAFF01019A51DA
:1039E000EE5C0301386F01019B51EE580301396F02
:1039F00001019C51EE5803013A6F01019D51EE58AF
:103A000003013B6F41D00301406941694269436949
:103A10009A0EE96E010EEA6EEE500301405D03015D
:103A20003C6FEE500301415903013D6FEE5003011D
:103A3000425903013E6FEE500301435903013F6FAA
:103A4000D950020FE96EDACFEAFF03013C51EE24B0
:103A50000301386F03013D51EE200301396F03016B
:103A60003E51EE2003013A6F03013F51EE20030166
:103A70003B6F0301382B000E03013923000E0301B5
:103A80003A23000E03013B2303013851066E3951DE
:103A9000076E3A51086E3B51096E06506C08DC0EF9
:103AA0000754020E0854000E095402E201018393E8
:103AB00071E9E7CFD9FF1200D9CFE6FFE1CFD9FFF7
:103AC00082E943E8005002E1000E2CD00050EA6A7F
:103AD000720FE96E020EEA22EFCF38F3100E0301E7
:103AE000385D02E3000E1ED0010E026E80EB03F083
:103AF000046A0350EA6A720FE96E020EEA22EF507E
:103B00000FE00350EA6A720FE96E020EEA22EF50EC
:103B1000036E022A0450042A100801E201D0E9D7FA
:103B2000025000D044E9E7CFD9FF1200D9CFE6FF19
:103B3000E1CFD9FF82E947E8076A005010080CE39B
:103B4000020172510BE10050EA6A720FE96E020E37
:103B5000EA22EF50100802E2FF0E4BD20050F80BA1
:103B6000E842E842E842EA6A600FE96E020EEA22A1
:103B7000EFCF38F30050070B0301396F010E03013B
:103B8000395304E0E846FE0B3907FCE10301381520
:103B900002E000502ED2026A100E025C2CE20250AB
:103BA000020DF3CF39F3F4CF3AF3820E0301392734
:103BB000020E03013A230050F80BE842E842E842C3
:103BC0000301EA6A3925E96E3A51EA22EFCF38F368
:103BD0000050070B03013B6F010E03013B5304E050
:103BE000E846FE0B3B07FCE10301381502E00250FA
:103BF00000D2022AD1D780EB04F0066A04502DE0EF
:103C00000450EA6A720FE96E020EEA22EF500101D7
:103C10004A5D15E1020E076E00EBE6FF4DDF41E95C
:103C20000301386F38C3E6FF4AC1E6FF45DF41E9CB
:103C3000E552E7CF38F30301385D056E0ED004502E
:103C4000EA6A720FE96E020EEA22EF50046E065025
:103C5000062A100801E201D0D1D7075032E1010154
:103C60004A51046E066A04502CE00450EA6A720F4E
:103C7000E96E020EEA22EF50005C15E1010E076EBC
:103C80004AC1E6FF19DF41E90301386F38C3E6FF97
:103C900000EBE6FF11DF41E9E552E7CF38F303011E
:103CA000385D056E0ED00450EA6A720FE96E020E9E
:103CB000EA22EF50046E0650062A100801E201D0F5
:103CC000D2D7075007E1030E076E00EBE6FFF4DEE4
:103CD00041E9056E010E026E0550025C01E306D15A
:103CE00080EB04F0036A0250035C0AE20450EA6AC3
:103CF000720FE96E020EEA22EF50046E032AF3D728
:103D00000450F80BE842E842E842EA6A600FE96EC4
:103D1000020EEA22EFCF38F30450070B0301396F8C
:103D2000010E0301395304E0E846FE0B3907FCE1BC
:103D30000301381502E004505CD1086A100E085CDB
:103D40003EE20850EA6A720FE96E020EEA22EFCFF5
:103D500038F3100E0301385D30E288EB04F0036A9B
:103D60000250035C0AE20450EA6A720FE96E020E26
:103D7000EA22EF50046E032AF3D70050045C1DE1E1
:103D80000850F80BE842E842E842EA6A600FE96E40
:103D9000020EEA22EFCF38F30850070B0301396F08
:103DA000010E0301395304E0E846FE0B3907FCE13C
:103DB0000301381502E008501CD1082ABFD780EB58
:103DC00004F0036A0250035C0AE20450EA6A720FCC
:103DD000E96E020EEA22EF50046E032AF3D7086A56
:103DE000100E085C2CE20850020DF3CF39F3F4CF2B
:103DF0003AF3820E03013927020E03013A230450DD
:103E0000F80BE842E842E8420301EA6A3925E96E24
:103E10003A51EA22EFCF38F30450070B03013B6F0E
:103E2000010E03013B5304E0E846FE0B3B07FCE1B7
:103E30000301381502E00850DCD0082AD1D7086AFF
:103E4000100E085C51E20850EA6A720FE96E020E29
:103E5000EA22EFCF38F3100E0301385D43E288EB1E
:103E600004F0036A0250035C0AE20450EA6A720F2B
:103E7000E96E020EEA22EF50046E032AF3D70050D7
:103E8000045C30E1036A100E035C2CE20350020D67
:103E9000F3CF39F3F4CF3AF3820E03013927020E40
:103EA00003013A230850F80BE842E842E8420301D4
:103EB000EA6A3925E96E3A51EA22EFCF38F3085021
:103EC000070B03013B6F010E03013B5304E0E8467F
:103ED000FE0B3B07FCE10301381502E0035089D0DB
:103EE000032AD1D7082AACD7022AF6D6020E075CDD
:103EF00039E180EB02F0066A0250EA6A720FE96E5D
:103F0000020EEA22EF5001014A5D1BE10250F80B5C
:103F1000E842E842E842EA6A600FE96E020EEA22ED
:103F2000EFCF38F30250070B0301396F010E030185
:103F3000395304E0E846FE0B3907FCE1030138156C
:103F40000EE00250EA6A720FE96E020EEA22EF50AA
:103F5000026E0650062A100801E201D0CDD70250A9
:103F600048D045D001014A51EA6A720FE96E020E4B
:103F7000EA22EF50026E82EB04F0066A0250EA6A0F
:103F8000720FE96E020EEA22EF50025C2EE0005042
:103F9000025C2BE00250F80BE842E842E842EA6A91
:103FA000600FE96E020EEA22EFCF38F30250070BE2
:103FB0000301396F010E0301395304E0E846FE0B9B
:103FC0003907FCE10301381502E082EB04F00250EE
:103FD000EA6A720FE96E020EEA22EF50026E065094
:103FE000062A100801E201D0C9D7045002D0FF0E02
:103FF00000D048E9E7CFD9FF1200D9CFE6FFE1CFE3
:10400000D9FF86E943E882EB07F007507F0802E218
:10401000000EC0D1020172510BE10750EA6A720F23
:10402000E96E020EEA22EF50100802E2000EB2D151
:10403000066A050E065C45E20650080DF3CFE9FF5F
:10404000F4CFEAFFB00EE926010EEA22030EE926BC
:10405000000EEA22EF50000832E20650080DF3CFBE
:10406000E9FFF4CFEAFFB00EE926010EEA22015083
:10407000EE1802E10250ED1822E10650080DF3CFD0
:10408000E9FFF4CFEAFFB00EE926010EEA22020EA4
:10409000E926000EEA22EF500201AC5D10E10101B9
:1040A0006089608B609D4EEC73F060C361F161C309
:1040B00062F162C363F163C364F1000E6BD1062A3F
:1040C000B8D7066A050E065C61E20650080DF3CF0C
:1040D000E9FFF4CFEAFFB00EE926010EEA22030E53
:1040E000E926000EEA22EF504FE10650080DF3CF0B
:1040F000E9FFF4CFEAFFB00EE926010EEA22030E33
:10410000E926000EEA22030EEF6E0650080DF3CFEB
:10411000E9FFF4CFEAFFB00EE926010EEA22020E13
:10412000E926000EEA22ACC2EFFF0650080DF3CFDD
:10413000E9FFF4CFEAFFB00EE926010EEA2201EB17
:10414000EEFF02EBEDFF4EEC73F060C338F361C39A
:1041500039F362C33AF363C33BF30650080DF3CF60
:10416000E9FFF4CFEAFFB00EE926010EEA22040EC1
:10417000E926000EEA2238C3EEFF39C3EEFF3AC348
:10418000EEFF3BC3EEFF02D0062A9CD701014A5145
:10419000075C3AE10150800803E2000EFBD034D006
:1041A00001019E6B01019E8B005001019E97E8B0BA
:1041B0009E8701EB56F102EB57F10101010EA16F51
:1041C0000101010EA26F0101560E9F6F010EA06F3B
:1041D0004BC1A3F14CC1A4F148C1E6FFA20EE66EAB
:1041E000020EE66E9EC1E6FF9FC1E6FFA0C1E6FF9C
:1041F000A1C1E6FFA2C1E6FFA3C1E6FFA4C1E6FF9D
:10420000C9EC44F04AE9C6D002EBE6FF8FDC41E995
:10421000076EFF0E075C02E1000EBCD00750EA6A91
:10422000620FE96E020EEA22EFCF38F3030E0301AC
:10423000385D69E30750EA6A620FE96E020EEA220E
:10424000EF6A0750070B0301396F010E0301395361
:1042500004E0E846FE0B3907FCE1FF0A0301386F72
:104260000750F80BE842E842E842EA6A600FE96E5C
:10427000020EEA2203013851EF16086A020E085CAA
:1042800016E20750020DF3CF38F3F4CF39F3820E64
:1042900003013827020E0301392308500301EA6A9B
:1042A0003825E96E3951EA22EF6A082AE7D7020E6B
:1042B000E66EE66A2EC3E6FF2FC3E6FF600EE66EEB
:1042C000020EE66EB2EC6AF046E9200EE66EE66A91
:1042D00030C3E6FF31C3E6FF820EE66E020EE66EE5
:1042E000B2EC6AF046E901016089608B609D4EEC9A
:1042F00073F060C361F161C362F162C363F163C3D0
:1043000064F1000E47D001019E6B01019E8B0050AD
:1043100001019E97E8B09E870101566B07EB57F1AC
:104320000101010EA16F0101010EA26F0101560EE4
:104330009F6F010EA06F4BC1A3F14CC1A4F148C106
:10434000E6FFA20EE66E020EE66E9EC1E6FF9FC17C
:10435000E6FFA0C1E6FFA1C1E6FFA2C1E6FFA3C13F
:10436000E6FFA4C1E6FFC9EC44F04AE9000909E10F
:104370000750EA6A620FE96E020EEA22EF2A000E87
:1043800009D00750EA6A620FE96E020EEA22EF6A6C
:10439000010E00D044E9E7CFD9FF1200D9CFE6FFE4
:1043A000E1CFD9FF87E901019E6B01500101030BA9
:1043B000F36EFC0E9E15F3109E6F0250031002E187
:1043C00001019E85010101019E51040B02E0000ED6
:1043D00001D0010E01019E9BE8B09E8B01019E8FD2
:1043E00002EB9FF103EBA0F1080E0014000804E2B9
:1043F0000101010EA16F02D00101A16B040E001496
:10440000000804E20101010EA26F02D00101A26BBB
:1044100004EBE9FF05EBEAFFEFCFA3F10428E96E17
:10442000000E0520EA6EEFCFA4F148C1E6FFA20E10
:10443000E66E020EE66E9EC1E6FF9FC1E6FFA0C1DA
:10444000E6FFA1C1E6FFA2C1E6FFA3C1E6FFA4C14A
:10445000E6FFC9EC44F04AE900D041E9E7CFD9FFD3
:104460001200D9CFE6FFE1CFD9FF81E941E8016A27
:104470000A0E015C15E201500E0DF3CFE9FFF4CFF7
:10448000EAFF600EE926000EEA220C0EE926000E75
:10449000EA22EF50800B02E1015004D0012AE8D754
:1044A000FF0E00D042E9E7CFD9FF1200D9CFE6FFD7
:1044B000E1CFD9FF82E942E8FF0E005C06E1026A23
:1044C000080E025C02E2022AFBD7FF0E005C70E1DC
:1044D000026A0A0E025C6BE202500E0DF3CFE9FF96
:1044E000F4CFEAFF600EE926000EEA220C0EE92660
:1044F000000EEA22EF50800B58E002500E0DF3CF71
:10450000E9FFF4CFEAFF600EE926000EEA220C0E66
:10451000E926000EEA22EF50010B01E000D0025024
:104520000E0DF3CFE9FFF4CFEAFF600EE926000E8F
:10453000EA220C0EE926000EEA22EF50020B01E0FF
:1045400000D002500E0DF3CFE9FFF4CFEAFF600E6A
:10455000E926000EEA220C0EE926000EEA22EF50B0
:10456000080B01E000D002500E0DF3CFE9FFF4CFAD
:10457000EAFF600EE926000EEA220C0EE926000E84
:10458000EA22EF50040B06E0036A080E035C02E225
:10459000032AFBD7036AD89002E3032AFCD7036AF5
:1045A000010E035C02E2032AFBD7022A92D769D0EC
:1045B00000500E0DF3CFE9FFF4CFEAFF600EE926BD
:1045C000000EEA220C0EE926000EEA22EF50800BC4
:1045D00058E000500E0DF3CFE9FFF4CFEAFF600E74
:1045E000E926000EEA220C0EE926000EEA22EF5020
:1045F000010B01E000D000500E0DF3CFE9FFF4CF26
:10460000EAFF600EE926000EEA220C0EE926000EF3
:10461000EA22EF50020B01E000D000500E0DF3CF64
:10462000E9FFF4CFEAFF600EE926000EEA220C0E45
:10463000E926000EEA22EF50080B01E000D00050FE
:104640000E0DF3CFE9FFF4CFEAFF600EE926000E6E
:10465000EA220C0EE926000EEA22EF50040B06E0D7
:10466000036A080E035C02E2032AFBD7036AD890B0
:1046700002E3032AFCD7036A010E035C02E2032A69
:10468000FBD743E9E7CFD9FF1200D9CFE6FFE1CF4F
:10469000D9FF81E941E801018391020E0101795DB1
:1046A00001E05ED1010183B340D04EEC73F060C3F2
:1046B0009AF161C39BF162C39CF163C39DF1010157
:1046C000856B866B016A080E015C13E20150EA6A91
:1046D000B20FE96E0E0EEA22EF50E66E0150EA6A62
:1046E000870FE96E010EEA22E552E750EF6E012ACC
:1046F000EAD70101838301018391016A010E015C04
:1047000013E20150EA6ADC0FE96E010EEA22EF5073
:10471000E66E0150EA6A8F0FE96E010EEA22E55259
:10472000E750EF6E012AEAD719D1010185518611B0
:1047300001E176D1010149510101851904E101012D
:104740004A510101861901E109D101010B0E486F9F
:1047500001014851482BEA6AA20FE96E020EEA22D3
:10476000EF6A01014851482BEA6AA20FE96E020E76
:10477000EA22110EEF6E016A080E015C15E201508B
:10478000EA6AB20FE96E0E0EEA22EF50E66E010100
:104790004851482BEA6AA20FE96E020EEA22E5525E
:1047A000E750EF6E012AE8D701014851482BEA6A29
:1047B000A20FE96E020EEA2249C1EFFF0101485142
:1047C000482BEA6AA20FE96E020EEA224AC1EFFF05
:1047D000016A010E015C15E20150EA6ADC0FE96E24
:1047E000010EEA22EF50E66E01014851482BEA6AB9
:1047F000A20FE96E020EEA22E552E750EF6E012A9F
:10480000E8D7016A080E015C13E20150EA6A870FDB
:10481000E96E010EEA22EF50E66E0150EA6A4E0F91
:10482000E96E010EEA22E552E750EF6E012AEAD75F
:1048300085C156F186C157F1F7D80101846FFF0E8B
:104840000101845D12E0010184510E0DF3CFE9FFF7
:10485000F4CFEAFF600EE926000EEA220C0EE926EC
:10486000000EEA22EFCF5EF108D001018C0E5E6FE0
:10487000010156BF02D001015E814BC158F14CC10C
:1048800059F1F2D90101846FFF0E0101845D2BE221
:10489000016A010E015C27E20150EA6A8F0FE96E9E
:1048A000010EEA22EF50E66E010184510E0DF3CFA6
:1048B000E9FFF4CFEAFF600EE926000EEA220D0EB2
:1048C000E926000EEA22E9CF38F3EACF39F30150A6
:1048D0000301EA6A3825E96E3951EA22E552E750C8
:1048E000EF6E012AD6D7E66AE66A850EE66E010EFD
:1048F000E66EEFEC2FF044E901018393010183811F
:10490000FF0E0101845D2AE20E0EE66EE66A0101E9
:1049100084510E0D030103012451F3240301386F68
:10492000030103012551F4200301396F38C3E6FF69
:1049300039C3E6FF010184510E0DF3CF3AF3F4CFF2
:104940003BF3600E03013A27000E03013B233AC3F9
:10495000E6FF3BC3E6FFB2EC6AF046E961D00AD05D
:104960004EEC73F060C39AF161C39BF162C39CF19A
:1049700063C39DF10101566B576B01010B0E486F2C
:1049800001014851482BEA6AA20FE96E020EEA22A1
:10499000EF6A01014851482BEA6AA20FE96E020E44
:1049A000EA22100EEF6E016A080E015C15E201505A
:1049B000EA6AB20FE96E0E0EEA22EF50E66E0101CE
:1049C0004851482BEA6AA20FE96E020EEA22E5522C
:1049D000E750EF6E012AE8D7016A010E015C15E28B
:1049E0000150EA6ADC0FE96E010EEA22EF50E66E32
:1049F00001014851482BEA6AA20FE96E020EEA2231
:104A0000E552E750EF6E012AE8D7E66AE66A560EED
:104A1000E66E010EE66EEFEC2FF044E901018383B0
:104A200042E9E7CFD9FF1200D9CFE6FFE1CFD9FFA6
:104A300081E941E8016A0A0E015C42E201500E0D73
:104A4000F3CFE9FFF4CFEAFF600EE926000EEA2279
:104A50000C0EE926000EEA22EF50800B2FE00150E9
:104A60000E0DF3CFE9FFF4CFEAFF600EE926000E4A
:104A7000EA220C0EE926000EEA22EF50080B1EE097
:104A800001500E0DF3CFE9FFF4CFEAFF600EE926E7
:104A9000000EEA22020EE926000EEA22EECF38F3DB
:104AA000EFCF39F3010156510301381904E1010137
:104AB00057510301391902E1015004D0012ABBD733
:104AC000FF0E00D042E9E7CFD9FF1200D9CFE6FFB1
:104AD000E1CFD9FF81E941E80101486B010148516B
:104AE000482BEA6AA20FE96E020EEA22EF68010182
:104AF0004851482BEA6AA20FE96E020EEA2200C171
:104B0000EFFF01014851482BEA6AA20FE96E020E3D
:104B1000EA22EF6A01014851482BEA6AA20FE96EC6
:104B2000020EEA22EF6A01014851482BEA6AA20FFD
:104B3000E96E020EEA225D0EEF6E01014851482B2C
:104B4000EA6AA20FE96E020EEA22410EEF6E016AD6
:104B5000010E015C15E20150EA6ADC0FE96E010EFC
:104B6000EA22EF50E66E01014851482BEA6AA20F93
:104B7000E96E020EEA22E552E750EF6E012AE8D70D
:104B8000040EE66E030EE66E000EE66EE66A4B0E4F
:104B9000E66E010EE66ECEEC21F046E942E9E7CF83
:104BA000D9FF1200D9CFE6FFE1CFD9FF81E942E872
:104BB000016A0A0E015C52E201500E0DF3CFE9FFCB
:104BC000F4CFEAFF600EE926000EEA220C0EE92679
:104BD000000EEA22EF50800B3FE001500E0DF3CFA4
:104BE000E9FFF4CFEAFF600EE926000EEA220C0E80
:104BF000E926000EEA22EF50040B2EE0026A080EAE
:104C0000025C28E201500E0DF3CFE9FFF4CFEAFF7A
:104C1000600EE926000EEA22040EE926000EEA22C2
:104C2000E9CF39F3EACF3AF302500301EA6A3925B2
:104C3000E96E3A51EA22EFCF38F30250EA6A4E0F9A
:104C4000E96E010EEA22EF500301385D01E004D065
:104C5000022AD5D7015004D0012AABD7FF0E00D0CD
:104C600043E9E7CFD9FF1200D9CFE6FFE1CFD9FF63
:104C700081E942E8016801015EA503D093DF016E7E
:104C800005D001015EA702D0CFDE016EFF0E015CF0
:104C900003E131EC22F0016EFF0E015C6EE0015089
:104CA0000E0DF3CFE9FFF4CFEAFF600EE926000E08
:104CB000EA220C0EE926000EEA225EC1EFFF010196
:104CC0005EA52AD0026A080E025C26E20250EA6A59
:104CD0004E0FE96E010EEA22EF50E66E01500E0D06
:104CE000F3CFE9FFF4CFEAFF600EE926000EEA22D7
:104CF000040EE926000EEA22E9CF38F3EACF39F3B1
:104D000002500301EA6A3825E96E3951EA22E55278
:104D1000E750EF6E022AD7D701015EA712D00150EB
:104D20000E0DF3CFE9FFF4CFEAFF600EE926000E87
:104D3000EA22020EE926000EEA2256C1EEFF57C112
:104D4000EDFF01500E0DF3CFE9FFF4CFEAFF600E47
:104D5000E926000EEA2258C1EEFF59C1EDFF0150CD
:104D6000040DF3CFE9FFF4CFEAFFD50EE926020EDA
:104D7000EA22EE6AEE6AEE6AEE6A015000D043E97A
:104D8000E7CFD9FF1200D9CFE6FFE1CFD9FF85E900
:104D900041E8056A080E055C16E205500224E96E3A
:104DA000000E0320EA6EEFCF38F305500024E96EC1
:104DB000000E0120EA6EEF500301385D02E0000EA4
:104DC00004D0052AE7D7010E00D042E9E7CFD9FF8A
:104DD0001200D9CFE6FFE1CFD9FF82E945E8056AA5
:104DE000030E055C17E2010EE66EFA0E0524E66E70
:104DF000070ED88005540301396BB20F386F0E0EC1
:104E0000392338C3E6FF39C3E6FF8BEC72F044E97F
:104E1000052AE6D70E01B6690E01FE0EB56F056ACA
:104E2000030E055C17E2010EE66EFD0E0524E66E2C
:104E3000020ED88005540301396BB20F386F0E0E85
:104E4000392338C3E6FF39C3E6FF8BEC72F044E93F
:104E5000052AE6D780EC6BF0010149694A69010136
:104E60004B694C69056A0A0E055C11E205500E0D8E
:104E7000F3CFE9FFF4CFEAFF600EE926000EEA2245
:104E80000C0EE926000EEA22EF6A052AECD7056A25
:104E9000020E055C09E20550EA6A600FE96E020E37
:104EA000EA22EF6A052AF4D7056A100E055C09E2CA
:104EB0000550EA6A620FE96E020EEA22EF6A052ADD
:104EC000F4D70101796B0101606B01015D6B010198
:104ED0005F6B0101836B0101006B43EC73F0010117
:104EE000486B056A0A0E055C10E20550040DF3CF0D
:104EF000E9FFF4CFEAFFD50EE926020EEA22EE6AB8
:104F0000EE6AEE6AEE6A052AEDD7005001E1A9D0FB
:104F1000010EE66EE66A20C3E6FF21C3E6FFBA0E85
:104F2000E66E0E0EE66E42EC6AF046E9200E0E01C9
:104F3000BA5D02E3000E8DD1020EE66EE66A28C36A
:104F4000E6FF29C3E6FF490EE66E010EE66E42EC6F
:104F50006AF046E90101491D01E14A1D02E1000E26
:104F600078D1020EE66EE66A1EC3E6FF1FC3E6FFB7
:104F70004B0EE66E010EE66E42EC6AF046E9010E5B
:104F8000E66EE66A22C3E6FF23C3E6FFBB0EE66ECB
:104F90000E0EE66E42EC6AF046E90E01BB510101CD
:104FA000030BF36EF346F346F346F346CF0E0015BC
:104FB000F310006F8C0EE66EE66A24C3E6FF25C38D
:104FC000E6FF600EE66E000EE66E42EC6AF046E921
:104FD000010EE66EE66A2CC3E6FF2DC3E6FF4D0E1A
:104FE000E66E010EE66E42EC6AF046E9020EE66EEF
:104FF000E66A2EC3E6FF2FC3E6FF600EE66E020EE2
:10500000E66E42EC6AF046E9200EE66EE66A30C3D0
:10501000E6FF31C3E6FF820EE66E020EE66E42EC5C
:105020006AF046E9100EE66EE66A32C3E6FF33C365
:10503000E6FF720EE66E020EE66E42EC6AF046E99C
:10504000010EE66EE66A34C3E6FF35C3E6FF790E6D
:10505000E66E010EE66E42EC6AF046E901015D8300
:1050600088D0020EE66EE66A1EC3E6FF1FC3E6FFA7
:105070004B0EE66E010EE66EB2EC6AF046E9010EEA
:10508000E66EE66A20C3E6FF21C3E6FFBA0EE66ECF
:105090000E0EE66EB2EC6AF046E9010EE66EE66AC6
:1050A00022C3E6FF23C3E6FFBB0EE66E0E0EE66EDE
:1050B000B2EC6AF046E98C0EE66EE66A24C3E6FFBF
:1050C00025C3E6FF600EE66E000EE66EB2EC6AF0F7
:1050D00046E9020EE66EE66A28C3E6FF29C3E6FF4C
:1050E000490EE66E010EE66EB2EC6AF046E9010E7C
:1050F000E66EE66A2CC3E6FF2DC3E6FF4D0EE66EB4
:10510000010EE66EB2EC6AF046E9056A020E055C35
:1051100009E20550EA6A600FE96E020EEA22EF6AC0
:10512000052AF4D7056A100E055C23E2066A020E12
:10513000065C16E20550020DF3CF38F3F4CF39F3D5
:10514000820E03013827020E0301392306500301A2
:10515000EA6A3825E96E3951EA22EF6A062AE7D76A
:105160000550EA6A720FE96E020EEA22EF68052A1C
:10517000DAD7026A02960298029A028C02820050E2
:105180000294E8B00284B20E036E0E0E046E02EBBF
:10519000E6FF03EBE6FF04EBE6FFCFEC48F043E964
:1051A000000902E1000E55D04B0EE66E010EE66ED0
:1051B000490EE66E010EE66E8EEC48F044E9BACE7A
:1051C000E6FF4FD841E901010081010100870E018E
:1051D000BB510101030BF36EF346F346F346F3466E
:1051E000CF0E0015F310006F0101008D0101795100
:1051F0000101030BF36EF346F90E0015F310006F77
:1052000001015F6B4EEC73F060C361F161C362F149
:1052100062C363F163C364F161C165F162C166F1A8
:1052200063C167F164C168F1056A100E055C09E2AB
:105230000550EA6A690FE96E010EEA22EF6A052A53
:10524000F4D701017A6BD6CF5CF1F292F288010EAD
:1052500000D046E9E7CFD9FF12000E01BA5100D0C5
:105260001200D9CFE6FFE1CFD9FF82E9E66A00EB71
:10527000E6FF15EC48F042E9000912E000EBBAFE47
:10528000010EE66EE66A20C3E6FF21C3E6FFBA0E12
:10529000E66E0E0EE66EB2EC6AF046E9010E02D042
:1052A000000E00D041E9E7CFD9FF1200D9CFE6FFC9
:1052B000E1CFD9FF82E90050030801E21DD000EBE5
:1052C000BBFE0E01BB510101030BF36EF346F34627
:1052D000F346F346CF0E0015F310006F010EE66E95
:1052E000E66A22C3E6FF23C3E6FFBB0EE66E0E0EA0
:1052F000E66EB2EC6AF046E941E9E7CFD9FF120069
:10530000D9CFE6FFE1CFD9FF86E94EE8010E076E5F
:10531000086A096A0A6A0E01BA510B6E010E045C32
:1053200003E304500E0802E2000E52D1066A040E96
:10533000065C0DE206500F0DF3CFE9FFF4CFEAFF54
:105340000C0EE926010EEA22EF68062AF0D70101C9
:105350000B6B01015D81066A200E065C01E32FD113
:1053600000EB38F301EB39F302EB3AF303EB3BF3D9
:105370000301386BF80E03013917070E03013B17C1
:1053800007EB3CF308EB3DF309EB3EF30AEB3FF38D
:1053900006501F0B08E00301D8903C373D373E37DD
:1053A0003F37E806F9E103013C51030138170301D7
:1053B0003D510301391703013E5103013A1703011F
:1053C0003F5103013B170301385139113A113B1189
:1053D00001E1F3D006EBE6FF44DF41E90101486B50
:1053E00001014851482BEA6AA20FE96E020EEA2237
:1053F000070EEF6E01014851482BEA6AA20FE96ED1
:10540000020EEA22BACEEFFF010158695969E66A35
:10541000010EE66E000EE66EE66A580EE66E010EAE
:10542000E66ECEEC21F046E94EEC73F060C338F343
:1054300061C339F362C33AF363C33BF303013851E9
:105440000C6E39510D6E3A510E6E3B510F6E4EEC93
:1054500073F060C33CF361C33DF362C33EF363C3C7
:105460003FF30C5003013C5D0D503D590E503E5929
:105470000F503F5924E34EEC73F060C340F361C317
:1054800041F362C342F363C343F3D9500C0FE96E97
:10549000DACFEAFFEE500301405D0301386FEE50B2
:1054A000030141590301396FEE50030142590301D1
:1054B0003A6FEE500301435903013B6F5FD0030184
:1054C000486949694A694B69D9500C0FE96EDACFCE
:1054D000EAFFEE500301485D0301446FEE50030103
:1054E00049590301456FEE5003014A590301466FC4
:1054F000EE5003014B590301476F44C3E6FF45C318
:10550000E6FF46C3E6FF47C3E6FF4EEC73F0E55205
:10551000E7CF47F3E552E7CF46F3E552E7CF45F350
:10552000E552E7CF44F360C34CF361C34DF362C36C
:105530004EF363C34FF303014C51030144270301AE
:105540004D510301452303014E510301462303013D
:105550004F510301472344C338F345C339F346C3CE
:105560003AF347C33BF30301382B000E0301392301
:10557000000E03013A23000E03013B230450040DE7
:10558000F3CFF6FFF4CFF7FF4A0EF626E80EF72228
:105590000900F5500301385D0900F550395909003B
:1055A000F5503A590900F5503B5907E216DB00095E
:1055B00003E0F8EC00F01ADB4AD7062ACDD60BEB55
:1055C000E6FF4FDE41E901015D9101010B5100D081
:1055D0004FE9E7CFD9FF1200D9CFE6FFE1CFD9FFDE
:1055E00083E94DE8030E036E0E68810E0F6E000412
:1055F00013E145EC23F0010183A305D0EEDA0009A5
:1056000001E0F4DAF8D7010183A103D0010184514C
:10561000E0D2FF0EDED2DBD2005001E0D8D2FF0E86
:10562000015C5DE10301010E386F396B3A6B3B6B36
:105630000E01BA511F0B08E00301D89038373937F3
:105640003A373B37E806F9E138C3E6FF39C3E6FFEE
:105650003AC3E6FF3BC3E6FF0A0EE66E51DE45E9BC
:10566000000902E0000E01D0010E046E045005E0B6
:10567000030602E1FF0EADD2D5D7016A056A0450D8
:10568000055C25E205500F0DF3CFE9FFF4CFEAFFEB
:105690000C0EE926010EEA220B0EE926000EEA2284
:1056A000EF500F5C12E205500F0DF3CFE9FFF4CF7E
:1056B000EAFF0C0EE926010EEA220B0EE926000E87
:1056C000EA22EF500F6E85EB0EF0052AD8D7FF0EB9
:1056D0000E5C03E08EEB01F002D0FF0E7AD2015097
:1056E0000F0DF3CFE9FFF4CFEAFF0C0EE926010E10
:1056F000EA22090EE926000EEA22EECF58F1EDCF9C
:1057000059F101500F0DF3CFE9FFF4CFEAFF0C0E72
:10571000E926010EEA22EE52EFCF56F101500F0DAD
:10572000F3CFE9FFF4CFEAFF0C0EE926010EEA22DF
:10573000EE52E92A000EEA22EFCF57F114EC25F0E1
:1057400001014D6FFF0E01014D5D08E131EC22F0CA
:1057500001014D6FFF0802E1FF0E3BD201014D51E7
:105760000E0DF3CFE9FFF4CFEAFF600EE926000E3D
:10577000EA220C0EE926000EEA22EF6A01500F0D14
:10578000F3CFE9FFF4CFEAFF0C0EE926010EEA227F
:10579000090EE926000EEA22EECF38F3EFCF39F3F7
:1057A00001014D510E0DF3CFE9FFF4CFEAFF600E7A
:1057B000E926000EEA2238C3EEFF39C3EDFF01509F
:1057C0000F0DF3CFE9FFF4CFEAFF0C0EE926010E2F
:1057D000EA22EE52EF50E66E01014D510E0DF3CF6D
:1057E000E9FFF4CFEAFF600EE926000EEA22020E7E
:1057F000E926000EEA22E552E750EF6E01500F0D48
:10580000F3CFE9FFF4CFEAFF0C0EE926010EEA22FE
:10581000EE52E92A000EEA22EF50E66E01014D51E8
:105820000E0DF3CFE9FFF4CFEAFF600EE926000E7C
:10583000EA22020EE926000EEA22E92A000EEA22F6
:10584000E552E750EF6E01014D510E0DF3CFE9FF28
:10585000F4CFEAFF600EE926000EEA220C0EE926DC
:10586000000EEA22EF86046A010E045C3AE201505F
:105870000F0DF3CFE9FFF4CFEAFF0C0EE926010E7E
:10588000EA220E0EE926000EEA22E9CF3AF3EACF29
:105890003BF304500301EA6A3A25E96E3B51EA22E0
:1058A000EF50E66E01014D510E0DF3CFE9FFF4CF3D
:1058B000EAFF600EE926000EEA220D0EE926000E30
:1058C000EA22E9CF38F3EACF39F304500301EA6A58
:1058D0003825E96E3951EA22E552E750EF6E042A85
:1058E000C3D701014D510E0DF3CFE9FFF4CFEAFF0D
:1058F000600EE926000EEA220C0EE926000EEA22CE
:10590000EF8201014D510E0DF3CFE9FFF4CFEAFF15
:10591000600EE926000EEA220C0EE926000EEA22AD
:10592000EF8A01014D510E0DF3CFE9FFF4CFEAFFED
:10593000600EE926000EEA220C0EE926000EEA228D
:10594000EF8001500F0DF3CFE9FFF4CFEAFF0C0E0B
:10595000E926010EEA22EFCFE6FF83DC41E90101EF
:105960004D510E0DF3CFE9FFF4CFEAFF600EE926AB
:10597000000EEA22EECF4BF1EDCF4CF1010156695A
:1059800057694B0EE66E010EE66E560EE66E010E80
:10599000E66E8EEC48F044E90101486B0101485184
:1059A000482BEA6AA20FE96E020EEA22010EEF6EA0
:1059B00001014851482BEA6AA20FE96E020EEA2261
:1059C00000C1EFFF046A010E045C15E20450EA6AAC
:1059D000DC0FE96E010EEA22EF50E66E010148513C
:1059E000482BEA6AA20FE96E020EEA22E552E7505E
:1059F000EF6E042AE8D7080EE66E010EE66E01018E
:105A00004D510E0DF3CFE9FFF4CFEAFF600EE9260A
:105A1000000EEA22020EE926000EEA22E9CF38F350
:105A2000EACF39F338C3E6FF39C3E6FF01014D5130
:105A30000E0DF3CFE9FFF4CFEAFF600EE926000E6A
:105A4000EA22E9CF3AF3EACF3BF33AC3E6FF3BC39E
:105A5000E6FFCEEC21F046E94EEC73F060C338F37C
:105A600061C339F362C33AF363C33BF303013851B3
:105A7000066E3951076E3A51086E3B51096E0101AD
:105A80004D510E0DF3CFE9FFF4CFEAFF600EE9268A
:105A9000000EEA220C0EE926000EEA22EF50100B4F
:105AA00001E092D09AD8000901E0A0D84EEC73F042
