:020000040000FA
:0600000064EF7EF0120027
:020006000400F4
:0600080030EF4BF0120086
:02000E001200DE
:020010001200DC
:050012000000FF0100E9
:0600180030EF4BF0120076
:02001E00017768
:0D0020006655443322110B00FF0109010059
:02002E000001CF
:0E00300002030405060708090A0B0C0D0E0F4B
:02003E000500BB
:1000400029FD0000000000005500000021FD000017
:100050002F030000080000001E000000180300002D
:100060000F00000012000000FA0000000500000070
:0C00700009FD0000000300001800000063
:04007C00000012006E
:10008000D9CFE6FFE1CFD9FF82E949E800EBE6FFEF
:10009000D6CFE6FF91EC70F041E9E750026E0250D6
:1000A00001E1A2D0020662EC7DF0F9C2E1F2FAC2EF
:1000B000E2F2FBC2E3F2FCC2E4F20201E151036EA0
:1000C000E251046EE351056EE451066E62EC7DF080
:1000D000F9C2E1F2FAC2E2F2FBC2E3F2FCC2E4F2DC
:1000E0000201E151076EE251086EE351096EE451DD
:1000F0000A6E0350075C0450085805500958065012
:100100000A5822E307EBE5F208EBE6F209EBE7F227
:100110000AEBE8F2D950030FE96EDACFEAFFEE50AE
:100120000201E55D0201E16FEE500201E6590201B4
:10013000E26FEE500201E7590201E36FEE50020157
:10014000E8590201E46F42D00201ED69EE69EF69FE
:10015000F069D950030FE96EDACFEAFFEE500201E1
:10016000ED5D0201E96FEE500201EE590201EA6F06
:10017000EE500201EF590201EB6FEE500201F0590F
:100180000201EC6FD950070FE96EDACFEAFF0201E6
:10019000E951EE240201E16F0201EA51EE20020171
:1001A000E26F0201EB51EE200201E36F0201EC511C
:1001B000EE200201E46F0201E12B000E0201E223B6
:1001C000000E0201E323000E0201E423D8803E0E5C
:1001D0000201E155000EE255000EE355000EE45514
:1001E00001E201D073D75BD74AE9E7CFD9FF12000C
:1001F000D9CFE6FFE1CFD9FF81E970E8D1EC3EF03D
:10020000000902E100EF17F00E013FA502D043EF15
:100210001DF00E01016B0E017F51040B01E0010E78
:100220000E01030BF36EFC0E0115F310016F0E01AE
:100230000E017F510E010197080B01E001870E01AD
:100240007F51030B010802E1010E01D0000E0E01E7
:10025000019BE8B0018B0E010E017F510E01019D43
:10026000800B01E0018D0E017FAF0AD00E01875196
:100270000E01019FE8B0018F80CE04FE81CE05FE05
:1002800088CE02FE89CE03FE86CE0AFE85CE09FE0A
:100290000E013F950E017F51030B010A02E14AEF67
:1002A0000FF0020A02E1D5EF0DF0030A02E0FAEFC7
:1002B00016F00A0E0E01845D02E2FBEF16F0020E4C
:1002C0000E01EA6A8225E96E8351EA22EF500A6E36
:1002D000030E0E01EA6A8225E96E8351EA22EF508D
:1002E0000B6E040E0E01EA6A8225E96E8351EA2242
:1002F000EF50106E050E0E01EA6A8225E96E8351F9
:10030000EA22EF50116E060E0E01EA6A8225E96EAE
:100310008351EA22EF500C6E070E0E01EA6A822525
:10032000E96E8351EA22EF500D6E080E0E01EA6A63
:100330008225E96E8351EA22EF500E6E090E0E01FE
:10034000EA6A8225E96E8351EA22EF500F6E0E01B0
:100350000E017F510E010197080B01E001870E018C
:100360000151030B000906E11050FC08FF0E115467
:1003700001E34BD10E012B510E1802E12C510F1845
:1003800009E10E012D510C1802E12E510D1802E168
:10039000FBEF16F0016A050E015C3EE20150080D0C
:1003A000F3CFE9FFF4CFEAFF8A0EE9260E0EEA2228
:1003B000030EE926000EEA22EF502CE00150080D52
:1003C000F3CFE9FFF4CFEAFF8A0EE9260E0EEA2208
:1003D0000E50EE1802E10F50ED181CE10150080D0F
:1003E000F3CFE9FFF4CFEAFF8A0EE9260E0EEA22E8
:1003F000020EE926000EEA22EFCFE1F20A0E0E010C
:10040000EA6A8225E96E8351EA22EF500201E15D3A
:1004100001E102D0012ABFD7050E015C02E2FBEF29
:1004200016F0016A050E015C13E20150080DF3CFCE
:10043000E9FFF4CFEAFF8A0EE9260E0EEA22030E48
:10044000E926000EEA22EF5001E102D0012AEAD7A4
:10045000050E015C58E20150080DF3CFE9FFF4CF1F
:10046000EAFF8A0EE9260E0EEA220EEBEEFF0FEBF4
:10047000EDFF0A0E0E01EA6A8225E96E8351EA2237
:10048000EF50E66E0150080DF3CFE9FFF4CFEAFF1D
:100490008A0EE9260E0EEA22020EE926000EEA2254
:1004A000E552E750EF6E0150080DF3CFE9FFF4CFAE
:1004B000EAFF8A0EE9260E0EEA22030EE926000E56
:1004C000EA22030EEF6E62EC7DF0F9C2E1F2FAC2AD
:1004D000E2F2FBC2E3F2FCC2E4F20150080DF3CFFA
:1004E000E9FFF4CFEAFF8A0EE9260E0EEA22040E97
:1004F000E926000EEA22E1C2EEFFE2C2EEFFE3C20D
:10050000EEFFE4C2EEFF101C01E1111C04E10E013C
:100510000181019313D0FE0E101802E1FF0E111895
:1005200004E10E010181018309D0FD0E101802E1E2
:10053000FF0E111803E10E010191018382CEE9FF44
:1005400083CEEAFFEF5001085FE282CEE9FF83CE5F
:10055000EAFFEF060E0142A117D06CC0E6FF6D0E58
:10056000E66E000EE66E64C0E6FF65C0E6FF66C09C
:10057000E6FF67C0E6FF68C0E6FF69C0E6FF6AC045
:10058000E6FFEAEC43F04AE900016C6B016A0E01F8
:100590008451015C16E201500E01EA6A8225E96E7F
:1005A0008351EA22EF50E66E00016C516C2BEA6A2F
:1005B0006D0FE96E000EEA22E552E750EF6E012A58
:1005C000E6D77FCE64F087CE68F088CE69F089CE1A
:1005D0006AF062EC7DF0F9C260F0FAC261F0FBC231
:1005E00062F0FCC263F0C80EE66EE66AD650E66EB4
:1005F000E66ABFEC70F0E552E5CFE2F2E7CFE1F258
:10060000E1C26BF00E01428180D00E012D510A181B
:1006100002E12E510B1802E062EF0DF00E012B519A
:10062000101802E12C51111802E062EF0DF0010EDA
:100630000E01EA6A8225E96E8351EA22EF50040B2B
:1006400064E024C300F20201020E016F0CEB02F21F
:100650000DEB03F20EEB04F20FEB05F22DCE06F2DA
:100660002ECE07F22BCE08F22CCE09F20A0E0E0186
:10067000EA6A8225E96E8351EA22EFCF0AF202018B
:100680000B6B0201300E0C6F0E010D0E2A6F0E0166
:100690002C510F5C0DE0E66A0EEBE6FF0FEBE6FF78
:1006A0000CEBE6FF0DEBE6FFD9EC1FF045E92BD094
:1006B0000E01786B0E01788B0E01010E7B6F0E011F
:1006C000010E7C6F0E01D9500E0F796FDACF7AFED2
:1006D0000CEB7DFE0DEB7EFE2ACEE6FF000EE66EF5
:1006E000020EE66E78CEE6FF79CEE6FF7ACEE6FF22
:1006F0007BCEE6FF7CCEE6FF7DCEE6FF7ECEE6FF3C
:10070000EAEC43F04AE90E0101850B0E0E01EA6A9C
:100710008225E96E8351EA22EF5002E01BEF0DF0D3
:100720000C0E0E01EA6A8225E96E8351EA22EF502F
:10073000300802E101EF0DF00C0E0E01EA6A82258D
:10074000E96E8351EA22EF50420A02E1FCEF0CF01D
:10075000020A02E1D2EF0CF0010A02E167EF0CF0AD
:10076000F20A02E152EF0CF0010A02E107EF0CF08D
:10077000030A02E1D4EF0BF0010A02E1A4EF0BF04F
:10078000A10A02E1D8EF0AF0B50A02E182EF09F00E
:10079000070A02E15CEF09F0010A02E122EF09F029
:1007A000030A02E132EF08F0010A01E1C1D1B00A07
:1007B00002E0FFEF0CF00E015DB354D062EC7DF06F
:1007C000F9C274FEFAC275FEFBC276FEFCC277FE69
:1007D000080E0E01EA6A8225E96E8351EA22EFCF04
:1007E0005FFE090E0E01EA6A8225E96E8351EA2254
:1007F000EFCF60FE126A080E125C16E2020E12249F
:100800000B0F0E01EA6A8225E96E8351EA22EF504E
:10081000E66E1250EA6A610FE96E0E0EEA22E552A8
:10082000E750EF6E122AE7D70E015D830E015D914E
:10083000126A010E125C15E2150E12240E01EA6A0C
:100840008225E96E8351EA22EF50E66E1250EA6A81
:10085000690FE96E0E0EEA22E552E750EF6E122A9A
:10086000E8D764D1080E0E01EA6A8225E96E835149
:10087000EA22EF500E015F5D0CE1090E0E01EA6AFB
:100880008225E96E8351EA22EF500E01605D01E19D
:100890004DD10E015F51601101E0B8D0126A080E0F
:1008A000125C26E20D0E12240E01EA6A8225E96E20
:1008B0008351EA22EF50E66E1250EA6A6C0FE96E3D
:1008C0000E0EEA22E552E750EF6E1250EA6A6C0F04
:1008D000E96E0E0EEA22EF50E66E1250EA6A300F11
:1008E000E96E0E0EEA22E552E750EF6E122AD7D7D4
:1008F000080E0E01EA6A8225E96E8351EA22EFCFE3
:100900006AFE090E0E01EA6A8225E96E8351EA2227
:10091000EFCF6BFE6ACE38FE6BCE39FE2DCE3AFE9F
:100920002ECE3BFEFDEC23F00E015E6FFF0E0E019E
:100930005E5D67E10E018D0E406F0E0138AF02D093
:100940000E0140911CEC25F00E015E6FFF0E0E01B2
:100950005E5D57E2126A010E125C29E2150E122446
:100960000E01EA6A8225E96E8351EA22EF50E66EB3
:100970000E015E510E0DF3CFE9FFF4CFEAFF470EF3
:10098000E926020EEA220D0EE926000EEA22E9CF40
:10099000E1F2EACFE2F212500201EA6AE125E96EE1
:1009A000E251EA22E552E750EF6E122AD4D70E0E3A
:1009B000E66EE66A0E015E510E0D02010201CB5198
:1009C000F3240201E16F02010201CC51F420020183
:1009D000E26FE1C2E6FFE2C2E6FF0E015E510E0DDC
:1009E000F3CFE3F2F4CFE4F2470E0201E327020E65
:1009F0000201E423E3C2E6FFE4C2E6FF84EC77F001
:100A000046E90E015D830E015D8190D00E010B0E53
:100A10002A6F0E012A512A2BEA6A000FE96E020E94
:100A2000EA22EF6A0E012A512A2BEA6A000FE96EC8
:100A3000020EEA22110EEF6E126A080E125C28E214
:100A40000D0E12240E01EA6A8225E96E8351EA2214
:100A5000EF50E66E1250EA6A6C0FE96E0E0EEA2253
:100A6000E552E750EF6E1250EA6A6C0FE96E0E0E17
:100A7000EA22EF50E66E0E012A512A2BEA6A000F95
:100A8000E96E020EEA22E552E750EF6E122AD5D740
:100A9000080E0E01EA6A8225E96E8351EA22EFCF41
:100AA0006AFE090E0E01EA6A8225E96E8351EA2286
:100AB000EFCF6BFE0E012A512A2BEA6A000FE96E76
:100AC000020EEA226ACEEFFF0E012A512A2BEA6AB1
:100AD000000FE96E020EEA226BCEEFFF126A010EE2
:100AE000125C17E2150E12240E01EA6A8225E96EE5
:100AF0008351EA22EF50E66E0E012A512A2BEA6A50
:100B0000000FE96E020EEA22E552E750EF6E122A5C
:100B1000E6D7E66AE66A5F0EE66E0E0EE66E19EC42
:100B20002FF044E90E015D830E015D8100EF0DF0B1
:100B3000020E0E01535D01E093D20D0E0E01EA6A22
:100B40008225E96E8351EA22EF5001E09FD10E0128
:100B50000B0E2A6F0E012A512A2BEA6A000FE96E4A
:100B6000020EEA22EF6A0E012A512A2BEA6A000FCE
:100B7000E96E020EEA22A10EEF6E016A080E015C18
:100B80002AE20E0E01240E01EA6A8225E96E8351E3
:100B9000EA22EF50E66E0150EA6A300FE96E0E0E5F
:100BA000EA22E552E750EF6E0E0E01240E01EA6ACA
:100BB0008225E96E8351EA22EF50E66E0E012A513A
:100BC0002A2BEA6A000FE96E020EEA22E552E7508C
:100BD000EF6E012AD3D7BAEC24F0136EFF0E135C2C
:100BE00001E0A8D00E01386B010E016E080E015C09
:100BF0000BE201EB39FEFDEC23F0136EFF0E135CEC
:100C000001E102D0012AF2D7080E015C01E388D08D
:100C10000150EA6AC90FE96E000EEA220FEBEFFFFE
:100C20000E012A512A2BEA6A000FE96E020EEA220F
:100C300001EBEFFF0E019D0E406F2DCE3AFE2ECE42
:100C40003BFE1CEC25F0136E050E135C58E2016AA6
:100C5000010E015C28E2160E01240E01EA6A8225CB
:100C6000E96E8351EA22EF50E66E13500E0DF3CF7A
:100C7000E9FFF4CFEAFF470EE926020EEA220D0E45
:100C8000E926000EEA22E9CFE1F2EACFE2F20150D2
:100C90000201EA6AE125E96EE251EA22E552E750F3
:100CA000EF6E012AD5D7050E135C28E20E0EE66E14
:100CB000E66A13500E0D02010201CB51F32402012A
:100CC000E16F02010201CC51F4200201E26FE1C2A6
:100CD000E6FFE2C2E6FF13500E0DF3CFE3F2F4CFCE
:100CE000E4F2470E0201E327020E0201E423E3C20D
:100CF000E6FFE4C2E6FF84EC77F046E910D001504D
:100D0000EA6AC90FE96E000EEA22EF680E012A5165
:100D10002A2BEA6A000FE96E020EEA22EF6809D078
:100D20000E012A512A2BEA6A000FE96E020EEA220E
:100D3000EF6885D013500E0DF3CFE9FFF4CFEAFF33
:100D4000470EE926020EEA22020EE926000EEA22EA
:100D5000EF5065E18FEB14F0145027E01450EA6A6D
:100D6000C90FE96E000EEA22EFCFE1F213500E0D2B
:100D7000F3CFE9FFF4CFEAFF470EE926020EEA229D
:100D8000020EE926000EEA22E92A000EEA22EF50BE
:100D90000201E15D01E109D01450EA6AC90FE96E70
:100DA000000EEA22EF50146ED7D7145019E11350F9
:100DB0000E0DF3CFE9FFF4CFEAFF470EE926020E4E
:100DC000EA22020EE926000EEA22E92A000EEA22B1
:100DD000EF50EA6AC90FE96E000EEA220FEBEFFF4F
:100DE00013500E0DF3CFE9FFF4CFEAFF470EE926CB
:100DF000020EEA22020EE926000EEA22E92A000E7D
:100E0000EA22EF50E66E0E012A512A2BEA6A000F01
:100E1000E96E020EEA22E552E750EF6E10D0135051
:100E20000E0DF3CFE9FFF4CFEAFF470EE926020EDD
:100E3000EA220C0EE926000EEA22EF6AD3D6E66A11
:100E4000E66AD9500E0FE66EDACFE6FF19EC2FF006
:100E500044E90E0142834285429762EC7DF0F9C27B
:100E600043FEFAC244FEFBC245FEFCC246FE120E21
:100E70000E01435F7A0E0E01445B000E0E01455BCE
:100E8000000E0E01465B0E014181EAD0016A080E98
:100E9000015C15E20E0E01240E01EA6A8225E96E5C
:100EA0008351EA22EF50E66E0150EA6A300FE96E94
:100EB0000E0EEA22E552E750EF6E012AE8D7BAECAF
:100EC00024F0136EFF0E135C01E1CAD0070E016E11
:100ED00001505DE081EB15F0166A155056E0155093
:100EE000EA6AC90FE96E000EEA22EF50FF0801E13D
:100EF0004CD01550EA6AC90FE96E000EEA22EFCF16
:100F0000E1F213500E0DF3CFE9FFF4CFEAFF470EE5
:100F1000E926020EEA22020EE926000EEA22E92A5A
:100F2000000EEA22EF500201E15D21E10150EA6A80
:100F3000C90FE96E000EEA22EF680E01386B01EB73
:100F400039FEFDEC23F0176EFF0E175C0FE0175013
:100F50000E0DF3CFE9FFF4CFEAFF470EE926020EAC
:100F6000EA220C0EE926000EEA22EF6A0ED0155096
:100F7000EA6AC90FE96E000EEA22EF50156E1650AC
:100F8000162A080801E201D0A8D70106A1D71350FC
:100F90000E0DF3CFE9FFF4CFEAFF470EE926020E6C
:100FA000EA22020EE926000EEA22E92A000EEA22CF
:100FB000EF50EA6AC90FE96E000EEA22EF6813509B
:100FC0000E0DF3CFE9FFF4CFEAFF470EE926020E3C
:100FD000EA220C0EE926000EEA22EF6A0E0EE66EF9
:100FE000E66A13500E0D02010201CB51F3240201F7
:100FF000E16F02010201CC51F4200201E26FE1C273
:10100000E6FFE2C2E6FF13500E0DF3CFE3F2F4CF9A
:10101000E4F2470E0201E327020E0201E423E3C2D9
:10102000E6FFE4C2E6FF84EC77F046E90E01428376
:101030004285429762EC7DF0F9C243FEFAC244FE5B
:10104000FBC245FEFCC246FE120E0E01435F7A0E45
:101050000E01445B000E0E01455B000E0E01465B67
:1010600000EF0DF01A6A016A080E015C15E20D0E20
:1010700001240E01EA6A8225E96E8351EA22EF50CB
:10108000E66E0150EA6A300FE96E0E0EEA22E55272
:10109000E750EF6E012AE8D70E01BF0E406F150E24
:1010A0000E01EA6A8225E96E8351EA22EF50FF08B9
:1010B00039E1BAEC24F0186E050E185C30E22CCE43
:1010C00039FE010E196E016A050E015C12E219EB80
:1010D00038FEFDEC23F0FF0809E1800E19240E0113
:1010E000386FFDEC23F0FF0801E103D0192A012A33
:1010F000EBD7050E015C12E219500201E16FE26BC1
:10110000800E0201D890E2BF03D0E15D000EE259EB
:1011100003E219EB38FE02D0010E1A6E02D000EF86
:101120000DF00BD00E01386B150E0E01EA6A822508
:10113000E96E8351EA22EFCF39FE2DCE3AFE2ECE54
:101140003BFE1CEC25F0186E0201020E006F38CE3B
:1011500001F239CE02F21AEB03F2016A010E015CD0
:1011600014E20150EA6AB60FE96E0E0EEA22EF5061
:10117000E66E040E0124EA6A000FE96E020EEA220E
:10118000E552E750EF6E012AE9D70E01050E2A6FEE
:101190001850040DF3CFE9FFF4CFEAFF330EE92630
:1011A000020EEA22EE6AEE6AEE6AEE6AE66A010E64
:1011B000E66E18500E0DF3CFE9FFF4CFEAFF470EAD
:1011C000E926020EEA22040EE926000EEA22E9CF01
:1011D000E1F2EACFE2F2E1C2E6FFE2C2E6FF2D0E63
:1011E000E66E0E0EE66EA5EC21F046E9050E185CE3
:1011F00028E20E0EE66EE66A18500E0D020102019C
:10120000CB51F3240201E16F02010201CC51F42021
:101210000201E26FE1C2E6FFE2C2E6FF18500E0DE6
:10122000F3CFE3F2F4CFE4F2470E0201E327020E1C
:101230000201E423E3C2E6FFE4C2E6FF84EC77F0B8
:1012400046E9DED30E010B0E2A6F0E012A512A2B1E
:10125000EA6A000FE96E020EEA22EF6A0E012A51D5
:101260002A2BEA6A000FE96E020EEA22A30EEF6E45
:10127000016A080E015C15E20150EA6AC90FE96EC5
:10128000000EEA22EF50E66E0E012A512A2BEA6A7E
:10129000000FE96E020EEA22E552E750EF6E012AD6
:1012A000E8D7E66AE66AD9500E0FE66EDACFE6FFB7
:1012B00019EC2FF044E9A4D3016A080E015C15E291
:1012C0000D0E01240E01EA6A8225E96E8351EA229D
:1012D000EF50E66E0150EA6AC90FE96E000EEA228D
:1012E000E552E750EF6E012AE8D762EC7DF0F9C2D3
:1012F00043FEFAC244FEFBC245FEFCC246FE0E019E
:1013000041817ED30E018551010801E350D10D0EBC
:101310001B6E1B500E01EA6A8225E96E8351EA2298
:10132000EF501C6E016A010E015C3BE20F5002019E
:10133000E36BD10FE26F000EE32301500201EA6A72
:10134000E225E96EE351EA22EFCFE1F21B28012406
:101350000E01EA6A8225E96E8351EA22EF5002010A
:10136000E15D1DE01B2801240E01EA6A8225E96E79
:101370008351EA22EF50E66E0F500201E26BD10F6B
:10138000E16F000EE22301500201EA6AE125E96EF5
:10139000E251EA22E552E750EF6E0E014185012A43
:1013A000C2D7010E0E01EA6A8025E96E8151EA2258
:1013B000EF50F80BE842E842E842EA6AC00FE96EF3
:1013C000000EEA22EFCFE1F2010E0E01EA6A80255B
:1013D000E96E8151EA22EF50070B0201E26F010E24
:1013E0000201E25304E0E846FE0BE207FCE10201E1
:1013F000E1152BE1010E0E01EA6A8025E96E8151AB
:10140000EA22EF50070B0201E26F010E0201E253E4
:1014100004E0E846FE0BE207FCE10201E16F010E89
:101420000E01EA6A8025E96E8151EA22EF50F80B3D
:10143000E842E842E842EA6AC00FE96E000EEA229A
:101440000201E151EF120E014183010E0E01EA6A21
:101450008025E96E8151EA22EF501C5C01E089D0C1
:101460000E0142A119D06CC0E6FF6D0EE66E000EB3
:10147000E66E64C0E6FF65C0E6FF66C0E6FF67C0D3
:10148000E6FF68C0E6FF69C0E6FF6AC0E6FFEAEC77
:1014900043F04AE90E0142910001010E6D6F000117
:1014A000020E6E6F2DCE6FF02ECE70F00001FD0E8D
:1014B000716F000172692DCE73F02ECE74F02BCEB9
:1014C00075F02CCE76F00E013E513E2B0001776F69
:1014D0000001786B0001A40E796F00010D0E6C6F96
:1014E00000016C516C2BEA6A6D0FE96E000EEA2266
:1014F0001CEBEFFF016A010E015C15E20150EA6A84
:10150000C00FE96E000EEA22EF50E66E00016C514A
:101510006C2BEA6A6D0FE96E000EEA22E552E75085
:10152000EF6E012AE8D70001646B000164850001B9
:10153000010E686F2DCE69F02ECE6AF0C80EE66EF1
:10154000E66AD650E66EE66ABFEC70F0E552E5CF8B
:10155000E2F2E7CFE1F2E1C26BF062EC7DF0F9C2BA
:1015600060F0FAC261F0FBC262F0FCC263F00E01EF
:1015700042810F50EA6A4B0FE96E0E0EEA22EF50DD
:1015800004E10E0141830E0141850F50EA6A4B0FC1
:10159000E96E0E0EEA22030EEF6E62EC7DF0F9C2E8
:1015A00043FEFAC244FEFBC245FEFCC246FE28D200
:1015B0001D6A080E1D5C16E20B0E1D24020F0E01A3
:1015C000EA6A8225E96E8351EA22EF50E66E1D50E9
:1015D000EA6A300FE96E0E0EEA22E552E750EF6E2E
:1015E0001D2AE7D70E018D0E406F150E0E01EA6A17
:1015F0008225E96E8351EA22EF50800B02E00E0152
:101600004091150E0E01EA6A8225E96E8351EA22A5
:10161000EFCF38FE160E0E01EA6A8225E96E83517D
:10162000EA22EFCF39FE2DCE3AFE2ECE3BFEFDEC68
:1016300023F00E015E6FFF0E0E015E5D16E00E01DF
:101640005E510E0DF3CFE9FFF4CFEAFF470EE92616
:10165000020EEA220C0EE926000EEA22EFCF40FE2F
:101660000E0140850E01408708D00E018D0E406F9F
:101670000E0138AF02D00E0140911CEC25F00E0196
:101680005E6FFF0E0E015E5D5AE21D6A010E1D5C6B
:1016900029E2170E1D240E01EA6A8225E96E8351A4
:1016A000EA22EF50E66E0E015E510E0DF3CFE9FF18
:1016B000F4CFEAFF470EE926020EEA220D0EE926D4
:1016C000000EEA22E9CFE1F2EACFE2F21D50020178
:1016D000EA6AE125E96EE251EA22E552E750EF6E4F
:1016E0001D2AD4D70E0EE66EE66A0E015E510E0D6F
:1016F00002010201CB51F3240201E16F0201020158
:10170000CC51F4200201E26FE1C2E6FFE2C2E6FF43
:101710000E015E510E0DF3CFE3F2F4CFE4F2470E6B
:101720000201E327020E0201E423E3C2E6FFE4C262
:10173000E6FF84EC77F046E90E015D8102D00E01F0
:101740005D910E015D935CD10D0E0E01EA6A82255A
:10175000E96E8351EA22EF501E6E0E0E0E01EA6A08
:101760008225E96E8351EA22EF501F6E0F0E0E01A3
:10177000EA6A8225E96E8351EA22EF50206E100E4C
:101780000E01EA6A8225E96E8351EA22EF50216E4A
:101790001EEBE6FF1FEBE6FF20EBE6FF21EBE6FF8B
:1017A00002EC37F044E92CD10D0E0E01EA6A8225D5
:1017B000E96E8351EA22EFCF55FE0E0E0E01EA6A62
:1017C0008225E96E8351EA22EFCF56FE0F0E0E01FD
:1017D000EA6A8225E96E8351EA22EFCF57FE100EA6
:1017E0000E01EA6A8225E96E8351EA22EFCF58FEA4
:1017F0000E01546B0E01548162EC7DF0F9C259FE6A
:10180000FAC25AFEFBC25BFEFCC25CFEF9D00201CA
:10181000800EE16F0D0E0E01EA6A8225E96E83519A
:10182000EA22EF50EA6AA00FE96E000EEA22EF50BA
:101830000201E15D36E20E010B0E2A6F0E012A5104
:101840002A2BEA6A000FE96E020EEA22EF6A0E0105
:101850002A512A2BEA6A000FE96E020EEA22B30E21
:10186000EF6E0D0E0E01EA6A8225E96E8351EA22BF
:10187000EF50E66E0E012A512A2BEA6A000FE96E3C
:10188000020EEA22E552E750EF6E0E01386B396B1B
:10189000E66AE66A380EE66E0E0EE66E19EC2FF07A
:1018A00044E9AED00D0E0E01EA6A8225E96E83513D
:1018B000EA22EFCFE1F20E015451F80BE842E84280
:1018C000E8420201E15D02E10E01548599D00D0E5E
:1018D0000E01EA6A8225E96E8351EA22EF50030184
:1018E000205D01E08DD00E012A6B24C300F20201BD
:1018F000020E016F2DCE02F22ECE03F2080E0E0163
:10190000EA6A8225E96E8351EA22EFCF04F2090EDA
:101910000E01EA6A8225E96E8351EA22EFCF05F2D1
:101920002DCE06F22ECE07F22BCE08F22CCE09F2E7
:101930000E013E513E2B02010A6F02010B6B0201A8
:10194000420E0C6F0E01786B0E01788B0E01010EAA
:101950007B6F0E01010E7C6F2DCE7DFE2ECE7EFEA6
:10196000080E0E0182250E01796F000E0E018321F3
:101970000E017A6F0D0EE66E000EE66E020EE66E3A
:1019800078CEE6FF79CEE6FF7ACEE6FF7BCEE6FFA5
:101990007CCEE6FF7DCEE6FF7ECEE6FFEAEC43F0AE
:1019A0004AE92ED00D0E0E01EA6A8225E96E8351B6
:1019B000EA22EF500301205D1EE162EC7DF0F9C2E6
:1019C00059FEFAC25AFEFBC25BFEFCC25CFE0E016F
:1019D00054830E0E0E01EA6A8225E96E8351EA22D3
:1019E000EF500E011F0BF36EF346F346F346070E5E
:1019F0005415F310546F04D00E013F9D01D000D058
:101A000019D00A0E0E01EA6A8225E96E8351EA2294
:101A1000EF500301225D09E10E013C510E1802E175
:101A20003D510F1802E10E013F970E50800800E271
:101A3000FBEF16F046D00B0E0E01845D0E01086F11
:101A40000B0E0E0182250E01066F000E0E01832182
:101A50000E01076F0CEB02FE0DEB03FE080E0E01EC
:101A6000EA6A8225E96E8351EA22EF50FF0815E108
:101A7000090E0E01EA6A8225E96E8351EA22EF50CF
:101A8000FF080BE10E0187510E01019FE8B0018FA5
:101A900080CE04FE81CE05FE0CD00E01018F080E13
:101AA0000E0182250E01046F000E0E0183210E012E
:101AB000056F0E01018D0E010851000802E20E01B2
:101AC0003F8571D082CEE9FF83CEEAFFEF50000858
:101AD0006AE282CEE9FF83CEEAFFEF060E012A6BAF
:101AE000016A0E018451015C16E201500E01EA6A9E
:101AF0008225E96E8351EA22EF50E66E0E012A51EB
:101B00002A2BEA6A000FE96E020EEA22E552E7503C
:101B1000EF6E012AE6D70E012C51115C33E1020170
:101B20000B5130E1300E02010C5D2CE10E01786B9F
:101B30000E01788B0E01010E7B6F0E01010E7C6F82
:101B40000E01D950100F796FDACF7AFE0AEB7DFEC5
:101B50000BEB7EFE2ACEE6FF000EE66E020EE66E70
:101B600078CEE6FF79CEE6FF7ACEE6FF7BCEE6FFC3
:101B70007CCEE6FF7DCEE6FF7ECEE6FFEAEC43F0CC
:101B80004AE911D00E017F51080B01E0010EE66E0B
:101B900010EBE6FF11EBE6FF0AEBE6FF0BEBE6FFCF
:101BA000D9EC1FF045E9FBEF16F0226A040E22245F
:101BB0000E01EA6A8225E96E8351EA22EF505D0840
:101BC00002E0FBEF16F00E013FA162D188CE3AFE93
:101BD00089CE3BFE80CEE9FF81CEEAFFEFCF38FE13
:101BE000010E0E01EA6A8025E96E8151EA22EFCFEB
:101BF00039FE22500E01EA6A8225E96E8351EA22FB
:101C0000EF50FF0801E044D122280E01EA6A822544
:101C1000E96E8351EA22EF50236E020E0E010B5D36
:101C200001E336D1D950230FE96EDACFEAFFEF5046
:101C3000300BE842E842E842E842010801E228D1DC
:101C40000E010B510F0DF3CFE9FFF4CFEAFF0C0E9D
:101C5000E9260E0EEA2220C3EFFF0E010B510F0DF5
:101C6000F3CFE9FFF4CFEAFF0C0EE9260E0EEA22CD
:101C70000B0EE926000EEA2209CEEFFF0E010B51F2
:101C80000F0DF3CFE9FFF4CFEAFF0C0EE9260E0E9D
:101C9000EA220C0EE926000EEA220ACEEFFF0E0120
:101CA0000B510F0DF3CFE9FFF4CFEAFF0C0EE9263D
:101CB0000E0EEA22090EE926000EEA223ACEEEFFC7
:101CC0003BCEEDFF0E010B510F0DF3CFE9FFF4CF2B
:101CD000EAFF0C0EE9260E0EEA220D0EE926000E92
:101CE000EA22EF6A0E010B510F0DF3CFE9FFF4CF9B
:101CF000EAFF0C0EE9260E0EEA220D0EE926000E72
:101D0000EA22EF8CD950230FE96EDACFEAFFEF50C9
:101D1000060BE8420201E16F0E010B510F0DF3CFEC
:101D2000E9FFF4CFEAFF0C0EE9260E0EEA220D0EB3
:101D3000E926000EEA220201E151030BF36EFC0ECC
:101D4000EF14F310EF6ED950230FE96EDACFEAFFEC
:101D5000EF50080B10E00E010B510F0DF3CFE9FF10
:101D6000F4CFEAFF0C0EE9260E0EEA220D0EE9264C
:101D7000000EEA22EF86D950230FE96EDACFEAFF90
:101D8000EF50300BE842E842E842E842010810E335
:101D90000E010B510F0DF3CFE9FFF4CFEAFF0C0E4C
:101DA000E9260E0EEA220D0EE926000EEA22EF8A3F
:101DB0000E010B510F0DF3CFE9FFF4CFEAFF0C0E2C
:101DC000E9260E0EEA220D0EE926000EEA22EF8E1B
:101DD00004CEE9FF05CEEAFFEF50E66E0E010B518F
:101DE0000F0DF3CFE9FFF4CFEAFF0C0EE9260E0E3C
:101DF000EA22EE52E552E750EF6E010E0E01EA6A5A
:101E00000425E96E0551EA22EF50E66E0E010B51F2
:101E10000F0DF3CFE9FFF4CFEAFF0C0EE9260E0E0B
:101E2000EA22EE52E92A000EEA22E552E750EF6E6E
:101E3000016A010E015C2AE2060E222401240E0131
:101E4000EA6A8225E96E8351EA22EF50E66E0E01BE
:101E50000B510F0DF3CFE9FFF4CFEAFF0C0EE9268B
:101E60000E0EEA220E0EE926000EEA22E9CFE1F27A
:101E7000EACFE2F201500201EA6AE125E96EE2519D
:101E8000EA22E552E750EF6E012AD3D70E010B2B61
:101E9000FBEF16F082CEE9FF83CEEAFFEF50070A90
:101EA00002E1D9EF16F0040A02E180EF13F0010A13
:101EB00001E1CDD2030A02E0F8EF16F0256A030132
:101EC0002151010802E2F9EF16F00E013FB302D0F2
:101ED000F9EF16F0016A080E015C14E201500E01E0
:101EE000EA6A8025E96E8151EA22EF50E66E0150E0
:101EF000EA6A300FE96E0E0EEA22E552E750EF6E05
:101F0000012AE9D7BAEC24F0246EFF0E245C6BE0C2
:101F100024500E0DF3CFE9FFF4CFEAFF470EE92678
:101F2000020EEA220C0EE926000EEA22EF50200BE8
:101F30005AE00E012F51245C56E024500E0DF3CFD1
:101F4000E9FFF4CFEAFF470EE926020EEA220C0E63
:101F5000E926000EEA22EF50080B45E024500E0D52
:101F6000F3CFE9FFF4CFEAFF470EE926020EEA229B
:101F7000020EE926000EEA22EECF38FEEDCF39FE42
:101F800003012151010802E2F9EF16F0016A010E86
:101F9000015C28E2020E01240E01EA6A8225E96E44
:101FA0008351EA22EF50E66E24500E0DF3CFE9FF85
:101FB000F4CFEAFF470EE926020EEA220D0EE926CB
:101FC000000EEA22E9CFE1F2EACFE2F2015002018B
:101FD000EA6AE125E96EE251EA22E552E750EF6E46
:101FE000012AD5D7E0D103012151000802E2F9EF1F
:101FF00016F00E01A70E406F2DCE3AFE2ECE3BFE00
:102000001CEC25F0246EFF0E245C07E1010E256E0A
:102010000E01FE0E386F3969C6D1016A010E015CEE
:1020200028E2020E01240E01EA6A8225E96E83513C
:10203000EA22EF50E66E24500E0DF3CFE9FFF4CF05
:10204000EAFF470EE926020EEA220D0EE926000EEF
:10205000EA22E9CFE1F2EACFE2F201500201EA6AB4
:10206000E125E96EE251EA22E552E750EF6E012ADE
:10207000D5D7010E0E01EA6A8225E96E8351EA2264
:10208000EF50400B01E1CFD0020E0E01535D60E036
:102090000E010B0E2A6F0E012A512A2BEA6A000F3D
:1020A000E96E020EEA22EF6A0E012A512A2BEA6A31
:1020B000000FE96E020EEA22A00EEF6E0E012A5109
:1020C0002A2BEA6A000FE96E020EEA22EF6A016A21
:1020D000080E015C15E20150EA6A300FE96E0E0E3F
:1020E000EA22EF50E66E0E012A512A2BEA6A000F0F
:1020F000E96E020EEA22E552E750EF6E012AE8D7B8
:10210000016A010E015C15E20150EA6AB60FE96E40
:102110000E0EEA22EF50E66E0E012A512A2BEA6AD1
:10212000000FE96E020EEA22E552E750EF6E012A37
:10213000E8D70E01386B396BE66AE66A380EE66E50
:102140000E0EE66E19EC2FF044E9F9EF16F06AD0A6
:102150000E01386B010E276E080E275C32E227EB6A
:1021600039FEFDEC23F0266EFF0E265C28E10E0101
:10217000386B27EB39FE2750EA6AC90FE96E000E6B
:10218000EA22EF6A0E0142834285429762EC7DF0BB
:10219000F9C243FEFAC244FEFBC245FEFCC246FE43
:1021A000120E0E01435F7A0E0E01445B000E0E010B
:1021B000455B000E0E01465B0E01418102D0272ACD
:1021C000CBD7080E275C2EE10E01396B010E016E94
:1021D00001500201E16FE26B800E0201D890E2BF74
:1021E00003D0E15D000EE25913E201EB38FEFDEC95
:1021F00023F0FF080BE1800E01240E01386FFDEC87
:1022000023F0FF0803E101EB38FE02D0012AE0D7FA
:1022100001507F0807E2010E256E0E01FE0E386F99
:102220003969C1D02ED02CCE39FE010E016E01507D
:102230000201E16FE26B800E0201D890E2BF03D091
:10224000E15D000EE25913E201EB38FEFDEC23F0F4
:10225000FF080BE1800E01240E01386FFDEC23F026
:10226000FF0803E101EB38FE02D0012AE0D701505C
:102270007F0807E2010E256E0E01FE0E386F3969E8
:1022800092D00E01BF0E406F010E0E01EA6A822548
:10229000E96E8351EA22EF50010B04E10E014091F7
:1022A0000E01388F11D024500E0DF3CFE9FFF4CF7B
:1022B000EAFF470EE926020EEA220C0EE926000E7E
:1022C000EA22EF6A020E256E25506DE12DCE3AFE10
:1022D0002ECE3BFE1CEC25F0246E050E245C63E242
:1022E00024500E0DF3CFE9FFF4CFEAFF470EE926A5
:1022F000020EEA220C0EE926000EEA22EF88016A9D
:10230000010E015C28E2020E01240E01EA6A822518
:10231000E96E8351EA22EF50E66E24500E0DF3CFA2
:10232000E9FFF4CFEAFF470EE926020EEA220D0E7E
:10233000E926000EEA22E9CFE1F2EACFE2F201500B
:102340000201EA6AE125E96EE251EA22E552E7502C
:10235000EF6E012AD5D70E0EE66EE66A24500E0DFA
:1023600002010201CB51F3240201E16F02010201DB
:10237000CC51F4200201E26FE1C2E6FFE2C2E6FFC7
:1023800024500E0DF3CFE3F2F4CFE4F2470E020136
:10239000E327020E0201E423E3C2E6FFE4C2E6FF04
:1023A00084EC77F046E90201020E006F38CE01F2AC
:1023B00039CE02F225EB03F2016A010E015C14E250
:1023C0000150EA6AB60FE96E0E0EEA22EF50E66E91
:1023D000040E0124EA6A000FE96E020EEA22E552B9
:1023E000E750EF6E012AE9D70E01050E2A6F24503F
:1023F000040DF3CFE9FFF4CFEAFF330EE926020E16
:10240000EA22EE6AEE6AEE6AEE6AE66A010EE66EAD
:1024100024500E0DF3CFE9FFF4CFEAFF470EE92673
:10242000020EEA22040EE926000EEA22E9CFE1F2CA
:10243000EACFE2F2E1C2E6FFE2C2E6FF2D0EE66E6F
:102440000E0EE66EA5EC21F046E9F9EF16F0030E4C
:102450000E01EA6A8225E96E8351EA22EF5001E01B
:102460001FD1010E0E01EA6A8225E96E8351EA222C
:10247000EFCF2BFE020E0E01EA6A8225E96E835130
:10248000EA22EFCF2CFE0E012B510EE10E01010EC0
:10249000536F0E0153510E01030BF36EF346F90E09
:1024A0000015F310006F0CD00E01536B0E01535149
:1024B0000E01030BF36EF346F90E0015F310006FD7
:1024C000010EE66EE66ADDC2E6FFDEC2E6FF530EEF
:1024D000E66E0E0EE66E84EC77F046E92D0EE66EA3
:1024E0000E0EE66E2B0EE66E0E0EE66EB3EC47F0A9
:1024F00044E90E013F830E01BF0E406F016A080ED2
:10250000015C14E201500E01EA6A8025E96E8151F6
:10251000EA22EF50E66E0150EA6A300FE96E0E0EC5
:10252000EA22E552E750EF6E012AE9D70E012F515A
:102530000E0DF3CFE9FFF4CFEAFF470EE926020EB6
:10254000EA22020EE926000EEA22EECF38FEEDCF97
:1025500039FE2DCE3AFE2ECE3BFE1CEC25F00E01B0
:102560002F6F0E012F51040DF3CFE9FFF4CFEAFFD7
:10257000330EE926020EEA22EE6AEE6AEE6AEE6A8F
:10258000016A010E015C29E2040E01240E01EA6ACF
:102590008225E96E8351EA22EF50E66E0E012F513B
:1025A0000E0DF3CFE9FFF4CFEAFF470EE926020E46
:1025B000EA220D0EE926000EEA22E9CFE1F2EACF87
:1025C000E2F201500201EA6AE125E96EE251EA22F3
:1025D000E552E750EF6E012AD4D70E014289428BB3
:1025E000429D62EC7DF0F9C243FEFAC244FEFBC29A
:1025F00045FEFCC246FE020EE66EE66AC5C2E6FF76
:10260000C6C2E6FF2D0EE66E0E0EE66E84EC77F087
:1026100046E9020EE66EE66ACFC2E6FFD0C2E6FFEA
:102620002B0EE66E0E0EE66E84EC77F046E9010E98
:10263000E66EE66AD3C2E6FFD4C2E6FF2F0EE66E70
:102640000E0EE66E84EC77F046E90E0EE66EE66A54
:102650000E012F510E0D02010201CB51F324020194
:10266000E16F02010201CC51F4200201E26FE1C2EC
:10267000E6FFE2C2E6FF0E012F510E0DF3CFE3F2AB
:10268000F4CFE4F2470E0201E327020E0201E42335
:10269000E3C2E6FFE4C2E6FF84EC77F046E92FD020
:1026A0000E012F690E012D692E690E0138693969F5
:1026B0002D0EE66E0E0EE66E380EE66E0E0EE66E11
:1026C000B3EC47F044E9010EE66EE66AD3C2E6FFDA
:1026D000D4C2E6FF2F0EE66E0E0EE66E84EC77F0A7
:1026E00046E9020EE66EE66AC5C2E6FFC6C2E6FF2E
:1026F0002D0EE66E0E0EE66E84EC77F046E979D389
:102700000E013FA376D30E01875117E080CEE9FF7B
:1027100081CEEAFFEFCF38FE010E0E01EA6A802576
:10272000E96E8151EA22EFCF39FEFDEC23F0286EED
:10273000FF0E285C01E15DD31FD0016A080E015C29
:1027400014E201500E01EA6A8025E96E8151EA2205
:10275000EF50E66E0150EA6A300FE96E0E0EEA2283
:10276000E552E750EF6E012AE9D7BAEC24F0286E63
:10277000FF0E285C01E13DD328500E0DF3CFE9FF99
:10278000F4CFEAFF470EE926020EEA220C0EE926F4
:10279000000EEA22EF50200B01E10AD30E012F5167
:1027A000285C01E171D128500E0DF3CFE9FFF4CF81
:1027B000EAFF470EE926020EEA22020EE926000E83
:1027C000EA22EF5001E028D1020E0E01535D01E034
:1027D000CBD0070E016E01505DE081EB29F02A6A33
:1027E000295056E02950EA6AC90FE96E000EEA2224
:1027F000EF50FF0801E14CD02950EA6AC90FE96E99
:10280000000EEA22EFCFE1F228500E0DF3CFE9FFE0
:10281000F4CFEAFF470EE926020EEA22020EE9266D
:10282000000EEA22E92A000EEA22EF500201E15DE1
:1028300021E10150EA6AC90FE96E000EEA22EF6851
:102840000E01386B01EB39FEFDEC23F02B6EFF0E11
:102850002B5C0FE02B500E0DF3CFE9FFF4CFEAFF16
:10286000470EE926020EEA220C0EE926000EEA22A5
:10287000EF6A0ED02950EA6AC90FE96E000EEA220B
:10288000EF50296E2A502A2A080801E201D0A8D761
:102890000106A1D728500E0DF3CFE9FFF4CFEAFFD0
:1028A000470EE926020EEA22020EE926000EEA226F
:1028B000E92A000EEA22EF50EA6AC90FE96E000E1B
:1028C000EA22EF6828500E0DF3CFE9FFF4CFEAFFBC
:1028D000470EE926020EEA220C0EE926000EEA2235
:1028E000EF6A0E0EE66EE66A28500E0D0201020136
:1028F000CB51F3240201E16F02010201CC51F4201B
:102900000201E26FE1C2E6FFE2C2E6FF28500E0DCF
:10291000F3CFE3F2F4CFE4F2470E0201E327020E15
:102920000201E423E3C2E6FFE4C2E6FF84EC77F0B1
:1029300046E90E0142834285429762EC7DF0F9C27E
:1029400043FEFAC244FEFBC245FEFCC246FE120E26
:102950000E01435F7A0E0E01445B000E0E01455BD3
:10296000000E0E01465B58D00E010B0E2A6F0E01B1
:102970002A512A2BEA6A000FE96E020EEA22EF6A58
:102980000E012A512A2BEA6A000FE96E020EEA2292
:10299000A00EEF6E0E012A512A2BEA6A000FE96E93
:1029A000020EEA22010EEF6E016A080E015C28E2B7
:1029B00028500E0DF3CFE9FFF4CFEAFF470EE926CA
:1029C000020EEA22040EE926000EEA22E9CFE1F225
:1029D000EACFE2F201500201EA6AE125E96EE25132
:1029E000EA22EF50E66E0E012A512A2BEA6A000F06
:1029F000E96E020EEA22E552E750EF6E012AD5D7C2
:102A00000E01386B396BE66AE66A380EE66E0E0E1A
:102A1000E66E19EC2FF044E928500E0DF3CFE9FFD4
:102A2000F4CFEAFF470EE926020EEA220C0EE92651
:102A3000000EEA22EF6A0E0EE66EE66A28500E0DD0
:102A400002010201CB51F3240201E16F02010201F4
:102A5000CC51F4200201E26FE1C2E6FFE2C2E6FFE0
:102A600028500E0DF3CFE3F2F4CFE4F2470E02014B
:102A7000E327020E0201E423E3C2E6FFE4C2E6FF1D
:102A800084EC77F046E994D1016A050E015C01E31C
:102A900091D001500E0DF3CFE9FFF4CFEAFF470EBE
:102AA000E926020EEA220C0EE926000EEA22EF5079
:102AB000800B6FE001500E0DF3CFE9FFF4CFEAFF7A
:102AC000470EE926020EEA220C0EE926000EEA2243
:102AD000EF50200B5EE00E012F51015C5AE00E0119
:102AE0002A6B0E012A512A2BEA6A000FE96E020EA8
:102AF000EA22030EEF6E0E01786B0E01788B0E0149
:102B0000788178930E01010E7B6F0E01010E7C6FB0
:102B10002DCE7DFE2ECE7EFE01500E0DF3CFE9FFB1
:102B2000F4CFEAFF470EE926020EEA22020EE9265A
:102B3000000EEA22E9CF79FEEACF7AFE2ACEE6FF3E
:102B4000000EE66E020EE66E78CEE6FF79CEE6FF68
:102B50007ACEE6FF7BCEE6FF7CCEE6FF7DCEE6FFBB
:102B60007ECEE6FFEAEC43F04AE9640E2C6E2D6A55
:102B70002CEBE1F22DEBE2F22C06000E2D5A0201B5
:102B8000E151E21106E0040EE66E36EC7EF041E91A
:102B9000EFD701500E0DF3CFE9FFF4CFEAFF470E58
:102BA000E926020EEA220C0EE926000EEA22EF6A5E
:102BB000012A6BD70E010B0E2A6F0E012A512A2B08
:102BC000EA6A000FE96E020EEA22EF6A0E012A514C
:102BD0002A2BEA6A000FE96E020EEA22A00EEF6EBF
:102BE0000E012A512A2BEA6A000FE96E020EEA2230
:102BF000010EEF6E016A080E015C28E228500E0DEE
:102C0000F3CFE9FFF4CFEAFF470EE926020EEA22EE
:102C1000040EE926000EEA22E9CFE1F2EACFE2F261
:102C200001500201EA6AE125E96EE251EA22EF5021
:102C3000E66E0E012A512A2BEA6A000FE96E020E97
:102C4000EA22E552E750EF6E012AD5D70E01386B24
:102C5000396BE66AE66A380EE66E0E0EE66E19EC21
:102C60002FF044E90E012F690E012B692C690E012A
:102C70002D692E692D0EE66E0E0EE66E2B0EE66E9B
:102C80000E0EE66EB3EC47F044E90E013F93016A85
:102C9000080E015C1EE20150EA6AC90FE96E000EDF
:102CA000EA22EF68286A010E285C11E20150020155
:102CB000E26BD10FE16F000EE22328500201EA6AB5
:102CC000E125E96EE251EA22EF6A282AECD7012ACF
:102CD000DFD7016A010E015C09E20150EA6AC00F08
:102CE000E96E000EEA22EF6A012AF4D7010EE66EC1
:102CF000E66AD3C2E6FFD4C2E6FF2F0EE66E0E0EE2
:102D0000E66E84EC77F046E9020EE66EE66ACFC224
:102D1000E6FFD0C2E6FF2B0EE66E0E0EE66E84ECEA
:102D200077F046E9020EE66EE66AC5C2E6FFC6C265
:102D3000E6FF2D0EE66E0E0EE66E84EC77F046E9A9
:102D4000080EE66EE66ADBC2E6FFDCC2E6FFC90EED
:102D5000E66E000EE66E84EC77F046E9010EE66E54
:102D6000E66AD7C2E6FFD8C2E6FFC00EE66E000EE6
:102D7000E66E84EC77F046E9080EE66EE66AD9C2A4
:102D8000E6FFDAC2E6FFD10EE66E000EE66E84ECD8
:102D900077F046E9460EE66EE66ACBC2E6FFCCC2A5
:102DA000E6FF470EE66E020EE66E84EC77F046E92B
:102DB00020D003012151020801E21BD00E013FA3E4
:102DC00016D0010E0E01EA6A8225E96E8351EA22CD
:102DD000EF500301205D01E00CD00E01535107E0DC
:102DE000C80EE66E40EC00F041E94FEC24F001D053
:102DF00000D001D000D00E013FB502D0D9EC43F095
:102E000062EC7DF0F9C2E1F2FAC2E2F2FBC2E3F257
:102E1000FCC2E4F20201E151026EE251036EE351A1
:102E2000046EE451056E016A050E015C01E3BBD03E
:102E30000150080DF3CFE9FFF4CFEAFF8A0EE9262F
:102E40000E0EEA22030EE926000EEA22EF500008D9
:102E500001E3A7D00150080DF3CFE9FFF4CFEAFF5B
:102E60008A0EE9260E0EEA22040EE926000EEA2258
:102E7000EE50025CEE500358EE500458EE500558E8
:102E80002BE302EBE5F203EBE6F204EBE7F205EBF2
:102E9000E8F20150080DF3CFE9FFF4CFEAFF8A0E04
:102EA000E9260E0EEA22040EE926000EEA22EE5072
:102EB0000201E55D0201E16FEE500201E6590201F7
:102EC000E26FEE500201E7590201E36FEE5002019A
:102ED000E8590201E46F4BD00201ED69EE69EF6938
:102EE000F0690150080DF3CFE9FFF4CFEAFF8A0E35
:102EF000E9260E0EEA22040EE926000EEA22EE5022
:102F00000201ED5D0201E96FEE500201EE5902018E
:102F1000EA6FEE500201EF590201EB6FEE50020131
:102F2000F0590201EC6FD950020FE96EDACFEAFFD7
:102F30000201E951EE240201E16F0201EA51EE20A3
:102F40000201E26F0201EB51EE200201E36F020188
:102F5000EC51EE200201E46F0201E12B000E0201B0
:102F6000E223000E0201E323000E0201E423D880D5
:102F7000120E0201E1557A0EE255000EE355000EE5
:102F8000E4550FE20150080DF3CFE9FFF4CFEAFF5B
:102F90008A0EE9260E0EEA22030EE926000EEA2228
:102FA000EF6A012A41D7D950020FE96EDACFEAFF62
:102FB0000E014351EE5C0201E16F0E014451EE58E7
:102FC0000201E26F0E014551EE580201E36F0E015E
:102FD0004651EE580201E46F0201E151066EE251E2
:102FE000076EE351086EE451096E0E0142510E0B5B
:102FF000E842000859E20650B408C40E0754040E13
:103000000854000E09544FE2420EE96E0E0EEA6EAD
:10301000EF500E0BE842E806F36EF350070BF36E29
:10302000F46EF346F10EEF14F310EF6E0E010B0E7B
:103030002A6F0E012A512A2BEA6A000FE96E020E4E
:10304000EA22EF6A0E012A512A2BEA6A000FE96E82
:10305000020EEA22A30EEF6E016A080E015C15E271
:103060000150EA6AC90FE96E000EEA22EF50E66EDF
:103070000E012A512A2BEA6A000FE96E020EEA229B
:10308000E552E750EF6E012AE8D7E66A020EE66ED7
:1030900013EC2DF042E902EB43FE03EB44FE04EB9C
:1030A00045FE05EB46FE67D10E014251700BE8422A
:1030B000E842E842E84200086FE20650B408C40E55
:1030C0000754040E0854000E095465E2420EE96EDE
:1030D0000E0EEA6EEF50700BE842E842E842E8421A
:1030E000E806F36EF350070BF36EF46EF346F34607
:1030F000F346F3468F0EEF14F310EF6E0E010B0E36
:103100002A6F0E012A512A2BEA6A000FE96E020E7D
:10311000EA22EF6A0E012A512A2BEA6A000FE96EB1
:10312000020EEA22A40EEF6E0E012A512A2BEA6A41
:10313000000FE96E020EEA222CCEEFFF016A010EAB
:10314000015C15E20150EA6AC00FE96E000EEA2246
:10315000EF50E66E0E012A512A2BEA6A000FE96E43
:10316000020EEA22E552E750EF6E012AE8D703018A
:10317000010E246FE66A020EE66E13EC2DF042E9B2
:103180000301090E246F02EB43FE03EB44FE04EB44
:1031900045FE05EB46FEEFD0FF0E0001C95D36E1AE
:1031A0000E01530533E10E010E013F51020B2EE0DB
:1031B0000650B408C40E0754040E0854000E0954F7
:1031C00024E20E010B0E2A6F0E012A512A2BEA6A05
:1031D000000FE96E020EEA22EF6A0E012A512A2B35
:1031E000EA6A000FE96E020EEA22A20EEF6EE66AAC
:1031F0002FCEE6FF94EC2DF042E902EB43FE03EB09
:1032000044FE04EB45FE05EB46FEB5D00E0141A1A0
:103210005CD00650D008120E0754130E0854000E4E
:10322000095452E20E014191020E0E01535D3EE03F
:103230000E012C51EA6AC90FE96E000EEA22EFCFA7
:10324000E1F20E012F510E0DF3CFE9FFF4CFEAFFAB
:10325000470EE926020EEA22020EE926000EEA22B5
:10326000E92A000EEA22EF500201E15D1FE00E01A3
:10327000386B0E012C51EA6AC90FE96E000EEA2282
:10328000EFCF39FEFDEC23F0016E050E015C03E289
:1032900001EB2FFE0BD00E01BB0E406F2DCE3AFE80
:1032A0002ECE3BFE1CEC25F00E012F6F080EE66EB5
:1032B000E66ADBC2E6FFDCC2E6FFC90EE66E000E80
:1032C000E66E84EC77F046E956D00E0141A31AD0A1
:1032D0000650D008120E0754130E0854000E09545D
:1032E00010E20E014193010EE66EE66AD7C2E6FFD8
:1032F000D8C2E6FFC00EE66E000EE66E84EC77F0F4
:1033000046E939D00E0141A51AD00650D008120E58
:103310000754130E0854000E095410E20E01419593
:10332000080EE66EE66AD9C2E6FFDAC2E6FFD10E03
:10333000E66E000EE66E84EC77F046E91CD00E01D6
:1033400041A719D00650D008120E0754130E085486
:10335000000E095410E20E014197460EE66EE66A31
:10336000CBC2E6FFCCC2E6FF470EE66E020EE66E6B
:1033700084EC77F046E90E0142A1A4D0000160512F
:10338000025C6151035862510458635105581AE3B5
:10339000D950020FE96EDACFEAFF00016051EE5C0E
:1033A0000201E16F00016151EE580201E26F00017C
:1033B0006251EE580201E36F00016351EE580201C1
:1033C000E46F41D00201E969EA69EB69EC69600EDA
:1033D000E96E000EEA6EEE500201E95D0201E56F52
:1033E000EE500201EA590201E66FEE500201EB597C
:1033F0000201E76FEE500201EC590201E86FD9506B
:10340000020FE96EDACFEAFF0201E551EE24020174
:10341000E16F0201E651EE200201E26F0201E75185
:10342000EE200201E36F0201E851EE200201E46F99
:103430000201E12B000E0201E223000E0201E32350
:10344000000E0201E4236BC0E6FFE66AE66AE66A64
:103450003E0EE66EE66AE66AE66A4AEC72F0E5520D
:10346000E5CFF0F2E5CFEFF2E5CFEEF2E7CFEDF208
:103470000201E1510201ED5D0201E2510201EE594A
:103480000201E3510201EF590201E4510201F05936
:1034900019E20E0142916CC0E6FF6D0EE66E000E61
:1034A000E66E64C0E6FF65C0E6FF66C0E6FF67C083
:1034B000E6FF68C0E6FF69C0E6FF6AC0E6FFEAEC27
:1034C00043F04AE90E01535101E1E6D00E014751A4
:1034D000025C48510358495104584A5105581AE3AF
:1034E000D950020FE96EDACFEAFF0E014751EE5CC8
:1034F0000201E16F0E014851EE580201E26F0E0128
:103500004951EE580201E36F0E014A51EE58020193
:10351000E46F41D00201E969EA69EB69EC69470EA1
:10352000E96E0E0EEA6EEE500201E95D0201E56FF2
:10353000EE500201EA590201E66FEE500201EB592A
:103540000201E76FEE500201EC590201E86FD95019
:10355000020FE96EDACFEAFF0201E551EE24020123
:10356000E16F0201E651EE200201E26F0201E75134
:10357000EE200201E36F0201E851EE200201E46F48
:103580000201E12B000E0201E223000E0201E323FF
:10359000000E0201E423D880400E0201E1553A0EEC
:1035A000E255690EE3550D0EE45576E20E014289AF
:1035B000429B429D62EC7DF0F9C243FEFAC244FE9A
:1035C000FBC245FEFCC246FE43CE47FE44CE48FE4B
:1035D00045CE49FE46CE4AFE016A080E015C5CE219
:1035E0000150EA6A4B0FE96E0E0EEA22EF50000816
:1035F00051E20150EA6A4B0FE96E0E0EEA22EF0625
:103600000150EA6A4B0FE96E0E0EEA22EF5042E1DA
:103610000150F80BE842E842E842EA6AC00FE96E5E
:10362000000EEA22EFCFE1F20150070B0201E26F38
:10363000010E0201E25304E0E846FE0BE207FCE162
:10364000FF0A0201E115E66E0150F80BE842E8427C
:10365000E842EA6AC00FE96E000EEA22E552E7503E
:10366000EF6E2E6A010E2E5C11E201500201E26B38
:10367000D10FE16F000EE2232E500201EA6AE1252C
:10368000E96EE251EA22EF6A2E2AECD70E0141835D
:103690000E014185012AA1D70E0154A37DD00E0150
:1036A0005951025C5A5103585B5104585C510558FA
:1036B0001AE3D950020FE96EDACFEAFF0E01595131
:1036C000EE5C0201E16F0E015A51EE580201E26F09
:1036D0000E015B51EE580201E36F0E015C51EE5892
:1036E0000201E46F41D00201E969EA69EB69EC6922
:1036F000590EE96E0E0EEA6EEE500201E95D02010E
:10370000E56FEE500201EA590201E66FEE50020148
:10371000EB590201E76FEE500201EC590201E86F2C
:10372000D950020FE96EDACFEAFF0201E551EE242B
:103730000201E16F0201E651EE200201E26F020197
:10374000E751EE200201E36F0201E851EE20020191
:10375000E46F0201E12B000E0201E223000E0201E0
:10376000E323000E0201E423D880480E0201E15554
:10377000E80EE255010EE355000EE4550CE20E0191
:103780005451F80BE842E842E842E66E3BEC28F080
:1037900041E90E01546B90D00E0154A18DD00E0161
:1037A0005951025C5A5103585B5104585C510558F9
:1037B0001AE3D950020FE96EDACFEAFF0E01595130
:1037C000EE5C0201E16F0E015A51EE580201E26F08
:1037D0000E015B51EE580201E36F0E015C51EE5891
:1037E0000201E46F41D00201E969EA69EB69EC6921
:1037F000590EE96E0E0EEA6EEE500201E95D02010D
:10380000E56FEE500201EA590201E66FEE50020147
:10381000EB590201E76FEE500201EC590201E86F2B
:10382000D950020FE96EDACFEAFF0201E551EE242A
:103830000201E16F0201E651EE200201E26F020196
:10384000E751EE200201E36F0201E851EE20020190
:10385000E46F0201E12B000E0201E223000E0201DF
:10386000E323000E0201E423D880480E0201E15553
:10387000E80EE255010EE355000EE4551DE203018A
:1038800020512F6ED950010FE66EDACFE6FFE66ABF
:103890000A0EE66E55CEE6FF56CEE6FF57CEE6FFA1
:1038A00058CEE6FF85EC33F048E92FEBE6FF3BEC22
:1038B00028F041E90E0154910E015DA3E4D00E0100
:1038C0005DA168D00E010B0E2A6F0E012A512A2B22
:1038D000EA6A000FE96E020EEA22EF6A0E012A512F
:1038E0002A2BEA6A000FE96E020EEA22110EEF6E31
:1038F000306A080E305C15E23050EA6A610FE96EFA
:103900000E0EEA22EF50E66E0E012A512A2BEA6AC9
:10391000000FE96E020EEA22E552E750EF6E302A00
:10392000E8D70E012A512A2BEA6A000FE96E020E2F
:10393000EA225FCEEFFF0E012A512A2BEA6A000F1E
:10394000E96E020EEA2260CEEFFF306A010E305CB3
:1039500015E23050EA6A690FE96E0E0EEA22EF5066
:10396000E66E0E012A512A2BEA6A000FE96E020E5A
:10397000EA22E552E750EF6E302AE8D7E66AE66AB7
:103980006A0EE66E0E0EE66E19EC2FF044E90E019B
:103990005D9379D00E017451025C755103587651D4
:1039A0000458775105581AE3D950020FE96EDACF5F
:1039B000EAFF0E017451EE5C0201E16F0E017551D8
:1039C000EE580201E26F0E017651EE580201E36FEC
:1039D0000E017751EE580201E46F41D00201E9690E
:1039E000EA69EB69EC69740EE96E0E0EEA6EEE5050
:1039F0000201E95D0201E56FEE500201EA590201A0
:103A0000E66FEE500201EB590201E76FEE50020142
:103A1000EC590201E86FD950020FE96EDACFEAFFE4
:103A20000201E551EE240201E16F0201E651EE20B0
:103A30000201E26F0201E751EE200201E36F020191
:103A4000E851EE200201E46F0201E12B000E0201B9
:103A5000E223000E0201E323000E0201E42302012F
:103A6000E151066EE251076EE351086EE451096EB2
:103A700006506C08DC0E0754020E0854000E095460
:103A800002E20E015D9371E9E7CFD9FF1200D9CFB1
:103A9000E6FFE1CFD9FF82E943E8005002E1000EE2
:103AA0002CD00050EA6AC90FE96E000EEA22EFCF6F
:103AB000E1F2080E0201E15D02E3000E1ED0010EEC
:103AC000026E80EB03F0046A0350EA6AC90FE96EE4
:103AD000000EEA22EF500FE00350EA6AC90FE96EC8
:103AE000000EEA22EF50036E022A0450042A08084E
:103AF00001E201D0E9D7025000D044E9E7CFD9FF75
:103B00001200D9CFE6FFE1CFD9FF82E947E8076A83
:103B1000005008080CE30001C9510BE10050EA6AAB
:103B2000C90FE96E000EEA22EF50080802E2FF0E0C
:103B30003CD20050F80BE842E842E842EA6AC00F83
:103B4000E96E000EEA22EFCFE1F20050070B02010E
:103B5000E26F010E0201E25304E0E846FE0BE207C9
:103B6000FCE10201E11502E000501FD2026A080EDA
:103B7000025C27E202500201E36BD10FE26F000EFC
:103B8000E3230050F80BE842E842E8420201EA6A07
:103B9000E225E96EE351EA22EFCFE1F20050070B94
:103BA0000201E46F010E0201E45304E0E846FE0B5B
:103BB000E407FCE10201E11502E00250F6D1022A1D
:103BC000D6D780EB04F0066A04502DE00450EA6A70
:103BD000C90FE96E000EEA22EF500E012C5D15E1CF
:103BE000020E076E00EBE6FF52DF41E90201E16FD2
:103BF000E1C2E6FF2CCEE6FF4ADF41E9E552E7CF1E
:103C0000E1F20201E15D056E0ED00450EA6AC90FCF
:103C1000E96E000EEA22EF50046E0650062A0808EC
:103C200001E201D0D1D7075032E10E012C51046ED0
:103C3000066A04502CE00450EA6AC90FE96E000ECF
:103C4000EA22EF50005C15E1010E076E2CCEE6FF74
:103C50001EDF41E90201E16FE1C2E6FF00EBE6FF92
:103C600016DF41E9E552E7CFE1F20201E15D056EC1
:103C70000ED00450EA6AC90FE96E000EEA22EF5036
:103C8000046E0650062A080801E201D0D2D7075078
:103C900007E1030E076E00EBE6FFF9DE41E9056E72
:103CA000010E026E0550025C01E3FCD080EB04F0D3
:103CB000036A0250035C0AE20450EA6AC90FE96E23
:103CC000000EEA22EF50046E032AF3D70450F80BDB
:103CD000E842E842E842EA6AC00FE96E000EEA22D2
:103CE000EFCFE1F20450070B0201E26F010E020177
:103CF000E25304E0E846FE0BE207FCE10201E115B5
:103D000002E0045052D1086A080E085C3EE20850F6
:103D1000EA6AC90FE96E000EEA22EFCFE1F2080E5F
:103D20000201E15D30E288EB04F0036A0250035CBB
:103D30000AE20450EA6AC90FE96E000EEA22EF5067
:103D4000046E032AF3D70050045C1DE10850F80B01
:103D5000E842E842E842EA6AC00FE96E000EEA2251
:103D6000EFCFE1F20850070B0201E26F010E0201F2
:103D7000E25304E0E846FE0BE207FCE10201E11534
:103D800002E0085012D1082ABFD780EB04F0036A82
:103D90000250035C0AE20450EA6AC90FE96E000EA1
:103DA000EA22EF50046E032AF3D7086A080E085C73
:103DB00027E208500201E36BD10FE26F000EE3230C
:103DC0000450F80BE842E842E8420201EA6AE225C0
:103DD000E96EE351EA22EFCFE1F20450070B020152
:103DE000E46F010E0201E45304E0E846FE0BE40731
:103DF000FCE10201E11502E00850D7D0082AD6D72D
:103E0000086A080E085C4CE20850EA6AC90FE96EBD
:103E1000000EEA22EFCFE1F2080E0201E15D3EE280
:103E200088EB04F0036A0250035C0AE20450EA6A79
:103E3000C90FE96E000EEA22EF50046E032AF3D791
:103E40000050045C2BE1036A080E035C27E2035078
:103E50000201E36BD10FE26F000EE3230850F80B71
:103E6000E842E842E8420201EA6AE225E96EE351EB
:103E7000EA22EFCFE1F20850070B0201E46F010ED6
:103E80000201E45304E0E846FE0BE407FCE1020112
:103E9000E11502E0035089D0032AD6D7082AB1D70A
:103EA000022A00D7020E075C39E180EB02F0066AB5
:103EB0000250EA6AC90FE96E000EEA22EF500E01C5
:103EC0002C5D1BE10250F80BE842E842E842EA6A46
:103ED000C00FE96E000EEA22EFCFE1F20250070BAD
:103EE0000201E26F010E0201E25304E0E846FE0B1C
:103EF000E207FCE10201E1150EE00250EA6AC90F97
:103F0000E96E000EEA22EF50026E0650062A0808FB
:103F100001E201D0CDD7025048D045D00E012C513E
:103F2000EA6AC90FE96E000EEA22EF50026E82EBD8
:103F300004F0066A0250EA6AC90FE96E000EEA222E
:103F4000EF50025C2EE00050025C2BE00250F80BB8
:103F5000E842E842E842EA6AC00FE96E000EEA224F
:103F6000EFCFE1F20250070B0201E26F010E0201F6
:103F7000E25304E0E846FE0BE207FCE10201E11532
:103F800002E082EB04F00250EA6AC90FE96E000E0B
:103F9000EA22EF50026E0650062A080801E201D01C
:103FA000C9D7045002D0FF0E00D048E9E7CFD9FFAF
:103FB0001200D9CFE6FFE1CFD9FF86E943E882EBD3
:103FC00007F007507F0802E2000EBBD10001C95183
:103FD0000BE10750EA6AC90FE96E000EEA22EF50C2
:103FE000080802E2000EADD1066A050E065C45E245
:103FF0000650080DF3CFE9FFF4CFEAFF8A0EE92659
:104000000E0EEA22030EE926000EEA22EF50000807
:1040100032E20650080DF3CFE9FFF4CFEAFF8A0E33
:10402000E9260E0EEA220150EE1802E10250ED18C8
:1040300022E10650080DF3CFE9FFF4CFEAFF8A0E24
:10404000E9260E0EEA22020EE926000EEA22EF50C1
:1040500002010A5D10E10E014289428B429D62EC31
:104060007DF0F9C243FEFAC244FEFBC245FEFCC22B
:1040700046FE000E66D1062AB8D7066A050E065C13
:1040800061E20650080DF3CFE9FFF4CFEAFF8A0E94
:10409000E9260E0EEA22030EE926000EEA22EF5070
:1040A0004FE10650080DF3CFE9FFF4CFEAFF8A0E87
:1040B000E9260E0EEA22030EE926000EEA22030E7E
:1040C000EF6E0650080DF3CFE9FFF4CFEAFF8A0E3A
:1040D000E9260E0EEA22020EE926000EEA220AC2A4
:1040E000EFFF0650080DF3CFE9FFF4CFEAFF8A0E89
:1040F000E9260E0EEA2201EBEEFF02EBEDFF62EC89
:104100007DF0F9C2E1F2FAC2E2F2FBC2E3F2FCC2D4
:10411000E4F20650080DF3CFE9FFF4CFEAFF8A0E70
:10412000E9260E0EEA22040EE926000EEA22E1C27A
:10413000EEFFE2C2EEFFE3C2EEFFE4C2EEFF02D00A
:10414000062A9CD70E012C51075C3AE101508008E9
:1041500003E2000EF6D034D00E01786B0E01788B9E
:1041600000500E017897E8B0788701EB38FE02EB3B
:1041700039FE0E01010E7B6F0E01010E7C6F0E01E8
:10418000380E796F0E0E7A6F2DCE7DFE2ECE7EFE0E
:104190002ACEE6FF000EE66E020EE66E78CEE6FF51
:1041A00079CEE6FF7ACEE6FF7BCEE6FF7CCEE6FF59
:1041B0007DCEE6FF7ECEE6FFEAEC43F04AE9C1D0D1
:1041C00002EBE6FF9EDC41E9076EFF0E075C02E1B1
:1041D000000EB7D00750EA6AC10FE96E000EEA225E
:1041E000EFCFE1F2030E0201E15D64E30750EA6AFA
:1041F000C10FE96E000EEA22EF6A0750070B0201B9
:10420000E26F010E0201E25304E0E846FE0BE20712
:10421000FCE1FF0A0201E16F0750F80BE842E842B7
:10422000E842EA6AC00FE96E000EEA220201E1519B
:10423000EF16086A010E085C11E207500201E26BFA
:10424000D10FE16F000EE22308500201EA6AE12576
:10425000E96EE251EA22EF6A082AECD7010EE66E17
:10426000E66AD7C2E6FFD8C2E6FFC00EE66E000ED1
:10427000E66E84EC77F046E9080EE66EE66AD9C28F
:10428000E6FFDAC2E6FFD10EE66E000EE66E84ECC3
:1042900077F046E90E014289428B429D62EC7DF047
:1042A000F9C243FEFAC244FEFBC245FEFCC246FE12
:1042B000000E47D00E01786B0E01788B00500E0176
:1042C0007897E8B078870E01386B07EB39FE0E015E
:1042D000010E7B6F0E01010E7C6F0E01380E796F9F
:1042E0000E0E7A6F2DCE7DFE2ECE7EFE2ACEE6FFFE
:1042F000000EE66E020EE66E78CEE6FF79CEE6FFA1
:104300007ACEE6FF7BCEE6FF7CCEE6FF7DCEE6FFF3
:104310007ECEE6FFEAEC43F04AE9000909E10750E6
:10432000EA6AC10FE96E000EEA22EF2A000E09D0F8
:104330000750EA6AC10FE96E000EEA22EF6A010E29
:1043400000D044E9E7CFD9FF1200D9CFE6FFE1CF93
:10435000D9FF87E90E01786B01500E01030BF36E54
:10436000FC0E7815F310786F0250031002E10E0175
:1043700078850E010E017851040B02E0000E01D089
:10438000010E0E01789BE8B0788B0E01788F02EB5E
:1043900079FE03EB7AFE080E0014000804E20E0119
:1043A000010E7B6F02D00E017B6B040E001400081F
:1043B00004E20E01010E7C6F02D00E017C6B04EB57
:1043C000E9FF05EBEAFFEFCF7DFE0428E96E000E62
:1043D0000520EA6EEFCF7EFE2ACEE6FF000EE66EE7
:1043E000020EE66E78CEE6FF79CEE6FF7ACEE6FFE5
:1043F0007BCEE6FF7CCEE6FF7DCEE6FF7ECEE6FFFF
:10440000EAEC43F04AE900D041E9E7CFD9FF1200D6
:10441000D9CFE6FFE1CFD9FF81E941E8016A050E76
:10442000015C15E201500E0DF3CFE9FFF4CFEAFF76
:10443000470EE926020EEA220C0EE926000EEA22B9
:10444000EF50800B02E1015004D0012AE8D7FF0EA3
:1044500000D042E9E7CFD9FF12001200D9CFE6FF22
:10446000E1CFD9FF81E941E80E015D91020E0E0115
:10447000535D01E05ED10E015DB340D062EC7DF092
:10448000F9C274FEFAC275FEFBC276FEFCC277FE6C
:104490000E015F6B606B016A080E015C13E2015054
:1044A000EA6A180FE96E030EEA22EF50E66E015039
:1044B000EA6A610FE96E0E0EEA22E552E750EF6EEE
:1044C000012AEAD70E015D830E015D91016A010E9A
:1044D000015C13E20150EA6AB60FE96E0E0EEA22A1
:1044E000EF50E66E0150EA6A690FE96E0E0EEA229D
:1044F000E552E750EF6E012AEAD719D10E015F515C
:10450000601101E176D10E012B510E015F1904E11A
:104510000E012C510E01601901E109D10E010B0EA3
:104520002A6F0E012A512A2BEA6A000FE96E020E49
:10453000EA22EF6A0E012A512A2BEA6A000FE96E7D
:10454000020EEA22110EEF6E016A080E015C15E2FE
:104550000150EA6A180FE96E030EEA22EF50E66E88
:104560000E012A512A2BEA6A000FE96E020EEA2296
:10457000E552E750EF6E012AE8D70E012A512A2BA7
:10458000EA6A000FE96E020EEA222BCEEFFF0E015F
:104590002A512A2BEA6A000FE96E020EEA222CCE7B
:1045A000EFFF016A010E015C15E20150EA6AB60FE5
:1045B000E96E0E0EEA22EF50E66E0E012A512A2B0A
:1045C000EA6A000FE96E020EEA22E552E750EF6E4A
:1045D000012AE8D7016A080E015C13E20150EA6A79
:1045E000610FE96E0E0EEA22EF50E66E0150EA6AA4
:1045F000300FE96E0E0EEA22E552E750EF6E012A07
:10460000EAD75FCE38FE60CE39FEF7D80E015E6F76
:10461000FF0E0E015E5D12E00E015E510E0DF3CF36
:10462000E9FFF4CFEAFF470EE926020EEA220C0E5C
:10463000E926000EEA22EFCF40FE08D00E018C0ED4
:10464000406F0E0138BF02D00E0140812DCE3AFEE0
:104650002ECE3BFEF1D90E015E6FFF0E0E015E5DA8
:104660002BE2016A010E015C27E20150EA6A690F40
:10467000E96E0E0EEA22EF50E66E0E015E510E0D4F
:10468000F3CFE9FFF4CFEAFF470EE926020EEA2254
:104690000D0EE926000EEA22E9CFE1F2EACFE2F2BE
:1046A00001500201EA6AE125E96EE251EA22E5528F
:1046B000E750EF6E012AD6D7E66AE66A5F0EE66E2D
:1046C0000E0EE66E19EC2FF044E90E015D930E011B
:1046D0005D81FF0E0E015E5D2AE20E0EE66EE66A59
:1046E0000E015E510E0D02010201CB51F3240201B5
:1046F000E16F02010201CC51F4200201E26FE1C23C
:10470000E6FFE2C2E6FF0E015E510E0DF3CFE3F2CB
:10471000F4CFE4F2470E0201E327020E0201E42384
:10472000E3C2E6FFE4C2E6FF84EC77F046E961D03D
:104730000AD062EC7DF0F9C274FEFAC275FEFBC2CB
:1047400076FEFCC277FE0E01386B396B0E010B0E44
:104750002A6F0E012A512A2BEA6A000FE96E020E17
:10476000EA22EF6A0E012A512A2BEA6A000FE96E4B
:10477000020EEA22100EEF6E016A080E015C15E2CD
:104780000150EA6A180FE96E030EEA22EF50E66E56
:104790000E012A512A2BEA6A000FE96E020EEA2264
:1047A000E552E750EF6E012AE8D7016A010E015C7D
:1047B00015E20150EA6AB60FE96E0E0EEA22EF50DA
:1047C000E66E0E012A512A2BEA6A000FE96E020EEC
:1047D000EA22E552E750EF6E012AE8D7E66AE66A78
:1047E000380EE66E0E0EE66E19EC2FF044E90E015F
:1047F0005D8342E9E7CFD9FF1200D9CFE6FFE1CFD1
:10480000D9FF81E941E8016A050E015C42E20150ED
:104810000E0DF3CFE9FFF4CFEAFF470EE926020EB3
:10482000EA220C0EE926000EEA22EF50800B2FE060
:1048300001500E0DF3CFE9FFF4CFEAFF470EE92652
:10484000020EEA220C0EE926000EEA22EF50080BB7
:104850001EE001500E0DF3CFE9FFF4CFEAFF470E43
:10486000E926020EEA22020EE926000EEA22EECF27
:10487000E1F2EFCFE2F20E0138510201E11904E159
:104880000E0139510201E21902E1015004D0012A5E
:10489000BBD7FF0E00D042E9E7CFD9FF1200D9CF36
:1048A000E6FFE1CFD9FF81E941E80E012A6B0E0155
:1048B0002A512A2BEA6A000FE96E020EEA22EF68FB
:1048C0000E012A512A2BEA6A000FE96E020EEA2233
:1048D00000CEEFFF0E012A512A2BEA6A000FE96E83
:1048E000020EEA22EF6A0E012A512A2BEA6A000F11
:1048F000E96E020EEA22EF6A0E012A512A2BEA6AB9
:10490000000FE96E020EEA225D0EEF6E0E012A51D3
:104910002A2BEA6A000FE96E020EEA22410EEF6EC0
:10492000016A010E015C15E20150EA6AB60FE96EF8
:104930000E0EEA22EF50E66E0E012A512A2BEA6A89
:10494000000FE96E020EEA22E552E750EF6E012AEF
:10495000E8D7040EE66E030EE66E000EE66EE66A1B
:104960002D0EE66E0E0EE66EF0DC46E942E9E7CF6C
:10497000D9FF1200D9CFE6FFE1CFD9FF81E942E8A4
:10498000016A050E015C52E201500E0DF3CFE9FF02
:10499000F4CFEAFF470EE926020EEA220C0EE926C2
:1049A000000EEA22EF50800B3FE001500E0DF3CFD6
:1049B000E9FFF4CFEAFF470EE926020EEA220C0EC9
:1049C000E926000EEA22EF50040B2EE0026A080EE0
:1049D000025C28E201500E0DF3CFE9FFF4CFEAFFAD
:1049E000470EE926020EEA22040EE926000EEA220C
:1049F000E9CFE2F2EACFE3F202500201EA6AE225ED
:104A0000E96EE351EA22EFCFE1F20250EA6A300F99
:104A1000E96E0E0EEA22EF500201E15D01E004D0E2
:104A2000022AD5D7015004D0012AABD7FF0E00D0FF
:104A300043E9E7CFD9FF1200D9CFE6FFE1CFD9FF95
:104A400081E942E801680E0140A503D093DF016EC1
:104A500005D00E0140A702D0D0DE016EFF0E015C32
:104A600002E1D6DC016EFF0E015C6EE001500E0D1E
:104A7000F3CFE9FFF4CFEAFF470EE926020EEA2260
:104A80000C0EE926000EEA2240CEEFFF0E0140A5F3
:104A90002AD0026A080E025C26E20250EA6A300F4F
:104AA000E96E0E0EEA22EF50E66E01500E0DF3CFC6
:104AB000E9FFF4CFEAFF470EE926020EEA22040ED0
:104AC000E926000EEA22E9CFE1F2EACFE2F2025053
:104AD0000201EA6AE125E96EE251EA22E552E75075
:104AE000EF6E022AD7D70E0140A712D001500E0D4B
:104AF000F3CFE9FFF4CFEAFF470EE926020EEA22E0
:104B0000020EE926000EEA2238CEEEFF39CEEDFF86
:104B100001500E0DF3CFE9FFF4CFEAFF470EE9266F
:104B2000020EEA223ACEEEFF3BCEEDFF0150040D1D
:104B3000F3CFE9FFF4CFEAFF330EE926020EEA22B3
:104B4000EE6AEE6AEE6AEE6A015000D043E9E7CF02
:104B5000D9FF1200D9CFE6FFE1CFD9FF85E941E8BF
:104B6000056A080E055C16E205500224E96E000E87
:104B70000320EA6EEFCFE1F205500024E96E000E4B
:104B80000120EA6EEF500201E15D02E0000E04D068
:104B9000052AE7D7010E00D042E9E7CFD9FF12007E
:104BA000D9CFE6FFE1CFD9FF82E945E8056A030ED8
:104BB000055C17E2010EE66EFA0E0524E66E070E9E
:104BC000D88005540201E26B180FE16F030EE22357
:104BD000E1C2E6FFE2C2E6FF49EC7CF044E9052AC7
:104BE000E6D703011C690301FE0E1B6F056A030E65
:104BF000055C17E2010EE66EFD0E0524E66E020E60
:104C0000D88005540201E26B180FE16F030EE22316
:104C1000E1C2E6FFE2C2E6FF49EC7CF044E9052A86
:104C2000E6D740EC78F00E012B692C690E012D6956
:104C30002E69056A050E055C11E205500E0DF3CFD5
:104C4000E9FFF4CFEAFF470EE926020EEA220C0E36
:104C5000E926000EEA22EF6A052AECD7056A010E62
:104C6000055C09E20550EA6AC00FE96E000EEA220F
:104C7000EF6A052AF4D7056A080E055C09E20550BB
:104C8000EA6AC10FE96E000EEA22EF6A052AF4D73C
:104C90000E01426B0E013F6B0E01416B0E015D6B0D
:104CA0000E01006B57EC7DF00E012A6B056A050EB4
:104CB000055C10E20550040DF3CFE9FFF4CFEAFFE5
:104CC000330EE926020EEA22EE6AEE6AEE6AEE6A18
:104CD000052AEDD7005001E1B7D0010EE66EE66A75
:104CE000C7C2E6FFC8C2E6FF200EE66E030EE66E00
:104CF0001DEC77F046E9200E0301205D02E3000E73
:104D0000B2D1020EE66EE66ACFC2E6FFD0C2E6FF7F
:104D10002B0EE66E0E0EE66E1DEC77F046E90E01E8
:104D20002B1D01E12C1D02E1000E9DD1020EE66E4D
:104D3000E66AC5C2E6FFC6C2E6FF2D0EE66E0E0E9F
:104D4000E66E1DEC77F046E9010EE66EE66AC9C232
:104D5000E6FFCAC2E6FF210EE66E030EE66E1DEC0C
:104D600077F046E9030121510E01030BF36EF34680
:104D7000F346F346F346CF0E0015F310006F460ED0
:104D8000E66EE66ACBC2E6FFCCC2E6FF470EE66EF1
:104D9000020EE66E1DEC77F046E9010EE66EE66A5D
:104DA000D3C2E6FFD4C2E6FF2F0EE66E0E0EE66E0D
:104DB0001DEC77F046E9010EE66EE66AD5C2E6FF25
:104DC000D6C2E6FF250EE66E030EE66E1DEC77F00A
:104DD00046E9010EE66EE66AD7C2E6FFD8C2E6FFF4
:104DE000C00EE66E000EE66E1DEC77F046E9080E8A
:104DF000E66EE66AD9C2E6FFDAC2E6FFD10EE66EDB
:104E0000000EE66E1DEC77F046E9080EE66EE66AE7
:104E1000DBC2E6FFDCC2E6FFC90EE66E000EE66E00
:104E20001DEC77F046E9010EE66EE66ADDC2E6FFAC
:104E3000DEC2E6FF530EE66E0E0EE66E1DEC77F058
:104E400046E90E013F839FD0020EE66EE66AC5C2B8
:104E5000E6FFC6C2E6FF2D0EE66E0E0EE66E84EC91
:104E600077F046E9010EE66EE66AC7C2E6FFC8C201
:104E7000E6FF200EE66E030EE66E84EC77F046E960
:104E8000010EE66EE66AC9C2E6FFCAC2E6FF210E5F
:104E9000E66E030EE66E84EC77F046E9460EE66EAB
:104EA000E66ACBC2E6FFCCC2E6FF470EE66E020E14
:104EB000E66E84EC77F046E9020EE66EE66ACFC253
:104EC000E6FFD0C2E6FF2B0EE66E0E0EE66E84EC19
:104ED00077F046E9010EE66EE66AD3C2E6FFD4C279
:104EE000E6FF2F0EE66E0E0EE66E84EC77F046E9D6
:104EF000010EE66EE66ADDC2E6FFDEC2E6FF530E95
:104F0000E66E0E0EE66E84EC77F046E9010EE66E74
:104F1000E66AD5C2E6FFD6C2E6FF250EE66E030EB0
:104F2000E66E84EC77F046E9056A010E055C09E25D
:104F30000550EA6AC00FE96E000EEA22EF6A052A00
:104F4000F4D7056A080E055C1EE2066A010E065CCF
:104F500011E205500201E26BD10FE16F000EE22376
:104F600006500201EA6AE125E96EE251EA22EF6A9F
:104F7000062AECD70550EA6AC90FE96E000EEA224C
:104F8000EF68052ADFD7026A02960298029A028C1D
:104F9000028200500294E8B00284180E036E030EE1
:104FA000046E02EBE6FF03EBE6FF04EBE6FFF4EC36
:104FB00047F043E9000902E1000E55D02D0EE66EE0
:104FC0000E0EE66E2B0EE66E0E0EE66EB3EC47F09E
:104FD00044E920C3E6FF4FD841E90E0100810E01EC
:104FE0000087030121510E01030BF36EF346F346D4
:104FF000F346F346CF0E0015F310006F0E01008D3F
:105000000E0153510E01030BF36EF346F90E00151A
:10501000F310006F0E01416B62EC7DF0F9C243FEAC
:10502000FAC244FEFBC245FEFCC246FE43CE47FE2A
:1050300044CE48FE45CE49FE46CE4AFE056A080EDD
:10504000055C09E20550EA6A4B0FE96E0E0EEA2292
:10505000EF6A052AF4D70E01546BD6CF3EFEF292CA
:10506000F288010E00D046E9E7CFD9FF1200030114
:10507000205100D01200D9CFE6FFE1CFD9FF82E95D
:10508000E66A00EBE6FF3AEC47F042E9000912E07D
:1050900000EB20F3010EE66EE66AC7C2E6FFC8C267
:1050A000E6FF200EE66E030EE66E84EC77F046E92E
:1050B000010E02D0000E00D041E9E7CFD9FF120067
:1050C000D9CFE6FFE1CFD9FF82E90050030801E222
:1050D0001DD000EB21F3030121510E01030BF36EF0
:1050E000F346F346F346F346CF0E0015F310006F78
:1050F000010EE66EE66AC9C2E6FFCAC2E6FF210EED
:10510000E66E030EE66E84EC77F046E941E9E7CF00
:10511000D9FF1200D9CFE6FFE1CFD9FF86E94EE8EB
:10512000010E076E086A096A0A6A030120510B6EB4
:10513000010E045C03E304500E0802E2000E50D19D
:10514000066A020E065C0DE206500F0DF3CFE9FF72
:10515000F4CFEAFF0C0EE9260E0EEA22EF68062ACB
:10516000F0D70E010B6B0E013F81066A200E065C24
:1051700001E32DD100EBE1F201EBE2F202EBE3F20D
:1051800003EBE4F20201E16BF80E0201E217070EF5
:105190000201E41707EBE5F208EBE6F209EBE7F2B0
:1051A0000AEBE8F206501F0B08E00201D890E53741
:1051B000E637E737E837E806F9E10201E551020191
:1051C000E1170201E6510201E2170201E751020173
:1051D000E3170201E8510201E4170201E151E21173
:1051E000E311E41101E1F1D006EBE6FF44DF41E910
:1051F0000E012A6B0E012A512A2BEA6A000FE96E72
:10520000020EEA22070EEF6E0E012A512A2BEA6ADD
:10521000000FE96E020EEA2220C3EFFF0E013A6989
:105220003B69E66A010EE66E000EE66EE66A3A0E2D
:10523000E66E0E0EE66EA5EC21F046E962EC7DF01E
:10524000F9C2E1F2FAC2E2F2FBC2E3F2FCC2E4F21A
:105250000201E1510C6EE2510D6EE3510E6EE4510C
:105260000F6E62EC7DF0F9C2E5F2FAC2E6F2FBC223
:10527000E7F2FCC2E8F20C500201E55D0D50E65980
:105280000E50E7590F50E85924E362EC7DF0F9C263
:10529000E9F2FAC2EAF2FBC2EBF2FCC2ECF2D9503C
:1052A0000C0FE96EDACFEAFFEE500201E95D020170
:1052B000E16FEE500201EA590201E26FEE50020185
:1052C000EB590201E36FEE500201EC590201E46F69
:1052D0005FD00201F169F269F369F469D9500C0FEA
:1052E000E96EDACFEAFFEE500201F15D0201ED6FE7
:1052F000EE500201F2590201EE6FEE500201F35935
:105300000201EF6FEE500201F4590201F06FEDC29D
:10531000E6FFEEC2E6FFEFC2E6FFF0C2E6FF62EC98
:105320007DF0E552E7CFF0F2E552E7CFEFF2E5523C
:10533000E7CFEEF2E552E7CFEDF2F9C2F5F2FAC2AD
:10534000F6F2FBC2F7F2FCC2F8F20201F5510201DB
:10535000ED270201F6510201EE230201F75102018D
:10536000EF230201F8510201F023EDC2E1F2EEC297
:10537000E2F2EFC2E3F2F0C2E4F20201E12B000E2E
:105380000201E223000E0201E323000E0201E423E6
:105390000450040DF3CFF6FFF4CFF7FF0C0EF62602
:1053A000FC0EF7220900F5500201E15D0900F550FD
:1053B000E2590900F550E3590900F550E45905E2B6
:1053C00014DB000901E01ADB4CD7062ACFD60BEB21
:1053D000E6FF51DE41E90E013F910E010B5100D075
:1053E0004FE9E7CFD9FF1200D9CFE6FFE1CFD9FFD0
:1053F00083E94EE8030E036E0F68810E106E000401
:1054000013E12EEC22F00E015DA305D0EEDA0009C7
:1054100001E0F4DAF8D70E015DA103D00E015E5170
:10542000E0D2FF0EDED2DBD2005001E0D8D2FF0E78
:10543000015C5DE10201010EE16FE26BE36BE46B85
:10544000030120511F0B08E00201D890E137E23739
:10545000E337E437E806F9E1E1C2E6FFE2C2E6FF3E
:10546000E3C2E6FFE4C2E6FF0B0EE66E53DE45E95B
:10547000000902E0000E01D0010E046E045005E0A8
:10548000030602E1FF0EADD2D5D7016A056A0450CA
:10549000055C25E205500F0DF3CFE9FFF4CFEAFFDD
:1054A0000C0EE9260E0EEA220B0EE926000EEA2269
:1054B000EF50105C12E205500F0DF3CFE9FFF4CF6F
:1054C000EAFF0C0EE9260E0EEA220B0EE926000E6C
:1054D000EA22EF50106E85EB0FF0052AD8D7FF0EA9
:1054E0000F5C03E08FEB01F002D0FF0E7AD2015087
:1054F0000F0DF3CFE9FFF4CFEAFF0C0EE9260E0EF5
:10550000EA22090EE926000EEA22EECF3AFEEDCF9E
:105510003BFE01500F0DF3CFE9FFF4CFEAFF0C0E75
:10552000E9260E0EEA22EE52EFCF38FE01500F0DA3
:10553000F3CFE9FFF4CFEAFF0C0EE9260E0EEA22C4
:10554000EE52E92A000EEA22EFCF39FEFDEC23F0FD
:105550000E012F6FFF0E0E012F5D08E108EC22F007
:105560000E012F6FFF0802E1FF0E3BD20E012F51FB
:105570000E0DF3CFE9FFF4CFEAFF470EE926020E46
:10558000EA220C0EE926000EEA22EF6A01500F0D06
:10559000F3CFE9FFF4CFEAFF0C0EE9260E0EEA2264
:1055A000090EE926000EEA22EECFE1F2EFCFE2F299
:1055B0000E012F510E0DF3CFE9FFF4CFEAFF470E96
:1055C000E926020EEA22E1C2EEFFE2C2EDFF01503F
:1055D0000F0DF3CFE9FFF4CFEAFF0C0EE9260E0E14
:1055E000EA22EE52EF50E66E0E012F510E0DF3CF70
:1055F000E9FFF4CFEAFF470EE926020EEA22020E87
:10560000E926000EEA22E552E750EF6E01500F0D39
:10561000F3CFE9FFF4CFEAFF0C0EE9260E0EEA22E3
:10562000EE52E92A000EEA22EF50E66E0E012F51EB
:105630000E0DF3CFE9FFF4CFEAFF470EE926020E85
:10564000EA22020EE926000EEA22E92A000EEA22E8
:10565000E552E750EF6E0E012F510E0DF3CFE9FF2B
:10566000F4CFEAFF470EE926020EEA220C0EE926E5
:10567000000EEA22EF86046A010E045C3AE2015051
:105680000F0DF3CFE9FFF4CFEAFF0C0EE9260E0E63
:10569000EA220E0EE926000EEA22E9CFE3F2EACF73
:1056A000E4F204500201EA6AE325E96EE451EA22D9
:1056B000EF50E66E0E012F510E0DF3CFE9FFF4CF40
:1056C000EAFF470EE926020EEA220D0EE926000E39
:1056D000EA22E9CFE1F2EACFE2F204500201EA6AFB
:1056E000E125E96EE251EA22E552E750EF6E042A25
:1056F000C3D70E012F510E0DF3CFE9FFF4CFEAFF10
:10570000470EE926020EEA220C0EE926000EEA22D6
:10571000EF820E012F510E0DF3CFE9FFF4CFEAFF18
:10572000470EE926020EEA220C0EE926000EEA22B6
:10573000EF8A0E012F510E0DF3CFE9FFF4CFEAFFF0
:10574000470EE926020EEA220C0EE926000EEA2296
:10575000EF8001500F0DF3CFE9FFF4CFEAFF0C0EFD
:10576000E9260E0EEA22EFCFE6FF85DC41E90E01C5
:105770002F510E0DF3CFE9FFF4CFEAFF470EE926D4
:10578000020EEA22EECF2DFEEDCF2EFE0E0138697D
:1057900039692D0EE66E0E0EE66E380EE66E0E0EB2
:1057A000E66EB3EC47F044E90E012A6B0E012A5174
:1057B0002A2BEA6A000FE96E020EEA22010EEF6E52
:1057C0000E012A512A2BEA6A000FE96E020EEA2224
:1057D00000CEEFFF046A010E045C15E20450EA6A91
:1057E000B60FE96E0E0EEA22EF50E66E0E012A5158
:1057F0002A2BEA6A000FE96E020EEA22E552E75010
:10580000EF6E042AE8D7080EE66E010EE66E0E0172
:105810002F510E0DF3CFE9FFF4CFEAFF470EE92633
:10582000020EEA22020EE926000EEA22E9CFE1F298
:10583000EACFE2F2E1C2E6FFE2C2E6FF0E012F513B
:105840000E0DF3CFE9FFF4CFEAFF470EE926020E73
:10585000EA22E9CFE3F2EACFE4F2E3C2E6FFE4C2F0
:10586000E6FFA5EC21F046E962EC7DF0F9C2E1F239
:10587000FAC2E2F2FBC2E3F2FCC2E4F20201E1513D
:10588000076EE251086EE351096EE4510A6E0E0193
:105890002F510E0DF3CFE9FFF4CFEAFF470EE926B3
:1058A000020EEA220C0EE926000EEA22EF50100B3F
:1058B00001E092D09AD8000901E0A0D862EC7DF016
:1058C000F9C2E1F2FAC2E2F2FBC2E3F2FCC2E4F294
:1058D0000201E1510B6EE2510C6EE3510D6EE45189
:1058E0000E6E07500B5C08500C5809500D580A50AA
:1058F0000E5822E30BEBE5F20CEBE6F20DEBE7F2D0
:105900000EEBE8F2D950070FE96EDACFEAFFEE505E
:105910000201E55D0201E16FEE500201E65902016C
:10592000E26FEE500201E7590201E36FEE5002010F
:10593000E8590201E46F42D00201ED69EE69EF69B6
:10594000F069D950070FE96EDACFEAFFEE50020195
:10595000ED5D0201E96FEE500201EE590201EA6FBE
:10596000EE500201EF590201EB6FEE500201F059C7
:105970000201EC6FD9500B0FE96EDACFEAFF02019A
:10598000E951EE240201E16F0201EA51EE20020129
:10599000E26F0201EB51EE200201E36F0201EC51D4
:1059A000EE200201E46F0201E12B000E0201E2236E
:1059B000000E0201E323000E0201E423D880240E2E
:1059C0000201E155F40EE255000EE355000EE455D8
:1059D00002E2FF0E06D05BD70E012F5102D0FF0E60
:1059E00000D04FE9E7CFD9FF1200F8EC00F00E012C
:1059F0003F51040B01E0010E00D012000E013F9553
:105A0000D9EC43F01200D9CFE6FFE1CFD9FF82E90C
:105A100000EBE6FF010EE66E06D842E900D041E950
:105A2000E7CFD9FF1200D9CFE6FFE1CFD9FF83E955
:105A300024C300F20201020E016F2DCE02F22ECE1F
:105A400003F20150020A0CE0010A06E0020A01E03A
:105A50000BD0020104690AD00201FE0E046F06D0C9
:105A60000201FD0E046F02D0000E37D0020105695D
:105A70002DCE06F22ECE07F22BCE08F22CCE09F256
:105A80000E013E513E2B02010A6F0E01786B0E0192
:105A9000788500500E017897E8B078870E01010EE6
:105AA0007C6F2DCE7DFE2ECE7EFE2ACEE6FF000E32
