:020000040000FA
:060000008AEF7AF0120005
:020006000400F4
:06000800EDEF4AF01200CA
:02000E001200DE
:020010001200DC
:06001800EDEF4AF01200BA
:02001E00017768
:0C0020006655443322110B00FF0109005B
:02002E000001CF
:0E00300002030405060708090A0B0C0D0E0F4B
:02003E000500BB
:1000400086F5000000000000590000007EF5000069
:1000500091030000080000001E000000B20E000026
:100060000E0000006DF50000EF010000110000001F
:0C00700055F500005F03000018000000C0
:04007C00000012006E
:10008000D9CFE6FFE1CFD9FF82E949E800EBE6FFEF
:10009000D6CFE6FF4FEC6CF041E9E750026E02501C
:1000A00001E1A2D0020655EC79F0FAC047F3FBC09B
:1000B00048F3FCC049F3FDC04AF303014751036E06
:1000C0004851046E4951056E4A51066E55EC79F05F
:1000D000FAC047F3FBC048F3FCC049F3FDC04AF344
:1000E00003014751076E4851086E4951096E4A5144
:1000F0000A6E0350075C0450085805500958065012
:100100000A5822E307EB4BF308EB4CF309EB4DF3F2
:100110000AEB4EF3D950030FE96EDACFEAFFEE5047
:1001200003014B5D0301476FEE5003014C5903017E
:10013000486FEE5003014D590301496FEE50030122
:100140004E5903014A6F42D00301536954695569FE
:100150005669D950030FE96EDACFEAFFEE5003017A
:10016000535D03014F6FEE50030154590301506F6B
:10017000EE50030155590301516FEE5003015659DA
:100180000301526FD950070FE96EDACFEAFF03017E
:100190004F51EE240301476F03015051EE2003013C
:1001A000486F03015151EE200301496F0301525181
:1001B000EE2003014A6F0301472B000E0301482381
:1001C000000E03014923000E03014A23D8803E0E8E
:1001D00003014755000E4855000E4955000E4A557B
:1001E00001E201D073D75BD74AE9E7CFD9FF12000C
:1001F000D9CFE6FFE1CFD9FF81E970E89CEC3EF072
:10020000000902E100EF17F001015DA502D043EF04
:100210001DF00101016B01019D51040B01E0010E74
:100220000101030BF36EFC0E0115F310016F0101C8
:1002300001019D5101010197080B01E001870101B6
:100240009D51030B010802E1010E01D0000E0101D6
:10025000019BE8B0018B010101019D510101019D4C
:10026000800B01E0018D01019DAF0AD00101A55174
:100270000101019FE8B0018F9EC104F19FC105F10A
:10028000A6C102F1A7C103F1A4C10AF1A3C109F1FA
:1002900001015D9501019D51030B010A02E14AEF45
:1002A0000FF0020A02E1D5EF0DF0030A02E0FAEFC7
:1002B00016F00A0E0101A25D02E2FBEF16F0020E3B
:1002C0000101EA6AA025E96EA151EA22EF500A6E07
:1002D000030E0101EA6AA025E96EA151EA22EF505E
:1002E0000B6E040E0101EA6AA025E96EA151EA2213
:1002F000EF50106E050E0101EA6AA025E96EA151CA
:10030000EA22EF50116E060E0101EA6AA025E96E9D
:10031000A151EA22EF500C6E070E0101EA6AA025F6
:10032000E96EA151EA22EF500D6E080E0101EA6A52
:10033000A025E96EA151EA22EF500E6E090E0101CF
:10034000EA6AA025E96EA151EA22EF500F6E010181
:1003500001019D5101010197080B01E00187010195
:100360000151030B000906E11050FC08FF0E115467
:1003700001E34BD1010149510E1802E14A510F1816
:1003800009E101014B510C1802E14C510D1802E139
:10039000FBEF16F0016A050E015C3EE20150080D0C
:1003A000F3CFE9FFF4CFEAFFA80EE926010EEA2217
:1003B000030EE926000EEA22EF502CE00150080D52
:1003C000F3CFE9FFF4CFEAFFA80EE926010EEA22F7
:1003D0000E50EE1802E10F50ED181CE10150080D0F
:1003E000F3CFE9FFF4CFEAFFA80EE926010EEA22D7
:1003F000020EE926000EEA22EFCF47F30A0E0101B2
:10040000EA6AA025E96EA151EA22EF500301475D97
:1004100001E102D0012ABFD7050E015C02E2FBEF29
:1004200016F0016A050E015C13E20150080DF3CFCE
:10043000E9FFF4CFEAFFA80EE926010EEA22030E37
:10044000E926000EEA22EF5001E102D0012AEAD7A4
:10045000050E015C58E20150080DF3CFE9FFF4CF1F
:10046000EAFFA80EE926010EEA220EEBEEFF0FEBE3
:10047000EDFF0A0E0101EA6AA025E96EA151EA2208
:10048000EF50E66E0150080DF3CFE9FFF4CFEAFF1D
:10049000A80EE926010EEA22020EE926000EEA2243
:1004A000E552E750EF6E0150080DF3CFE9FFF4CFAE
:1004B000EAFFA80EE926010EEA22030EE926000E45
:1004C000EA22030EEF6E55EC79F0FAC047F3FBC059
:1004D00048F3FCC049F3FDC04AF30150080DF3CFC7
:1004E000E9FFF4CFEAFFA80EE926010EEA22040E86
:1004F000E926000EEA2247C3EEFF48C3EEFF49C3D8
:10050000EEFF4AC3EEFF101C01E1111C04E10101E2
:100510000181019313D0FE0E101802E1FF0E111895
:1005200004E101010181018309D0FD0E101802E1EF
:10053000FF0E111803E1010101910183A0C1E9FF40
:10054000A1C1EAFFEF5001085FE2A0C1E9FFA1C12C
:10055000EAFFEF06010160A117D06CC0E6FF6D0E47
:10056000E66E000EE66E64C0E6FF65C0E6FF66C09C
:10057000E6FF67C0E6FF68C0E6FF69C0E6FF6AC045
:10058000E6FFB5EC43F04AE900016C6B016A01013A
:10059000A251015C16E201500101EA6AA025E96E50
:1005A000A151EA22EF50E66E00016C516C2BEA6A11
:1005B0006D0FE96E000EEA22E552E750EF6E012A58
:1005C000E6D79DC164F0A5C168F0A6C169F0A7C1D6
:1005D0006AF055EC79F0FAC060F0FBC061F0FCC045
:1005E00062F0FDC063F0C80EE66EE66AD650E66EB5
:1005F000E66A7DEC6CF0E552E5CF48F3E7CF47F3D0
:1006000047C36BF00101608180D001014B510A1892
:1006100002E14C510B1802E062EF0DF0010149516B
:10062000101802E14A51111802E062EF0DF0010EBC
:100630000101EA6AA025E96EA151EA22EF50040BFC
:1006400064E0BECE00F30301020E016F0CEB02F377
:100650000DEB03F30EEB04F30FEB05F34BC106F3C5
:100660004CC107F349C108F34AC109F30A0E01015D
:10067000EA6AA025E96EA151EA22EFCF0AF303014D
:100680000B6B0301300E0C6F01010D0E486F010161
:100690004A510F5C0DE0E66A0EEBE6FF0FEBE6FF5A
:1006A0000CEBE6FF0DEBE6FFD9EC1FF045E92BD094
:1006B0000101966B0101968B0101010E996F0101F9
:1006C000010E9A6F0101D9500E0F976FDACF98F192
:1006D0000CEB9BF10DEB9CF148C1E6FF000EE66EC2
:1006E000030EE66E96C1E6FF97C1E6FF98C1E6FFEE
:1006F00099C1E6FF9AC1E6FF9BC1E6FF9CC1E6FFF8
:10070000B5EC43F04AE9010101850B0E0101EA6AEB
:10071000A025E96EA151EA22EF5002E01BEF0DF097
:100720000C0E0101EA6AA025E96EA151EA22EF5000
:10073000300802E101EF0DF00C0E0101EA6AA0257C
:10074000E96EA151EA22EF50420A02E1FCEF0CF0FF
:10075000020A02E1D2EF0CF0010A02E167EF0CF0AD
:10076000F20A02E152EF0CF0010A02E107EF0CF08D
:10077000030A02E1D4EF0BF0010A02E1A4EF0BF04F
:10078000A10A02E1D8EF0AF0B50A02E182EF09F00E
:10079000070A02E15CEF09F0010A02E122EF09F029
:1007A000030A02E132EF08F0010A01E1C1D1B00A07
:1007B00002E0FFEF0CF001017BB354D055EC79F06F
:1007C000FAC092F1FBC093F1FCC094F1FDC095F129
:1007D000080E0101EA6AA025E96EA151EA22EFCFD5
:1007E0007DF1090E0101EA6AA025E96EA151EA2214
:1007F000EFCF7EF1126A080E125C16E2020E12248E
:100800000B0F0101EA6AA025E96EA151EA22EF501F
:10081000E66E1250EA6A7F0FE96E010EEA22E55297
:10082000E750EF6E122AE7D701017B8301017B912C
:10083000126A010E125C15E2150E12240101EA6A19
:10084000A025E96EA151EA22EF50E66E1250EA6A45
:10085000870FE96E010EEA22E552E750EF6E122A89
:10086000E8D764D1080E0101EA6AA025E96EA1511A
:10087000EA22EF5001017D5D0CE1090E0101EA6AF7
:10088000A025E96EA151EA22EF5001017E5D01E150
:100890004DD101017D517E1101E0B8D0126A080EE0
:1008A000125C26E20D0E12240101EA6AA025E96E0F
:1008B000A151EA22EF50E66E1250EA6A8A0FE96E01
:1008C000010EEA22E552E750EF6E1250EA6A8A0FF3
:1008D000E96E010EEA22EF50E66E1250EA6A4E0F00
:1008E000E96E010EEA22E552E750EF6E122AD7D7E1
:1008F000080E0101EA6AA025E96EA151EA22EFCFB4
:1009000088F1090E0101EA6AA025E96EA151EA22E7
:10091000EFCF89F188C156F189C157F14BC158F128
:100920004CC159F1FDEC23F001017C6FFF0E010178
:100930007C5D67E101018D0E5E6F010156AF02D053
:1009400001015E911CEC25F001017C6FFF0E01019D
:100950007C5D57E2126A010E125C29E2150E122428
:100960000101EA6AA025E96EA151EA22EF50E66E84
:1009700001017C510E0DF3CFE9FFF4CFEAFFBA0E6F
:10098000E926020EEA220D0EE926000EEA22E9CF40
:1009900047F3EACF48F312500301EA6A4725E96EAC
:1009A0004851EA22E552E750EF6E122AD4D70E0ED4
:1009B000E66EE66A01017C510E0D01010101DB5179
:1009C000F3240301476F01010101DC51F42003010D
:1009D000486F47C3E6FF48C3E6FF01017C510E0D97
:1009E000F3CF49F3F4CF4AF3BA0E03014927020EBD
:1009F00003014A2349C3E6FF4AC3E6FF42EC73F012
:100A000046E901017B8301017B8190D001010B0E3E
:100A1000486F01014851482BEA6A000FE96E030E46
:100A2000EA22EF6A01014851482BEA6A000FE96E99
:100A3000030EEA22110EEF6E126A080E125C28E213
:100A40000D0E12240101EA6AA025E96EA151EA22E5
:100A5000EF50E66E1250EA6A8A0FE96E010EEA2242
:100A6000E552E750EF6E1250EA6A8A0FE96E010E06
:100A7000EA22EF50E66E01014851482BEA6A000F66
:100A8000E96E030EEA22E552E750EF6E122AD5D73F
:100A9000080E0101EA6AA025E96EA151EA22EFCF12
:100AA00088F1090E0101EA6AA025E96EA151EA2246
:100AB000EFCF89F101014851482BEA6A000FE96E36
:100AC000030EEA2288C1EFFF01014851482BEA6A70
:100AD000000FE96E030EEA2289C1EFFF126A010ED0
:100AE000125C17E2150E12240101EA6AA025E96ED4
:100AF000A151EA22EF50E66E01014851482BEA6A03
:100B0000000FE96E030EEA22E552E750EF6E122A5B
:100B1000E6D7E66AE66A7D0EE66E010EE66EF1EC59
:100B20002EF044E901017B8301017B8100EF0DF090
:100B3000020E0101715D01E093D20D0E0101EA6A1E
:100B4000A025E96EA151EA22EF5001E09FD10101F9
:100B50000B0E486F01014851482BEA6A000FE96EFD
:100B6000030EEA22EF6A01014851482BEA6A000F9E
:100B7000E96E030EEA22A10EEF6E016A080E015C17
:100B80002AE20E0E01240101EA6AA025E96EA151B4
:100B9000EA22EF50E66E0150EA6A4E0FE96E010E4E
:100BA000EA22E552E750EF6E0E0E01240101EA6AD7
:100BB000A025E96EA151EA22EF50E66E01014851ED
:100BC000482BEA6A000FE96E030EEA22E552E7506D
:100BD000EF6E012AD3D7BAEC24F0136EFF0E135C2C
:100BE00001E0A8D00101566B010E016E080E015CF8
:100BF0000BE201EB57F1FDEC23F0136EFF0E135CDB
:100C000001E102D0012AF2D7080E015C01E388D08D
:100C10000150EA6AC90FE96E000EEA220FEBEFFFFE
:100C200001014851482BEA6A000FE96E030EEA22DF
:100C300001EBEFFF01019D0E5E6F4BC158F14CC1FE
:100C400059F11CEC25F0136E050E135C58E2016A95
:100C5000010E015C28E2160E01240101EA6AA025BA
:100C6000E96EA151EA22EF50E66E13500E0DF3CF5C
:100C7000E9FFF4CFEAFFBA0EE926020EEA220D0ED2
:100C8000E926000EEA22E9CF47F3EACF48F3015004
:100C90000301EA6A4725E96E4851EA22E552E75026
:100CA000EF6E012AD5D7050E135C28E20E0EE66E14
:100CB000E66A13500E0D01010101DB51F32403011B
:100CC000476F01010101DC51F4200301486F47C364
:100CD000E6FF48C3E6FF13500E0DF3CF49F3F4CF00
:100CE0004AF3BA0E03014927020E03014A2349C3FE
:100CF000E6FF4AC3E6FF42EC73F046E910D001502C
:100D0000EA6AC90FE96E000EEA22EF680101485154
:100D1000482BEA6A000FE96E030EEA22EF6809D059
:100D200001014851482BEA6A000FE96E030EEA22DE
:100D3000EF6885D013500E0DF3CFE9FFF4CFEAFF33
:100D4000BA0EE926020EEA22020EE926000EEA2277
:100D5000EF5065E18FEB14F0145027E01450EA6A6D
:100D6000C90FE96E000EEA22EFCF47F313500E0DC4
:100D7000F3CFE9FFF4CFEAFFBA0EE926020EEA222A
:100D8000020EE926000EEA22E92A000EEA22EF50BE
:100D90000301475D01E109D01450EA6AC90FE96E09
:100DA000000EEA22EF50146ED7D7145019E11350F9
:100DB0000E0DF3CFE9FFF4CFEAFFBA0EE926020EDB
:100DC000EA22020EE926000EEA22E92A000EEA22B1
:100DD000EF50EA6AC90FE96E000EEA220FEBEFFF4F
:100DE00013500E0DF3CFE9FFF4CFEAFFBA0EE92658
:100DF000020EEA22020EE926000EEA22E92A000E7D
:100E0000EA22EF50E66E01014851482BEA6A000FD2
:100E1000E96E030EEA22E552E750EF6E10D0135050
:100E20000E0DF3CFE9FFF4CFEAFFBA0EE926020E6A
:100E3000EA220C0EE926000EEA22EF6AD3D6E66A11
:100E4000E66AD9500E0FE66EDACFE6FFF1EC2EF02F
:100E500044E9010160836085609755EC79F0FAC040
:100E600061F1FBC062F1FCC063F1FDC064F1120EE0
:100E70000101615F7A0E0101625B000E0101635B9B
:100E8000000E0101645B01015F81EAD0016A080E76
:100E9000015C15E20E0E01240101EA6AA025E96E4B
:100EA000A151EA22EF50E66E0150EA6A4E0FE96E58
:100EB000010EEA22E552E750EF6E012AE8D7BAECBC
:100EC00024F0136EFF0E135C01E1CAD0070E016E11
:100ED00001505DE081EB15F0166A155056E0155093
:100EE000EA6AC90FE96E000EEA22EF50FF0801E13D
:100EF0004CD01550EA6AC90FE96E000EEA22EFCF16
:100F000047F313500E0DF3CFE9FFF4CFEAFFBA0E0B
:100F1000E926020EEA22020EE926000EEA22E92A5A
:100F2000000EEA22EF500301475D21E10150EA6A19
:100F3000C90FE96E000EEA22EF680101566B01EB62
:100F400057F1FDEC23F0176EFF0E175C0FE0175002
:100F50000E0DF3CFE9FFF4CFEAFFBA0EE926020E39
:100F6000EA220C0EE926000EEA22EF6A0ED0155096
:100F7000EA6AC90FE96E000EEA22EF50156E1650AC
:100F8000162A080801E201D0A8D70106A1D71350FC
:100F90000E0DF3CFE9FFF4CFEAFFBA0EE926020EF9
:100FA000EA22020EE926000EEA22E92A000EEA22CF
:100FB000EF50EA6AC90FE96E000EEA22EF6813509B
:100FC0000E0DF3CFE9FFF4CFEAFFBA0EE926020EC9
:100FD000EA220C0EE926000EEA22EF6A0E0EE66EF9
:100FE000E66A13500E0D01010101DB51F3240301E8
:100FF000476F01010101DC51F4200301486F47C331
:10100000E6FF48C3E6FF13500E0DF3CF49F3F4CFCC
:101010004AF3BA0E03014927020E03014A2349C3CA
:10102000E6FF4AC3E6FF42EC73F046E90101608344
:101030006085609755EC79F0FAC061F1FBC062F110
:10104000FCC063F1FDC064F1120E0101615F7A0E14
:101050000101625B000E0101635B000E0101645B34
:1010600000EF0DF01A6A016A080E015C15E20D0E20
:1010700001240101EA6AA025E96EA151EA22EF509C
:10108000E66E0150EA6A4E0FE96E010EEA22E55261
:10109000E750EF6E012AE8D70101BF0E5E6F150E13
:1010A0000101EA6AA025E96EA151EA22EF50FF088A
:1010B00039E1BAEC24F0186E050E185C30E24AC132
:1010C00057F1010E196E016A050E015C12E219EB6F
:1010D00056F1FDEC23F0FF0809E1800E192401010F
:1010E000566FFDEC23F0FF0801E103D0192A012A15
:1010F000EBD7050E015C12E219500301476F486BF4
:10110000800E0301D89048BF03D0475D000E4859B8
:1011100003E219EB56F102D0010E1A6E02D000EF75
:101120000DF00BD00101566B150E0101EA6AA025E6
:10113000E96EA151EA22EFCF57F14BC158F14CC1F2
:1011400059F11CEC25F0186E0301020E006F56C118
:1011500001F357C102F31AEB03F3016A010E015CBC
:1011600014E20150EA6AD40FE96E010EEA22EF5050
:10117000E66E040E0124EA6A000FE96E030EEA220D
:10118000E552E750EF6E012AE9D70101050E486FDD
:101190001850040DF3CFE9FFF4CFEAFF330EE92630
:1011A000030EEA22EE6AEE6AEE6AEE6AE66A010E63
:1011B000E66E18500E0DF3CFE9FFF4CFEAFFBA0E3A
:1011C000E926020EEA22040EE926000EEA22E9CF01
:1011D00047F3EACF48F347C3E6FF48C3E6FF4B0EA9
:1011E000E66E010EE66EA5EC21F046E9050E185CF0
:1011F00028E20E0EE66EE66A18500E0D010101019E
:10120000DB51F3240301476F01010101DC51F4209C
:101210000301486F47C3E6FF48C3E6FF18500E0DB1
:10122000F3CF49F3F4CF4AF3BA0E03014927020E74
:1012300003014A2349C3E6FF4AC3E6FF42EC73F0C9
:1012400046E9DED301010B0E486F01014851482BDE
:10125000EA6A000FE96E030EEA22EF6A01014851C3
:10126000482BEA6A000FE96E030EEA22A30EEF6E26
:10127000016A080E015C15E20150EA6AC90FE96EC5
:10128000000EEA22EF50E66E01014851482BEA6A4F
:10129000000FE96E030EEA22E552E750EF6E012AD5
:1012A000E8D7E66AE66AD9500E0FE66EDACFE6FFB7
:1012B000F1EC2EF044E9A4D3016A080E015C15E2BA
:1012C0000D0E01240101EA6AA025E96EA151EA226E
:1012D000EF50E66E0150EA6AC90FE96E000EEA228D
:1012E000E552E750EF6E012AE8D755EC79F0FAC0E5
:1012F00061F1FBC062F1FCC063F1FDC064F101016A
:101300005F817ED30101A351010801E350D10D0E8D
:101310001B6E1B500101EA6AA025E96EA151EA2269
:10132000EF501C6E016A010E015C3BE20F5003019D
:10133000496BD10F486F000E492301500301EA6A3F
:101340004825E96E4951EA22EFCF47F31B280124D3
:101350000101EA6AA025E96EA151EA22EF500301DA
:10136000475D1DE01B2801240101EA6AA025E96E02
:10137000A151EA22EF50E66E0F500301486BD10FE6
:10138000476F000E482301500301EA6A4725E96EC2
:101390004851EA22E552E750EF6E01015F85012ACC
:1013A000C2D7010E0101EA6A9E25E96E9F51EA2229
:1013B000EF50F80BE842E842E842EA6AC00FE96EF3
:1013C000000EEA22EFCF47F3010E0101EA6A9E25E3
:1013D000E96E9F51EA22EF50070B0301486F010E9F
:1013E0000301485304E0E846FE0B4807FCE1030113
:1013F00047152BE1010E0101EA6A9E25E96E9F5116
:10140000EA22EF50070B0301486F010E0301485316
:1014100004E0E846FE0B4807FCE10301476F010EBC
:101420000101EA6A9E25E96E9F51EA22EF50F80B0E
:10143000E842E842E842EA6AC00FE96E000EEA229A
:1014400003014751EF1201015F83010E0101EA6AB6
:101450009E25E96E9F51EA22EF501C5C01E089D085
:10146000010160A119D06CC0E6FF6D0EE66E000EA2
:10147000E66E64C0E6FF65C0E6FF66C0E6FF67C0D3
:10148000E6FF68C0E6FF69C0E6FF6AC0E6FFB5ECAC
:1014900043F04AE9010160910001010E6D6F000106
:1014A000020E6E6F4BC16FF04CC170F00001FD0E6B
:1014B000716F000172694BC173F04CC174F049C186
:1014C00075F04AC176F001015C515C2B0001776F29
:1014D0000001786B0001A40E796F00010D0E6C6F96
:1014E00000016C516C2BEA6A6D0FE96E000EEA2266
:1014F0001CEBEFFF016A010E015C15E20150EA6A84
:10150000C00FE96E000EEA22EF50E66E00016C514A
:101510006C2BEA6A6D0FE96E000EEA22E552E75085
:10152000EF6E012AE8D70001646B000164850001B9
:10153000010E686F4BC169F04CC16AF0C80EE66ECF
:10154000E66AD650E66EE66A7DEC6CF0E552E5CFD1
:1015500048F3E7CF47F347C36BF055EC79F0FAC097
:1015600060F0FBC061F0FCC062F0FDC063F00101FF
:1015700060810F50EA6A690FE96E010EEA22EF50AE
:1015800004E101015F8301015F850F50EA6A690F81
:10159000E96E010EEA22030EEF6E55EC79F0FAC007
:1015A00061F1FBC062F1FCC063F1FDC064F128D2BF
:1015B0001D6A080E1D5C16E20B0E1D24020F0101B0
:1015C000EA6AA025E96EA151EA22EF50E66E1D50AD
:1015D000EA6A4E0FE96E010EEA22E552E750EF6E1D
:1015E0001D2AE7D701018D0E5E6F150E0101EA6A13
:1015F000A025E96EA151EA22EF50800B02E0010123
:101600005E91150E0101EA6AA025E96EA151EA2258
:10161000EFCF56F1160E0101EA6AA025E96EA1513D
:10162000EA22EFCF57F14BC158F14CC159F1FDEC13
:1016300023F001017C6FFF0E01017C5D16E00101CA
:101640007C510E0DF3CFE9FFF4CFEAFFBA0EE92685
:10165000020EEA220C0EE926000EEA22EFCF5EF11E
:1016600001015E8501015E8708D001018D0E5E6F6C
:10167000010156AF02D001015E911CEC25F0010181
:101680007C6FFF0E01017C5D5AE21D6A010E1D5C3C
:1016900029E2170E1D240101EA6AA025E96EA15175
:1016A000EA22EF50E66E01017C510E0DF3CFE9FF07
:1016B000F4CFEAFFBA0EE926020EEA220D0EE92661
:1016C000000EEA22E9CF47F3EACF48F31D500301A9
:1016D000EA6A4725E96E4851EA22E552E750EF6E83
:1016E0001D2AD4D70E0EE66EE66A01017C510E0D5E
:1016F00001010101DB51F3240301476F01010101E5
:10170000DC51F4200301486F47C3E6FF48C3E6FFFE
:1017100001017C510E0DF3CF49F3F4CF4AF3BA0E19
:1017200003014927020E03014A2349C3E6FF4AC3C6
:10173000E6FF42EC73F046E901017B8102D0010132
:101740007B9101017B935CD10D0E0101EA6AA0251A
:10175000E96EA151EA22EF501E6E0E0E0101EA6AF7
:10176000A025E96EA151EA22EF501F6E0F0E010174
:10177000EA6AA025E96EA151EA22EF50206E100E10
:101780000101EA6AA025E96EA151EA22EF50216E1B
:101790001EEBE6FF1FEBE6FF20EBE6FF21EBE6FF8B
:1017A000CCEC36F044E92CD10D0E0101EA6AA025FB
:1017B000E96EA151EA22EFCF73F10E0E0101EA6A40
:1017C000A025E96EA151EA22EFCF74F10F0E0101BD
:1017D000EA6AA025E96EA151EA22EFCF75F1100E59
:1017E0000101EA6AA025E96EA151EA22EFCF76F164
:1017F0000101726B0101728155EC79F0FAC077F149
:10180000FBC078F1FCC079F1FDC07AF1F9D0030199
:10181000800E476F0D0E0101EA6AA025E96EA15105
:10182000EA22EF50EA6AA00FE96E000EEA22EF50BA
:101830000301475D36E201010B0E486F010148517B
:10184000482BEA6A000FE96E030EEA22EF6A0101F3
:101850004851482BEA6A000FE96E030EEA22B30EE4
:10186000EF6E0D0E0101EA6AA025E96EA151EA2290
:10187000EF50E66E01014851482BEA6A000FE96E0D
:10188000030EEA22E552E750EF6E0101566B576BEB
:10189000E66AE66A560EE66E010EE66EF1EC2EF092
:1018A00044E9AED00D0E0101EA6AA025E96EA1510E
:1018B000EA22EFCF47F301017251F80BE842E84208
:1018C000E8420301475D02E10101728599D00D0EE6
:1018D0000101EA6AA025E96EA151EA22EF500E014A
:1018E000BA5D01E08DD00101486BBECE00F303016B
:1018F000020E016F4BC102F34CC103F3080E01014C
:10190000EA6AA025E96EA151EA22EFCF04F3090E9D
:101910000101EA6AA025E96EA151EA22EFCF05F3A1
:101920004BC106F34CC107F349C108F34AC109F39F
:1019300001015C515C2B03010A6F03010B6B030176
:10194000420E0C6F0101966B0101968B0101010E95
:10195000996F0101010E9A6F4BC19BF14CC19CF133
:10196000080E0101A0250101976F000E0101A121C0
:101970000101986F0D0EE66E000EE66E030EE66E28
:1019800096C1E6FF97C1E6FF98C1E6FF99C1E6FF61
:101990009AC1E6FF9BC1E6FF9CC1E6FFB5EC43F0B0
:1019A0004AE92ED00D0E0101EA6AA025E96EA15187
:1019B000EA22EF500E01BA5D1EE155EC79F0FAC053
:1019C00077F1FBC078F1FCC079F1FDC07AF101013B
:1019D00072830E0E0101EA6AA025E96EA151EA2286
:1019E000EF5001011F0BF36EF346F346F346070E6B
:1019F0007215F310726F04D001015D9D01D000D00B
:101A000019D00A0E0101EA6AA025E96EA151EA2265
:101A1000EF500E01BC5D09E101015A510E1802E1BF
:101A20005B510F1802E101015D970E50800800E242
:101A3000FBEF16F046D00B0E0101A25D0101086F0D
:101A40000B0E0101A0250101066F000E0101A1216D
:101A50000101076F0CEB02F10DEB03F1080E010120
:101A6000EA6AA025E96EA151EA22EF50FF0815E1CC
:101A7000090E0101EA6AA025E96EA151EA22EF50A0
:101A8000FF080BE10101A5510101019FE8B0018FA1
:101A90009EC104F19FC105F10CD00101018F080E18
:101AA0000101A0250101046F000E0101A121010126
:101AB000056F0101018D01010851000802E20101D9
:101AC0005D8571D0A0C1E9FFA1C1EAFFEF50000818
:101AD0006AE2A0C1E9FFA1C1EAFFEF060101486B7C
:101AE000016A0101A251015C16E201500101EA6A9A
:101AF000A025E96EA151EA22EF50E66E010148519E
:101B0000482BEA6A000FE96E030EEA22E552E7501D
:101B1000EF6E012AE6D701014A51115C33E103015E
:101B20000B5130E1300E03010C5D2CE10101966B8D
:101B30000101968B0101010E996F0101010E9A6F4F
:101B40000101D950100F976FDACF98F10AEB9BF192
:101B50000BEB9CF148C1E6FF000EE66E030EE66E4D
:101B600096C1E6FF97C1E6FF98C1E6FF99C1E6FF7F
:101B70009AC1E6FF9BC1E6FF9CC1E6FFB5EC43F0CE
:101B80004AE911D001019D51080B01E0010EE66EFA
:101B900010EBE6FF11EBE6FF0AEBE6FF0BEBE6FFCF
:101BA000D9EC1FF045E9FBEF16F0226A040E22245F
:101BB0000101EA6AA025E96EA151EA22EF505D0811
:101BC00002E0FBEF16F001015DA162D1A6C158F160
:101BD000A7C159F19EC1E9FF9FC1EAFFEFCF56F1BE
:101BE000010E0101EA6A9E25E96E9F51EA22EFCFBC
:101BF00057F122500101EA6AA025E96EA151EA22BB
:101C0000EF50FF0801E044D122280101EA6AA02533
:101C1000E96EA151EA22EF50236E040E01010B5D23
:101C200001E336D1D950230FE96EDACFEAFFEF5046
:101C3000300BE842E842E842E842010801E228D1DC
:101C400001010B510F0DF3CFE9FFF4CFEAFF0C0EAA
:101C5000E926010EEA22BACEEFFF01010B510F0D6A
:101C6000F3CFE9FFF4CFEAFF0C0EE926010EEA22DA
:101C70000B0EE926000EEA2209C1EFFF01010B510C
:101C80000F0DF3CFE9FFF4CFEAFF0C0EE926010EAA
:101C9000EA220C0EE926000EEA220AC1EFFF01013A
:101CA0000B510F0DF3CFE9FFF4CFEAFF0C0EE9263D
:101CB000010EEA22090EE926000EEA2258C1EEFFC3
:101CC00059C1EDFF01010B510F0DF3CFE9FFF4CF27
:101CD000EAFF0C0EE926010EEA220D0EE926000E9F
:101CE000EA22EF6A01010B510F0DF3CFE9FFF4CFA8
:101CF000EAFF0C0EE926010EEA220D0EE926000E7F
:101D0000EA22EF8CD950230FE96EDACFEAFFEF50C9
:101D1000060BE8420301476F01010B510F0DF3CF92
:101D2000E9FFF4CFEAFF0C0EE926010EEA220D0EC0
:101D3000E926000EEA2203014751030BF36EFC0E65
:101D4000EF14F310EF6ED950230FE96EDACFEAFFEC
:101D5000EF50080B10E001010B510F0DF3CFE9FF1D
:101D6000F4CFEAFF0C0EE926010EEA220D0EE92659
:101D7000000EEA22EF86D950230FE96EDACFEAFF90
:101D8000EF50300BE842E842E842E842010810E335
:101D900001010B510F0DF3CFE9FFF4CFEAFF0C0E59
:101DA000E926010EEA220D0EE926000EEA22EF8A4C
:101DB00001010B510F0DF3CFE9FFF4CFEAFF0C0E39
:101DC000E926010EEA220D0EE926000EEA22EF8E28
:101DD00004C1E9FF05C1EAFFEF50E66E01010B51B6
:101DE0000F0DF3CFE9FFF4CFEAFF0C0EE926010E49
:101DF000EA22EE52E552E750EF6E010E0101EA6A67
:101E00000425E96E0551EA22EF50E66E01010B51FF
:101E10000F0DF3CFE9FFF4CFEAFF0C0EE926010E18
:101E2000EA22EE52E92A000EEA22E552E750EF6E6E
:101E3000016A010E015C2AE2060E2224012401013E
:101E4000EA6AA025E96EA151EA22EF50E66E01018F
:101E50000B510F0DF3CFE9FFF4CFEAFF0C0EE9268B
:101E6000010EEA220E0EE926000EEA22E9CF47F320
:101E7000EACF48F301500301EA6A4725E96E485169
:101E8000EA22E552E750EF6E012AD3D701010B2B6E
:101E9000FBEF16F0A0C1E9FFA1C1EAFFEF50070A6E
:101EA00002E1D9EF16F0040A02E180EF13F0010A13
:101EB00001E1CDD2030A02E0F8EF16F0256A0E0127
:101EC000BB51010802E2F9EF16F001015DB302D047
:101ED000F9EF16F0016A080E015C14E201500101ED
:101EE000EA6A9E25E96E9F51EA22EF50E66E0150A4
:101EF000EA6A4E0FE96E010EEA22E552E750EF6EF4
:101F0000012AE9D7BAEC24F0246EFF0E245C6BE0C2
:101F100024500E0DF3CFE9FFF4CFEAFFBA0EE92605
:101F2000020EEA220C0EE926000EEA22EF50200BE8
:101F30005AE001014D51245C56E024500E0DF3CFC0
:101F4000E9FFF4CFEAFFBA0EE926020EEA220C0EF0
:101F5000E926000EEA22EF50080B45E024500E0D52
:101F6000F3CFE9FFF4CFEAFFBA0EE926020EEA2228
:101F7000020EE926000EEA22EECF56F1EDCF57F120
:101F80000E01BB51010802E2F9EF16F0016A010EE1
:101F9000015C28E2020E01240101EA6AA025E96E33
:101FA000A151EA22EF50E66E24500E0DF3CFE9FF67
:101FB000F4CFEAFFBA0EE926020EEA220D0EE92658
:101FC000000EEA22E9CF47F3EACF48F301500301BC
:101FD000EA6A4725E96E4851EA22E552E750EF6E7A
:101FE000012AD5D7E0D10E01BB51000802E2F9EF7A
:101FF00016F00101A70E5E6F4BC158F14CC159F1AB
:102000001CEC25F0246EFF0E245C07E1010E256E0A
:102010000101FE0E566F5769C6D1016A010E015CBF
:1020200028E2020E01240101EA6AA025E96EA1510D
:10203000EA22EF50E66E24500E0DF3CFE9FFF4CF05
:10204000EAFFBA0EE926020EEA220D0EE926000E7C
:10205000EA22E9CF47F3EACF48F301500301EA6AE5
:102060004725E96E4851EA22E552E750EF6E012A12
:10207000D5D7010E0101EA6AA025E96EA151EA2235
:10208000EF50400B01E1CFD0020E0101715D60E025
:1020900001010B0E486F01014851482BEA6A000FFD
:1020A000E96E030EEA22EF6A01014851482BEA6A01
:1020B000000FE96E030EEA22A00EEF6E01014851F7
:1020C000482BEA6A000FE96E030EEA22EF6A016A02
:1020D000080E015C15E20150EA6A4E0FE96E010E2E
:1020E000EA22EF50E66E01014851482BEA6A000FE0
:1020F000E96E030EEA22E552E750EF6E012AE8D7B7
:10210000016A010E015C15E20150EA6AD40FE96E22
:10211000010EEA22EF50E66E01014851482BEA6AAF
:10212000000FE96E030EEA22E552E750EF6E012A36
:10213000E8D70101566B576BE66AE66A560EE66E03
:10214000010EE66EF1EC2EF044E9F9EF16F06AD0DC
:102150000101566B010E276E080E275C32E227EB59
:1021600057F1FDEC23F0266EFF0E265C28E10101FD
:10217000566B27EB57F12750EA6AC90FE96E000E3C
:10218000EA22EF6A010160836085609755EC79F07F
:10219000FAC061F1FBC062F1FCC063F1FDC064F103
:1021A000120E0101615F7A0E0101625B000E0101F6
:1021B000635B000E0101645B01015F8102D0272A8D
:1021C000CBD7080E275C2EE10101576B010E016E83
:1021D00001500301476F486B800E0301D89048BF40
:1021E00003D0475D000E485913E201EB56F1FDECB8
:1021F00023F0FF080BE1800E01240101566FFDEC76
:1022000023F0FF0803E101EB56F102D0012AE0D7E9
:1022100001507F0807E2010E256E0101FE0E566F88
:102220005769C1D02ED04AC157F1010E016E01503D
:102230000301476F486B800E0301D89048BF03D05D
:10224000475D000E485913E201EB56F1FDEC23F017
:10225000FF080BE1800E01240101566FFDEC23F015
:10226000FF0803E101EB56F102D0012AE0D701504B
:102270007F0807E2010E256E0101FE0E566F5769B9
:1022800092D00101BF0E5E6F010E0101EA6AA02526
:10229000E96EA151EA22EF50010B04E101015E91C8
:1022A0000101568F11D024500E0DF3CFE9FFF4CF6A
:1022B000EAFFBA0EE926020EEA220C0EE926000E0B
:1022C000EA22EF6A020E256E25506DE14BC158F1EE
:1022D0004CC159F11CEC25F0246E050E245C63E220
:1022E00024500E0DF3CFE9FFF4CFEAFFBA0EE92632
:1022F000020EEA220C0EE926000EEA22EF88016A9D
:10230000010E015C28E2020E01240101EA6AA02507
:10231000E96EA151EA22EF50E66E24500E0DF3CF84
:10232000E9FFF4CFEAFFBA0EE926020EEA220D0E0B
:10233000E926000EEA22E9CF47F3EACF48F301503D
:102340000301EA6A4725E96E4851EA22E552E7505F
:10235000EF6E012AD5D70E0EE66EE66A24500E0DFA
:1023600001010101DB51F3240301476F0101010168
:10237000DC51F4200301486F47C3E6FF48C3E6FF82
:1023800024500E0DF3CF49F3F4CF4AF3BA0E0301F4
:102390004927020E03014A2349C3E6FF4AC3E6FF69
:1023A00042EC73F046E90301020E006F56C101F3DF
:1023B00057C102F325EB03F3016A010E015C14E23D
:1023C0000150EA6AD40FE96E010EEA22EF50E66E80
:1023D000040E0124EA6A000FE96E030EEA22E552B8
:1023E000E750EF6E012AE9D70101050E486F24502E
:1023F000040DF3CFE9FFF4CFEAFF330EE926030E15
:10240000EA22EE6AEE6AEE6AEE6AE66A010EE66EAD
:1024100024500E0DF3CFE9FFF4CFEAFFBA0EE92600
:10242000020EEA22040EE926000EEA22E9CF47F363
:10243000EACF48F347C3E6FF48C3E6FF4B0EE66E1C
:10244000010EE66EA5EC21F046E9F9EF16F0030E59
:102450000101EA6AA025E96EA151EA22EF5001E0EC
:102460001FD1010E0101EA6AA025E96EA151EA22FD
:10247000EFCF49F1020E0101EA6AA025E96EA151F0
:10248000EA22EFCF4AF1010149510EE10101010EAB
:10249000716F010171510101030BF36EF346F90EE7
:1024A0000015F310006F0CD00101716B0101715127
:1024B0000101030BF36EF346F90E0015F310006FE4
:1024C000010EE66EE66AEBC1E6FFECC1E6FF710EB7
:1024D000E66E010EE66E42EC73F046E94B0EE66ED8
:1024E000010EE66E490EE66E010EE66E87EC47F0D1
:1024F00044E901015D830101BF0E5E6F016A080EB0
:10250000015C14E201500101EA6A9E25E96E9F51C7
:10251000EA22EF50E66E0150EA6A4E0FE96E010EB4
:10252000EA22E552E750EF6E012AE9D701014D5149
:102530000E0DF3CFE9FFF4CFEAFFBA0EE926020E43
:10254000EA22020EE926000EEA22EECF56F1EDCF86
:1025500057F14BC158F14CC159F11CEC25F0010168
:102560004D6F01014D51040DF3CFE9FFF4CFEAFFA8
:10257000330EE926030EEA22EE6AEE6AEE6AEE6A8E
:10258000016A010E015C29E2040E01240101EA6ADC
:10259000A025E96EA151EA22EF50E66E01014D51EE
:1025A0000E0DF3CFE9FFF4CFEAFFBA0EE926020ED3
:1025B000EA220D0EE926000EEA22E9CF47F3EACF20
:1025C00048F301500301EA6A4725E96E4851EA22BF
:1025D000E552E750EF6E012AD4D701016089608B84
:1025E000609D55EC79F0FAC061F1FBC062F1FCC06E
:1025F00063F1FDC064F1020EE66EE66AD5C1E6FF46
:10260000D6C1E6FF4B0EE66E010EE66E42EC73F0AD
:1026100046E9020EE66EE66ADFC1E6FFE0C1E6FFCC
:10262000490EE66E010EE66E42EC73F046E9010ECD
:10263000E66EE66AE3C1E6FFE4C1E6FF4D0EE66E34
:10264000010EE66E42EC73F046E90E0EE66EE66AA7
:1026500001014D510E0D01010101DB51F324030174
:10266000476F01010101DC51F4200301486F47C3AA
:10267000E6FF48C3E6FF01014D510E0DF3CF49F3CC
:10268000F4CF4AF3BA0E03014927020E03014A238D
:1026900049C3E6FF4AC3E6FF42EC73F046E92FD098
:1026A00001014D6901014B694C6901015669576986
:1026B0004B0EE66E010EE66E560EE66E010EE66EEF
:1026C00087EC47F044E9010EE66EE66AE3C1E6FFF7
:1026D000E4C1E6FF4D0EE66E010EE66E42EC73F0CD
:1026E00046E9020EE66EE66AD5C1E6FFD6C1E6FF10
:1026F0004B0EE66E010EE66E42EC73F046E979D3BE
:1027000001015DA376D30101A55117E09EC1E9FF48
:102710009FC1EAFFEFCF56F1010E0101EA6A9E2543
:10272000E96E9F51EA22EFCF57F1FDEC23F0286EBE
:10273000FF0E285C01E15DD31FD0016A080E015C29
:1027400014E201500101EA6A9E25E96E9F51EA22D6
:10275000EF50E66E0150EA6A4E0FE96E010EEA2272
:10276000E552E750EF6E012AE9D7BAEC24F0286E63
:10277000FF0E285C01E13DD328500E0DF3CFE9FF99
:10278000F4CFEAFFBA0EE926020EEA220C0EE92681
:10279000000EEA22EF50200B01E10AD301014D5156
:1027A000285C01E171D128500E0DF3CFE9FFF4CF81
:1027B000EAFFBA0EE926020EEA22020EE926000E10
:1027C000EA22EF5001E028D1020E0101715D01E023
:1027D000CBD0070E016E01505DE081EB29F02A6A33
:1027E000295056E02950EA6AC90FE96E000EEA2224
:1027F000EF50FF0801E14CD02950EA6AC90FE96E99
:10280000000EEA22EFCF47F328500E0DF3CFE9FF79
:10281000F4CFEAFFBA0EE926020EEA22020EE926FA
:10282000000EEA22E92A000EEA22EF500301475D7A
:1028300021E10150EA6AC90FE96E000EEA22EF6851
:102840000101566B01EB57F1FDEC23F02B6EFF0EEF
:102850002B5C0FE02B500E0DF3CFE9FFF4CFEAFF16
:10286000BA0EE926020EEA220C0EE926000EEA2232
:10287000EF6A0ED02950EA6AC90FE96E000EEA220B
:10288000EF50296E2A502A2A080801E201D0A8D761
:102890000106A1D728500E0DF3CFE9FFF4CFEAFFD0
:1028A000BA0EE926020EEA22020EE926000EEA22FC
:1028B000E92A000EEA22EF50EA6AC90FE96E000E1B
:1028C000EA22EF6828500E0DF3CFE9FFF4CFEAFFBC
:1028D000BA0EE926020EEA220C0EE926000EEA22C2
:1028E000EF6A0E0EE66EE66A28500E0D0101010138
:1028F000DB51F3240301476F01010101DC51F42096
:102900000301486F47C3E6FF48C3E6FF28500E0D9A
:10291000F3CF49F3F4CF4AF3BA0E03014927020E6D
:1029200003014A2349C3E6FF4AC3E6FF42EC73F0C2
:1029300046E9010160836085609755EC79F0FAC043
:1029400061F1FBC062F1FCC063F1FDC064F1120EE5
:102950000101615F7A0E0101625B000E0101635BA0
:10296000000E0101645B58D001010B0E486F01019C
:102970004851482BEA6A000FE96E030EEA22EF6A1B
:1029800001014851482BEA6A000FE96E030EEA2262
:10299000A00EEF6E01014851482BEA6A000FE96E64
:1029A000030EEA22010EEF6E016A080E015C28E2B6
:1029B00028500E0DF3CFE9FFF4CFEAFFBA0EE92657
:1029C000020EEA22040EE926000EEA22E9CF47F3BE
:1029D000EACF48F301500301EA6A4725E96E4851FE
:1029E000EA22EF50E66E01014851482BEA6A000FD7
:1029F000E96E030EEA22E552E750EF6E012AD5D7C1
:102A00000101566B576BE66AE66A560EE66E010EDA
:102A1000E66EF1EC2EF044E928500E0DF3CFE9FFFD
:102A2000F4CFEAFFBA0EE926020EEA220C0EE926DE
:102A3000000EEA22EF6A0E0EE66EE66A28500E0DD0
:102A400001010101DB51F3240301476F0101010181
:102A5000DC51F4200301486F47C3E6FF48C3E6FF9B
:102A600028500E0DF3CF49F3F4CF4AF3BA0E030109
:102A70004927020E03014A2349C3E6FF4AC3E6FF82
:102A800042EC73F046E994D1016A050E015C01E362
:102A900091D001500E0DF3CFE9FFF4CFEAFFBA0E4B
:102AA000E926020EEA220C0EE926000EEA22EF5079
:102AB000800B6FE001500E0DF3CFE9FFF4CFEAFF7A
:102AC000BA0EE926020EEA220C0EE926000EEA22D0
:102AD000EF50200B5EE001014D51015C5AE0010115
:102AE000486B01014851482BEA6A000FE96E030E5A
:102AF000EA22030EEF6E0101966B0101968B010134
:102B0000968196930101010E996F0101010E9A6F52
:102B10004BC19BF14CC19CF101500E0DF3CFE9FF6D
:102B2000F4CFEAFFBA0EE926020EEA22020EE926E7
:102B3000000EEA22E9CF97F1EACF98F148C1E6FF0B
:102B4000000EE66E030EE66E96C1E6FF97C1E6FF45
:102B500098C1E6FF99C1E6FF9AC1E6FF9BC1E6FF77
:102B60009CC1E6FFB5EC43F04AE9640E2C6E2D6A79
:102B70002CEB47F32DEB48F32C06000E2D5A0301E6
:102B80004751481106E0040EE66E5CEC7AF041E92C
:102B9000EFD701500E0DF3CFE9FFF4CFEAFFBA0EE5
:102BA000E926020EEA220C0EE926000EEA22EF6A5E
:102BB000012A6BD701010B0E486F01014851482BC8
:102BC000EA6A000FE96E030EEA22EF6A010148513A
:102BD000482BEA6A000FE96E030EEA22A00EEF6EA0
:102BE00001014851482BEA6A000FE96E030EEA2200
:102BF000010EEF6E016A080E015C28E228500E0DEE
:102C0000F3CFE9FFF4CFEAFFBA0EE926020EEA227B
:102C1000040EE926000EEA22E9CF47F3EACF48F393
:102C200001500301EA6A4725E96E4851EA22EF5054
:102C3000E66E01014851482BEA6A000FE96E030E67
:102C4000EA22E552E750EF6E012AD5D70101566B13
:102C5000576BE66AE66A560EE66E010EE66EF1EC1A
:102C60002EF044E901014D69010149694A690101F8
:102C70004B694C694B0EE66E010EE66E490EE66E30
:102C8000010EE66E87EC47F044E901015D93016AAD
:102C9000080E015C1EE20150EA6AC90FE96E000EDF
:102CA000EA22EF68286A010E285C11E20150030154
:102CB000486BD10F476F000E482328500301EA6A82
:102CC0004725E96E4851EA22EF6A282AECD7012A03
:102CD000DFD7016A010E015C09E20150EA6AC00F08
:102CE000E96E000EEA22EF6A012AF4D7010EE66EC1
:102CF000E66AE3C1E6FFE4C1E6FF4D0EE66E010EB3
:102D0000E66E42EC73F046E9020EE66EE66ADFC15B
:102D1000E6FFE0C1E6FF490EE66E010EE66E42EC0C
:102D200073F046E9020EE66EE66AD5C1E6FFD6C14B
:102D3000E6FF4B0EE66E010EE66E42EC73F046E9DE
:102D4000080EE66EE66AE9C1E6FFEAC1E6FFC90ED3
:102D5000E66E000EE66E42EC73F046E9010EE66E9A
:102D6000E66AE5C1E6FFE6C1E6FFC00EE66E000ECC
:102D7000E66E42EC73F046E9080EE66EE66AE7C1DD
:102D8000E6FFE8C1E6FFD10EE66E000EE66E42EC0D
:102D900073F046E9460EE66EE66ADBC1E6FFDCC18B
:102DA000E6FFBA0EE66E020EE66E42EC73F046E9FE
:102DB00020D00E01BB51020801E21BD001015DA32E
:102DC00016D0010E0101EA6AA025E96EA151EA229E
:102DD000EF500E01BA5D01E00CD00101715107E026
:102DE000C80EE66E40EC00F041E94FEC24F001D053
:102DF00000D001D000D001015DB502D0A4EC43F0B9
:102E000055EC79F0FAC047F3FBC048F3FCC049F336
:102E1000FDC04AF303014751026E4851036E495108
:102E2000046E4A51056E016A050E015C01E3BBD0D8
:102E30000150080DF3CFE9FFF4CFEAFFA80EE92611
:102E4000010EEA22030EE926000EEA22EF500008E6
:102E500001E3A7D00150080DF3CFE9FFF4CFEAFF5B
:102E6000A80EE926010EEA22040EE926000EEA2247
:102E7000EE50025CEE500358EE500458EE500558E8
:102E80002BE302EB4BF303EB4CF304EB4DF305EBBD
:102E90004EF30150080DF3CFE9FFF4CFEAFFA80E7F
:102EA000E926010EEA22040EE926000EEA22EE507F
:102EB00003014B5D0301476FEE5003014C590301C1
:102EC000486FEE5003014D590301496FEE50030165
:102ED0004E5903014A6F4BD0030153695469556938
:102EE00056690150080DF3CFE9FFF4CFEAFFA80EB1
:102EF000E926010EEA22040EE926000EEA22EE502F
:102F00000301535D03014F6FEE5003015459030158
:102F1000506FEE50030155590301516FEE500301FC
:102F200056590301526FD950020FE96EDACFEAFF0A
:102F300003014F51EE240301476F03015051EE206E
:102F40000301486F03015151EE200301496F030152
:102F50005251EE2003014A6F0301472B000E03017B
:102F60004823000E03014923000E03014A23D880A1
:102F7000120E030147557A0E4855000E4955000EB2
:102F80004A550FE20150080DF3CFE9FFF4CFEAFFF5
:102F9000A80EE926010EEA22030EE926000EEA2217
:102FA000EF6A012A41D7D950020FE96EDACFEAFF62
:102FB00001016151EE5C0301476F01016251EE585E
:102FC0000301486F01016351EE580301496F01018C
:102FD0006451EE5803014A6F03014751066E485190
:102FE000076E4951086E4A51096E010160510E0B7E
:102FF000E842000859E206502408F40E0754000E77
:103000000854000E09544FE2600EE96E010EEA6E9C
:10301000EF500E0BE842E806F36EF350070BF36E29
:10302000F46EF346F10EEF14F310EF6E01010B0E88
:10303000486F01014851482BEA6A000FE96E030E00
:10304000EA22EF6A01014851482BEA6A000FE96E53
:10305000030EEA22A30EEF6E016A080E015C15E270
:103060000150EA6AC90FE96E000EEA22EF50E66EDF
:1030700001014851482BEA6A000FE96E030EEA226B
:10308000E552E750EF6E012AE8D7E66A020EE66ED7
:10309000EBEC2CF042E902EB61F103EB62F104EBA3
:1030A00063F105EB64F167D101016051700BE842F7
:1030B000E842E842E84200086FE206502408F40EB5
:1030C0000754000E0854000E095465E2600EE96EC4
:1030D000010EEA6EEF50700BE842E842E842E84227
:1030E000E806F36EF350070BF36EF46EF346F34607
:1030F000F346F3468F0EEF14F310EF6E01010B0E43
:10310000486F01014851482BEA6A000FE96E030E2F
:10311000EA22EF6A01014851482BEA6A000FE96E82
:10312000030EEA22A40EEF6E01014851482BEA6A11
:10313000000FE96E030EEA224AC1EFFF016A010E99
:10314000015C15E20150EA6AC00FE96E000EEA2246
:10315000EF50E66E01014851482BEA6A000FE96E14
:10316000030EEA22E552E750EF6E012AE8D70E017E
:10317000010EBE6FE66A020EE66EEBEC2CF042E941
:103180000E01090EBE6F02EB61F103EB62F104EB7D
:1031900063F105EB64F1EFD0FF0E0001C95D36E18C
:1031A0000101710533E1010101015D51020B2EE0C6
:1031B00006502408F40E0754000E0854000E09545B
:1031C00024E201010B0E486F01014851482BEA6AC5
:1031D000000FE96E030EEA22EF6A01014851482B05
:1031E000EA6A000FE96E030EEA22A20EEF6EE66AAB
:1031F0004DC1E6FF6CEC2DF042E902EB61F103EB0F
:1032000062F104EB63F105EB64F1B5D001015FA15C
:103210005CD006509008D00E0754030E0854000EE0
:10322000095452E201015F91020E0101715D3EE01D
:1032300001014A51EA6AC90FE96E000EEA22EFCF96
:1032400047F301014D510E0DF3CFE9FFF4CFEAFF33
:10325000BA0EE926020EEA22020EE926000EEA2242
:10326000E92A000EEA22EF500301475D1FE0010149
:10327000566B01014A51EA6AC90FE96E000EEA2253
:10328000EFCF57F1FDEC23F0016E050E015C03E278
:1032900001EB4DF10BD00101BB0E5E6F4BC158F13C
:1032A0004CC159F11CEC25F001014D6F080EE66E82
:1032B000E66AE9C1E6FFEAC1E6FFC90EE66E000E66
:1032C000E66E42EC73F046E956D001015FA31AD0D6
:1032D00006509008D00E0754030E0854000E0954EF
:1032E00010E201015F93010EE66EE66AE5C1E6FFBA
:1032F000E6C1E6FFC00EE66E000EE66E42EC73F02D
:1033000046E939D001015FA51AD006509008D00EC9
:103310000754030E0854000E095410E201015F9592
:10332000080EE66EE66AE7C1E6FFE8C1E6FFD10EE9
:10333000E66E000EE66E42EC73F046E91CD0010129
:103340005FA719D006509008D00E0754030E0854FA
:10335000000E095410E201015F97460EE66EE66A20
:10336000DBC1E6FFDCC1E6FFBA0EE66E020EE66EDA
:1033700042EC73F046E9010160A1A4D00001605164
:10338000025C6151035862510458635105581AE3B5
:10339000D950020FE96EDACFEAFF00016051EE5C0E
:1033A0000301476F00016151EE580301486F0001AE
:1033B0006251EE580301496F00016351EE58030159
:1033C0004A6F41D003014F69506951695269600EDB
:1033D000E96E000EEA6EEE5003014F5D03014B6F84
:1033E000EE500301505903014C6FEE500301515947
:1033F00003014D6FEE500301525903014E6FD95036
:10340000020FE96EDACFEAFF03014B51EE2403010C
:10341000476F03014C51EE200301486F03014D51EA
:10342000EE200301496F03014E51EE2003014A6F64
:103430000301472B000E03014823000E030149231B
:10344000000E03014A236BC0E6FFE66AE66AE66AFD
:103450003E0EE66EE66AE66AE66A08EC6EF0E55253
:10346000E5CF56F3E5CF55F3E5CF54F3E7CF53F36C
:10347000030147510301535D0301485103015459AE
:10348000030149510301555903014A51030156599A
:1034900019E2010160916CC0E6FF6D0EE66E000E50
:1034A000E66E64C0E6FF65C0E6FF66C0E6FF67C083
:1034B000E6FF68C0E6FF69C0E6FF6AC0E6FFB5EC5C
:1034C00043F04AE90101715101E1E6D00101655182
:1034D000025C6651035867510458685105581AE355
:1034E000D950020FE96EDACFEAFF01016551EE5CB7
:1034F0000301476F01016651EE580301486F010156
:103500006751EE580301496F01016851EE580301FC
:103510004A6F41D003014F69506951695269650E84
:10352000E96E010EEA6EEE5003014F5D03014B6F31
:10353000EE500301505903014C6FEE5003015159F5
:1035400003014D6FEE500301525903014E6FD950E4
:10355000020FE96EDACFEAFF03014B51EE240301BB
:10356000476F03014C51EE200301486F03014D5199
:10357000EE200301496F03014E51EE2003014A6F13
:103580000301472B000E03014823000E03014923CA
:10359000000E03014A23D880400E030147553A0E1E
:1035A0004855690E49550D0E4A5576E2010160896C
:1035B000609B609D55EC79F0FAC061F1FBC062F14F
:1035C000FCC063F1FDC064F161C165F162C166F1E7
:1035D00063C167F164C168F1016A080E015C5CE2D5
:1035E0000150EA6A690FE96E010EEA22EF50000805
:1035F00051E20150EA6A690FE96E010EEA22EF0614
:103600000150EA6A690FE96E010EEA22EF5042E1C9
:103610000150F80BE842E842E842EA6AC00FE96E5E
:10362000000EEA22EFCF47F30150070B0301486F6A
:10363000010E0301485304E0E846FE0B4807FCE195
:10364000FF0A03014715E66E0150F80BE842E84215
:10365000E842EA6AC00FE96E000EEA22E552E7503E
:10366000EF6E2E6A010E2E5C11E201500301486BD1
:10367000D10F476F000E48232E500301EA6A4725F9
:10368000E96E4851EA22EF6A2E2AECD701015F83E6
:1036900001015F85012AA1D7010172A37DD001013B
:1036A0007751025C78510358795104587A51055882
:1036B0001AE3D950020FE96EDACFEAFF0101775120
:1036C000EE5C0301476F01017851EE580301486F2A
:1036D00001017951EE580301496F01017A51EE5809
:1036E00003014A6F41D003014F6950695169526922
:1036F000770EE96E010EEA6EEE5003014F5D030195
:103700004B6FEE500301505903014C6FEE50030113
:10371000515903014D6FEE500301525903014E6F91
:10372000D950020FE96EDACFEAFF03014B51EE24C4
:103730000301476F03014C51EE200301486F030161
:103740004D51EE200301496F03014E51EE2003015C
:103750004A6F0301472B000E03014823000E0301AB
:103760004923000E03014A23D880480E0301475520
:10377000E80E4855010E4955000E4A550CE201016C
:103780007251F80BE842E842E842E66E13EC28F08A
:1037900041E90101726B90D0010172A18DD001014C
:1037A0007751025C78510358795104587A51055881
:1037B0001AE3D950020FE96EDACFEAFF010177511F
:1037C000EE5C0301476F01017851EE580301486F29
:1037D00001017951EE580301496F01017A51EE5808
:1037E00003014A6F41D003014F6950695169526921
:1037F000770EE96E010EEA6EEE5003014F5D030194
:103800004B6FEE500301505903014C6FEE50030112
:10381000515903014D6FEE500301525903014E6F90
:10382000D950020FE96EDACFEAFF03014B51EE24C3
:103830000301476F03014C51EE200301486F030160
:103840004D51EE200301496F03014E51EE2003015B
:103850004A6F0301472B000E03014823000E0301AA
:103860004923000E03014A23D880480E030147551F
:10387000E80E4855010E4955000E4A551DE20E014D
:10388000BA512F6ED950010FE66EDACFE6FFE66A25
:103890000A0EE66E73C1E6FF74C1E6FF75C1E6FF6E
:1038A00076C1E6FF4FEC33F048E92FEBE6FF13EC6F
:1038B00028F041E90101729101017BA3E4D00101EB
:1038C0007BA168D001010B0E486F01014851482BC4
:1038D000EA6A000FE96E030EEA22EF6A010148511D
:1038E000482BEA6A000FE96E030EEA22110EEF6E12
:1038F000306A080E305C15E23050EA6A7F0FE96EDC
:10390000010EEA22EF50E66E01014851482BEA6AA7
:10391000000FE96E030EEA22E552E750EF6E302AFF
:10392000E8D701014851482BEA6A000FE96E030EFF
:10393000EA227DC1EFFF01014851482BEA6A000FDE
:10394000E96E030EEA227EC1EFFF306A010E305CA1
:1039500015E23050EA6A870FE96E010EEA22EF5055
:10396000E66E01014851482BEA6A000FE96E030E2A
:10397000EA22E552E750EF6E302AE8D7E66AE66AB7
:10398000880EE66E010EE66EF1EC2EF044E90101C0
:103990007B9379D001019251025C93510358945169
:1039A0000458955105581AE3D950020FE96EDACF41
:1039B000EAFF01019251EE5C0301476F010193514F
:1039C000EE580301486F01019451EE580301496F0D
:1039D00001019551EE5803014A6F41D003014F692F
:1039E000506951695269920EE96E010EEA6EEE500D
:1039F00003014F5D03014B6FEE500301505903016A
:103A00004C6FEE500301515903014D6FEE5003010D
:103A1000525903014E6FD950020FE96EDACFEAFF17
:103A200003014B51EE240301476F03014C51EE207B
:103A30000301486F03014D51EE200301496F03015B
:103A40004E51EE2003014A6F0301472B000E030184
:103A50004823000E03014923000E03014A230301FA
:103A60004751066E4851076E4951086E4A51096E1A
:103A700006506C08DC0E0754020E0854000E095460
:103A800002E201017B9371E9E7CFD9FF1200D9CFA0
:103A9000E6FFE1CFD9FF82E943E8005002E1000EE2
:103AA0002CD00050EA6AC90FE96E000EEA22EFCF6F
:103AB00047F3080E0301475D02E3000E1ED0010E1E
:103AC000026E80EB03F0046A0350EA6AC90FE96EE4
:103AD000000EEA22EF500FE00350EA6AC90FE96EC8
:103AE000000EEA22EF50036E022A0450042A08084E
:103AF00001E201D0E9D7025000D044E9E7CFD9FF75
:103B00001200D9CFE6FFE1CFD9FF82E947E8076A83
:103B1000005008080CE30001C9510BE10050EA6AAB
:103B2000C90FE96E000EEA22EF50080802E2FF0E0C
:103B30003CD20050F80BE842E842E842EA6AC00F83
:103B4000E96E000EEA22EFCF47F30050070B0301A6
:103B5000486F010E0301485304E0E846FE0B480796
:103B6000FCE10301471502E000501FD2026A080E73
:103B7000025C27E202500301496BD10F486F000E2F
:103B800049230050F80BE842E842E8420301EA6AA0
:103B90004825E96E4951EA22EFCF47F30050070B61
:103BA00003014A6F010E03014A5304E0E846FE0B8D
:103BB0004A07FCE10301471502E00250F6D1022A50
:103BC000D6D780EB04F0066A04502DE00450EA6A70
:103BD000C90FE96E000EEA22EF5001014A5D15E1BE
:103BE000020E076E00EBE6FF52DF41E90301476F6B
:103BF00047C3E6FF4AC1E6FF4ADF41E9E552E7CFA6
:103C000047F30301475D056E0ED00450EA6AC90F01
:103C1000E96E000EEA22EF50046E0650062A0808EC
:103C200001E201D0D1D7075032E101014A51046EBF
:103C3000066A04502CE00450EA6AC90FE96E000ECF
:103C4000EA22EF50005C15E1010E076E4AC1E6FF63
:103C50001EDF41E90301476F47C3E6FF00EBE6FFC4
:103C600016DF41E9E552E7CF47F30301475D056EF3
:103C70000ED00450EA6AC90FE96E000EEA22EF5036
:103C8000046E0650062A080801E201D0D2D7075078
:103C900007E1030E076E00EBE6FFF9DE41E9056E72
:103CA000010E026E0550025C01E3FCD080EB04F0D3
:103CB000036A0250035C0AE20450EA6AC90FE96E23
:103CC000000EEA22EF50046E032AF3D70450F80BDB
:103CD000E842E842E842EA6AC00FE96E000EEA22D2
:103CE000EFCF47F30450070B0301486F010E0301A8
:103CF000485304E0E846FE0B4807FCE10301471582
:103D000002E0045052D1086A080E085C3EE20850F6
:103D1000EA6AC90FE96E000EEA22EFCF47F3080EF8
:103D20000301475D30E288EB04F0036A0250035C54
:103D30000AE20450EA6AC90FE96E000EEA22EF5067
:103D4000046E032AF3D70050045C1DE10850F80B01
:103D5000E842E842E842EA6AC00FE96E000EEA2251
:103D6000EFCF47F30850070B0301486F010E030123
:103D7000485304E0E846FE0B4807FCE10301471501
:103D800002E0085012D1082ABFD780EB04F0036A82
:103D90000250035C0AE20450EA6AC90FE96E000EA1
:103DA000EA22EF50046E032AF3D7086A080E085C73
:103DB00027E208500301496BD10F486F000E4923D9
:103DC0000450F80BE842E842E8420301EA6A482559
:103DD000E96E4951EA22EFCF47F30450070B030184
:103DE0004A6F010E03014A5304E0E846FE0B4A07FE
:103DF000FCE10301471502E00850D7D0082AD6D7C6
:103E0000086A080E085C4CE20850EA6AC90FE96EBD
:103E1000000EEA22EFCF47F3080E0301475D3EE2B2
:103E200088EB04F0036A0250035C0AE20450EA6A79
:103E3000C90FE96E000EEA22EF50046E032AF3D791
:103E40000050045C2BE1036A080E035C27E2035078
:103E50000301496BD10F486F000E49230850F80B3E
:103E6000E842E842E8420301EA6A4825E96E49511E
:103E7000EA22EFCF47F30850070B03014A6F010E08
:103E800003014A5304E0E846FE0B4A07FCE1030144
:103E9000471502E0035089D0032AD6D7082AB1D7A4
:103EA000022A00D7020E075C39E180EB02F0066AB5
:103EB0000250EA6AC90FE96E000EEA22EF500101D2
:103EC0004A5D1BE10250F80BE842E842E842EA6A28
:103ED000C00FE96E000EEA22EFCF47F30250070B46
:103EE0000301486F010E0301485304E0E846FE0B4E
:103EF0004807FCE1030147150EE00250EA6AC90FCA
:103F0000E96E000EEA22EF50026E0650062A0808FB
:103F100001E201D0CDD7025048D045D001014A512D
:103F2000EA6AC90FE96E000EEA22EF50026E82EBD8
:103F300004F0066A0250EA6AC90FE96E000EEA222E
:103F4000EF50025C2EE00050025C2BE00250F80BB8
:103F5000E842E842E842EA6AC00FE96E000EEA224F
:103F6000EFCF47F30250070B0301486F010E030127
:103F7000485304E0E846FE0B4807FCE103014715FF
:103F800002E082EB04F00250EA6AC90FE96E000E0B
:103F9000EA22EF50026E0650062A080801E201D01C
:103FA000C9D7045002D0FF0E00D048E9E7CFD9FFAF
:103FB0001200D9CFE6FFE1CFD9FF86E943E882EBD3
:103FC00007F007507F0802E2000EBBD10001C95183
:103FD0000BE10750EA6AC90FE96E000EEA22EF50C2
:103FE000080802E2000EADD1066A050E065C45E245
:103FF0000650080DF3CFE9FFF4CFEAFFA80EE9263B
:10400000010EEA22030EE926000EEA22EF50000814
:1040100032E20650080DF3CFE9FFF4CFEAFFA80E15
:10402000E926010EEA220150EE1802E10250ED18D5
:1040300022E10650080DF3CFE9FFF4CFEAFFA80E06
:10404000E926010EEA22020EE926000EEA22EF50CE
:1040500003010A5D10E101016089608B609D55ECF0
:1040600079F0FAC061F1FBC062F1FCC063F1FDC000
:1040700064F1000E66D1062AB8D7066A050E065C02
:1040800061E20650080DF3CFE9FFF4CFEAFFA80E76
:10409000E926010EEA22030EE926000EEA22EF507D
:1040A0004FE10650080DF3CFE9FFF4CFEAFFA80E69
:1040B000E926010EEA22030EE926000EEA22030E8B
:1040C000EF6E0650080DF3CFE9FFF4CFEAFFA80E1C
:1040D000E926010EEA22020EE926000EEA220AC3B0
:1040E000EFFF0650080DF3CFE9FFF4CFEAFFA80E6B
:1040F000E926010EEA2201EBEEFF02EBEDFF55ECA3
:1041000079F0FAC047F3FBC048F3FCC049F3FDC0A7
:104110004AF30650080DF3CFE9FFF4CFEAFFA80EEB
:10412000E926010EEA22040EE926000EEA2247C320
:10413000EEFF48C3EEFF49C3EEFF4AC3EEFF02D0D5
:10414000062A9CD701014A51075C3AE101508008D8
:1041500003E2000EF6D034D00101966B0101968B7C
:10416000005001019697E8B0968701EB56F102EBFB
:1041700057F10101010E996F0101010E9A6F0101C2
:10418000560E976F010E986F4BC19BF14CC19CF17D
:1041900048C1E6FF000EE66E030EE66E96C1E6FF2E
:1041A00097C1E6FF98C1E6FF99C1E6FF9AC1E6FF15
:1041B0009BC1E6FF9CC1E6FFB5EC43F04AE9C1D0E4
:1041C00002EBE6FF9EDC41E9076EFF0E075C02E1B1
:1041D000000EB7D00750EA6AC10FE96E000EEA225E
:1041E000EFCF47F3030E0301475D64E30750EA6A2C
:1041F000C10FE96E000EEA22EF6A0750070B0301B8
:10420000486F010E0301485304E0E846FE0B4807DF
:10421000FCE1FF0A0301476F0750F80BE842E84250
:10422000E842EA6AC00FE96E000EEA220301475134
:10423000EF16086A010E085C11E207500301486B93
:10424000D10F476F000E482308500301EA6A472543
:10425000E96E4851EA22EF6A082AECD7010EE66EB1
:10426000E66AE5C1E6FFE6C1E6FFC00EE66E000EB7
:10427000E66E42EC73F046E9080EE66EE66AE7C1C8
:10428000E6FFE8C1E6FFD10EE66E000EE66E42ECF8
:1042900073F046E901016089608B609D55EC79F00F
:1042A000FAC061F1FBC062F1FCC063F1FDC064F1D2
:1042B000000E47D00101966B0101968B0050010161
:1042C0009697E8B096870101566B07EB57F101010D
:1042D000010E996F0101010E9A6F0101560E976F41
:1042E000010E986F4BC19BF14CC19CF148C1E6FF98
:1042F000000EE66E030EE66E96C1E6FF97C1E6FF7E
:1043000098C1E6FF99C1E6FF9AC1E6FF9BC1E6FFAF
:104310009CC1E6FFB5EC43F04AE9000909E107500A
:10432000EA6AC10FE96E000EEA22EF2A000E09D0F8
:104330000750EA6AC10FE96E000EEA22EF6A010E29
:1043400000D044E9E7CFD9FF1200D9CFE6FFE1CF93
:10435000D9FF87E90101966B01500101030BF36E50
:10436000FC0E9615F310966F0250031002E1010146
:104370009685010101019651040B02E0000E01D067
:10438000010E0101969BE8B0968B0101968F02EB1E
:1043900097F103EB98F1080E0014000804E2010104
:1043A000010E996F02D00101996B040E00140008F0
:1043B00004E20101010E9A6F02D001019A6B04EB35
:1043C000E9FF05EBEAFFEFCF9BF10428E96E000E51
:1043D0000520EA6EEFCF9CF148C1E6FF000EE66EC5
:1043E000030EE66E96C1E6FF97C1E6FF98C1E6FFB1
:1043F00099C1E6FF9AC1E6FF9BC1E6FF9CC1E6FFBB
:10440000B5EC43F04AE900D041E9E7CFD9FF12000B
:10441000D9CFE6FFE1CFD9FF81E941E8016A050E76
:10442000015C15E201500E0DF3CFE9FFF4CFEAFF76
:10443000BA0EE926020EEA220C0EE926000EEA2246
:10444000EF50800B02E1015004D0012AE8D7FF0EA3
:1044500000D042E9E7CFD9FF12001200D9CFE6FF22
:10446000E1CFD9FF81E941E801017B91020E010111
:10447000715D01E05ED101017BB340D055EC79F074
:10448000FAC092F1FBC093F1FCC094F1FDC095F12C
:1044900001017D6B7E6B016A080E015C13E2015025
:1044A000EA6AB20FE96E0E0EEA22EF50E66E015094
:1044B000EA6A7F0FE96E010EEA22E552E750EF6EDD
:1044C000012AEAD701017B8301017B91016A010E78
:1044D000015C13E20150EA6AD40FE96E010EEA2290
:1044E000EF50E66E0150EA6A870FE96E010EEA228C
:1044F000E552E750EF6E012AEAD719D101017D514B
:104500007E1101E176D10101495101017D1904E1DA
:1045100001014A5101017E1901E109D101010B0E8E
:10452000486F01014851482BEA6A000FE96E030EFB
:10453000EA22EF6A01014851482BEA6A000FE96E4E
:10454000030EEA22110EEF6E016A080E015C15E2FD
:104550000150EA6AB20FE96E0E0EEA22EF50E66EE3
:1045600001014851482BEA6A000FE96E030EEA2266
:10457000E552E750EF6E012AE8D701014851482B78
:10458000EA6A000FE96E030EEA2249C1EFFF01015A
:104590004851482BEA6A000FE96E030EEA224AC12D
:1045A000EFFF016A010E015C15E20150EA6AD40FC7
:1045B000E96E010EEA22EF50E66E01014851482BE8
:1045C000EA6A000FE96E030EEA22E552E750EF6E49
:1045D000012AE8D7016A080E015C13E20150EA6A79
:1045E0007F0FE96E010EEA22EF50E66E0150EA6A93
:1045F0004E0FE96E010EEA22E552E750EF6E012AF6
:10460000EAD77DC156F17EC157F1F7D801017C6F21
:10461000FF0E01017C5D12E001017C510E0DF3CF14
:10462000E9FFF4CFEAFFBA0EE926020EEA220C0EE9
:10463000E926000EEA22EFCF5EF108D001018C0ED0
:104640005E6F010156BF02D001015E814BC158F17E
:104650004CC159F1F1D901017C6FFF0E01017C5D64
:104660002BE2016A010E015C27E20150EA6A870F22
:10467000E96E010EEA22EF50E66E01017C510E0D4B
:10468000F3CFE9FFF4CFEAFFBA0EE926020EEA22E1
:104690000D0EE926000EEA22E9CF47F3EACF48F3F0
:1046A00001500301EA6A4725E96E4851EA22E552C2
:1046B000E750EF6E012AD6D7E66AE66A7D0EE66E0F
:1046C000010EE66EF1EC2EF044E901017B9301014D
:1046D0007B81FF0E01017C5D2AE20E0EE66EE66A2A
:1046E00001017C510E0D01010101DB51F324030195
:1046F000476F01010101DC51F4200301486F47C3FA
:10470000E6FF48C3E6FF01017C510E0DF3CF49F3EC
:10471000F4CF4AF3BA0E03014927020E03014A23DC
:1047200049C3E6FF4AC3E6FF42EC73F046E961D0B5
:104730000AD055EC79F0FAC092F1FBC093F1FCC0BD
:1047400094F1FDC095F10101566B576B01010B0E01
:10475000486F01014851482BEA6A000FE96E030EC9
:10476000EA22EF6A01014851482BEA6A000FE96E1C
:10477000030EEA22100EEF6E016A080E015C15E2CC
:104780000150EA6AB20FE96E0E0EEA22EF50E66EB1
:1047900001014851482BEA6A000FE96E030EEA2234
:1047A000E552E750EF6E012AE8D7016A010E015C7D
:1047B00015E20150EA6AD40FE96E010EEA22EF50C9
:1047C000E66E01014851482BEA6A000FE96E030EBC
:1047D000EA22E552E750EF6E012AE8D7E66AE66A78
:1047E000560EE66E010EE66EF1EC2EF044E9010184
:1047F0007B8342E9E7CFD9FF1200D9CFE6FFE1CFB3
:10480000D9FF81E941E8016A050E015C42E20150ED
:104810000E0DF3CFE9FFF4CFEAFFBA0EE926020E40
:10482000EA220C0EE926000EEA22EF50800B2FE060
:1048300001500E0DF3CFE9FFF4CFEAFFBA0EE926DF
:10484000020EEA220C0EE926000EEA22EF50080BB7
:104850001EE001500E0DF3CFE9FFF4CFEAFFBA0ED0
:10486000E926020EEA22020EE926000EEA22EECF27
:1048700047F3EFCF48F3010156510301471904E113
:10488000010157510301481902E1015004D0012AE6
:10489000BBD7FF0E00D042E9E7CFD9FF1200D9CF36
:1048A000E6FFE1CFD9FF81E941E80101486B010151
:1048B0004851482BEA6A000FE96E030EEA22EF68BE
:1048C00001014851482BEA6A000FE96E030EEA2203
:1048D00000C1EFFF01014851482BEA6A000FE96E61
:1048E000030EEA22EF6A01014851482BEA6A000FE1
:1048F000E96E030EEA22EF6A01014851482BEA6A89
:10490000000FE96E030EEA225D0EEF6E01014851C1
:10491000482BEA6A000FE96E030EEA22410EEF6EA1
:10492000016A010E015C15E20150EA6AD40FE96EDA
:10493000010EEA22EF50E66E01014851482BEA6A67
:10494000000FE96E030EEA22E552E750EF6E012AEE
:10495000E8D7040EE66E030EE66E000EE66EE66A1B
:104960004B0EE66E010EE66EF0DC46E942E9E7CF5B
:10497000D9FF1200D9CFE6FFE1CFD9FF81E942E8A4
:10498000016A050E015C52E201500E0DF3CFE9FF02
:10499000F4CFEAFFBA0EE926020EEA220C0EE9264F
:1049A000000EEA22EF50800B3FE001500E0DF3CFD6
:1049B000E9FFF4CFEAFFBA0EE926020EEA220C0E56
:1049C000E926000EEA22EF50040B2EE0026A080EE0
:1049D000025C28E201500E0DF3CFE9FFF4CFEAFFAD
:1049E000BA0EE926020EEA22040EE926000EEA2299
:1049F000E9CF48F3EACF49F302500301EA6A4825B8
:104A0000E96E4951EA22EFCF47F30250EA6A4E0FAE
:104A1000E96E010EEA22EF500301475D01E004D088
:104A2000022AD5D7015004D0012AABD7FF0E00D0FF
:104A300043E9E7CFD9FF1200D9CFE6FFE1CFD9FF95
:104A400081E942E8016801015EA503D093DF016EB0
:104A500005D001015EA702D0D0DE016EFF0E015C21
:104A600002E1D6DC016EFF0E015C6EE001500E0D1E
:104A7000F3CFE9FFF4CFEAFFBA0EE926020EEA22ED
:104A80000C0EE926000EEA225EC1EFFF01015EA5D1
:104A90002AD0026A080E025C26E20250EA6A4E0F31
:104AA000E96E010EEA22EF50E66E01500E0DF3CFD3
:104AB000E9FFF4CFEAFFBA0EE926020EEA22040E5D
:104AC000E926000EEA22E9CF47F3EACF48F3025085
:104AD0000301EA6A4725E96E4851EA22E552E750A8
:104AE000EF6E022AD7D701015EA712D001500E0D3A
:104AF000F3CFE9FFF4CFEAFFBA0EE926020EEA226D
:104B0000020EE926000EEA2256C1EEFF57C1EDFF64
:104B100001500E0DF3CFE9FFF4CFEAFFBA0EE926FC
:104B2000020EEA2258C1EEFF59C1EDFF0150040DFB
:104B3000F3CFE9FFF4CFEAFF330EE926030EEA22B2
:104B4000EE6AEE6AEE6AEE6A015000D043E9E7CF02
:104B5000D9FF1200D9CFE6FFE1CFD9FF85E941E8BF
:104B6000056A080E055C16E205500224E96E000E87
:104B70000320EA6EEFCF47F305500024E96E000EE4
:104B80000120EA6EEF500301475D02E0000E04D001
:104B9000052AE7D7010E00D042E9E7CFD9FF12007E
:104BA000D9CFE6FFE1CFD9FF82E945E8056A030ED8
:104BB000055C17E2010EE66EFA0E0524E66E070E9E
:104BC000D88005540301486BB20F476F0E0E48237F
:104BD00047C3E6FF48C3E6FF92EC78F044E9052AB4
:104BE000E6D70E01B6690E01FE0EB56F056A030E1B
:104BF000055C17E2010EE66EFD0E0524E66E020E60
:104C0000D88005540301486BB20F476F0E0E48233E
:104C100047C3E6FF48C3E6FF92EC78F044E9052A73
:104C2000E6D7FEEC73F0010149694A6901014B695D
:104C30004C69056A050E055C11E205500E0DF3CFB7
:104C4000E9FFF4CFEAFFBA0EE926020EEA220C0EC3
:104C5000E926000EEA22EF6A052AECD7056A010E62
:104C6000055C09E20550EA6AC00FE96E000EEA220F
:104C7000EF6A052AF4D7056A080E055C09E20550BB
:104C8000EA6AC10FE96E000EEA22EF6A052AF4D73C
:104C90000101716B0101606B01015D6B01015F6BD3
:104CA00001017B6B0101006B4AEC79F00101486B5B
:104CB000056A050E055C10E20550040DF3CFE9FF0F
:104CC000F4CFEAFF330EE926030EEA22EE6AEE6A1B
:104CD000EE6AEE6A052AEDD7005001E1A9D0010E77
:104CE000E66EE66AD7C1E6FFD8C1E6FFBA0EE66E09
:104CF0000E0EE66EDBEC72F046E9200E0E01BA5D98
:104D000002E3000E88D1020EE66EE66ADFC1E6FF1E
:104D1000E0C1E6FF490EE66E010EE66EDBEC72F0D6
:104D200046E90101491D01E14A1D02E1000E73D16E
:104D3000020EE66EE66AD5C1E6FFD6C1E6FF4B0E6F
:104D4000E66E010EE66EDBEC72F046E9010EE66EF1
:104D5000E66AD9C1E6FFDAC1E6FFBB0EE66E0E0ECB
:104D6000E66EDBEC72F046E90E01BB510101030B6C
:104D7000F36EF346F346F346F346CF0E0015F310F9
:104D8000006F460EE66EE66ADBC1E6FFDCC1E6FFB9
:104D9000BA0EE66E020EE66EDBEC72F046E9010E2C
:104DA000E66EE66AE3C1E6FFE4C1E6FF4D0EE66E9D
:104DB000010EE66EDBEC72F046E9010EE66EE66A85
:104DC000E5C1E6FFE6C1E6FFC00EE66E000EE66E48
:104DD000DBEC72F046E9080EE66EE66AE7C1E6FF34
:104DE000E8C1E6FFD10EE66E000EE66EDBEC72F077
:104DF00046E9080EE66EE66AE9C1E6FFEAC1E6FFAB
:104E0000C90EE66E000EE66EDBEC72F046E9010EAE
:104E1000E66EE66AEBC1E6FFECC1E6FF710EE66EF8
:104E2000010EE66EDBEC72F046E901015D8383D092
:104E3000020EE66EE66AD5C1E6FFD6C1E6FF4B0E6E
:104E4000E66E010EE66E42EC73F046E9010EE66E88
:104E5000E66AD7C1E6FFD8C1E6FFBA0EE66E0E0ECF
:104E6000E66E42EC73F046E9010EE66EE66AD9C1E1
:104E7000E6FFDAC1E6FFBB0EE66E0E0EE66E42EC12
:104E800073F046E9460EE66EE66ADBC1E6FFDCC17A
:104E9000E6FFBA0EE66E020EE66E42EC73F046E9ED
:104EA000020EE66EE66ADFC1E6FFE0C1E6FF490EEC
:104EB000E66E010EE66E42EC73F046E9010EE66E18
:104EC000E66AE3C1E6FFE4C1E6FF4D0EE66E010EC1
:104ED000E66E42EC73F046E9056A010E055C09E2F4
:104EE0000550EA6AC00FE96E000EEA22EF6A052A51
:104EF000F4D7056A080E055C1EE2066A010E065C20
:104F000011E205500301486BD10F476F000E482393
:104F100006500301EA6A4725E96E4851EA22EF6A22
:104F2000062AECD70550EA6AC90FE96E000EEA229C
:104F3000EF68052ADFD7026A02960298029A028C6D
:104F4000028200500294E8B00284B20E036E0E0E8C
:104F5000046E02EBE6FF03EBE6FF04EBE6FFC8ECB2
:104F600047F043E9000902E1000E55D04B0EE66E12
:104F7000010EE66E490EE66E010EE66E87EC47F016
:104F800044E9BACEE6FF4FD841E9010100810101B1
:104F900000870E01BB510101030BF36EF346F3468C
:104FA000F346F346CF0E0015F310006F0101008D9C
:104FB000010171510101030BF36EF346F90E001567
:104FC000F310006F01015F6B55EC79F0FAC061F1ED
:104FD000FBC062F1FCC063F1FDC064F161C165F129
:104FE00062C166F163C167F164C168F1056A080EC8
:104FF000055C09E20550EA6A690FE96E010EEA22D2
:10500000EF6A052AF4D70101726BD6CF5CF1F292F8
:10501000F288010E00D046E9E7CFD9FF12000E0159
:10502000BA5100D01200D9CFE6FFE1CFD9FF82E913
:10503000E66A00EBE6FF0EEC47F042E9000912E0F9
:1050400000EBBAFE010EE66EE66AD7C1E6FFD8C1F4
:10505000E6FFBA0EE66E0E0EE66E42EC73F046E91F
:10506000010E02D0000E00D041E9E7CFD9FF1200B7
:10507000D9CFE6FFE1CFD9FF82E90050030801E272
:105080001DD000EBBBFE0E01BB510101030BF36E03
:10509000F346F346F346F346CF0E0015F310006FC8
:1050A000010EE66EE66AD9C1E6FFDAC1E6FFBB0E85
:1050B000E66E0E0EE66E42EC73F046E941E9E7CF8C
:1050C000D9FF1200D9CFE6FFE1CFD9FF86E94EE83C
:1050D000010E076E086A096A0A6A0E01BA510B6E60
:1050E000010E045C03E304500E0802E2000E50D1EE
:1050F000066A040E065C0DE206500F0DF3CFE9FFC1
:10510000F4CFEAFF0C0EE926010EEA22EF68062A28
:10511000F0D701010B6B01015D81066A200E065C70
:1051200001E32DD100EB47F301EB48F302EB49F328
:1051300003EB4AF30301476BF80E03014817070E10
:1051400003014A1707EB4BF308EB4CF309EB4DF364
:105150000AEB4EF306501F0B08E00301D8904B37C3
:105160004C374D374E37E806F9E103014B51030147
:10517000471703014C510301481703014D51030127
:10518000491703014E5103014A17030147514811C2
:1051900049114A1101E1F1D006EBE6FF44DF41E994
:1051A0000101486B01014851482BEA6A000FE96E82
:1051B000030EEA22070EEF6E01014851482BEA6AFE
:1051C000000FE96E030EEA22BACEEFFF0101586923
:1051D0005969E66A010EE66E000EE66EE66A580E42
:1051E000E66E010EE66EA5EC21F046E955EC79F08D
:1051F000FAC047F3FBC048F3FCC049F3FDC04AF3D3
:10520000030147510C6E48510D6E49510E6E4A51C3
:105210000F6E55EC79F0FAC04BF3FBC04CF3FCC0B9
:105220004DF3FDC04EF30C5003014B5D0D504C5936
:105230000E504D590F504E5924E355EC79F0FAC0F9
:105240004FF3FBC050F3FCC051F3FDC052F3D950F3
:105250000C0FE96EDACFEAFFEE5003014F5D030158
:10526000476FEE50030150590301486FEE500301A0
:1052700051590301496FEE500301525903014A6F1E
:105280005FD003015769586959695A69D9500C0FA1
:10529000E96EDACFEAFFEE500301575D0301536F69
:1052A000EE50030158590301546FEE500301595950
:1052B0000301556FEE5003015A590301566F53C352
:1052C000E6FF54C3E6FF55C3E6FF56C3E6FF55ECC1
:1052D00079F0E552E7CF56F3E552E7CF55F3E552C3
:1052E000E7CF54F3E552E7CF53F3FAC05BF3FBC0CB
:1052F0005CF3FCC05DF3FDC05EF303015B51030191
:10530000532703015C510301542303015D51030141
:10531000552303015E510301562353C347F354C37E
:1053200048F355C349F356C34AF30301472B000E14
:1053300003014823000E03014923000E03014A2301
:105340000450040DF3CFF6FFF4CFF7FF580EF62606
:10535000F40EF7220900F5500301475D0900F550EE
:1053600048590900F55049590900F5504A5905E2D4
:1053700014DB000901E01ADB4CD7062ACFD60BEB71
:10538000E6FF51DE41E901015D9101010B5100D0C1
:105390004FE9E7CFD9FF1200D9CFE6FFE1CFD9FF20
:1053A00083E94EE8030E046E0F68810E106E000450
:1053B00013E12EEC22F001017BA305D0EEDA000907
:1053C00001E0F4DAF8D701017BA103D001017C519F
:1053D000E0D2FF0EDED2DBD2005001E0D8D2FF0EC9
:1053E000015C5DE10301010E476F486B496B4A6B3D
:1053F0000E01BA511F0B08E00301D8904737483718
:1054000049374A37E806F9E147C3E6FF48C3E6FFF4
:1054100049C3E6FF4AC3E6FF0A0EE66E53DE45E9DE
:10542000000902E0000E01D0010E056E055005E0F6
:10543000040602E1FF0EADD2D5D7016A066A055017
:10544000065C25E206500F0DF3CFE9FFF4CFEAFF2B
:105450000C0EE926010EEA220B0EE926000EEA22C6
:10546000EF50105C12E206500F0DF3CFE9FFF4CFBE
:10547000EAFF0C0EE926010EEA220B0EE926000EC9
:10548000EA22EF50106E86EB0FF0062AD8D7FF0EF7
:105490000F5C03E08FEB01F002D0FF0E7AD20150D7
:1054A0000F0DF3CFE9FFF4CFEAFF0C0EE926010E52
:1054B000EA22090EE926000EEA22EECF58F1EDCFDE
:1054C00059F101500F0DF3CFE9FFF4CFEAFF0C0EB5
:1054D000E926010EEA22EE52EFCF56F101500F0DF0
:1054E000F3CFE9FFF4CFEAFF0C0EE926010EEA2222
:1054F000EE52E92A000EEA22EFCF57F1FDEC23F03D
:1055000001014D6FFF0E01014D5D08E108EC22F035
:1055100001014D6FFF0802E1FF0E3BD201014D5129
:105520000E0DF3CFE9FFF4CFEAFFBA0EE926020E23
:10553000EA220C0EE926000EEA22EF6A01500F0D56
:10554000F3CFE9FFF4CFEAFF0C0EE926010EEA22C1
:10555000090EE926000EEA22EECF47F3EFCF48F31B
:1055600001014D510E0DF3CFE9FFF4CFEAFFBA0E62
:10557000E926020EEA2247C3EEFF48C3EDFF0150C1
:105580000F0DF3CFE9FFF4CFEAFF0C0EE926010E71
:10559000EA22EE52EF50E66E01014D510E0DF3CFAF
:1055A000E9FFF4CFEAFFBA0EE926020EEA22020E64
:1055B000E926000EEA22E552E750EF6E01500F0D8A
:1055C000F3CFE9FFF4CFEAFF0C0EE926010EEA2241
:1055D000EE52E92A000EEA22EF50E66E01014D512B
:1055E0000E0DF3CFE9FFF4CFEAFFBA0EE926020E63
:1055F000EA22020EE926000EEA22E92A000EEA2239
:10560000E552E750EF6E01014D510E0DF3CFE9FF6A
:10561000F4CFEAFFBA0EE926020EEA220C0EE926C2
:10562000000EEA22EF86056A010E055C3AE201509F
:105630000F0DF3CFE9FFF4CFEAFF0C0EE926010EC0
:10564000EA220E0EE926000EEA22E9CF49F3EACF5C
:105650004AF305500301EA6A4925E96E4A51EA22F4
:10566000EF50E66E01014D510E0DF3CFE9FFF4CF7F
:10567000EAFFBA0EE926020EEA220D0EE926000E16
:10568000EA22E9CF47F3EACF48F305500301EA6A7B
:105690004725E96E4851EA22E552E750EF6E052AA8
:1056A000C3D701014D510E0DF3CFE9FFF4CFEAFF4F
:1056B000BA0EE926020EEA220C0EE926000EEA22B4
:1056C000EF8201014D510E0DF3CFE9FFF4CFEAFF58
:1056D000BA0EE926020EEA220C0EE926000EEA2294
:1056E000EF8A01014D510E0DF3CFE9FFF4CFEAFF30
:1056F000BA0EE926020EEA220C0EE926000EEA2274
:10570000EF8001500F0DF3CFE9FFF4CFEAFF0C0E4D
:10571000E926010EEA22EFCFE6FF85DC41E901012F
:105720004D510E0DF3CFE9FFF4CFEAFFBA0EE92693
:10573000020EEA22EECF4BF1EDCF4CF1010156699A
:1057400057694B0EE66E010EE66E560EE66E010EC2
:10575000E66E87EC47F044E90101486B01014851CE
:10576000482BEA6A000FE96E030EEA22010EEF6E83
:1057700001014851482BEA6A000FE96E030EEA2244
:1057800000C1EFFF056A010E055C15E20550EA6AEB
:10579000D40FE96E010EEA22EF50E66E0101485186
:1057A000482BEA6A000FE96E030EEA22E552E75041
:1057B000EF6E052AE8D7080EE66E010EE66E0101CF
:1057C0004D510E0DF3CFE9FFF4CFEAFFBA0EE926F3
:1057D000020EEA22020EE926000EEA22E9CF47F382
:1057E000EACF48F347C3E6FF48C3E6FF01014D5146
:1057F0000E0DF3CFE9FFF4CFEAFFBA0EE926020E51
:10580000EA22E9CF49F3EACF4AF349C3E6FF4AC3A4
:10581000E6FFA5EC21F046E955EC79F0FAC047F334
:10582000FBC048F3FCC049F3FDC04AF303014751F4
:10583000076E4851086E4951096E4A510A6E0101BE
:105840004D510E0DF3CFE9FFF4CFEAFFBA0EE92672
:10585000020EEA220C0EE926000EEA22EF50100B8F
:1058600001E092D09AD8000901E0A0D855EC79F077
:10587000FAC047F3FBC048F3FCC049F3FDC04AF34C
:10588000030147510B6E48510C6E49510D6E4A5140
:105890000E6E07500B5C08500C5809500D580A50FA
:1058A0000E5822E30BEB4BF30CEB4CF30DEB4DF3EB
:1058B0000EEB4EF3D950070FE96EDACFEAFFEE5048
:1058C00003014B5D0301476FEE5003014C59030187
:1058D000486FEE5003014D590301496FEE5003012B
:1058E0004E5903014A6F42D0030153695469556907
:1058F0005669D950070FE96EDACFEAFFEE5003017F
:10590000535D03014F6FEE50030154590301506F73
:10591000EE50030155590301516FEE5003015659E2
:105920000301526FD9500B0FE96EDACFEAFF030182
:105930004F51EE240301476F03015051EE20030144
:10594000486F03015151EE200301496F0301525189
:10595000EE2003014A6F0301472B000E0301482389
:10596000000E03014923000E03014A23D880240EB0
:1059700003014755F40E4855000E4955000E4A558F
:1059800002E2FF0E06D05BD701014D5102D0FF0E9F
:1059900000D04FE9E7CFD9FF1200F8EC00F0010189
:1059A0005D51040B01E0010E00D0120001015D9574
:1059B000A4EC43F01200D9CFE6FFE1CFD9FF82E992
:1059C00000EBE6FF010EE66E06D842E900D041E9A1
:1059D000E7CFD9FF1200D9CFE6FFE1CFD9FF83E9A6
:1059E000BECE00F30301020E016F4BC102F34CC1A6
:1059F00003F30150020A0CE0010A06E0020A01E08A
:105A00000BD0030104690AD00301FE0E046F06D017
:105A10000301FD0E046F02D0000E37D003010569AB
:105A20004BC106F34CC107F349C108F34AC109F35E
:105A300001015C515C2B03010A6F0101966B0101AE
:105A40009685005001019697E8B096870101010EF6
:105A50009A6F4BC19BF14CC19CF148C1E6FF000E0F
:105A6000E66E030EE66E96C1E6FF97C1E6FF98C1AB
:105A7000E6FF99C1E6FF9AC1E6FF9BC1E6FF9CC124
:105A8000E6FFB5EC43F04AE900D041E9E7CFD9FFA2
:105A90001200D9CFE6FFE1CFD9FF84E941E8046ADB
:105AA0000050045C15E204500124E96E000E02204F
:105AB000EA6EEF50E66E01014851482BEA6A000F8A
