:0400000047EF00F0D6
:06000800148288EF00F0F5
:100018001480D8CF03F0E8CF04F0E0CF05F0FACF92
:1000280006F0FBCF07F0F0A81CEF00F01EEF00F081
:100038002AEF00F0F0A223EF00F025EF00F02AEFFE
:1000480000F038EC01F0897C3BEF00F0F0A62FEFD0
:1000580000F031EF00F03BEF00F0F0A036EF00F0D9
:1000680038EF00F03BEF00F03CEC01F0897E07C070
:10007800FBFF06C0FAFF05C0E0FF04C0E8FF03C0AD
:10008800D8FF1490100018EF01F0000E8D6E000ECE
:100098008C6E000E896E000E8A6E000E8B6EC70E77
:1000A800966E2F0E926E9368FB0E946E95680F0EE7
:1000B8000F01486F1D0E496FF19E000E426F000E32
:1000C800416F000E406F050E0E01E86F040EE76FDA
:1000D8001200D59CEC0ED76E290ED66ED650D7CF0F
:1000E8000AF00B6A0AC00BF00A6A0A10106E0B506D
:1000F800116EF294F28A840E086E020E096E1FECDD
:1001080001F0970ED56E1200FACF01F0FBCF02F086
:10011800F2AA91EF00F093EF00F09DEF00F0F2A447
:1001280098EF00F09AEF00F09DEF00F010EC01F06E
:100138008B7402C0FBFF01C0FAFF149211000C502F
:100148000D10D8B4AAEF00F0ACEF00F0B9EF00F052
:1001580002D8B9EF00F00500FA6E0C50FD6E0D5094
:10016800FE6EF850FF6EFA50120012000E500F107B
:10017800D8B4C1EF00F0C3EF00F0D0EF00F002D820
:10018800D0EF00F00500FA6E0E50FD6E0F50FE6EB7
:10019800F850FF6EFA501200120012501310D8B423
:1001A800D8EF00F0DAEF00F0E7EF00F002D8E7EF61
:1001B80000F00500FA6E1250FD6E1350FE6EF850F6
:1001C800FF6EFA5012001200F090F19A820E086E3B
:1001D800020E096E33EC01F0F086F092F198800E71
:1001E800086E020E096E2EEC01F0F088120024EC65
:1001F80001F029EC01F049EC00F0E8EC00F06DECBE
:1002080000F01200FBEC00F0F28EF28C00F000F02F
:100218000AEF01F047EF00F0F2941150D76E10C0CA
:10022800D6FFD1EC00F0120014901492000EF86E74
:10023800000106EF01F008C012F009C013F0120027
:10024800780ED36E9B8CC0901200D08EF184F09EF5
:10025800F09C120008C00CF009C00DF0120008C094
:100268000EF009C00FF01200F092A3EC00F012009B
:0E027800F090BAEC00F012001200120012001A
:08FFF80088F5DAFBFFF9FFF1C7
:00000001FF
