:0400000045EF00F0D8
:06000800168247EF00F034
:100018001680D8CF03F0E8CF04F0E0CF05F0FACF90
:1000280006F0FBCF07F0F0A61CEF00F01EEF00F083
:1000380029EF00F0F0A023EF00F025EF00F029EF02
:1000480000F06BEC01F039EF00F0F0A82EEF00F0B3
:1000580030EF00F039EF00F0F0A235EF00F037EFA5
:1000680000F039EF00F067EC01F007C0FBFF06C0B5
:10007800FAFF05C0E0FF04C0E8FF03C0D8FF1690F0
:1000880010003CEF01F0FACF01F0FBCF02F0F2AA2A
:1000980050EF00F052EF00F05DEF00F0F2A457EFE0
:1000A80000F059EF00F05DEF00F034EC01F06DEF77
:1000B80000F0F2A862EF00F064EF00F06DEF00F0DE
:1000C800F2A269EF00F06BEF00F06DEF00F06FEC5B
:1000D80001F002C0FBFF01C0FAFF16921100000EEA
:1000E8008D6E000E8C6E000E896E000E8A6E000EEC
:1000F8008B6EC70E966EEF0E926E93689468956835
:100108000F0E0F01486F150E496FF18E000E426FEA
:10011800000E416F000E406F050E0E01E86F040ED1
:10012800E76F1200F292F19CEC0E086E020E096E57
:1001380062EC01F0F288F090F19AE80E086E020E77
:10014800096E5DEC01F0F086F092F198E60E086E0B
:10015800020E096E58EC01F0F0881200D59CF00EE2
:10016800D76E5F0ED66ED650D7CF0AF00B6A0AC08C
:100178000BF00A6A0A10126E0B50136EF294F28A90
:10018800EA0E086E020E096E49EC01F0900ED56E6B
:1001980012000C500D10D8B4D4EF00F0D6EF00F0D8
:1001A800E3EF00F002D8E3EF00F00500FA6E0C5020
:1001B800FD6E0D50FE6EF850FF6EFA5012001200E0
:1001C8000E500F10D8B4EBEF00F0EDEF00F0FAEF9F
:1001D80000F002D8FAEF00F00500FA6E0E50FD6E3E
:1001E8000F50FE6EF850FF6EFA50120012001450B5
:1001F8001510D8B402EF01F004EF01F011EF01F08F
:1002080002D811EF01F00500FA6E1450FD6E15507A
:10021800FE6EF850FF6EFA501200120010501110C6
:10022800D8B419EF01F01BEF01F028EF01F002D864
:1002380028EF01F00500FA6E1050FD6E1150FE6EA9
:10024800F850FF6EFA501200120053EC01F073ECF4
:1002580000F04EEC01F096EC00F0B2EC00F0120069
:10026800F2941350D76E12C0D6FFFBEC00F01200C8
:1002780016901692000EF86E000143EF01F029EC7B
:1002880001F045EF01F045EF00F008C014F009C097
:1002980015F01200780ED36E9B8CC0901200D08E91
:1002A800F184F09CF09E120008C00CF009C00DF01B
:1002B800120008C00EF009C00FF0120008C010F0BC
:1002C80009C011F01200F092CDEC00F01200F0908D
:1002D800E4EC00F01200F29212EC01F012001200AD
:0602E800120012001200DA
:08FFF800ACF5DAFBFFF9FFF1A3
:00000001FF
